:03000000022003D8
:0C200300787FE4F6D8FD75812302204AA6
:0C000300000000000000000000000000F1
:0B2A3400EF1FAC0670011E4C70F62274
:10285700AB07AA06EB1BAE0270011A4E60097FAAEE
:082867007E05122A3480ED22E7
:101C4800907120E04480F07F057E00122A34E4FF82
:101C5800FE12285775A75575AC5C9071327450F018
:101C68009071307403F0907136742FF090715C7439
:101C780003F090715BE054FCF07F18EF2466FDE4FC
:101C880034718D82F583E4F00FEFB433EE90401198
:101C9800E4935407FF90711CE054F84FF0904017FC
:101CA800E493547FFF90711DE054804FF0904010F2
:101CB800E493FF5401C43333335480FE907123E01E
:101CC800547F4EF0EFC313543F4440FFA3E05480C9
:101CD8004FF0904012E493FF540FFE907146E05489
:101CE800F04EF0EFC4540FFF90714FE054F04FF0F6
:101CF800904013E493543FFF907140E054C04FF07C
:101D0800904014E493907126F0904015E4939071FC
:0B1D180028F0904016E49390712AF030
:011D2300229D
:1029050078D2E254FBF2E24404F2907187E4F0D20B
:0229150091220D
:10002D0078D2E254FBF2E24404F2907187E4F07866
:0D003D00D0E24402F208E24402F2D2912225
:1027C90078D2E254EFF2E24410F2907188E4F078A2
:0D27D900D0E24404F208E24404F2D292225D
:1027E60078C2E254FBF2E24404F290717FE4F0789E
:0D27F600C0E24402F208E24402F2C2812275
:10294A0078C2E254BFF2E24440F2907181E4F0228C
:1028030078E3E254EFF2E24410F2907194E4F0784A
:0D281300E0E24440F208E24440F2C2A62296
:0D29980078C3E254CFF278C0E24440F2224E
:0D29A50078C3E2543FF278C0E24480F22291
:0D29B20078D2E254FCF278D0E24401F22227
:0D29BF0078D2E2543FF278D0E24408F222D0
:0D29CC0078D3E254FCF278D0E24410F222FD
:0D29D90078E2E254F3F278E0E24402F222E8
:0D29E60078E2E254CFF278E0E24404F222FD
:0D29F30078E2E2543FF278E0E24408F2227C
:0D2A000078E3E254F3F278E0E24420F222A1
:0D2A0D0078E3E2543FF278E0E24480F222E8
:0D2A1A0078F2E254FCF278F0E24401F2227E
:07192C004460C70000000049
:1025C200E5B154F342B153A8DFD2AF7892E4F208F6
:1025D200F27890E254E3F2E2441CF2E254FCF2E2BA
:1025E2004401F208E2547FF2E24420F27895740149
:1025F200F2187476F27890E2541FF2E244A0F222CA
:10295A007890E2541FF2E244C0F243A820D2AF2298
:1028C9007890E2541FF2E244A0F27892E4F208F21E
:0428D90053A8DF22FF
:03001E0002245663
:10245600C0E0C0F0C083C082C0D075D000C000C04C
:1024660004C005C006C0077891E230E71DE244804B
:10247600F29060C7120DDCEF2401FFE43EFEE43D5E
:10248600FDE43CFC9060C7120DF4D007D006D005E1
:0F249600D004D000D0D0D082D083D0F0D0E032AC
:10260200E5B154CF42B153A8BFD2AF789EE4F208ED
:10261200F2789CE254E3F2E2441CF2E254FCF2E26D
:102622004401F208E2547FF2E24420F278A17401FC
:10263200F2187476F2789CE2541FF2E244A0F2227D
:10296A00789CE2541FF2E244C0F243A840D2AF225C
:1028DD00789CE2541FF2E244A0F2789EE4F208F2F2
:0428ED0053A8BF220B
:03002100021DEBD2
:101DEB00C0E0C0F0C083C082C0D075D000C000C0BE
:101DFB0001C002C003C004C005C006C007789DE245
:101E0B0020E703021E96E24480F274FFFFFEFDFC06
:101E1B009060C3120DE8C3120DA550199060C31248
:101E2B000DDCEF2401FFE43EFEE43DFDE43CFC90C1
:101E3B0060C3120DF474FFFFFEFDFC9060AF120D3A
:101E4B00E8C3120DA550199060AF120DDCEF240101
:101E5B00FFE43EFEE43DFDE43CFC9060AF120DF46C
:101E6B0074FFFFFEFDFC9060BB120DE8C3120DA5C5
:101E7B0050199060BB120DDCEF2401FFE43EFEE431
:101E8B003DFDE43CFC9060BB120DF4D007D006D0B6
:101E9B0005D004D003D002D001D000D0D0D082D056
:061EAB0083D0F0D0E0320C
:071933004460CB000000003E
:1024F200E5B254FC42B253A9FED2AF907102E4F0AD
:10250200A3F0907100E054E3F0E0441CF0E054FCCE
:10251200F0E04401F0A3E0547FF0E04420F0907139
:10252200057401F09071047476F0907100E0541F0C
:06253200F0E044A0F022DD
:10291700907100E0541FF0E044C0F043A901D2AF2A
:01292700228D
:10288700907100E0541FF0E044A0F0907102E4F072
:06289700A3F053A9FE228C
:030024000223B6FE
:1023B600C0E0C0F0C083C082C0D075D000C000C0ED
:1023C60004C005C006C007907101E030E71DE04477
:1023D60080F09060CB120DDCEF2401FFE43EFEE4BA
:1023E6003DFDE43CFC9060CB120DF4D007D006D046
:1023F60005D004D000D0D0D082D083D0F0D0E03247
:07193A004460CF0000000033
:10253800E5B254F342B253A9FDD2AF90710AE4F068
:10254800A3F0907108E054E3F0E0441CF0E054FC80
:10255800F0E04401F0A3E0547FF0E04420F09071F3
:102568000D7401F090710C7476F0907108E0541FAE
:06257800F0E044A0F02297
:10292800907108E0541FF0E044C0F043A902D2AF10
:01293800227C
:10289D00907108E0541FF0E044A0F090710AE4F04C
:0628AD00A3F053A9FD2277
:03002700022406AA
:10240600C0E0C0F0C083C082C0D075D000C000C09C
:1024160004C005C006C007907109E030E71DE0441E
:1024260080F09060CF120DDCEF2401FFE43EFEE465
:102436003DFDE43CFC9060CF120DF4D007D006D0F1
:1024460005D004D000D0D0D082D083D0F0D0E032F6
:071941004460D30000000028
:10286F0043A90475D11075E67F75E7BB75DA1C7542
:08287F00DF2075DE01D2AF225B
:03002A000224A508
:1024A500C0E0C0F0C083C082C0D075D000C000C0FD
:1024B50004C005C006C007E5EE30E51C43E22090E8
:1024C50060D3120DDCEF2401FFE43EFEE43DFDE4A4
:1024D5003CFC9060D3120DF4D007D006D005D00493
:0D24E500D000D0D0D082D083D0F0D0E03233
:10234E00726563762074696D65206F757421200A3D
:10235E0000666F726D6174206C656E20696E7661B9
:10236E006C6964210A00256420202564200A00720D
:10237E0065637620637263206F72206C656E2065D4
:10238E00727221200A0025327820000A3D3D3D3D23
:10239E003D3D3D3D3D3D3D3D3D3D3D3D3D3D3D3D5F
:0823AE003D3D3D3D3D3D0A00AF
:101948005E6036000000000000000000000000009B
:10195800000000000000000000000000000000007F
:101968000043605400000043605800000043605C7E
:10197800000000C11C416057004160310041605BBC
:08198800004460320000000081
:0E298A0090602DEFF0122A2790602DE0FF22C2
:1026FD0078D2E2F2E24404F2907187E04404F09063
:10270D007175E0440BF043AA20D2AF75D60175D593
:05271D009F75D211229E
:03004B0002152279
:10152200C0E0C0F0C083C082C0D075D000C000C08F
:0D15320001C002C003C004C005C006C00710
:10153F0090602EE4F0E5D420E50302167EE5D7F0A7
:10154F00201C04E0B4A50990605BE0C39403400342
:10155F0002167190602EE0B4A51BD21C906031E48E
:10156F00F0906057F01228C99060C7120E0000006B
:10157F00000012295A906031E0B4010890602EE00B
:10158F00906057F0906032120DDC74582FF582E4A2
:10159F003460F583E0600302167E90602EE0FF90CA
:1015AF006032120DE890603675F00AEB120E31EAD8
:1015BF0075F00AA42583F583C083C082906031E063
:1015CF00FE04F0D082D083E5822EF582E43583F5D8
:1015DF0083EFF09060C7120E00000000009060577C
:1015EF00E0700302167EE0FF906031E06F6003024F
:1015FF00167E906057E0FB906032120DDC74542F12
:10160F00F582E43460F583EBF0C21C906031E4F0B6
:10161F00906057F0906032120DDC74582FF582E411
:10162F003460F5837401F090605BE004F0906032F9
:10163F00120DDCEF2401FFE43EFEE43DFDE43CFC33
:10164F00906032120DF4E47F03FEFDFC90603212C5
:10165F000DE8C3120DA5400A906032120E00000073
:0F166F0000001228C99060C7120E000000000092
:10167E00D007D006D005D004D003D002D001D000C0
:0B168E00D0D0D082D083D0F0D0E0326A
:0D2A2700E5D430E4FB8FD7E5D430E4FB228A
:062722009060D7120E5D6D
:10272800E4FEEEC39D50159060D7120E3D8E827563
:0C2738008300120C0BFF122A270E80E613
:012744002272
:10134100E4906000F0A3F0C2127F0AFEFDFC906001
:10135100C7120DE8D3120DA540211228C99060C70C
:10136100120E0000000000E4906031F0906057F030
:10137100C21C7BFF7A23794E0208F8E4906000F0EA
:10138100906000E0FFC39403400302152174582FBD
:10139100F582E43460F583E0700302151890600073
:1013A100E075F00AA42437F582E43460F583E0FEA9
:1013B10074542FF582E43460F583E06E70030214F7
:1013C100427BFF7A23795F1208F87BFF7A237974D5
:1013D100906000E02454F582E43460F583E0FFE49A
:1013E100FCFDFE906008120DF4906000E075F00ABB
:1013F100A42437F582E43460F583E0FFE4FCFDFECC
:1014010090600C120DF41208F8122113906000E0A4
:10141100FF2458F582E43460F583E4F090605BE0EA
:1014210014F090000AC083C0827D00EF75F00AA419
:101431002436F9746035F0FA7B01D007D006020E2C
:011441006644
:10144200E4906002F0906001F0A3F0906000E0FF91
:101452002454F582E43460F583E014FE906002E0E7
:10146200FDC39E5026EF75F00AA42436F582E434BB
:1014720060F583E5822DF582E43583F583E0FF9004
:101482006001E02FF0A3E004F080C0906001E0F082
:10149200906000E0FF2454F582E43460F583E0FEBE
:1014A200EF75F00AA42435F582E43460F583E58211
:1014B2002EF582E43583F583E0FF906001E06F60F2
:0314C20002D21241
:1014C5003012407BFF7A23797D1208F8C2129060B2
:1014D50000E0FF2458F582E43460F583E4F0906081
:1014E5005BE014F090000AC083C0827D00EF75F0C8
:1014F5000AA42436F9746035F0FA7B01D007D006CA
:10150500120E66906000E0245CF582E43460F58399
:0C1515007401F0906000E004F00213810B
:0115210022A7
:10257E00745C2FF582E43460F583E4F074542FF527
:10258E0082E43460F583E4F074582FF582E434600D
:10259E00F583E4F0F58375820AC083C082FDEF7582
:1025AE00F00AA42436F9746035F0FA7B01D007D016
:0425BE0006020E669D
:10211300E4906003F0A3F0906003F0906003E0FFAD
:10212300C394035060EF2430FF122A277F0A122A38
:1021330027E4A3F0906004E0FFC3940A50367BFFCA
:102143007A237994906003E075F00AA42436F5822B
:10215300E43460F583E5822FF582E43583F583E08B
:10216300FF906008E4F0A3EFF01208F8906004E039
:1021730004F080C07BFF7A2379991208F8906003FA
:05218300E004F080966D
:012188002234
:051990004260DA0000D6
:1027890078C2E24403F2E2440CF2907123E054D897
:10279900F0E054BFF0E0441EF09071227407F0227B
:10282000EF24FE600804700E759904800375990505
:0D2830007869E24448F27F017E00022857DB
:102745007869E24401F2786BE230E1FA7402F2AFA3
:1027550093EF75F010A4FFAEF0E594C4540FFDEFB0
:032765004DFF2203
:101B5900E4906002F0A3F0A3120E0000000000E47C
:101B6900906008F0A3F074FFA3F0A3F0E4A3F0F0F1
:101B7900122745906002EEF0A3EFF090600CE0C3ED
:101B890094024054906008E0FEA3E0FF906002E0F8
:101B9900FCA3E0FDD39FEC9E4008906008ECF0A305
:101BA900EDF090600AE0FEA3E0FFC3ED9FEC9E50CC
:101BB9000F906002E0FFA3E090600ACFF0A3EFF07E
:101BC900906004120DE8906002E0FEA3E0FFE4FCDF
:101BD900FD120C60A3120DF490600CE004F0E0C358
:101BE9009414408C906004120DDCC006C00790600C
:101BF90008E0FEA3E0FBAA06E4F9F8D007D0061234
:101C09000C6D906004120DF4906004120DDCC00696
:101C1900C00790600AE0FEA3E0FBAA06E4F8D0073B
:101C2900D006120C6D906004120DF4906004120D30
:0E1C3900DC7804120DB6906002EEF0A3EFF01E
:011C4700227A
:1029390075AF3F8FAF75AEB975A402E5A530E1FB60
:01294900226B
:10264200906005120E5D75AF3F8FAF906008E0C3DA
:1026520094014022E5A530E0FB906005E475F001AD
:10266200120E46120BF2F5A675AEB975A401906072
:0726720008E014F080D522FE
:10267900906001120E5D906004E06027AE070FEED6
:102689002400FDE4343F8D82F583E493FE906001DC
:10269900E475F001120E46EE120C38906004E01455
:0426A900F080D322C8
:030012000221893F
:10218900C0E0C0F0C083C082C0D075D000C000C01C
:0D21990001C002C003C004C005C006C0079D
:1021A60078C6E290602FF0E030E22B74FFFFFEFD70
:1021B600FC9060A7120DE8C3120DA550199060A7F8
:1021C600120DDCEF2401FFE43EFEE43DFDE43CFCA1
:0D21D6009060A7120DF490602FE078C6F223
:1021E300D007D006D005D004D003D002D001D00050
:0B21F300D0D0D082D083D0F0D0E032FA
:030015000221FEC7
:1021FE00C0E0C0F0C083C082C0D075D000C000C0A7
:0D220E0001C002C003C004C005C006C00727
:10221B0078D6E2906030F0E030E22B74FFFFFEFDE9
:10222B00FC9060BF120DE8C3120DA550199060BF52
:10223B00120DDCEF2401FFE43EFEE43DFDE43CFC2B
:0D224B009060BF120DF4906030E078D6F284
:10225800D007D006D005D004D003D002D001D000DA
:0B226800D0D0D082D083D0F0D0E03284
:10283D0079656172202564206D6F6E746820256442
:0A284D0020646179202564200A0050
:1022E400E47FE87E03FDFC9060D3120DE8C3120D79
:1022F400A540569060D3120DDCC3EF94E8FFEE9432
:1023040003FEED9400FDEC9400FC9060D3120DF4F8
:1023140090606DE0C3943B50028021E490606DF0C6
:102324001228B390606CE0C3943B5002800EE4909A
:10233400606CF090606BE0C394175004E004F022EA
:0A234400E490606BF0A3F0A3F02218
:10208F00121C4875D9DD75D95590715EE054FEF07C
:10209F0075D9BB1227A91225C21226FD1227681265
:1020AF0026021226AD1226D512286F12294AD28384
:1020BF001227897BFF7A28793D906067E0FFA3E0C4
:1020CF00906008CFF0A3EFF0906069E0FF90600A96
:1020DF00E4F0A3EFF090606AE0FF90600CE4F0A3EF
:1020EF00EFF01208F812296A7F021228201204DC7E
:1020FF0012134112169912004E121F751217F31276
:04210F001A5380E4FB
:101995006022605F00000000000000000000000001
:1019A5000000000000000000000000000000000032
:0619B5000000000000002C
:1027A9007E007F227D007B017A60795F120E667B55
:1027B900017A60795F906004740FF0E4FF02267972
:1028B300E4FF1229397B017A60795F906008740F15
:0628C300F0E4FF022642D2
:050EB800906004EFF062
:100EBD00906009120E00000000007FA5122A2790F5
:100ECD006009120DDCEF24A5FFE43EFEE43DFDE4D8
:100EDD003CFC906009120DF4906004E0FF64016029
:100EED0028EF64026023EF6403601EEF6404601951
:100EFD00EF64056014EF6406600FEF6409600AEF9C
:100F0D00640A6005EF6411703D7F05122A27906019
:100F1D0004E0FF122A27906005120DDC122A27909B
:100F2D006009120DE8C000906005120DDC7E009086
:100F3D006004E02405FDE433CD2FFFEE3DFE339537
:100F4D00E0FDFC021118906004E0FF64076014EFEF
:100F5D006408600FEF640C600AEF640D6005EF64C8
:100F6D001070647F06122A27906004E0FF122A2772
:100F7D00906005120DDC7808120DB6122A279060CC
:100F8D0005120DDC122A27906009120DE8C000C071
:100F9D0002C003906005120DDC7808120DB67E00BC
:100FAD00906004E02406FDE433CD2FFBEE3DFAA363
:100FBD00120DDC7E00EB2FFFEE3AFE3395E0FDFCCB
:100FCD00D003D002021118906004E0FF640B60089A
:100FDD00EF640F600302106A7F07122A27906004E6
:100FED00E0FF122A27906005120DDC7810120DB665
:100FFD00122A27906005120DDC7808120DB6122A00
:10100D0027906005120DDC122A27906009120DE859
:10101D00C000C002C003906005120DDC7810120DE7
:10102D00B67E00906004E02407FDE433CD2FFBEE87
:10103D003DFAA3120DDC7808120DB67E00EB2FFBE6
:10104D00EE3AFA906005120DDC7E00EB2FFFEE3AC2
:10105D00FE3395E0FDFCD003D00202111890600420
:10106D00E0640E60030211237F08122A27906004AA
:10107D00E0FF122A27906005120DDC7818120DB6CC
:10108D00122A27906005120DDC7810120DB6122A67
:10109D0027906005120DDC7808120DB6122A2790E4
:1010AD006005120DDC122A27906009120DE8C000B0
:1010BD00C002C003906005120DDC7818120DB67ECB
:1010CD0000906004E02408FDE433CD2FFBEE3DFAE3
:1010DD00A3120DDC7810120DB67E00EB2FFBEE3A4D
:1010ED00FA906005120DDC7808120DB67E00EB2F1C
:1010FD00FBEE3AFA906005120DDC7E00EB2FFFEE51
:10110D003AFE3395E0FDFCD003D002D000120C6006
:10111D00906009120DF4906009120DDCE4FEFDFCE7
:10112D00906009120DF4906009120DDC122A277FD0
:06113D000A7E00022857A3
:102768001229D91229E61229F3122A00122A1A125A
:102778002A0D1229CC1229BF1229B21229A5022921
:0127880098B8
:101D240020A30C90607AE07011D20404F0800B9030
:101D3400607AE0B40104E4F0D20420A50990607B49
:101D4400E0700E04800890607BE0B40104E4F0D2FB
:101D54001020A20990607CE0700E04800890607CE2
:101D6400E0B40104E4F0D20E20A10990607DE0709B
:101D74000E04800890607DE0B40104E4F0D20920F0
:101D84008609906078E0605EE4805820870C90605B
:101D940078E0640160507401804920900C90607870
:101DA400E0640260417402803A20930C906078E011
:101DB400640360327403802B20940C906078E06498
:101DC4000460237404801C20A70C906078E06405F0
:101DD40060147405800D20B00D906078E064066096
:071DE400057406F0D20A228B
:1028F10063757220737065656420256C75206B6D3E
:042901002F680A0031
:1019BB004460AF000000004460A7000000004460DA
:1019CB00AB000000004460A2000000004160A600D4
:1026AD00E5B854F342B843A802D2AF78C2E254CF92
:1026BD00F278C0E24404F278C7E24404F278C4E24E
:0826CD0054CFF2E24420F22296
:1017F300906000120E0000000000E47F64FEFDFC18
:101803009060AF120DE8C3120DA5500302192B907F
:1018130060AF120DDCC3EF9464FFEE9400FEED9411
:1018230000FDEC9400FC9060AF120DF4E47F037EA6
:1018330007FDFC9060A7120DE8120C7BE47B40FAD5
:10184300F9F8120D06906000120DF49060A7120EC5
:1018530000000000009060AB120DDC906000120DE0
:10186300E8120C609060AB120DF4E47F24FEFDFCE3
:10187300906000120DE8120C7BE47B64FAF9F81215
:101883000D06E47B0AFAF9F8120D06906000120DBA
:10189300F49060A6E0C3940A5018E004F09060A2AC
:1018A300120DDC906000120DE8120C609060A20231
:1018B3000DF4E49060A6F09060A2120DDCE47B0AC4
:1018C300FAF9F8120D069060A2120DF49060A212BC
:1018D3000DDC906072120DF49060A2120E000000F5
:1018E3000000E4FFFEFDFC906072120DE8C3120DD0
:1018F300A560157BFF7A2879F1906072120DDC9058
:101903006008120DF41208F8E47FE77E03FDFC90F3
:101913006072120DE8D3120DA5400B906072120E87
:08192300000000000022D208C0
:01192B002299
:0E19DB004460C3000000004460BF0000000034
:1026D500E5B854CF42B843A804D2AF78D2E254CF7C
:1026E500F278D0E24404F278D7E24404F278D4E2F6
:0826F50054CFF2E24420F2226E
:101F7500906000120E0000000000E47F64FEFDFC8E
:101F85009060C3120DE8C3120DA540719060C31295
:101F95000DDCC3EF9464FFEE9400FEED9400FDECC0
:101FA5009400FC9060C3120DF4E47F587E02FDFCA2
:101FB5009060BF120DE8120C7BE47B10FAF9F81261
:101FC5000D06906000120DF49060BF120E00000027
:101FD5000000E47FFF7EFFFDFC906000120DE8C36A
:101FE500120DA5400A906000120E000000FFFF9040
:0D1FF5006000120DDC90606E120DF4D20140
:0120020022BB
:10297A0066756E5F696E666F5F736176652829009A
:1019E9004460BB000000004460B300000000446094
:0519F900B70000000032
:101A5300E47F307E75FDFC9060BB120DE8C3120D70
:101A6300A540169060BB120E00000000001228B3C0
:101A73007BFF7A29797A1208F8E47FE87E03FDFC7C
:101A83009060AB120DE8C3120DA540777F007ECAAC
:101A93007D9A7C3B90605F120DE8C3120DA550192F
:101AA30090605F120DDCEF2401FFE43EFEE43DFD98
:101AB300E43CFC90605F120DF47F407E427D0F7C1E
:101AC30000906063120DE8C3120DA5501990606376
:101AD300120DDCEF2401FFE43EFEE43DFDE43CFC9B
:101AE300906063120DF49060AB120DDCC3EF94E8C9
:101AF300FFEE9403FEED9400FDEC9400FC9060ABCC
:101B0300120DF49060B3120DE890605F120DDC12B9
:101B13000C6DE47B64FAF9F8C3120DA5500E9060C6
:101B23005F120DDC9060B3120DF4D2009060B71217
:101B33000DE8906063120DDC120C6DE47B64FAF91E
:101B4300F8C3120DA5500E906063120DDC9060B7C0
:051B5300120DF4D206A2
:011B5800226A
:1011430020666C61675F6765745F616C6C5F737465
:10115300617475730A0020666C61675F6765745F0D
:10116300676561720A0020666C61675F6765745F1B
:10117300626174746572790A0020666C61675F67E7
:1011830065745F6272616B650A0020666C61675FFC
:101193006765745F6C6566745F7475726E0A0020B0
:1011A300666C61675F6765745F72696768745F74B3
:1011B30075726E0A0020666C61675F6765745F68AD
:1011C3006967685F6265616D0A0020666C61675FCD
:1011D3006765745F6675656C200A0020666C6167DD
:1011E3005F6765745F746F74616C5F6D696C656173
:1011F3006765200A002063757220746F74616C2028
:101203006D696C6561676520256C75206D200A002A
:1012130020666C61675F6765745F7375625F746F87
:1012230074616C5F6D696C65616765200A0020639A
:10123300757220737562746F74616C206D696C656F
:1012430061676520256C75206D200A0020666C613E
:10125300675F616C7465725F64617465200A00790D
:10126300656172202564206D6F6E7468202564208B
:10127300646179202564200A0020666C61675F61E0
:101283006C7465725F74696D65200A00686F7572AE
:10129300202564206D696E202564207365632025F5
:1012A30064200A0020666C61675F6765745F766F10
:1012B3006C746167655F6F665F6261747465727990
:1012C300200A002063757220766F6C746167652055
:1012D3006F662062617474657279202575200A0037
:1012E30020666C61675F7365745F74656D705F6FB3
:1012F300665F77617465725F7761726E696E67208E
:101303000A0020666C61675F636C6561725F746F6E
:1013130074616C5F6D696C65616765200A002066A6
:101323006C61675F636C6561725F7375625F746F35
:0E13330074616C5F6D696C65616765200A000E
:1019FE00C10DC10AC103C104C110C10EC109C1018B
:101A0E00C108C10CC100C106C102C105C107C11187
:041A1E00C10BC10F28
:10169900E4906000F0F0906000E0FFC39403400321
:1016A9000217F2745C2FF582E43460F583E070036D
:1016B9000217E9906000E0FD75F00AA42438F5826C
:1016C900E43460F583E024D2601C14607424FD7056
:1016D9000302178E14700302179224136003021772
:1016E90094D20D021794D202ED75F00AA42439F5AB
:1016F90082E43460F583E0FEED75F00AA4243AF53E
:1017090082E43460F583E07C002400FFEC3E9060C5
:1017190067F0A3EFF0906000E0FF75F00AA4243BA6
:10172900F582E43460F583E0906069F0EF75F00AC2
:10173900A4243CF582E43460F583E090606AF0808B
:101749004AD205906000E0FF75F00AA42439F582B9
:10175900E43460F583E090606BF0EF75F00AA4243F
:101769003AF582E43460F583E090606CF0906000B3
:10177900E075F00AA4243BF582E43460F583E09037
:10178900606DF08006D20B8002D20F90605BE0D3CF
:1017990094004003E014F0906000E0FF245CF582BF
:1017A900E43460F583E4F074542FF582E43460F591
:1017B90083E4F074582FF582E43460F583E4F0FE95
:1017C9007F0AC006C007FD906000E075F00AA424F6
:1017D90036F9746035F0FA7B01D007D006120E662F
:0917E900906000E004F002169F7C
:0117F20022D4
:06004E00200D0302023D3B
:10005400906000120E0000000000C20D7BFF7A11B8
:1000640079431208F8906078E0FFE4FCFDFE9060AC
:1000740005120DF47F01120EB8906079E0FFE4FCE4
:10008400FDFE906005120DF47F02120EB890607AA6
:10009400E0FFE4FCFDFE906005120DF47F03120EF8
:1000A400B890607BE0FFE4FCFDFE906005120DF467
:1000B4007F04120EB890607CE0FFE4FCFDFE9060CB
:1000C40005120DF47F05120EB890607DE0FFE4FC8C
:1000D400FDFE906005120DF47F06120EB890606E5E
:1000E400120DDC906005120DF47F07120EB89060BB
:1000F40072120DDC906005120DF47F08120EB89098
:10010400607EE0FFE4FCFDFE906005120DF47F09C3
:10011400120EB890607FE0FFE4FCFDFE90600512D3
:100124000DF47F0A120EB8E47B64FAF9F890605F6C
:10013400120DDC120D06906005120DF47F0B120EE9
:10014400B8E47B64FAF9F8906063120DDC120D06D2
:10015400906005120DF47F0C120EB8906067E0FEFB
:10016400A3E0FFE4FCFD7810120DC9C004C005C073
:1001740006C007906069E0FFE4FCFDFE7808120DFC
:10018400C9D003D002D001D000120D98A804A9054B
:10019400AA06AB07A3E0FFE4FCFDFE120D989060F5
:1001A40000120DF4906000120DDC906005120DF445
:1001B4007F0E120EB890606CE0FFE4FCFDFE780840
:1001C400120DC9C004C005C006C00790606BE0FFF3
:1001D400E4FCFDFE7810120DC9D003D002D001D08A
:1001E40000120D98A804A905AA06AB0790606DE05B
:1001F400FFE4FCFDFE120D98906000120DF4906077
:1002040000120DDC906005120DF47F0F120EB890F1
:100214006076E0FEA3E0FFE4FCFD906005120DF4BF
:100224007F10120EB8906080E0FFE4FCFDFE906049
:0902340005120DF47F11120EB841
:10023D00300A1FC20A7BFF7A1179591208F89060B3
:10024D0078E0FFE4FCFDFE906005120DF47F0112D5
:10025D000EB830031FC2037BFF7A1179691208F8BB
:10026D00906079E0FFE4FCFDFE906005120DF47FD7
:10027D0002120EB830041FC2047BFF7A11797C1272
:10028D0008F890607AE0FFE4FCFDFE906005120D29
:10029D00F47F03120EB830101FC2107BFF7A117954
:1002AD008D1208F890607BE0FFE4FCFDFE90600588
:1002BD00120DF47F04120EB8300E1FC20E7BFF7AA2
:1002CD001179A21208F890607CE0FFE4FCFDFE902D
:1002DD006005120DF47F05120EB830091FC2097B9F
:1002ED00FF7A1179B81208F890607DE0FFE4FCFD0B
:1002FD00FE906005120DF47F06120EB8300102C299
:10030D0001300802C208300C1FC20C7BFF7A117934
:10031D00CD1208F890607EE0FFE4FCFDFE906005D4
:10032D00120DF47F09120EB830003AC2007BFF7A2D
:10033D001179DE1208F87BFF7A1179F890605F125F
:10034D000DDC906008120DF41208F8E47B64FAF9E4
:10035D00F890605F120DDC120D06906005120DF421
:10036D007F0B120EB830063AC2067BFF7A12791354
:10037D001208F87BFF7A127931906063120DDC90D0
:10038D006008120DF41208F8E47B64FAF9F8906035
:10039D0063120DDC120D06906005120DF47F0C1228
:1003AD000EB8300240C2027BFF7A12794F1208F864
:1003BD007BFF7A127962906067E0FFA3E09060089E
:1003CD00CFF0A3EFF0906069E0FF90600AE4F0A336
:1003DD00EFF090606AE0FF90600CE4F0A3EFF01294
:1003ED0008F81228B330053EC2057BFF7A12797CDE
:1003FD001208F87BFF7A12798F90606BE0FF9060A6
:10040D0008E4F0A3EFF090606CE0FF90600AE4F078
:10041D00A3EFF090606DE0FF90600CE4F0A3EFF0BF
:10042D001208F81228B3300739C2077BFF7A127908
:10043D00A71208F87BFF7A1279C6906076E0FFA3C9
:10044D00E0906008CFF0A3EFF01208F8906076E02E
:10045D00FEA3E0FFE4FCFD906005120DF47F101289
:10046D000EB830111FC2117BFF7A1279E31208F812
:10047D00906080E0FFE4FCFDFE906005120DF47FBE
:10048D0011120EB8300B22C20B90605F120E0000DD
:10049D000000009060AB120E00000000001228B3A7
:1004AD007BFF7A1379051208F8300F22C20F906086
:1004BD0063120E00000000009060AB120E000000F1
:0F04CD0000001228B37BFF7A1379211208F8225E
:101EB1006C6F6E672070726573730A0073686F725E
:101EC100742070726573730A006F6E65206C6566AD
:101ED100742070726573730A0074776F206C656685
:101EE100742070726573730A007468726565206C82
:101EF1006566742070726573730A006F6E65207277
:101F0100696768742070726573730A0074776F2053
:101F110072696768742070726573730A00746872FD
:101F210065652072696768742070726573730A0051
:101F310074776F206C656674206C6F6E67207072A9
:101F41006573730A0074776F207269676874206C17
:101F51006F6E672070726573730A006F6E65206C17
:101F610065667420636F6E74696E75652070726545
:041F710073730A007C
:101A22004160890058608A0001036C00020E1400B4
:101A3200030B2B000405DB000506D0000609374224
:101A42006083000044608500000000426081000065
:10227300E4FD906002F0A3F0ED25E025E0248CF569
:1022830082E43460F583E0FAA3E024CEFBEA34FF72
:10229300FAD3EF9BEE9A403BED25E025E0248CF545
:1022A30082E43460F583E0FAA3E02432FBE43AFAF3
:1022B300C3EF9BEE9A501CED25E025E0248AF582BE
:1022C300E43460F583E0FFA3E0906002CFF0A3EF76
:1022D300F080050DEDB406A0906002E0FEA3E0FFE0
:0122E30022D8
:1004DC00E4906000F0A3F0121B59906000EEF0A3C2
:1004EC00EFF0906000E0FEA3E0FF1222739060003A
:1004FC00EEF0A3EFF0906089E0600302059190604C
:10050C0083E0FEA3E0FF4E7011906000E0FDA3E0DD
:10051C00906083CDF0A3EDF08064906000E0FCA3CC
:10052C00E0B5074BEEB50447906085120DDCEF2467
:10053C0002FFE43EFEE43DFDE43CFC906085120DC0
:10054C00F4E47FEE7E02FDFC906085120DE8C31290
:10055C000DA5402A906085120E00000000007BFF64
:10056C007A1E79B11208F89060897402F0800F90AD
:10057C0060897404F07BFF7A1E79BD1208F87F0144
:10058C007E00122857906089E06404600302066DB7
:10059C00906083E07004A3E0640170167BFF7A1E08
:1005AC0079CA1208F8906005120E00000000410292
:1005BC000662906083E07004A3E0640270167BFF17
:1005CC007A1E79DA1208F8906005120E000000000D
:1005DC0040020662906083E07004A3E0640370152F
:1005EC007BFF7A1E79EA1208F8906005120E000063
:1005FC000000428061906083E07004A3E0640470AA
:10060C00157BFF7A1E79FC1208F8906005120E001B
:10061C00000000E48040906083E07004A3E0640577
:10062C0070157BFF7A1F790D1208F8906005120E79
:10063C000000000065801F906083E07004A3E064FC
:10064C000670187BFF7A1F791E1208F8906005124D
:10065C000E00000000E37F0D120EB8906089740547
:10066C00F0906089E064027064906083E0FEA3E027
:10067C00FF64014E6051EF64024E701A7BFF7A1FCB
:10068C0079311208F8906005120E00000000467FC8
:10069C000D120EB88031906083E0FEA3E0FF64037E
:1006AC004E6024EF64044E601EEF64054E70187BA0
:1006BC00FF7A1F79461208F8906005120E000000B0
:1006CC0000117F0D120EB89060897403F090608950
:1006DC00E064036003020820906000E0FEA3E0FFEA
:1006EC00906083E0FAA3E0FB6F7002EA6E60030295
:1006FC00081AA3120DDCEF2401FFE43EFEE43DFDDD
:10070C00E43CFC906085120DF4EB64014A70337F7D
:10071C0096FEFDFC906085120DE8C3120DA55003EA
:10072C00020811906085120E00000000007BFF7A19
:10073C001F795C1208F8906005120E000000004151
:10074C008057906083E07004A3E0640270177F967A
:10075C00FEFDFC906085120DE8C3120DA55003023E
:10076C000811020807906083E07004A3E064037032
:10077C002F7F96FEFDFC906085120DE8C3120DA52F
:10078C005003020811906085120E000000000090CA
:10079C006005120E00000000427F0D120EB880653D
:1007AC00906083E07004A3E0640470137F96FEFDF8
:1007BC00FC906085120DE8C3120DA54048803C905A
:1007CC006083E07004A3E0640570137F96FEFDFC6B
:1007DC00906085120DE8C3120DA54029801D906014
:1007EC0083E07004A3E06406701B7F96FEFDFC9012
:1007FC006085120DE8C3120DA5400A906085120E9B
:10080C0000000000007F017E0012285780069060D7
:10081C00897406F0906089E064066005E0640570F8
:01082C003E8D
:10082D00906000E07002A3E0701290608175F0019D
:10083D00120C4A7F017E001228578007E4906081D8
:10084D00F0A3F0C3906082E09432906081E0940058
:0E085D00400CE4F0A3F0906089E0FF7407F017
:10086B00906089E0B4071AE4906000F0A3F0906008
:10087B0083F0A3F0A3120E0000000000E490608947
:01088B00F07C
:01088C002249
:10200F0002208FE493A3F8E493A34003F68001F238
:10201F0008DFF48029E493A3F85407240CC8C333D2
:10202F00C4540F4420C8834004F456800146F6DFA1
:10203F00E4800B010204081020408090192CE47EEC
:10204F00019360BCA3FF543F30E509541FFEE49396
:10205F00A360010ECF54C025E060A840B8E493A35D
:10206F00FAE493A3F8E493A3C8C582C8CAC583CA88
:10207F00F0A3C8C582C8CAC583CADFE9DEE780BE40
:011A52000093
:100BF200BB010689828A83E0225002E722BBFE0201
:090C0200E32289828A83E4932233
:100C0B00BB010CE58229F582E5833AF583E022509E
:100C1B0006E92582F8E622BBFE06E92582F8E222E8
:0D0C2B00E58229F582E5833AF583E4932202
:100C3800BB010689828A83F0225002F722BBFE019B
:020C4800F32295
:100C4A00C5F0F8A3E028F0C5F0F8E5821582700235
:060C5A001583E038F022D2
:0D0C6000EF2BFFEE3AFEED39FDEC38FC22E3
:0E0C6D00C3EF9BFFEE9AFEED99FDEC98FC2282
:100C7B00E88FF0A4CC8BF0A42CFCE98EF0A42CFC18
:100C8B008AF0EDA42CFCEA8EF0A4CDA8F08BF0A496
:100C9B002DCC3825F0FDE98FF0A42CCD35F0FCEBF5
:100CAB008EF0A4FEA9F0EB8FF0A4CFC5F02ECD39BA
:0F0CBB00FEE43CFCEAA42DCE35F0FDE43CFC2227
:100CCA0075F008758200EF2FFFEE33FECD33CDCCE1
:100CDA0033CCC58233C5829BED9AEC99E582984064
:100CEA000CF582EE9BFEED9AFDEC99FC0FD5F0D641
:100CFA00E4CEFBE4CDFAE4CCF9A88222B800C1B96B
:100D0A000059BA002DEC8BF084CFCECDFCE5F0CBA8
:100D1A00F97818EF2FFFEE33FEED33FDEC33FCEBE1
:100D2A0033FB10D703994004EB99FB0FD8E5E4F99C
:100D3A00FA227818EF2FFFEE33FEED33FDEC33FC89
:100D4A00C933C910D7059BE99A4007EC9BFCE99A7D
:100D5A00F90FD8E0E4C9FAE4CCFB2275F010EF2FC2
:100D6A00FFEE33FEED33FDCC33CCC833C810D707C2
:100D7A009BEC9AE899400AED9BFDEC9AFCE899F8FD
:0E0D8A000FD5F0DAE4CDFBE4CCFAE4C8F92290
:0D0D9800EF4BFFEE4AFEED49FDEC48FC225A
:100DA500EB9FF5F0EA9E42F0E99D42F0E89C45F0A4
:010DB500221B
:100DB600E8600FECC313FCED13FDEE13FEEF13FF1B
:030DC600D8F1223F
:100DC900E8600FEFC333FFEE33FEED33FDEC33FC88
:030DD900D8F1222C
:0C0DDC00E0FCA3E0FDA3E0FEA3E0FF228A
:0C0DE800E0F8A3E0F9A3E0FAA3E0FB228E
:0C0DF400ECF0A3EDF0A3EEF0A3EFF02272
:100E0000A8828583F0D083D082120E17120E17129B
:100E10000E17120E17E473E493A3C583C5F0C583C0
:100E2000C8C582C8F0A3C583C5F0C583C8C582C83C
:010E3000229F
:0C0E3100A42582F582E5F03583F58322CC
:090E3D00E0FBA3E0FAA3E0F922B6
:100E4600F8E0FBA3A3E0F925F0F0E5821582700235
:070E56001583E0FA38F022D9
:090E5D00EBF0A3EAF0A3E9F02296
:10088D00E5082408F582E43460F583E0050822903C
:10089D006005301A03906008E475F001120E4602EF
:1008AD000BF22013E97F2ED2138018EF540F2490F2
:1008BD00D43440D4FF30170BEF24BFB41A005003CB
:1008CD002461FFE50960021509050CE50C700205B0
:1008DD000B301A0E906005E475F001120E46EF0212
:1008ED000C3802298A7403D21A8003E4C21AF5085F
:1008FD00906005120E5DE4F509F50BF50CE5096048
:10090D00077F201208D080F5750AFFC214C213C2EA
:10091D0015C216C218C219C21B12089CFF700D30E9
:10092D001A057F001208E1AF0CAE0B22B4255FC291
:10093D00D5C21712089CFF24D0B40A00501A75F0C6
:10094D000A780930D50508B6FF0106C6A426F6209B
:10095D00D5047002D21680D924CFB41A00EF5004FA
:10096D00C2E5D217020AE2D21480C6D21380C0D2D9
:10097D001580BCD2D580BAD21880B47F201208D091
:10098D002015077401B5090040F112088DFF1208FA
:10099D00D002090AD21BD219809512088DFB1208BC
:1009AD008DFA12088DF94A4B700679B37A0B7BFFDD
:1009BD0020152EE509602A7E008E82758300120CAB
:1009CD000B60060EEE650A70F0C2D5EBC0E0EAC012
:1009DD00E0E9C0E0EE120B29D0E0F9D0E0FAD0E06A
:1009ED00FB120BF2FF60AAEBC0E0EAC0E0E9C0E049
:1009FD001208D0D0E02401F9D0E03400FAD0E0FBA9
:100A0D00E50A0460DCD50AD980877BFF7A0B79254E
:100A1D00D215809C791080027908C219C21B8008FA
:100A2D00D2D5790A8004790AC2D5E50A047002F597
:100A3D000AE4FAFDFEFF12088DFC7B082014131248
:100A4D00088DFD7B1030130A12088DFE12088DFFE4
:100A5D007B20EC3382D592D55013C3E43013069F1F
:100A6D00FFE49EFEE42014039DFDE49CFCE4CBF822
:100A7D00C214EC700CCFCECDCCE824F8F870F38016
:100A8D0017C3EF33FFEE33FEED33FDEC33FCEB33E9
:100A9D00FB994002FB0FD8E9EB301405F8D0E0C408
:100AAD0048B214C0E00AEC4D4E4F78207B0070C266
:100ABD00EAB50A0040BCC0E0120B2BD0F0D0E0200C
:100ACD001404C4C0E0C4B214C0F01208B9D0F0D5FB
:100ADD00F0EB02090A120E9209A7530A2158097860
:100AED004C0974420A254F0A2D440A2D49098D439C
:080AFD000A33550A17460A17D7
:100B0500450A17470BD350097C2D09802E09A32BC5
:100B150009842309A1200BBC2A093C480000099B34
:100B25003F3F3F00790AA2D5201614301809B910A5
:100B3500020404B9080104A2D520190250010420B9
:100B450015689215B509005034C0E07F203016199C
:100B55007F30A21572197218500F120B82C215C27E
:100B650019C218C21B7F30800F301803E9C0E0128C
:100B750008D0301803D0E0F9D0E0B509CC3018170B
:100B85007F30B9100C1208D07F583017077F788056
:100B950003B908031208D03015057F2D0208D07F50
:100BA50020201BF87F2B2019F322921580CF286E69
:100BB500756C6C2900D21412088D3014F8C21478A3
:100BC5000930D50108F602093C2D50434958120851
:100BD5008D2403B405004001E4900BCE931208C1A7
:0D0BE500743A1208C1D216750904020A21E3
:100E6600EF4E6012EF60010EEDBB010B89828A83A3
:100E7600F0A3DFFCDEFA2289F05007F709DFFCA9B0
:0C0E8600F022BBFEFCF309DFFCA9F02207
:100E9200D083D082F8E4937012740193700DA3A3EF
:100EA20093F8740193F5828883E473740293686003
:060EB200EFA3A3A380DF03
:00000001FF
