:03000000022102D8
:0C210200787FE4F6D8FD758123022149A6
:0C000300000000000000000000000000F1
:0B2AC700EF1FAC0670011E4C70F622E1
:1028EC00AB07AA06EB1BAE0270011A4E60097FAA59
:0828FC007E05122AC780ED22BF
:101D3A00907120E04480F07F057E00122AC7E4FFFC
:101D4A00FE1228EC75A75575AC5C9071327450F090
:101D5A009071307403F0907136742FF090715C7446
:101D6A0003F090715BE054FCF07F18EF2466FDE409
:101D7A0034718D82F583E4F00FEFB433EE904011A5
:101D8A00E4935407FF90711CE054F84FF090401709
:101D9A00E493547FFF90711DE054804FF0904010FF
:101DAA00E493FF5401C43333335480FE907123E02B
:101DBA00547F4EF0EFC313543F4440FFA3E05480D6
:101DCA004FF0904012E493FF540FFE907146E05496
:101DDA00F04EF0EFC4540FFF90714FE054F04FF003
:101DEA00904013E493543FFF907140E054C04FF089
:101DFA00904014E493907126F0904015E49390710A
:0B1E0A0028F0904016E49390712AF03D
:011E150022AA
:1029860078D2E254FBF2E24404F2907187E4F0D28A
:0229960091228C
:10002D0078C2E254FBF2E24404F290717FE4F0787E
:0D003D00C0E24402F208E24402F2C2812255
:1029DD0078C2E254BFF2E24440F2907181E4F022F9
:1029980078E3E254EFF2E24410F2907194E4F0C26A
:0229A800A62265
:0D2A2B0078C3E254CFF278C0E24440F222BA
:0D2A380078C3E2543FF278C0E24480F222FD
:0D2A450078D2E254FCF278D0E24401F22293
:0D2A520078D2E2543FF278D0E24408F2223C
:0D2A5F0078D3E254FCF278D0E24410F22269
:0D2A6C0078E2E254F3F278E0E24402F22254
:0D2A790078E2E254CFF278E0E24404F22269
:0D2A860078E2E2543FF278E0E24408F222E8
:0D2A930078E3E254F3F278E0E24420F2220E
:0D2AA00078E3E2543FF278E0E24480F22255
:0D2AAD0078F2E254FCF278F0E24401F222EB
:07165C004460EE00000000F5
:10265500E5B154F342B153A8DFD2AF7892E4F20862
:10266500F27890E254E3F2E2441CF2E254FCF2E226
:102675004401F208E2547FF2E24420F278957401B5
:10268500F2187476F27890E2541FF2E244A0F22236
:1029ED007890E2541FF2E244C0F243A820D2AF2205
:10295E007890E2541FF2E244A0F27892E4F208F288
:04296E0053A8DF2269
:03001E000224E9D0
:1024E900C0E0C0F0C083C082C0D075D000C000C0B9
:1024F90004C005C006C0077891E230E71DE24480B8
:10250900F29060EE120FD0EF2401FFE43EFEE43DAD
:10251900FDE43CFC9060EE120FE8D007D006D00530
:0F252900D004D000D0D0D082D083D0F0D0E03218
:10269500E5B154CF42B153A8BFD2AF789EE4F2085A
:1026A500F2789CE254E3F2E2441CF2E254FCF2E2DA
:1026B5004401F208E2547FF2E24420F278A1740169
:1026C500F2187476F2789CE2541FF2E244A0F222EA
:1029FD00789CE2541FF2E244C0F243A840D2AF22C9
:10297200789CE2541FF2E244A0F2789EE4F208F25C
:0429820053A8BF2275
:0300210002191FA2
:10191F00C0E0C0F0C083C082C0D075D000C000C08E
:10192F0001C002C003C004C005C006C007789DE215
:10193F0020E703021A20E24480F274FFFFFEFDFC51
:10194F009060FE120FDCC3120F9950199060FE12B7
:10195F000FD0EF2401FFE43EFEE43DFDE43CFC909C
:10196F0060FE120FE874FFFFFEFDFC9060E2120FA5
:10197F00DCC3120F9950199060E2120FD0EF2401BF
:10198F00FFE43EFEE43DFDE43CFC9060E2120FE814
:10199F0074FFFFFEFDFC9060C1120FDCC3120F99A4
:1019AF0050199060C1120FD0EF2401FFE43EFEE406
:1019BF003DFDE43CFC9060C1120FE874FFFFFEFD9B
:1019CF00FC9060A0120FDCC3120F9950199060A009
:1019DF00120FD0EF2401FFE43EFEE43DFDE43CFC9A
:1019EF009060A0120FE874FFFFFEFDFC9060C6121E
:1019FF000FDCC3120F9950199060C6120FD0EF244D
:101A0F0001FFE43EFEE43DFDE43CFC9060C6120F96
:101A1F00E8D007D006D005D004D003D002D001D033
:0C1A2F0000D0D0D082D083D0F0D0E032C4
:071663004460F200000000EA
:10258500E5B254FC42B253A9FED2AF907102E4F019
:10259500A3F0907100E054E3F0E0441CF0E054FC3B
:1025A500F0E04401F0A3E0547FF0E04420F09071A6
:1025B500057401F09071047476F0907100E0541F79
:0625C500F0E044A0F0224A
:1029AA00907100E0541FF0E044C0F043A901D2AF97
:0129BA0022FA
:10291C00907100E0541FF0E044A0F0907102E4F0DC
:06292C00A3F053A9FE22F6
:030024000224496A
:10244900C0E0C0F0C083C082C0D075D000C000C059
:1024590004C005C006C007907101E030E71DE044E3
:1024690080F09060F2120FD0EF2401FFE43EFEE409
:102479003DFDE43CFC9060F2120FE8D007D006D095
:1024890005D004D000D0D0D082D083D0F0D0E032B3
:07166A004460F600000000DF
:1025CB00E5B254F342B253A9FDD2AF90710AE4F0D5
:1025DB00A3F0907108E054E3F0E0441CF0E054FCED
:1025EB00F0E04401F0A3E0547FF0E04420F0907160
:1025FB000D7401F090710C7476F0907108E0541F1B
:06260B00F0E044A0F02203
:1029BB00907108E0541FF0E044C0F043A902D2AF7D
:0129CB0022E9
:10293200907108E0541FF0E044A0F090710AE4F0B6
:06294200A3F053A9FD22E1
:0300270002249917
:10249900C0E0C0F0C083C082C0D075D000C000C009
:1024A90004C005C006C007907109E030E71DE0448B
:1024B90080F09060F6120FD0EF2401FFE43EFEE4B5
:1024C9003DFDE43CFC9060F6120FE8D007D006D041
:1024D90005D004D000D0D0D082D083D0F0D0E03263
:071671004460FA00000000D4
:1029040043A90475D11075E67F75E7BB75DA1C75AC
:08291400DF2075DE01D2AF22C5
:03002A0002253874
:10253800C0E0C0F0C083C082C0D075D000C000C069
:1025480004C005C006C007E5EE30E51C43E2209054
:1025580060FA120FD0EF2401FFE43EFEE43DFDE4F3
:102568003CFC9060FA120FE8D007D006D005D004E2
:0D257800D000D0D0D082D083D0F0D0E0329F
:1028890025327820000A3D3D3D3D3D3D3D3D3D3DE4
:102899003D3D3D3D3D3D3D3D3D3D3D3D3D3D3D3D5F
:0228A9000A0023
:101678005E6005000000000000000000000000009F
:101688000000000000000000000000000000000052
:101698000043602300000043602700000043602BE4
:1016A800000000C11B416026004160000041602A23
:0816B800004460010000000085
:0E2A1D00906109EFF0122ABA906109E0FF22E1
:1027F90078D2E2F2E24404F2907187E04404F09066
:102809007175E0440BF043AA20D2AF75D60175D596
:052819009F75D21122A1
:03004B000214E5B7
:1014E500C0E0C0F0C083C082C0D075D000C000C0CD
:0D14F50001C002C003C004C005C006C0074E
:101502009060B5E4F0E5D420E503021641E5D7F09A
:10151200201B04E0B4A50990602AE0C394034003B1
:101522000216349060B5E0B4A51BD21B906000E4B3
:10153200F0906026F012295E9060EE120FF4000027
:1015420000001229ED906000E0B401089060B5E05F
:10155200906026F0906001120FD074272FF582E47C
:101562003460F583E060030216419060B5E0FF90BD
:101572006001120FDC90600575F00AEB121025EA8B
:1015820075F00AA42583F583C083C082906000E0D1
:10159200FE04F0D082D083E5822EF582E43583F515
:1015A20083EFF09060EE120FF400000000906026CE
:1015B200E07003021641E0FF906000E06F600302FA
:1015C2001641906026E0FB906001120FD074232F29
:1015D200F582E43460F583EBF0C21B906000E4F026
:1015E200906026F0906001120FD074272FF582E4EC
:1015F2003460F5837401F090602AE004F090600199
:10160200120FD0EF2401FFE43EFEE43DFDE43CFC7A
:10161200906001120FE8E47F03FEFDFC906001126E
:101622000FDCC3120F99400A906001120FF4000000
:0F163200000012295E9060EE120FF4000000001D
:10164100D007D006D005D004D003D002D001D000FD
:0B165100D0D0D082D083D0F0D0E032A7
:0D2ABA00E5D430E4FB8FD7E5D430E4FB22F7
:0628430090610212105129
:10284900E4FEEEC39D50159061021210318E82751F
:0C2859008300120DFFFF122ABA0E80E669
:012865002250
:10136400E49060A8F0A3F0C21C7F0AFEFDFC90602C
:10137400EE120FDCD3120F99401912295E9060EE21
:10138400120FF400000000E4906000F0906026F07A
:10139400C21B22E49060A8F09060A8E0FFC394030D
:1013A40040030214E474272FF582E43460F583E0EB
:1013B40070030214DB9060A8E075F00AA42406F51B
:1013C40082E43460F583E0FE74232FF582E4346014
:1013D400F583E06E60349060A8E02427F582E4345D
:1013E40060F583E4F090602AE014F090000AC08372
:1013F400C0827D00EF75F00AA42405F9746035F00D
:0A140400FA7B01D007D00602108722
:10140E00E49060AAF09060A9F0A3F09060A8E0FFCD
:10141E002423F582E43460F583E014FE9060AAE0A4
:10142E00FDC39E5026EF75F00AA42405F582E43420
:10143E0060F583E5822DF582E43583F583E0FF9038
:10144E0060A9E02FF0A3E004F080C09060A9E0F066
:10145E009060A8E0FF2423F582E43460F583E0FE7B
:10146E00EF75F00AA42404F582E43460F583E58276
:10147E002EF582E43583F583E0FF9060A9E06F607E
:03148E0002D21C6B
:10149100301C37C21C9060A8E0FF2427F582E43499
:1014A10060F583E4F090602AE014F090000AC083B4
:1014B100C0827D00EF75F00AA42405F9746035F04F
:1014C100FA7B01D007D0061210879060A8E0242B88
:1014D100F582E43460F5837401F09060A8E004F0D3
:0314E10002139C57
:0114E40022E5
:10261100742B2FF582E43460F583E4F074232FF5F5
:1026210082E43460F583E4F074272FF582E43460AA
:10263100F583E4F0F58375820AC083C082FDEF75EE
:10264100F00AA42405F9746035F0FA7B01D007D0B3
:0426510006021087E6
:10220E00E4906105F0A3F0906105F0906105E0FFA8
:10221E00C394035060EF2430FF122ABA7F0A122AA9
:10222E00BAE4A3F0906106E0FFC3940A50367BFF38
:10223E007A287989906105E075F00AA42405F58263
:10224E00E43460F583E5822FF582E43583F583E08F
:10225E00FF906031E4F0A3EFF01207A3906106E067
:10226E0004F080C07BFF7A28798E1207A390610557
:05227E00E004F0809671
:012283002238
:0516C00042610700007B
:10281E0078C3E24403F2E2440CF218E2440CF29064
:10282E007123E054D8F0E054BFF0E0441EF09071F4
:05283E00227407F022E6
:10277B00EF24FE600F14601114601324037018759E
:10278B009904800D75990580087599018003E4F50E
:0E279B00997869E24448F27F017E000228EC42
:102866007869E24401F2786BE230E1FA7402F2AF81
:1028760093EF75F010A4FFAEF0E594C4540FFDEF8E
:032886004DFF22E1
:101C4B00E49060AAF0A3F0A3120FF400000000E4EC
:101C5B009060B0F0A3F074FFA3F0A3F0E4A3F0F056
:101C6B001228669060AAEEF0A3EFF09060B4E0C388
:101C7B00940240549060B0E0FEA3E0FF9060AAE0B5
:101C8B00FCA3E0FDD39FEC9E40089060B0ECF0A36A
:101C9B00EDF09060B2E0FEA3E0FFC3ED9FEC9E5031
:101CAB000F9060AAE0FFA3E09060B2CFF0A3EFF03B
:101CBB009060AC120FDC9060AAE0FEA3E0FFE4FCA6
:101CCB00FD120E54A3120FE89060B4E004F0E0C3D1
:101CDB009414408C9060AC120FD0C006C00790607B
:101CEB00B0E0FEA3E0FBAA06E4F9F8D007D0061299
:101CFB000E619060AC120FE89060AC120FD0C00672
:101D0B00C0079060B2E0FEA3E0FBAA06E4F8D007A0
:101D1B00D006120E619060AC120FE89060AC120FFF
:0E1D2B00D07804120FAA9060AAEEF0A3EFF099
:011D39002287
:1029CC0075AF3F8FAF75AEB975A402E5A530E1FBCD
:0129DC0022D8
:102710009060AD12105175AF3F8FAF9060B0E0C3C5
:1027200094014022E5A530E0FB9060ADE475F00136
:1027300012103A120DE6F5A675AEB975A4019060B7
:07274000B0E014F080D52287
:102747009060A91210519060ACE06027AE070FEEC1
:102757002400FDE4343F8D82F583E493FE9060A965
:10276700E475F00112103AEE120E2C9060ACE014F2
:04277700F080D322F9
:0300120002228443
:10228400C0E0C0F0C083C082C0D075D000C000C020
:0D22940001C002C003C004C005C006C007A1
:1022A10078C6E29060B6F0E030E22B74FFFFFEFDED
:1022B100FC9060BD120FDCC3120F9950199060BDE4
:1022C100120FD0EF2401FFE43EFEE43DFDE43CFCAF
:0D22D1009060BD120FE89060B6E078C6F294
:1022DE00D007D006D005D004D003D002D001D00054
:0B22EE00D0D0D082D083D0F0D0E032FE
:030015000222F9CB
:1022F900C0E0C0F0C083C082C0D075D000C000C0AB
:0D23090001C002C003C004C005C006C0072B
:1023160078D6E29060B7F0E030E52B74FFFFFEFD63
:10232600FC9060DE120FDCC3120F9950199060DE2C
:10233600120FD0EF2401FFE43EFEE43DFDE43CFC39
:0D2346009060DE120FE89060B7E078D6F2EC
:10235300D007D006D005D004D003D002D001D000DE
:0B236300D0D0D082D083D0F0D0E03288
:1023DF00E47FE87E03FDFC9060FA120FDCC3120F5E
:1023EF009940569060FA120FD0C3EF94E8FFEE9425
:1023FF0003FEED9400FDEC9400FC9060FA120FE8E0
:10240F00906064E0C3943B50028021E4906064F0DC
:10241F00122948906063E0C3943B5002800EE49011
:10242F006063F0906062E0C394175004E004F02200
:0A243F00E4906062F0A3F0A3F02225
:10218E00121D3A75D9DD75D95590715EE054FEF089
:10219E0075D9BB1228CC1226551227F91228AB126C
:1021AE0026951227A91227D11229041229DD1228E9
:1021BE001E1229FD78C1E24410F278C3E254FCF2FB
:1021CE00121FB87F0212277B120A9D122074121A58
:1021DE003B121B4E7F0312277B12004E7F041227E9
:1021EE007B121EE878C3E24403F27F0112277B12B2
:1021FE001E161213641217C51203D01223DF80B4F9
:1016C50060216056000000000000000000000000DE
:1016D5000000000000000000000000000000000005
:0516E500000000000000
:1028CC007E007F217D007B017A6079561210877B18
:1028DC00017A6079569060AC740FF0E4FF022747E0
:10294800E4FF1229CC7B017A6079569060B0740F4D
:06295800F0E4FF0227106D
:0510D9009060ACEFF097
:1010DE009060B1120FF4000000007FA5122ABA90A2
:1010EE0060B1120FD0EF24A5FFE43EFEE43DFDE417
:1010FE003CFC9060B1120FE89060ACE0FF640160C0
:10110E0028EF64026023EF6403601EEF640460192D
:10111E00EF64056014EF6406600FEF6409600AEF78
:10112E00640A6005EF6411703D7F05122ABA906063
:10113E00ACE0FF122ABA9060AD120FD0122ABA900C
:10114E0060B1120FDCC0009060AD120FD07E009027
:10115E0060ACE02405FDE433CD2FFFEE3DFE33956C
:10116E00E0FDFC0213399060ACE0FF64076014EF01
:10117E006408600FEF640C600AEF640D6005EF64A5
:10118E001070647F06122ABA9060ACE0FF122ABA81
:10119E009060AD120FD07808120FAA122ABA906082
:1011AE00AD120FD0122ABA9060B1120FDCC000C07F
:1011BE0002C0039060AD120FD07808120FAA7E0005
:1011CE009060ACE02406FDE433CD2FFBEE3DFAA398
:1011DE00120FD07E00EB2FFFEE3AFE3395E0FDFCB2
:1011EE00D003D0020213399060ACE0FF640B6008AC
:1011FE00EF640F600302128B7F07122ABA9060AC65
:10120E00E0FF122ABA9060AD120FD07810120FAA1A
:10121E00122ABA9060AD120FD07808120FAA122AB5
:10122E00BA9060AD120FD0122ABA9060B1120FDCD4
:10123E00C000C002C0039060AD120FD07810120F24
:10124E00AA7E009060ACE02407FDE433CD2FFBEEC8
:10125E003DFAA3120FD07808120FAA7E00EB2FFBD7
:10126E00EE3AFA9060AD120FD07E00EB2FFFEE3A01
:10127E00FE3395E0FDFCD003D0020213399060AC32
:10128E00E0640E60030213447F08122ABA9060AC29
:10129E00E0FF122ABA9060AD120FD07818120FAA82
:1012AE00122ABA9060AD120FD07810120FAA122A1D
:1012BE00BA9060AD120FD07808120FAA122ABA9007
:1012CE0060AD120FD0122ABA9060B1120FDCC000BE
:1012DE00C002C0039060AD120FD07818120FAA7E14
:1012EE00009060ACE02408FDE433CD2FFBEE3DFA18
:1012FE00A3120FD07810120FAA7E00EB2FFBEE3A3E
:10130E00FA9060AD120FD07808120FAA7E00EB2F64
:10131E00FBEE3AFA9060AD120FD07E00EB2FFFEE8F
:10132E003AFE3395E0FDFCD003D002D000120E54ED
:10133E009060B1120FE89060B1120FD0E4FEFDFC88
:10134E009060B1120FE89060B1120FD0122ABA7FDE
:06135E000A7E000228ECEB
:0716EA004460FE0000000057
:1028AB00122A6C122A79122A86122A93122AAD1234
:1028BB002AA0122A5F122A52122A45122A38022AF9
:0128CB002BE1
:101FB800E47F64FEFDFC9060FE120FDCC3120F99F3
:101FC800500302206B9060FE120FF40000000030F6
:101FD800A307E4906071F080069060717401F0D2FC
:101FE8000430A507E4906072F08006906072740176
:101FF800F0D21030A207E4906073F080069060730E
:102008007401F0D20E30A107E4906074F08006905D
:1020180060747401F0D209208607E490606FF08044
:102028004020870890606F7401F0803520900890F8
:10203800606F7402F0802A20930890606F7403F038
:10204800801F20940890606F7404F0801420A70803
:1020580090606F7405F0800920B00690606F740678
:0C206800F0D20A308403D28322C283220B
:1016F1004460C1000000004460BD0000000044607F
:09170100B8000000004160BC00CA
:1027A900E5B854F342B843A802D2AF78C2E254CF95
:1027B900F278C0E24404F278C7E24404F278C4E251
:0827C90054CFF2E24420F22299
:101A3B009060A8120FF400000000E47F64FEFDFC30
:101A4B009060C1120FDCC3120F995003021B4D9013
:101A5B0060C1120FD0C3EF9464FFEE9400FEED94BF
:101A6B0000FDEC9400FC9060C1120FE8E47F037E54
:101A7B0007FDFC9060BD120FDC120E6FE47B20FAA9
:101A8B00F9F8120EFA9060A8120FE89060BD120FD1
:101A9B00F4000000009060A4120FD09060A8120F09
:101AAB00DC120E549060A4120FE8E47F24FEFDFCC0
:101ABB009060A8120FDC120E6FE47B64FAF9F81237
:101ACB000EFAE47B0AFAF9F8120EFA9060A8120FDC
:101ADB00E89060BCE0C3940A5018E004F09060B842
:101AEB00120FD09060A8120FDC120E549060B80247
:101AFB000FE8E49060BCF09060B8120FD0E47B0A62
:101B0B00FAF9F8120EFA9060B8120FE89060B8125A
:101B1B000FD0906069120FE89060B8120FF40000BC
:101B2B000000E47FE77E03FDFC906069120FDCD3BD
:101B3B00120F99400B906069120FF4000000002205
:021B4B00D208BE
:011B4D002275
:0E170A004460E2000000004460DE00000000C9
:1027D100E5B854CF42B843A804D2AF78D3E254F35A
:1027E100F278D0E24420F278D7E24420F278D5E2C0
:0827F10054F3F2E24408F22265
:102074009060A8120FF400000000E47F64FEFDFCF1
:102084009060E2120FDCC3120F9940719060E2126B
:102094000FD0C3EF9464FFEE9400FEED9400FDECCA
:1020A4009400FC9060E2120FE8E47F587E02FDFC8D
:1020B4009060DE120FDC120E6FE47B10FAF9F81256
:1020C4000EFA9060A8120FE89060DE120FF4000080
:1020D4000000E47FFF7EFFFDFC9060A8120FDCC3CC
:1020E400120F99400A9060A8120FF40000FFFF90AD
:0D20F40060A8120FD0906065120FE8D201B5
:0121010022BB
:101718004460A0000000004460A400000000446091
:0C172800980000000044609C00000000DD
:101B4E00E47F307E75FDFC9060A0120FDCC3120F97
:101B5E0099400D9060A0120FF40000000012294869
:101B6E00E47FE87E03FDFC9060A4120FDCC3120F2D
:101B7E009940777F007ECA7D9A7C3B906056120F0B
:101B8E00DCC3120F995019906056120FD0EF24013A
:101B9E00FFE43EFEE43DFDE43CFC906056120FE88F
:101BAE007F407E427D0F7C0090605A120FDCC31284
:101BBE000F99501990605A120FD0EF2401FFE43E96
:101BCE00FEE43DFDE43CFC90605A120FE89060A4E8
:101BDE00120FD0C3EF94E8FFEE9403FEED9400FDD8
:101BEE00EC9400FC9060A4120FE8906098120FDC49
:101BFE00906056120FD0120E61E47B64FAF9F8C3AE
:101C0E00120F99500E906056120FD0906098120FCE
:101C1E00E8D20090609C120FDC90605A120FD01226
:101C2E000E61E47B64FAF9F8C3120F99500E9060BE
:0C1C3E005A120FD090609C120FE8D206E2
:011C4A002277
:10173400C10DC10AC103C104C110C10EC109C10157
:10174400C108C10CC100C106C102C105C107C11154
:04175400C10BC10FF5
:1017C500E49060A8F0F09060A8E0FFC394034003A4
:1017D50002191E742B2FF582E43460F583E0700343
:1017E5000219159060A8E0FD75F00AA42407F5829A
:1017F500E43460F583E024D2601C14607424FD7029
:10180500030218BA1470030218BE241360030218E9
:10181500C0D20D0218C0D202ED75F00AA42408F555
:1018250082E43460F583E0FEED75F00AA42409F541
:1018350082E43460F583E07C002400FFEC3E906098
:101845005EF0A3EFF09060A8E0FF75F00AA4240A0B
:10185500F582E43460F583E0906060F0EF75F00A9E
:10186500A4240BF582E43460F583E0906061F08098
:101875004AD2059060A8E0FF75F00AA42408F58215
:10188500E43460F583E0906062F0EF75F00AA4241B
:1018950009F582E43460F583E0906063F09060A818
:1018A500E075F00AA4240AF582E43460F583E0903B
:1018B5006064F08006D20B8002D20F90602AE0D3DC
:1018C50094004003E014F09060A8E0FF242BF5821B
:1018D500E43460F583E4F074232FF582E43460F595
:1018E50083E4F074272FF582E43460F583E4F0FE99
:1018F5007F0AC006C007FD9060A8E075F00AA42421
:1019050005F9746035F0FA7B01D007D0061210870F
:091915009060A8E004F00217CB79
:01191E0022A6
:0603D000200D030205A24E
:1003D6009060A8120FF400000000C20D90606FE05C
:1003E600FFE4FCFDFE9060AD120FE87F011210D90C
:1003F600906070E0FFE4FCFDFE9060AD120FE87FB8
:10040600021210D9906071E0FFE4FCFDFE9060AD31
:10041600120FE87F031210D9906072E0FFE4FCFD32
:10042600FE9060AD120FE87F041210D9906073E061
:10043600FFE4FCFDFE9060AD120FE87F051210D9B7
:10044600906074E0FFE4FCFDFE9060AD120FE87F63
:10045600061210D9906065120FD09060AD120FE8A9
:100466007F071210D9906069120FD09060AD120FFD
:10047600E87F081210D9906075E0FFE4FCFDFE905D
:1004860060AD120FE87F091210D9E47B64FAF9F81F
:10049600906056120FD0120EFA9060AD120FE87FE0
:1004A6000B1210D9E47B64FAF9F890605A120FD057
:1004B600120EFA9060AD120FE87F0C1210D9906000
:1004C6005EE0FEA3E0FFE4FCFD7810120FBDC00461
:1004D600C005C006C007906060E0FFE4FCFDFE7842
:1004E60008120FBDD003D002D001D000120F8CA885
:1004F60004A905AA06AB07A3E0FFE4FCFDFE120F64
:100506008C9060A8120FE89060A8120FD09060AD92
:10051600120FE87F0E1210D9906063E0FFE4FCFD35
:10052600FE7808120FBDC004C005C006C007906063
:1005360062E0FFE4FCFDFE7810120FBDD003D0028E
:10054600D001D000120F8CA804A905AA06AB07900B
:100556006064E0FFE4FCFDFE120F8C9060A8120FB1
:10056600E89060A8120FD09060AD120FE87F0F12CE
:1005760010D990606DE0FEA3E0FFE4FCFD9060AD55
:10058600120FE87F101210D9906076E0FFE4FCFDB0
:0C059600FE9060AD120FE87F111210D92A
:1005A200300A16C20A90606FE0FFE4FCFDFE906024
:1005B200AD120FE87F011210D9300316C20390600A
:1005C20070E0FFE4FCFDFE9060AD120FE87F0212C6
:1005D20010D9300416C204906071E0FFE4FCFDFE05
:1005E2009060AD120FE87F031210D9301016C210BE
:1005F200906072E0FFE4FCFDFE9060AD120FE87FB8
:10060200041210D9300E16C20E906073E0FFE4FCA3
:10061200FDFE9060AD120FE87F051210D930091669
:10062200C209906074E0FFE4FCFDFE9060AD120F21
:10063200E87F061210D9300113C201906065120FD3
:10064200D09060AD120FE87F071210D9300813C2A4
:1006520008906069120FD09060AD120FE87F081207
:1006620010D9300C16C20C906075E0FFE4FCFDFE60
:100672009060AD120FE87F091210D930001CC20041
:10068200E47B64FAF9F8906056120FD0120EFA90D9
:1006920060AD120FE87F0B1210D930061CC206E4BF
:1006A2007B64FAF9F890605A120FD0120EFA906039
:1006B200AD120FE87F0C1210D9300205C2021229C6
:1006C20048300505C205122948300718C207906054
:1006D2006DE0FEA3E0FFE4FCFD9060AD120FE87F49
:1006E200101210D9301116C211906076E0FFE4FCAE
:1006F200FDFE9060AD120FE87F111210D9300B1978
:10070200C20B906056120FF4000000009060A41219
:100712000FF400000000122948300F19C20F906038
:100722005A120FF4000000009060A4120FF40000AF
:060732000000122948221C
:1017580041607F005860800001036C00020E140095
:10176800030B2B000405DB000506D00006093742F1
:101778006079000044607B00000000426077000050
:10236E00E4FD9060AAF0A3F0ED25E025E02482F5CF
:10237E0082E43460F583E0FAA3E024CEFBEA34FF76
:10238E00FAD3EF9BEE9A403BED25E025E02482F553
:10239E0082E43460F583E0FAA3E02432FBE43AFAF7
:1023AE00C3EF9BEE9A501CED25E025E02480F582CC
:1023BE00E43460F583E0FFA3E09060AACFF0A3EFD2
:1023CE00F080050DEDB406A09060AAE0FEA3E0FF3C
:0123DE0022DC
:100A9D00E49060A8F0A3F0121C4B9060A8EEF0A3B8
:100AAD00EFF09060A8E0FEA3E0FF12236E9060A827
:100ABD00EEF0A3EFF090607FE07075906079E0FE4E
:100ACD00A3E0FF4E70119060A8E0FDA3E090607967
:100ADD00CDF0A3EDF080529060A8E0FCA3E0B50747
:100AED0042EEB5043E90607B120FD0EF2409FFE477
:100AFD003EFEE43DFDE43CFC90607B120FE8E47F9C
:100B0D00EE7E02FDFC90607B120FDCC3120F99404C
:100B1D001890607B120FF40000000090607F74024B
:100B2D00F0800690607F7404F07F017E001228EC47
:100B3D0090607FE064046003020BE1906079E070E7
:100B4D0004A3E06401700C9060AD120FF40000007E
:100B5D00418076906079E07004A3E06402700C909F
:100B6D0060AD120FF400000040805E906079E0707F
:100B7D0004A3E06403700C9060AD120FF40000004C
:100B8D00428046906079E07004A3E06404700C909C
:100B9D0060AD120FF4000000E4802E906079E070DB
:100BAD0004A3E06405700C9060AD120FF40000001A
:100BBD00658016906079E07004A3E06406700F9074
:100BCD0060AD120FF4000000E37F0D1210D990609C
:100BDD007F7405F090607FE064027052906079E060
:100BED00FEA3E0FF64014E603FEF64024E70119072
:100BFD0060AD120FF4000000467F0D1210D9802851
:100C0D00906079E0FEA3E0FF64034E601BEF640487
:100C1D004E6015EF64054E700F9060AD120FF4002D
:100C2D000000117F0D1210D990607F7403F0906059
:100C3D007FE064036003020D799060A8E0FEA3E0FD
:100C4D00FF906079E0FAA3E0FB6F7002EA6E60033B
:100C5D00020D73A3120FD0EF2401FFE43EFEE43D1D
:100C6D00FDE43CFC90607B120FE8EB64014A702AB6
:100C7D007F96FEFDFC90607B120FDCC3120F995026
:100C8D0003020D6A90607B120FF40000000090606B
:100C9D00AD120FF4000000418057906079E07004B0
:100CAD00A3E0640270177F96FEFDFC90607B120F2F
:100CBD00DCC3120F995003020D6A020D609060792A
:100CCD00E07004A3E06403702F7F96FEFDFC90603E
:100CDD007B120FDCC3120F995003020D6A90607BDB
:100CED00120FF4000000009060AD120FF400000030
:100CFD00427F0D1210D98065906079E07004A3E0F9
:100D0D00640470137F96FEFDFC90607B120FDCC3B4
:100D1D00120F994048803C906079E07004A3E06424
:100D2D000570137F96FEFDFC90607B120FDCC312E5
:100D3D000F994029801D906079E07004A3E064064E
:100D4D00701B7F96FEFDFC90607B120FDCC3120FB3
:100D5D0099400A90607B120FF4000000007F017E25
:100D6D00001228EC800690607F7406F090607FE0A2
:090D7D0064066005E06405703EA7
:100D86009060A8E07002A3E0701290607775F001A1
:100D9600120E3E7F017E001228EC8007E4906077F9
:100DA600F0A3F0C3906078E09432906077E094000E
:0E0DB600400CE4F0A3F090607FE0FF7407F0C3
:100DC40090607FE0B4071AE49060A8F0A3F090600C
:100DD40079F0A3F0A3120FF400000000E490607F08
:010DE400F01E
:010DE50022EB
:101788004460C6000000004460CA000000004460D5
:09179800CE000000004160C5FF15
:10004E00121C4B906107EEF0A3EFF09060CA120FF6
:10005E00DC906107E0FEA3E0FFE4FCFD120E54907D
:10006E0060CA120FE89060CE120FD0EF2401FFE4A9
:10007E003EFEE43DFDE43CFC9060CE120FE8E47FD2
:10008E00F47E01FDFC9060C6120FDCC3120F995076
:10009E00030203CF9060C6120FF4000000009060C0
:1000AE00CA120FD09060CE120FDC120EFA9060CAF8
:1000BE00120FE89060CE120FF400000000E47F4DA6
:1000CE007E03FDFC9060CA120FDCC3120F9950091B
:1000DE009060C57464F00201E3E47F427E04FDFC8F
:1000EE009060CA120FDCC3120F9950099060C5744C
:1000FE005AF00201E3E47F427E06FDFC9060CA12D4
:10010E000FDCC3120F9950099060C57450F00201B4
:10011E00E3E47F147E07FDFC9060CA120FDCC3126D
:10012E000F9950099060C57446F00201E3E47FAC6C
:10013E007E07FDFC9060CA120FDCC3120F995009A6
:10014E009060C5743CF00201E3E47F3B7E08FDFC49
:10015E009060CA120FDCC3120F9950089060C574DC
:10016E0032F08071E47FD87E08FDFC9060CA120FD9
:10017E00DCC3120F9950089060C57428F08056E4C5
:10018E007F7B7E09FDFC9060CA120FDCC3120F99B3
:10019E0050089060C5741EF0803BE47FEC7E09FD34
:1001AE00FC9060CA120FDCC3120F9950089060C504
:1001BE007414F08020E47F427E0AFDFC9060CA1227
:1001CE000FDCC3120F9950089060C5740AF08005B9
:1001DE00E49060C5F0E47F7D7E0AFDFC9060CA125B
:1001EE000FDCD3120F994008E49060C5F00203BBF8
:1001FE00E47F6D7E0AFDFC9060CA120FDCC3120F05
:10020E0099501CE47F427E0AFDFC9060CA120FDCFE
:10021E00D3120F9940099060C5740AF00203BBE433
:10022E007F267E0AFDFC9060CA120FDCC3120F9966
:10023E00501CE47FEC7E09FDFC9060CA120FDCD3EB
:10024E00120F9940099060C57414F00203BBE47F4D
:10025E00CE7E09FDFC9060CA120FDCC3120F9950BE
:10026E001CE47F7B7E09FDFC9060CA120FDCD3126A
:10027E000F9940099060C5741EF00203BBE47F45E0
:10028E007E09FDFC9060CA120FDCC3120F99501C40
:10029E00E47FD87E08FDFC9060CA120FDCD3120FEB
:1002AE009940099060C57428F00203BBE47F9E7EDE
:1002BE0008FDFC9060CA120FDCC3120F99501CE4AB
:1002CE007F3B7E08FDFC9060CA120FDCD3120F99A3
:1002DE0040099060C57432F00203BBE47F0F7E08C4
:1002EE00FDFC9060CA120FDCC3120F99501CE47F04
:1002FE00AC7E07FDFC9060CA120FDCD3120F994042
:10030E00099060C5743CF00203BBE47F727E07FD6A
:10031E00FC9060CA120FDCC3120F99501BE47F14BD
:10032E007E07FDFC9060CA120FDCD3120F994008B5
:10033E009060C57446F08075E47FED7E06FDFC90FE
:10034E0060CA120FDCC3120F99501BE47F427E0667
:10035E00FDFC9060CA120FDCD3120F99400890601A
:10036E00C57450F08047E47FBC7E05FDFC9060CAEA
:10037E00120FDCC3120F99501BE47F427E04FDFC6A
:10038E009060CA120FDCD3120F9940089060C574AA
:10039E005AF08019E47F4D7E03FDFC9060CA120F67
:1003AE00DCC3120F9950069060C57464F09060C55E
:1003BE00E0906075F09060CA120FF4000000FFD25A
:0203CE000C22FF
:0E17A1004460EA000000004460E60000000022
:101EE800121C4B906107EEF0A3EFF0906076E06073
:101EF8005ED3906108E09400906107E094089060D8
:101F0800E65022120FD0EF2401FFE43EFEE43DFD2F
:101F1800E43CFC9060E6120FE89060EA120FF400CF
:101F28000000008007120FF400000000E47FE27E4A
:101F380004FDFC9060E6120FDCC3120F994070900C
:101F480060E6120FF400000000E4906076805DC344
:101F5800906108E094C7906107E0940B9060EA40B4
:101F680022120FD0EF2401FFE43EFEE43DFDE43CE5
:101F7800FC9060EA120FE89060E6120FF40000008F
:101F8800008007120FF400000000E47FE27E04FDE9
:101F9800FC9060EA120FDCC3120F9940129060EABD
:101FA800120FF4000000009060767401F0D2112244
:1017AF004460D2000000004460D600000000446096
:0517BF00DA000000004B
:102A0D007C007D9612105AE4FB7A10F9F8020EFA4A
:1026D500EF75F064A4FFAEF0E4FCFD7B96FAF9F823
:1026E500120EFA9060AA120FE8E47F62FEFDFC90DC
:1026F50060AA120FDCC3120F99400A9060AA120F4C
:0B270500F4000000649060AA020FD0F6
:101E1600E49060A8F0A3F09060DA120FDCC000C076
:101E260001C002C003121C4BE4FCFDD003D002D05B
:101E360001D000120E549060DA120FE89060D212B0
:101E46000FD0EF2401FFE43EFEE43DFDE43CFC90B0
:101E560060D2120FE89060D6120FD0EF2408FFE48C
:101E66003EFEE43DFDE43CFC9060D6120FE8E47FC4
:101E7600E87E03FDFC9060D6120FDCC3120F99407A
:101E8600609060DA120FD09060D2120FDC120EFA58
:101E96009060DA120FE89060DA120FD0122A0D90D5
:101EA60060A8EFF01226D59060A9EFF0FB9060DAFB
:101EB600120FF4000000009060D2120FF400000030
:101EC600009060D6120FF400000000906070EBF0F6
:101ED6009060A8E0FF90606DE4F0A3EFF0D207D227
:011EE60003F8
:011EE70022D8
:10210E0002218EE493A3F8E493A34003F68001F238
:10211E0008DFF48029E493A3F85407240CC8C333D2
:10212E00C4540F4420C8834004F456800146F6DFA1
:10213E00E4800B010204081020408090165CE47EBF
:10214E00019360BCA3FF543F30E509541FFEE49396
:10215E00A360010ECF54C025E060A840B8E493A35D
:10216E00FAE493A3F8E493A3C8C582C8CAC583CA88
:10217E00F0A3C8C582C8CAC583CADFE9DEE780BE40
:0117C4000024
:100DE600BB010689828A83E0225002E722BBFE020B
:090DF600E32289828A83E493223E
:100DFF00BB010CE58229F582E5833AF583E02250A9
:100E0F0006E92582F8E622BBFE06E92582F8E222F2
:0D0E1F00E58229F582E5833AF583E493220C
:100E2C00BB010689828A83F0225002F722BBFE01A5
:020E3C00F3229F
:100E3E00C5F0F8A3E028F0C5F0F8E582158270023F
:060E4E001583E038F022DC
:0D0E5400EF2BFFEE3AFEED39FDEC38FC22ED
:0E0E6100C3EF9BFFEE9AFEED99FDEC98FC228C
:100E6F00E88FF0A4CC8BF0A42CFCE98EF0A42CFC22
:100E7F008AF0EDA42CFCEA8EF0A4CDA8F08BF0A4A0
:100E8F002DCC3825F0FDE98FF0A42CCD35F0FCEBFF
:100E9F008EF0A4FEA9F0EB8FF0A4CFC5F02ECD39C4
:0F0EAF00FEE43CFCEAA42DCE35F0FDE43CFC2231
:100EBE0075F008758200EF2FFFEE33FECD33CDCCEB
:100ECE0033CCC58233C5829BED9AEC99E58298406E
:100EDE000CF582EE9BFEED9AFDEC99FC0FD5F0D64B
:100EEE00E4CEFBE4CDFAE4CCF9A88222B800C1B975
:100EFE000059BA002DEC8BF084CFCECDFCE5F0CBB3
:100F0E00F97818EF2FFFEE33FEED33FDEC33FCEBEB
:100F1E0033FB10D703994004EB99FB0FD8E5E4F9A6
:100F2E00FA227818EF2FFFEE33FEED33FDEC33FC93
:100F3E00C933C910D7059BE99A4007EC9BFCE99A87
:100F4E00F90FD8E0E4C9FAE4CCFB2275F010EF2FCC
:100F5E00FFEE33FEED33FDCC33CCC833C810D707CC
:100F6E009BEC9AE899400AED9BFDEC9AFCE899F807
:0E0F7E000FD5F0DAE4CDFBE4CCFAE4C8F9229A
:0D0F8C00EF4BFFEE4AFEED49FDEC48FC2264
:100F9900EB9FF5F0EA9E42F0E99D42F0E89C45F0AE
:010FA9002225
:100FAA00E8600FECC313FCED13FDEE13FEEF13FF25
:030FBA00D8F12249
:100FBD00E8600FEFC333FFEE33FEED33FDEC33FC92
:030FCD00D8F12236
:0C0FD000E0FCA3E0FDA3E0FEA3E0FF2294
:0C0FDC00E0F8A3E0F9A3E0FAA3E0FB2298
:0C0FE800ECF0A3EDF0A3EEF0A3EFF0227C
:100FF400A8828583F0D083D08212100B12100B12BA
:10100400100B12100BE473E493A3C583C5F0C583DE
:10101400C8C582C8F0A3C583C5F0C583C8C582C846
:0110240022A9
:0C102500A42582F582E5F03583F58322D6
:09103100E0FBA3E0FAA3E0F922C0
:10103A00F8E0FBA3A3E0F925F0F0E582158270023F
:07104A001583E0FA38F022E3
:09105100EBF0A3EAF0A3E9F022A0
:10105A00EC8EF0A4CCC5F0CCCDF8EFA4CEC5F02D23
:10106A00FDE43CFCE8A42EC8C5F03DFDE43CFCEFE1
:0D107A00A4FFE5F028FEE43DFDE43CFC226F
:10073800E5082431F582E43460F583E00508229069
:10074800602E301903906031E475F00112103A02FE
:100758000DE62012E97F2ED2128018EF540F249054
:10076800D43440D4FF30160BEF24BFB41A00500322
:100778002461FFE50960021509050CE50C70020506
:100788000B30190E90602EE475F00112103AEF024A
:100798000E2C022A1D7403D2198003E4C219F5082D
:1007A80090602E121051E4F509F50BF50CE509607F
:1007B800077F2012077B80F5750AFFC213C212C299
:1007C80014C215C217C218C21A120747FF700D309B
:1007D80019057F0012078CAF0CAE0B22B4255FC23F
:1007E800D5C216120747FF24D0B40A00501A75F074
:1007F8000A780930D50508B6FF0106C6A426F620F2
:10080800D5047002D21580D924CFB41A00EF500451
:10081800C2E5D21602098DD21380C6D21280C0D288
:100828001480BCD2D580BAD21780B47F2012077B3F
:100838002014077401B5090040F1120738FF1207A8
:100848007B0207B5D21AD2188095120738FB120717
:1008580038FA120738F94A4B7006795E7A0A7BFF34
:1008680020142EE509602A7E008E82758300120D01
:10087800FF60060EEE650A70F0C2D5EBC0E0EAC074
:10088800E0E9C0E0EE1209D4D0E0F9D0E0FAD0E017
:10089800FB120DE6FF60AAEBC0E0EAC0E0E9C0E0A9
:1008A80012077BD0E02401F9D0E03400FAD0E0FB55
:1008B800E50A0460DCD50AD980877BFF7A0979D0FC
:1008C800D214809C791080027908C218C21A800854
:1008D800D2D5790A8004790AC2D5E50A047002F5EE
:1008E8000AE4FAFDFEFF120738FC7B0820131312F6
:1008F8000738FD7B1030120A120738FE120738FF3E
:100908007B20EC3382D592D55013C3E43012069F76
:10091800FFE49EFEE42013039DFDE49CFCE4CBF879
:10092800C213EC700CCFCECDCCE824F8F870F3806D
:1009380017C3EF33FFEE33FEED33FDEC33FCEB333F
:10094800FB994002FB0FD8E9EB301305F8D0E0C45F
:1009580048B213C0E00AEC4D4E4F78207B0070C2BD
:10096800EAB50A0040BCC0E01209D6D0F0D0E020B9
:100978001304C4C0E0C4B213C0F0120764D0F0D5A9
:10098800F0EB0207B51210B308525308CC580823ED
:100998004C081F4208D04F08D84408D849083843A3
:0809A80008DE5508C24608C232
:1009B0004508C2470A7E5008272D082B2E084E2BCB
:1009C000082F23084C200A672A07E748000008463A
:1009D0003F3F3F00790AA2D5201514301709B910FE
:1009E000020404B9080104A2D52018025001042011
:1009F00014689214B509005034C0E07F20301519F6
:100A00007F30A21472187217500F120A2DC214C22E
:100A100018C217C21A7F30800F301703E9C0E012E6
:100A2000077B301703D0E0F9D0E0B509CC301717B9
:100A30007F30B9100C12077B7F583016077F788003
:100A400003B9080312077B3014057F2D02077B7F53
:100A500020201AF87F2B2018F322921480CF286EC2
:100A6000756C6C2900D2131207383013F8C2137852
:100A70000930D50108F60207E72D504349581207FF
:100A8000382403B405004001E4900A799312076CFE
:0D0A9000743A12076CD2157509040208CCE7
:10108700EF4E6012EF60010EEDBB010B89828A8380
:10109700F0A3DFFCDEFA2289F05007F709DFFCA98D
:0C10A700F022BBFEFCF309DFFCA9F022E4
:1010B300D083D082F8E4937012740193700DA3A3CC
:1010C30093F8740193F5828883E4737402936860E0
:0610D300EFA3A3A380DFE0
:00000001FF
