:030000000225A234
:0C25A200787FE4F6D8FD7581660225E91B
:0C000300000000000000000000000000F1
:0B33EA00EF1FAC0670011E4C70F622B5
:10323600AB07AA06EB1BAE0270011A4E60097FAA05
:083246007E051233EA80ED223F
:10223A00907120E04480F07F057E001233EAE4FFCB
:10224A00FE12323675A75575AC5C9071327450F037
:10225A009071307403F0907136742FF090715C7441
:10226A0003F090715BE054FCF07F18EF2466FDE404
:10227A0034718D82F583E4F00FEFB433EE904011A0
:10228A00E4935407FF90711CE054F84FF090401704
:10229A00E493547FFF90711DE054804FF0904010FA
:1022AA00E493FF5401C43333335480FE907123E026
:1022BA00547F4EF0EFC313543F4440FFA3E05480D1
:1022CA004FF0904012E493FF540FFE907146E05491
:1022DA00F04EF0EFC4540FFF90714FE054F04FF0FE
:1022EA00904013E493543FFF907140E054C04FF084
:1022FA00904014E493907126F0904015E493907105
:0B230A0028F0904016E49390712AF038
:0123150022A5
:1032BA0078D2E254FBF2E24404F2907187E4F0D24D
:0232CA0091224F
:1031560078D2E254FBF2E24404F2907187E4F0780C
:0D316600D0E24402F208E24402F2D29122CB
:1031730078D2E254EFF2E24410F2907188E4F078EE
:0D318300D0E24404F208E24404F2D29222A9
:1031900078C2E254FBF2E24404F290717FE4F078EA
:0D31A000C0E24402F208E24402F2C28122C1
:1033100078C2E254BFF2E24440F2907181E4F022BC
:1031AD0078E3E254EFF2E24410F2907194E4F07897
:0D31BD00E0E24440F208E24440F2C2A622E3
:0D334E0078C3E254CFF278C0E24440F2228E
:0D335B0078C3E2543FF278C0E24480F222D1
:0D33680078D2E254FCF278D0E24401F22267
:0D33750078D2E2543FF278D0E24408F22210
:0D33820078D3E254FCF278D0E24410F2223D
:0D338F0078E2E254F3F278E0E24402F22228
:0D339C0078E2E254CFF278E0E24404F2223D
:0D33A90078E2E2543FF278E0E24408F222BC
:0D33B60078E3E254F3F278E0E24420F222E2
:0D33C30078E3E2543FF278E0E24480F22229
:0D33D00078F2E254FCF278F0E24401F222BF
:072139004464C70000000030
:102E7400E5B154F342B153A8DFD2AF7892E4F2083B
:102E8400F27890E254F3F2E2441CF2E254FCF2E2EF
:102E94004401F208E2547FF2E24420F2789574018E
:102EA400F2187476F27890E2541FF2E244A0F2220F
:103320007890E2541FF2E244C0F243A820D2AF22C8
:10002A007890E2541FF2E244A0F27892E4F208F2E5
:04003A0053A8DF22C6
:03001E00022BE5CD
:102BE500C0E0C0F0C083C082C0D075D000C000C0B6
:102BF50004C005C006C0077891E230E71DE24480B5
:102C0500F29064C712026EEF2401FFE43EFEE43D3C
:102C1500FDE43CFC9064C7120296D007D006D005AF
:0F2C2500D004D000D0D0D082D083D0F0D0E03215
:072140004464CB0000000025
:102EB400E5B154CF42B153A8BFD2AF789EE4F20833
:102EC400F2789CE254F3F2E2441CF2E254FCF2E2A3
:102ED4004401F208E2547FF2E24420F278A1E4F2E1
:0F2EE400187424F2789CE2541FF2E244A0F22208
:10333000789CE2541FF2E244C0F243A840D2AF228C
:1032A600789CE2541FF2E244A0F2789EE4F208F21F
:0432B60053A8BF2238
:03002100022C347A
:102C3400C0E0C0F0C083C082C0D075D000C000C066
:102C440004C005C006C007789DE230E71DE2448059
:102C5400F29064CB12026EEF2401FFE43EFEE43DE9
:102C6400FDE43CFC9064CB120296D007D006D0055C
:0F2C7400D004D000D0D0D082D083D0F0D0E032C6
:072147004464CF000000001A
:102D6200E5B254FC42B253A9FED2AF907102E4F034
:102D7200A3F0907100E054F3F0E0441CF0E054FC46
:102D8200F0E04401F0A3E0547FF0E04420F09071C1
:102D920005E4F09071047424F0907100E0541FF087
:052DA200E044A0F02256
:1032CC00907100E0541FF0E044C0F043A901D2AF6C
:0132DC0022CF
:10324E00907100E0541FF0E044A0F0907102E4F0A1
:06325E00A3F053A9FE22BB
:03002400022B4567
:102B4500C0E0C0F0C083C082C0D075D000C000C056
:102B550004C005C006C007907101E030E71DE044E0
:102B650080F09064CF12026EEF2401FFE43EFEE494
:102B75003DFDE43CFC9064CF120296D007D006D010
:102B850005D004D000D0D0D082D083D0F0D0E032B0
:07214E004464D3000000000F
:102DEC00E5B254F342B2907108E054E3F0E04414BD
:102DFC00F0E054FCF0E04401F0A3E0547FF0E04438
:102E0C0020F053A9FD90710C749BF0A3743BF090CF
:102E1C00710AE4F0A3F0907108E0541FF0E044A0B4
:042E2C00F0D2AF220F
:1032DD00907108E0541FF0E044C0F043A902D2AF52
:0132ED0022BE
:10326400907108E0541FF0E044A0F090710AE4F07B
:06327400A3F053A9FD22A6
:03002700022B9514
:102B9500C0E0C0F0C083C082C0D075D000C000C006
:102BA50004C005C006C007907109E030E71DE04488
:102BB50080F09064D312026EEF2401FFE43EFEE440
:102BC5003DFDE43CFC9064D3120296D007D006D0BC
:102BD50005D004D000D0D0D082D083D0F0D0E03260
:10297D00726563762074696D65206F757421200A08
:10298D0000666F726D6174206C656E20696E766184
:10299D006C6964210A00256420202564200A0072D8
:1029AD0065637620637263206F72206C656E20659F
:1029BD00727221200A0025327820000A3D3D3D3DEE
:1029CD003D3D3D3D3D3D3D3D3D3D3D3D3D3D3D3D2A
:0829DD003D3D3D3D3D3D0A007A
:102155005E6459000000000000000000000000005F
:10216500000000000000000000000000000000006A
:102175000043647700000043647B00000043647FF4
:10218500000000C12041647A004164540041647E2E
:08219500004464550000000045
:0E004E0090644CEFF01233DD90644CE0FF2222
:10306C0078D2E2F2E24404F2907187E04404F090EA
:10307C007175E0440BF043AA20D2AF75D60175D51B
:05308C009F75D2112226
:03004B00021E9AF8
:101E9A00C0E0C0F0C083C082C0D075D000C000C00E
:0D1EAA0001C002C003C004C005C006C0078F
:101EB70090644DE4F0E5D420E503021FF6E5D7F082
:101EC700202004E0B4A50990647EE0C39403400396
:101ED700021FE990644DE0B4A51BD220906454E43E
:101EE700F090647AF012002A9064C71202A20000F0
:101EF7000000123320906454E0B4010890644DE070
:101F070090647AF090645512026E747B2FF582E428
:101F17003464F583E06003021FF690644DE0FF90A0
:101F2700645512028A90645975F00AEB1202D3EADB
:101F370075F00AA42583F583C083C082906454E0BA
:101F4700FE04F0D082D083E5822EF582E43583F556
:101F570083EFF09064C71202A20000000090647A39
:101F6700E07003021FF6E0FF906454E06F60030225
:101F77001FF690647AE0FB90645512026E74772F17
:101F8700F582E43464F583EBF0C220906454E4F006
:101F970090647AF090645512026E747B2FF582E498
:101FA7003464F5837401F090647EE004F090645526
:101FB70012026EEF2401FFE43EFEE43DFDE43CFC2B
:101FC700906455120296E47F03FEFDFC906455125F
:101FD700028AC3120237400A9064551202A2000017
:0F1FE700000012002A9064C71202A2000000003E
:101FF600D007D006D005D004D003D002D001D0003F
:0B200600D0D0D082D083D0F0D0E032E8
:0D33DD00E5D430E4FB8FD7E5D430E4FB22CB
:063091009064E31202FF4F
:10309700E4FEEEC39D50159064E31202DF8E827545
:0C30A7008300120079FF1233DD0E80E67A
:0130B30022FA
:1017C300E49064E6F0A3F0C21F7F0AFEFDFC906480
:1017D300C712028AD3120237402112002A9064C72B
:1017E3001202A200000000E4906454F090647AF0C6
:1017F300C2207BFF7A29797D020432E49064E6F00B
:101803009064E6E0FFC3940340030219A5747B2FA1
:10181300F582E43464F583E0700302199C9064E676
:10182300E075F00AA4245AF582E43464F583E0FEFB
:1018330074772FF582E43464F583E06E7003021845
:10184300C47BFF7A29798E1204327BFF7A2979A32C
:101853009064E6E02477F582E43464F583E0FFE402
:10186300FCFDFE9064271202969064E6E075F00A90
:10187300A4245AF582E43464F583E0FFE4FCFDFE1E
:1018830090642B1202961204321227AE9064E6E0A3
:10189300FF247BF582E43464F583E4F090647EE016
:1018A30014F090000AC083C0827D00EF75F00AA493
:1018B3002459F9746435F0FA7B01D007D00602038A
:0118C3009B89
:1018C400E49064E8F09064E7F0A3F09064E6E0FF4D
:1018D4002477F582E43464F583E014FE9064E8E050
:1018E400FDC39E5026EF75F00AA42459F582E43412
:1018F40064F583E5822DF582E43583F583E0FF907A
:1019040064E7E02FF0A3E004F080C09064E7E054C3
:101914000FF09064E6E0FF2477F582E43464F58305
:10192400E0FEEF75F00AA42458F582E43464F583EC
:10193400E5822EF582E43583F583E0FF9064E7E0E9
:051944006F6002D21FDC
:10194900301F407BFF7A2979AC120432C21F9064A0
:10195900E6E0FF247BF582E43464F583E4F09064E7
:101969007EE014F090000AC083C0827D00EF75F01C
:101979000AA42459F9746435F0FA7B01D007D0061A
:1019890012039B9064E6E0247FF582E43464F583D6
:0C1999007401F09064E6E004F002180312
:0119A500221F
:102E3000747F2FF582E43464F583E4F074772FF522
:102E400082E43464F583E4F0747B2FF582E4346427
:102E5000F583E4F0F58375820AC083C082FDEF75C7
:102E6000F00AA42459F9746435F0FA7B01D007D034
:042E70000602039BB8
:1027AE00E49064E9F0A3F09064E9F09064E9E0FF4E
:1027BE00C394035060EF2430FF1233DD7F0A1233CF
:1027CE00DDE4A3F09064EAE0FFC3940A50367BFF89
:1027DE007A2979C39064E9E075F00AA42459F58248
:1027EE00E43464F583E5822FF582E43583F583E0E6
:1027FE00FF906427E4F0A3EFF01204329064EAE055
:10280E0004F080C07BFF7A2979C81204329064E903
:05281E00E004F08096CB
:012823002292
:05219D004264EB0000AC
:1030460078E2E244C0F278C2E24403F2E2440CF2CF
:10305600907123E054D8F0E054BFF0E0441EF090A5
:0630660071227407F02244
:1031CA00EF24FE600804700E759904800375990552
:0D31DA007869E24448F27F017E000232363F
:1030B4007869E24401F2786BE230E1FA7402F2AF2B
:1030C40093EF75F010A4FFAEF0E594C4540FFDEF38
:0330D4004DFF228B
:102AF300E49064BDF0F09064BE12028AC00012300C
:102B0300B4E4FCFDD0001200CE9064BE1202969095
:102B130064BDE0C39401400FA312026E7801120258
:102B2300489064BE1202969064BDE004F0E0C39442
:102B33002040C39064BE12026E9064EBEEF0A3EFEC
:012B4300F0A1
:012B4400226E
:103138007F011231CA122AF37FF47E011232367FE0
:0E314800021231CA122AF37FF47E01023236DF
:102F9B007F011231CA122AF39064EBE0FEA3E0FF2B
:102FAB007C007D6412036EE47BFF7A0FF9F812014B
:0F2FBB007490649BEFF0D2047F0A7E00023236DE
:1032EE0075AF3F8FAF75AEB975A402E5A530E1FBA2
:0132FE0022AD
:102F30009064C31202FF75AF3F8FAF9064C6E0C3C9
:102F400094014022E5A530E0FB9064C3E475F001F4
:102F50001202E8120060F5A675AEB975A40190647E
:072F6000C6E014F080D52249
:102F67009064251202FF906428E06027AE070FEEF9
:102F77002400FDE4343F8D82F583E493FE906425BD
:102F8700E475F0011202E8EE1200A6906428E0143E
:042F9700F080D322D1
:102FCA00000009C4006400C80101F4004B000A00B3
:102FDA0000010F04050600000064000200640003FB
:0E2FEA00006400090064000A0064001900641D
:1011B100E4FF74FA2FF582E43463F583E0C3940805
:1011C100400302126274FA2FF582E43463F583E07E
:1011D100C39404504478C2C000E2FE74FA2FF58231
:1011E100E43463F583E025E0FDF87403088002C36D
:1011F10033D8FCF45ED000F278C2C000E2FE74FA8B
:101201002FF582E43463F583E025E0FDF8740308EB
:101211008002C333D8FC0213C478C3C000E2FE7459
:10122100FA2FF582E43463F583E024FC25E0FDF830
:101231007403088002C333D8FCF45ED000F278C393
:10124100C000E2FE74FA2FF582E43463F583E024F2
:10125100FC25E0FDF87403088002C333D8FC0213B7
:10126100C474FA2FF582E43463F583E0C394085023
:101271000302132874FA2FF582E43463F583E0C383
:101281009410400302132874FA2FF582E43463F5B5
:1012910083E0C3940C504878D2C000E2FE74FA2F68
:1012A100F582E43463F583E024F825E0FDF8740366
:1012B100088002C333D8FCF45ED000F278D2C000BB
:1012C100E2FE74FA2FF582E43463F583E024F82515
:1012D100E0FDF87403088002C333D8FC0213C4781C
:1012E100D3C000E2FE74FA2FF582E43463F583E0A3
:1012F10024F425E0FDF87403088002C333D8FCF41C
:101301005ED000F278D3C000E2FE74FA2FF582E4D9
:101311003463F583E024F425E0FDF87403088002CA
:10132100C333D8FC0213C474FA2FF582E43463F595
:1013310083E0C39414504778E2C000E2FE74FA2FB0
:10134100F582E43463F583E024F025E0FDF87403CD
:10135100088002C333D8FCF45ED000F278E2C0000A
:10136100E2FE74FA2FF582E43463F583E024F0257C
:10137100E0FDF87403088002C333D8FC804578E3AC
:10138100C000E2FE74FA2FF582E43463F583E024B1
:10139100EC25E0FDF87403088002C333D8FCF45E49
:1013A100D000F278E3C000E2FE74FA2FF582E43453
:1013B10063F583E024EC25E0FDF87403088002C3A3
:1013C10033D8FC4ED000F20FEF640660030211B374
:0113D10022F9
:03005D00022DA7CA
:102DA700C0E0C0F0C083C082C0D075D000C000C0F2
:102DB70001C002C003C004C005C006C0077881E295
:102DC70030E607E24440F2122824D007D006D005A7
:102DD700D004D003D002D001D000D0D0D082D0838D
:052DE700D0F0D0E03245
:102C8300D2AF43AB0843B6C0907132E04440F04347
:102C9300AB087877743FF208744BF2787A7430F2A9
:102CA300788914F27871744FF2187427F278727479
:102CB300A8F2087410F208E4F208F208F2787E74BD
:0F2CC300D0F2087404F208741EF2087402F222B0
:03003F00022D1C73
:102D1C00C0E0C0F0C083C082C0D075D000C000C07D
:102D2C0001C002C003C004C005C006C007907153A7
:102D3C00E030E707E04480F0120018D007D006D04E
:102D4C0005D004D003D002D001D000D0D0D082D096
:062D5C0083D0F0D0E0324C
:10247800E4FBEB25E025E024E0F582E4342FF58346
:10248800740193FF74FA2BF582E43463F583EFF05B
:10249800EB25E025E024E2F582E4342FF583E4938C
:1024A800FE740193FFEB25E02418F582E43464F50B
:1024B80083EEF0A3EFF0EB25E024DCF582E434634F
:1024C800F583E4F0A37441F0E47F01FEFDFC74FAA7
:1024D8002BF582E43463F583E0F9F812025BE53FFB
:1024E8004FFFE53E4EFEE53D4DFDE53C4C8F3F8EF2
:1024F8003E8D3DF53C0BEB6406600302247A121115
:07250800B11223DD022C8358
:1032020079656172202564206D6F6E746820256473
:0A32120020646179202564200A0081
:102CD20012223A75D9DD75D95590715EE054FEF035
:102CE20075D9BB1230F87BFF7A327902906492E098
:102CF200FFA3E0906427CFF0A3EFF0906494E0FF8D
:102D0200906429E4F0A3EFF0906495E0FF90642BC7
:0A2D1200E4F0A3EFF012043280FE9B
:1021A20060216482000000000000000000000000C6
:1021B200000000000000000000000000000000001D
:0521C200000000000018
:1032FF007B017A6479829064287421F0E4FF022FB5
:01330F006756
:10327A00E4FF1232EE7B017A6479829064C674218B
:06328A00F0E4FF022F300A
:060A6B00906024120296C7
:100A710090602C1202A2000000007FA51233DD90CD
:100A8100602412026E12032E0AD5000000010AF43E
:100A9100000000020B13000000030B3200000004F1
:100AA1000B51000000050B70000000060B8F0000C9
:100AB10000070BC1000000080BF3000000090C1136
:100AC1000000000A0C330000000B0C960000000C23
:100AD10000000CF67F051233DD7F011233DD9060DB
:100AE1002812026E1233DD90602812026EEF24ABE1
:100AF100020C2D7F051233DD7F021233DD90602859
:100B010012026E1233DD90602812026EEF24AC02E5
:100B11000C2D7F051233DD7F031233DD9060281227
:100B2100026E1233DD90602812026EEF24AD020CCA
:100B31002D7F051233DD7F041233DD906028120210
:100B41006E1233DD90602812026EEF24AE020C2D7E
:100B51007F051233DD7F051233DD90602812026EAE
:100B61001233DD90602812026EEF24AF020C2D7F4C
:100B7100051233DD7F061233DD90602812026E12FA
:100B810033DD90602812026EEF24B0020C2D7F0637
:100B91001233DD7F071233DD90602812026E780870
:100BA1001202481233DD90602812026E1233DD907A
:100BB100602812026E7808120248EF24B2020CC5B6
:100BC1007F061233DD7F081233DD90602812026E3A
:100BD10078081202481233DD90602812026E123337
:100BE100DD90602812026E7808120248EF24B302E9
:100BF1000CC57F051233DD7F091233DD90602812A9
:100C0100026E1233DD90602812026EEF24B3801C55
:100C11007F051233DD7F0A1233DD90602812026EE8
:100C21001233DD90602812026EEF24B4FFE4330228
:100C31000CD67F071233DD7F0B1233DD9060281253
:100C4100026E78101202481233DD90602812026E93
:100C510078081202481233DD90602812026E1233B6
:100C6100DD90602812026E7810120248EF24B7FB63
:100C7100E433FA90602812026E78081202487E006E
:100C8100EB2FFBEE3AFA90602812026E7E00EB2FFA
:100C9100FFEE3A80407F061233DD7F0C1233DD9088
:100CA100602812026E78081202481233DD90602823
:100CB10012026E1233DD90602812026E7808120261
:100CC10048EF24B7FBE433FA90602812026E7E00ED
:100CD100EB2FFFEE3AFE3395E0FDFC90602C120203
:100CE1009690602C12026EEF540FFFE4FEFDFC9013
:100CF100602C12029690602C12026E1233DD7F0A74
:050D01007E0002323605
:1030D70012338F12339C1233A91233B61233D01224
:1030E70033C312338212337512336812335B0233E0
:0130F7004E8A
:1023160020A30C90649CE07011D20504F0800B9011
:10232600649CE0B40104E4F0D20520A50990649D04
:10233600E0700E04800890649DE0B40104E4F0D2DD
:102346001020A20990649EE0700E04800890649E9E
:10235600E0B40104E4F0D20E20A10990649FE0707D
:102366000E04800890649FE0B40104E4F0D20920D2
:10237600860990649AE0605EE4805820870C906439
:102386009AE0640160507401804920900C90649A30
:10239600E0640260417402803A20930C90649AE0F3
:1023A600640360327403802B20940C90649AE0647A
:1023B6000460237404801C20A70C90649AE06405D2
:1023C60060147405800D20B00D90649AE064066078
:0723D600057406F0D20A2293
:1021C7004464AB000000004464A7000000004464BE
:0521D700A30000000060
:102FF800E5B854F342B843A802D2AF78C2E254CF3E
:10300800F218E24404F278C7E24404F278C4E254C5
:07301800CFF2E24420F22296
:1031E70053A8FD9064AB1202A2000000001232A6A1
:0B31F7009064CB1202A2000000002236
:10321C009064AB1202A2000000009064CB1202A2D8
:0A322C000000000043A80202333046
:102899009064D71202A20000000012321CE47FC427
:1028A9007E09FDFC9064CB12028AC312023740ED07
:1028B900E47F037E07FDFC9064AB12028A1200E9F3
:1028C900E47B10FAF9F81201749064D71202969019
:1028D90064A712026E9064D712028A1200CE906425
:1028E900A71202961231E79064D712026EE47B4078
:1028F9007A38F9F81200E99064D71202969064D7F1
:0329090002026E59
:0E3340001228997B407A42790F7800020174BE
:1013D2001233409064B71202969064A312026E9088
:1013E20064B712028AD3120237401B9064A312021E
:1013F2008A9064B712026E1200DBE47B02FAF9F8FB
:10140200C3120237402D9064A312026E9064B71289
:10141200028AC3120237501E9064B712028A906485
:10142200A312026E1200DBE47B02FAF9F8C3120285
:1014320037500302159E9064A312026E9064B71295
:10144200028AD3120237401B9064A312028A90646C
:10145200B712026E1200DBE47B02FAF9F8D3120231
:101462003750339064A312026E9064B712028AC39B
:1014720012023740030215AC9064B712028A9064DC
:10148200A312026E1200DBE47B02FAF9F8D3120215
:061492003750030215AC07
:10149800E49064BBF09064A312026E9064B71202E9
:1014A8008AD3120237406B9064A312028A9064B701
:1014B80012026E1200DBE47B02FAF9F8D31202374B
:0214C800405092
:1014CA00E49064BCF0F01233409064B71202969034
:1014DA0064A312026E9064B712028AD312023740D2
:1014EA00219064A312028A9064B712026E1200DB82
:1014FA00E47B02FAF9F8D312023740069064BBE0A3
:10150A0004F09064BCE004F0E0C3940340B8807B2C
:10151A009064A312026E9064B712028AC312023751
:10152A0050699064B712028A9064A312026E120084
:0D153A00DBE47B02FAF9F8D3120237404ED1
:10154700E49064BCF0F01233409064B712029690B6
:1015570064A312026E9064B712028AC31202375054
:10156700219064B712028A9064A312026E1200DB04
:10157700E47B02FAF9F8D312023740069064BBE025
:0E15870004F09064BCE004F0E0C3940340B8AC
:101595009064BBE0C39402403D9064B712026E9024
:0515A50064A312029690
:1015AA008021E4FFFEFDFC9064B712028AC3120296
:1015BA0037701EFFFEFDFC9064A312028AC312025A
:1015CA0037600E9064B712026E906486120296D249
:0115DA000808
:0115DB0022ED
:03001200022A4778
:102A4700C0E0C0F0C083C082C0D075D000C000C055
:092A570003C004C005C006C0075D
:102A600078C6E2FB30E2199064AB12026EEF2401EB
:102A7000FFE43EFEE43DFDE43CFC9064AB120296B4
:062A8000AF0378C6EBF283
:102A8600D007D006D005D004D003D000D0D0D08255
:072A9600D083D0F0D0E03244
:1030F8001232FF122E7412306C1230D7122EB41204
:103108002FF812301F122DEC123310D283023046E2
:10329000656E67696E6520737065656420256C7561
:0632A0002072706D0A00AF
:0721DC004464DF0000000075
:10301F00E5B854CF42B843A804D2AF78D2E254CF28
:10302F00F218E24404F278D7E24404F278D4E2547E
:07303F00CFF2E24420F2226F
:10290C009064DB1202A200000000E47FC47E09FD8B
:10291C00FC9064CB12028AC31202374053E47FF05E
:10292C00FEFDFC9064DF12028A1200E9E47B10FACF
:10293C00F9F81201749064DB1202969064CB1202C7
:10294C00A2000000009064DF1202A20000000090C0
:10295C0064DB12026E9064821202967BFF7A3279EB
:10296C00909064DB12026E9064271202961204326D
:01297C002238
:03001500022A9D1F
:102A9D00C0E0C0F0C083C082C0D075D000C000C0FF
:092AAD0003C004C005C006C00707
:102AB60078D6E2FB30E2199064DF12026EEF240151
:102AC600FFE43EFEE43DFDE43CFC9064DF1202962A
:062AD600AF0378D6EBF21D
:102ADC00D007D006D005D004D003D000D0D0D082FF
:072AEC00D083D0F0D0E032EE
:1021E3004464AF000000004464B300000000C12158
:1020110020210FD2219064D31202A20000000012ED
:1020210032DDE47FB87E0BFDFC9064D312028AC3DB
:1020310012023740201232649064D31202A20000CF
:102041000000C2217B017A6479829064C67421F018
:10205100E4FF122F30E47FE87E03FDFC9064A712B9
:10206100028AC3120237407C90648A12028AC0003D
:10207100C001C002C003E47BE87A03F9F89064A7C9
:1020810012026E120174D003D002D001D0001200EE
:10209100CE90648A12029690648E12028AC000C0A9
:1020A10001C002C003E47BE87A03F9F89064A71247
:1020B100026E120174D003D002D001D0001200CE02
:1020C10090648E1202969064A712026EE47BE87A05
:1020D10003F9F8120174AC00AD01AE02AF039064D4
:1020E100A71202969064AF12028A90648A12026E5D
:1020F1001200DBE47B64FAF9F8C3120237500E9048
:10210100648A12026E9064AF120296D2009064B398
:1021110012028A90648E12026E1200DBE47BE87A6E
:1021210003F9F8C3120237500E90648E12026E90BA
:0721310064B3120296D2070D
:012138002284
:1015DC0020666C61675F6765745F616C6C5F7374C8
:1015EC00617475730A0020666C61675F6765745F70
:1015FC00676561720A0020666C61675F6765745F7E
:10160C00626174746572790A0020666C61675F6749
:10161C0065745F6272616B650A0020666C61675F5E
:10162C006765745F6C6566745F7475726E0A002012
:10163C00666C61675F6765745F72696768745F7415
:10164C0075726E0A0020666C61675F6765745F680F
:10165C006967685F6265616D0A0020666C61675F2F
:10166C006765745F656E67696E655F7370656564E9
:10167C00200A0020666C61675F6765745F73706534
:10168C006564200A0020666C61675F6765745F663D
:10169C0075656C200A0020666C61675F6765745F16
:1016AC0074656D705F6F665F7761746572200A0098
:1016BC0020666C61675F6765745F746F74616C5FE3
:1016CC006D696C65616765200A0020666C61675FF7
:1016DC006765745F7375625F746F74616C5F6D695D
:1016EC006C65616765200A0020666C61675F6765E1
:1016FC00745F746F7563685F6B65795F7374617425
:10170C007573200A0020666C61675F616C7465728A
:10171C005F64617465200A0079656172202564201C
:10172C006D6F6E74682025642064617920256420B7
:10173C000A0020666C61675F616C7465725F746926
:10174C006D65200A0020666C61675F6765745F6277
:10175C0061745F76616C200A0020666C61675F7350
:10176C0065745F74656D705F6F665F7761746572C9
:10177C005F7761726E696E67200A0020666C616724
:10178C005F636C6561725F746F74616C5F6D696CC3
:10179C0065616765200A0020666C61675F636C6534
:1017AC0061725F7375625F746F74616C5F6D696C8D
:0717BC0065616765200A006A
:1021F300C10DC10AC104C105C110C10EC109C1018C
:10220300C108C10CC102C100C107C111C103C1068C
:08221300C113C112C10BC10F80
:101D1400E49064EFF0F09064EFE0FFC394034003B9
:101D2400021E99747F2FF582E43464F583E0700316
:101D3400021E909064EFE0FD75F00AA4245BF58226
:101D4400E43464F583E01203081D8D201D92211DE7
:101D540097221D9C231DA1241DA6251DAB261DB065
:101D6400271DB5281DBA291DBE2A1DC22B1DC62C30
:101D74001DCA2D1DCE2E1E292F1E2D301E31311EA3
:101D840035321E393300001E3BD20D021E3BD20AEF
:101D9400021E3BD204021E3BD205021E3BD210029D
:101DA4001E3BD20E021E3BD209021E3BD201021E72
:101DB4003BD208021E3BD20C807DD2028079D20035
:101DC4008075D2078071D211806DD203ED75F00A4F
:101DD400A4245CF582E43464F583E0FEED75F00A36
:101DE400A4245DF582E43464F583E07C002400FFE0
:101DF400EC3E906492F0A3EFF09064EFE0FF75F096
:101E04000AA4245EF582E43464F583E0906494F0DB
:101E1400EF75F00AA4245FF582E43464F583E0905E
:101E24006495F08012D206800ED213800AD21280FA
:101E340006D20B8002D20F90647EE0D3940040035C
:101E4400E014F09064EFE0FF247FF582E43464F55D
:101E540083E4F074772FF582E43464F583E4F0745A
:101E64007B2FF582E43464F583E4F0FE7F0AC00638
:101E7400C007FD9064EFE075F00AA42459F9746476
:101E840035F0FA7B01D007D00612039B9064EFE093
:051E940004F0021D1A1C
:011E99002226
:100D0600300D0BC20D7BFF7A1579DC120432300AE6
:100D160025C20A7BFF7A1579F212043290649AE0B2
:100D2600FFE4FCFDFE9060281202967F017E007DA6
:100D3600007C00120A6B300425C2047BFF7A167908
:100D46000212043290649BE0FFE4FCFDFE906028F2
:100D56001202967F027E007D007C00120A6B30052F
:100D660025C2057BFF7A16791512043290649CE041
:100D7600FFE4FCFDFE9060281202967F037E007D54
:100D8600007C00120A6B301025C2107BFF7A1679A0
:100D96002612043290649DE0FFE4FCFDFE9060287C
:100DA6001202967F047E007D007C00120A6B300ED4
:100DB60025C20E7BFF7A16793B12043290649EE0C0
:100DC600FFE4FCFDFE9060281202967F057E007D02
:100DD600007C00120A6B300925C2097BFF7A16795E
:100DE6005112043290649FE0FFE4FCFDFE906028FF
:100DF6001202967F067E007D007C00120A6B30018F
:100E060022C2017BFF7A167966120432906482123E
:100E1600026E9060281202967F077E007D007C009D
:100E2600120A6B300822C2087BFF7A16797F1204F9
:100E36003290648612026E9060281202967F087EB7
:100E4600007D007C00120A6B300C0BC20C7BFF7A13
:100E560016799112043230020BC2027BFF7A1679A0
:100E6600A212043230002BC2007BFF7A1679BC1224
:100E76000432E47B64FAF9F890648A12026E120175
:100E8600749060281202967F0B7E007D007C001213
:100E96000A6B30072CC2077BFF7A1679D61204320A
:100EA600E47BE87A03F9F890648E12026E120174FC
:100EB6009060281202967F0C7E007D007C00120A4C
:100EC6006B30110BC2117BFF7A1679F412043230A3
:100ED6000340C2037BFF7A1779111204327BFF7A33
:100EE600177924906492E0FFA3E0906427CFF0A3E3
:100EF600EFF0906494E0FF906429E4F0A3EFF090A3
:100F06006495E0FF90642BE4F0A3EFF01204321234
:100F1600327A30060BC2067BFF7A17793E1204320C
:100F260030130BC2137BFF7A177951120432301239
:100F36000BC2127BFF7A177965120432300B0BC293
:100F46000B7BFF7A177987120432300F0BC20F7BA7
:090F5600FF7A1779A3120432227C
:10221B0041604801426049000041604B0041604C05
:0E222B000041604D0041604E7F42604FFFFF5A
:102EF300E4F561AE3EAD3DAC3C853F178E168D15B6
:102F03008C14787EE254FCF2E24514F218E515F2D3
:102F130018E516F218E517F2787FE254FBF2E25453
:0D2F2300FB4404F2E24401F27F0102262E7D
:100F5F009064F0EFF0E0FF24E8F582E43463F5836A
:100F6F00E004F074F42FF582E43463F583E4F07455
:100F7F00E82FF582E43463F583E0C39563500302F1
:100F8F0011B09064F0E0FB24E8F582E43463F5835C
:100F9F00E4F0902FDB93640160030211617F01FE87
:100FAF00FDFC74FA2BF582E43463F583E0F9F81253
:100FBF00025BE51F4FF51FE51E4EF51EE51D4DF5B6
:100FCF001DE51C4CF51CAF1FAE1EAD1DFC780112AC
:100FDF000248EF5455FBEE5455FAED5455F9EC54C5
:100FEF0055F8C3E51F9BF53BE51E9AF53AE51D99AC
:100FFF00F539E51C98F538AF3BAE3AAD39FC7802C0
:10100F00120248EF5433FBEE5433FAED5433F9EC3C
:10101F005433F8E53B5433FFE53A5433FEE5395486
:10102F0033FDE5385433FCEB2FF53BEA3EF53AE957
:10103F003DF539E83CF538AF3BAE3AAD39FC7804B5
:10104F00120248EF253BFFEE353AFEED3539FDEC48
:10105F003538FCEF540FF53BEE540FF53AED540FC6
:10106F00F539EC540FF538AF3BAE3AAD39FC780893
:10107F00120248EF253BFFEE353AED3539FDEC35E1
:10108F0038EFF53BE4F53AEDF539E4F538AE3AAC27
:10109F00387810120248EF253BFFEE353AFEEFF598
:1010AF003BEEF53AE4F539F5389064F0E025E024AD
:1010BF0000F582E43464F583E0FEA3E0D39553EEAC
:1010CF00955240249064F0E0FF25E02400F582E47F
:1010DF003464F583E0F552A3E0F55374FA2FF582EB
:1010EF00E43463F583E0F564902FDBE493FFE4FCD5
:1010FF00FDFEAB3BAA3AA939A838D31202374052AA
:10110F00AF650565D3EF940374809480500302118B
:10111F00B0E4F565F51FF51EF51DF51C7F01FEFD0D
:10112F00FCA964A80112025B8F1B8E1A8D198C18F3
:10113F00E47F01FEFDFCA80112025B8F338E328D1E
:10114F00318C30E4F552F5537564201226B24337D3
:10115F000222E4F5657F01FEFDFC9064F0E0FB24C4
:10116F00FAF582E43463F583E0F9F812025BE51BCC
:10117F004FF51BE51A4EF51AE5194DF519E5184C03
:10118F00F518E47F01FEFDFCA80312025BE5334F67
:10119F00F533E5324EF532E5314DF531E5304CF5AD
:0211AF003022EC
:10072C00E4F566902FDFE493FFE566C39F40030278
:10073C000A6AE56625E02400F582E4346085828A45
:10074C007F548F8B7E0E8E8C758903758889E56638
:10075C0025E02400F582E4346085828A8F8B758CC9
:10076C0012758904758889E56625E02418F582E4FC
:10077C003460F583E0FCA3E0C3950FEC950E502E8E
:10078C00E56625E0243CF582E43460F583E0FCA3C7
:10079C00E0C39513EC95125015AF600560EF940211
:1007AC0074809480400BE4F5605337FD8003E4F5CE
:1007BC0060E53730E125E56625E02400F582E43478
:1007CC0064F583E4F0A3F0E56625E0240CF582E4FF
:1007DC003464F583E4F0A3F002087AE56625E0249E
:1007EC0018F582E4346085828A8E8B758C0A758943
:1007FC00267588892088FDE5F130E00875F107E45D
:10080C00F50AF50BAE0AE50B7802C333CE33CED81E
:10081C00F9FFE56625E02400F582E43464F583EE07
:10082C00F0A3EFF0E56625E0243CF582E434608526
:10083C00828A758B12758C0A758927758889208830
:10084C00FDE5F130E00875F107E4F50AF50BAE0AA9
:10085C00E50B7802C333CE33CED8F9FFE56625E03D
:10086C00240CF582E43464F583EEF0A3EFF0E56636
:10087C0025E02418F582E43464F583E0FEA3E078E7
:10088C0002CEC313CE13D8F9F5518E50E56625E090
:10089C002400F582E43464F583E0FEA3E0FF902F9E
:1008AC00D7E493FC740193FDC3EF9DEE9C4017E5D8
:1008BC006625E0240CF582E43464F583E0FEA3E0C5
:1008CC00C39DEE9C50028068E56625E02400F5820D
:1008DC00E43464F583E0FEA3E0C39551EE955040FB
:1008EC001CE56625E0240CF582E43464F583E0FE17
:1008FC00A3E0C39551EE9550400302098674EE2592
:10090C0066F582E43463F583E004F074EE2566F555
:10091C0082E43463F583E0FF902FDCE493FEEFD3A5
:10092C009E406474EE2566F582E43463F583E4F04E
:10093C00E56625E0240CF582E43460F583E0FEA343
:10094C00E0FFE56625E02418F582E43460F583EEDB
:10095C00F0A3EFF0E56625E02430F582E43460F591
:10096C0083E0FEA3E0FFE56625E0243CF582E43459
:10097C0060F583EEF0A3EFF0800D74EE2566F58242
:10098C00E43463F583E4F0E56625E0240CF582E4B9
:10099C00346085828AE56625E02400F582E43460C3
:1009AC0085828B758C0A7589207588CB2088FDE52E
:1009BC00F130E00875F107E4F50AF50BE56625E082
:1009CC00240CF582E4346085828A758B547F0E8FFB
:1009DC008C7589237588897E0A8E8A8F8BE56625AE
:1009EC00E0240CF582E4346085828CE4F58975880A
:1009FC0029E56625E02430F582E4346085828AE5B9
:100A0C006625E02400F582E4346085828B8E8C753B
:100A1C0089207588CB2088FDE5F130E00875F10759
:100A2C00E4F50AF50BE56625E02430F582E4346044
:100A3C0085828A758B547F0E8F8C75892475888975
:100A4C00758A0A8F8BE56625E02430F582E43460E4
:0F0A5C0085828CE4F589758829056602072F22AB
:1019A600E4F566902FDFE493FFE566C39F400302EC
:1019B6001B5EE56625E02418F582E43464F583E0D1
:1019C600FEA3E07802CEC313CE13D8F9F5518E509C
:1019D600E56625E02400F582E43464F583E0FEA3A1
:1019E600E0D39551EE9550402EE56625E0240CF5A2
:1019F60082E43464F583E0FEA3E0D39551EE95507E
:101A0600401574F42566F582E43463F583E4F0AF9B
:101A160066120F5F021B59902FDEE493FFC3E55158
:101A26009FFFE5509400FED3EF9400EE9400400231
:101A360080047E007F00E56625E02400F582E4341C
:101A460064F583E0FCA3E0C39FEC9E4003021B4CBD
:101A5600902FDEE493FFC3E5519FFFE5509400FE0F
:101A6600D3EF9400EE9400400280047E007F00E5F0
:101A76006625E0240CF582E43464F583E0FCA3E0FB
:101A8600C39FEC9E4003021B4C74E82566F582E476
:101A96003463F583E4F074F42566F582E43463F583
:101AA60083E004F074F42566F582E43463F583E09C
:101AB600C395635003021B5974F42566F582E4341A
:101AC60063F583E4F07F01FEFDFC74FA2566F5827A
:101AD600E43463F583E0F9F812025B120206E51FAF
:101AE6005FF51FE51E5EF51EE51D5DF51DE51C5C3B
:101AF600F51CE47F01FEFDFCA966A80112025B123B
:101B06000206E5335FF533E5325EF532E5315DF524
:101B160031E5305CF530E47F01FEFDFC74FA2566A4
:101B2600F582E43463F583E0F9F812025B120206EB
:101B3600E51B5FF51BE51A5EF51AE5195DF519E576
:101B4600185CF518800D74F42566F582E43463F5A7
:091B560083E4F005660219A922DE
:1026B200E4F566902FDFE493FFE566C39F506EE575
:1026C2006625E02400F582E43464F583E4F0A3F0A7
:1026D200E56625E0240CF582E43464F583E4F0A396
:1026E200F0E56625E0240CF582E43460F583E0FE33
:1026F200A3E0FFE56625E02418F582E43460F58363
:10270200EEF0A3EFF0E56625E02430F582E43460D4
:10271200F583E0FEA3E0FFE56625E0243CF582E4D4
:0E2722003460F583EEF0A3EFF00566808622AA
:10250F00E4F566902FDFE493FFE566C39F50679075
:10251F006048E0FF7E00C39410748094805053EFA6
:10252F009408748094804025E56625E02400F582A8
:10253F00E43460F583E0FEA3E0FFE56625E0240CBC
:10254F00F582E43460F583EE8FF01200B8E566256E
:10255F00E02400F582E43460F583E0FEA3E0FFE5BC
:10256F006625E02430F582E43460F583EE8FF012B7
:10257F0000B80566808D906048E0C3941074809415
:10258F008040054337048006906048E004F07F01E7
:03259F0002262EE3
:10273000E4FFFEFDFCAB1BAA1AA919A818C31202DC
:1027400037606390604AE004F07006906049E004EE
:10275000F0902FD3E493FE740193FF4E602ED3903C
:10276000604AE09F906049E09E4021E4F0A3F0F5CC
:102770001FF51EF51DF51CF533F532F531F530F575
:102780001BF51AF519F518C21E0226B2902FD5E4D2
:1027900093FE740193FFD390604AE09F906049E0FC
:0D27A0009E400AD21E22E4906049F0A3F092
:0127AD002209
:051B5F0090644FEFF05F
:101B6400A3E0FCA3E0FDA3E0FEA3E0F54C8E4B8DC7
:101B74004A8C497884E2F50A08E2F50B758A0875FF
:101B84008B49758C4575881D2088FDE4FFFEFDFC9E
:101B9400AB48AA47A946A845D31202214006AC4542
:101BA400A8048013AF48AE47AD46AC45120213AB50
:101BB40007AA06A905A80490604FE0FEA3E0FFE48D
:101BC400FCFDC31202215041E4FFFEFDFCAB48AA18
:101BD40047A946A8451202214006AF48AE47800BEC
:101BE400AF48AE47AD46AC4512021390604FEEF0DD
:101BF400A3EFF090644FE025E024DCF582E4346345
:101C0400F583E0A3E090604EF0902FD0E493FE744F
:101C14000193FFD3906050E09F90604FE09E501B73
:101C240090644FE025E024DCF582E43463F583E03E
:101C3400A3E090604EF090604B8079E4FFFEFDFCE1
:101C4400AB48AA47A946A845D31202214034906460
:101C54004FE0FF25E024DCF582E43463F583E0FC07
:101C6400A3E0D39400EC9400404DEF25E024DCF590
:101C740082E43463F58374FFF5F01200B890604C8D
:101C8400803290644FE0FF25E024DCF582E4346385
:101C9400F583E0FCA3E0C3947FEC94005019EF2596
:101CA400E024DCF582E43463F583E475F00112008A
:101CB400B890604D7401F090604CE064017011A321
:101CC400E06401700B90604CF0A3F090604B04F062
:101CD40090604BE06401703590604EE0FF90644F7B
:101CE400E025E024DCF582E43463F583E4F0A3EF3B
:101CF400F074FF90604FF0A3F090604E747FF0E4B6
:0F1D040090604CF0A3F090604BF07F01227F00C5
:011D130022AD
:1029E500E490644EF0902FCA12027A780112025BCD
:1029F500906450120296AF61121B5FEF6022056171
:102A0500E53730E4095337EF90644E7401F0902FA9
:102A1500DFE493FFE561C39F4006E4F561433710AA
:102A2500C3902FCE7401939562E49394004008906F
:102A3500644EE064017005D21D022EF3E4FF1226F8
:012A45002E62
:012A4600226D
:10262E00EF70607F01FEFDFC74FA2561F582E434E3
:10263E0063F583E0F9F812025B8F178E168D158CF9
:10264E0014787EE254FCF2E24514F218E515F21805
:10265E00E516F218E517F2E56125E024DCF582E4D3
:10266E003463F583E0A3E0547FFF7878E254804F23
:10267E00F2787FE254FBF2E254FB4404F2E24401AE
:10268E00F2801CE56125E024DCF582E43463F583F9
:10269E00E0A3E0547FFF7878E254804FF2787FE237
:0426AE004402F222CE
:1023DD00E49064EDF0A3F09064EDE0FEA3E0FFC3A4
:1023ED009488EE94035031EF242CFFEE34078F8246
:1023FD00F583E493FF9064EEE02451FD9064EDE0ED
:10240D0034608D82F583EFF09064EEE004F070C7D8
:08241D009064EDE004F080BFC3
:102425009063D97401F0A37460F0A37451F0E4F5DE
:1024350061F537F536F535F534C21DC21EF51FF5C4
:102445001EF51DF51CF533F532F531F530F51BF5A7
:102455001AF519F518902FD993FF902FDDE493FE07
:10246500A807088002C333D8FCF563756420E4FF30
:0324750002262E0E
:102824007884E2F50A08E2F50BAE0A7803CEC31306
:10283400CE13D8F97802C333CE33CED8F9FFE5618D
:1028440025E02400F582E43460F583EEF0A3EFF094
:10285400201D0F902FD2E4937005D21D022EF30297
:1028640029E50561902FDFE493FFE561C39F401FD5
:10287400787FE254FBF2E254FB4404F2E24401F2B6
:10288400E4F561E53720E20302250F433701227F97
:052894000112262E22B6
:05001800056202273023
:10311800E53730E01A9063D9A3E0FAA3E0F9120387
:10312800681219A6E4F5617F0112262E5337FE2294
:1025AE00022CD2E493A3F8E493A34003F68001F245
:1025BE0008DFF48029E493A3F85407240CC8C3332E
:1025CE00C4540F4420C8834004F456800146F6DFFD
:1025DE00E4800B0102040810204080902139E47E33
:1025EE00019360BCA3FF543F30E509541FFEE493F2
:1025FE00A360010ECF54C025E060A840B8E493A3B9
:10260E00FAE493A3F8E493A3C8C582C8CAC583CAE3
:10261E00F0A3C8C582C8CAC583CADFE9DEE780BE9B
:0122390000A4
:10006000BB010689828A83E0225002E722BBFE029E
:09007000E32289828A83E49322D1
:10007900BB010CE58229F582E5833AF583E022503C
:1000890006E92582F8E622BBFE06E92582F8E22286
:0D009900E58229F582E5833AF583E49322A0
:1000A600BB010689828A83F0225002F722BBFE0139
:0200B600F32233
:1000B800C5F0F8A3E028F0C5F0F8E58215827002D3
:0600C8001583E038F02270
:0D00CE00EF2BFFEE3AFEED39FDEC38FC2281
:0E00DB00C3EF9BFFEE9AFEED99FDEC98FC2220
:1000E900E88FF0A4CC8BF0A42CFCE98EF0A42CFCB6
:1000F9008AF0EDA42CFCEA8EF0A4CDA8F08BF0A434
:100109002DCC3825F0FDE98FF0A42CCD35F0FCEB92
:100119008EF0A4FEA9F0EB8FF0A4CFC5F02ECD3957
:0F012900FEE43CFCEAA42DCE35F0FDE43CFC22C4
:1001380075F008758200EF2FFFEE33FECD33CDCC7E
:1001480033CCC58233C5829BED9AEC99E582984001
:100158000CF582EE9BFEED9AFDEC99FC0FD5F0D6DE
:10016800E4CEFBE4CDFAE4CCF9A88222B800C1B908
:100178000059BA002DEC8BF084CFCECDFCE5F0CB46
:10018800F97818EF2FFFEE33FEED33FDEC33FCEB7F
:1001980033FB10D703994004EB99FB0FD8E5E4F93A
:1001A800FA227818EF2FFFEE33FEED33FDEC33FC27
:1001B800C933C910D7059BE99A4007EC9BFCE99A1B
:1001C800F90FD8E0E4C9FAE4CCFB2275F010EF2F60
:1001D800FFEE33FEED33FDCC33CCC833C810D70760
:1001E8009BEC9AE899400AED9BFDEC9AFCE899F89B
:0E01F8000FD5F0DAE4CDFBE4CCFAE4C8F9222E
:0D020600CFF4CFCEF4CECDF4CDCCF4CC228D
:0E021300C3E49FFFE49EFEE49DFDE49CFC22FC
:10022100EB9FF5F0EA9E42F0E99D42F0EC6480C854
:0602310064809845F022F4
:10023700EB9FF5F0EA9E42F0E99D42F0E89C45F01D
:010247002294
:10024800E8600FECC313FCED13FDEE13FEEF13FF94
:03025800D8F122B8
:10025B00E8600FEFC333FFEE33FEED33FDEC33FC01
:03026B00D8F122A5
:0C026E00E0FCA3E0FDA3E0FEA3E0FF2203
:10027A00E493FC740193FD740293FE740393FF22CA
:0C028A00E0F8A3E0F9A3E0FAA3E0FB22F7
:0C029600ECF0A3EDF0A3EEF0A3EFF022DB
:1002A200A8828583F0D083D0821202B91202B912D9
:1002B20002B91202B9E473E493A3C583C5F0C583FE
:1002C200C8C582C8F0A3C583C5F0C583C8C582C8A6
:0102D2002209
:0C02D300A42582F582E5F03583F5832236
:0902DF00E0FBA3E0FAA3E0F92220
:1002E800F8E0FBA3A3E0F925F0F0E582158270029F
:0702F8001583E0FA38F02243
:0902FF00EBF0A3EAF0A3E9F02200
:10030800D083D082F8E4937012740193700DA3A384
:1003180093F8740193F5828883E473740293686098
:06032800EFA3A3A380DF98
:10032E00D083D082E4937012740193700DA3A393C3
:10033E00F8740193F5828883E4737402936C7012DF
:10034E007403936D700C7404936E70067405936F42
:0A035E0060DDA3A3A3A3A3A380CA3C
:060368008A838982E47320
:10036E00EC8EF0A4CCC5F0CCCDF8EFA4CEC5F02D1C
:10037E00FDE43CFCE8A42EC8C5F03DFDE43CFCEFDA
:0D038E00A4FFE5F028FEE43DFDE43CFC2268
:1003C700E5402427F582E43464F583E00540229074
:1003D7006424301B03906427E475F0011202E802DD
:1003E70000602014E97F2ED2148018EF540F249058
:1003F700D43440D4FF30180BEF24BFB41A00500395
:100407002461FFE541600215410544E5447002059A
:1004170043301B0E906424E475F0011202E8EF02EA
:1004270000A602004E7403D21B8003E4C21BF540F2
:100437009064241202FFE4F541F543F544E5416079
:10044700077F2012040A80F57542FFC215C214C245
:1004570016C217C219C21AC21C1203D6FF700D307A
:100467001B057F0012041BAF44AE4322B4255FC2B5
:10047700D5C2181203D6FF24D0B40A00501A75F05B
:100487000A784130D50508B6FF0106C6A426F6202E
:10049700D5047002D21780D924CFB41A00EF5004C4
:1004A700C2E5D21802061CD21580C6D21480C0D26B
:1004B7001680BCD2D580BAD21980B47F2012040A24
:1004C7002016077401B5410040F11203C7FF12045B
:1004D7000A020444D21CD21A80951203C7FB1203E6
:1004E700C7FA1203C7F94A4B700679ED7A067BFF04
:1004F70020162EE541602A7E008E82758300120049
:100507007960060EEE654270F0C2D5EBC0E0EAC036
:10051700E0E9C0E0EE120663D0E0F9D0E0FAD0E0FF
:10052700FB120060FF60AAEBC0E0EAC0E0E9C0E0B0
:1005370012040AD0E02401F9D0E03400FAD0E0FB3D
:10054700E5420460DCD542D980877BFF7A06795F74
:10055700D216809C791080027908C21AC21C8008C2
:10056700D2D5790A8004790AC2D5E542047002F52A
:1005770042E4FAFDFEFF1203C7FC7B0820151312A5
:1005870003C7FD7B1030140A1203C7FE1203C7FF0F
:100597007B20EC3382D592D55013C3E43014069FE9
:1005A700FFE49EFEE42015039DFDE49CFCE4CBF8EC
:1005B700C215EC700CCFCECDCCE824F8F870F380E0
:1005C70017C3EF33FFEE33FEED33FDEC33FCEB33B4
:1005D700FB994002FB0FD8E9EB301505F8D0E0C4D2
:1005E70048B215C0E00AEC4D4E4F78207B0070C230
:1005F700EAB5420040BCC0E0120665D0F0D0E0206A
:100607001504C4C0E0C4B215C0F01203F3D0F0D58E
:10061700F0EB02044412030804E153055B5804B2EB
:100627004C04AE42055F4F05674405674904C7435D
:08063700056D55055146055102
:10063F0045055147070D5004B62D04BA2E04DD2B86
:10064F0004BE2304DB2006F62A047648000004D5F6
:10065F003F3F3F00790AA2D5201714301909B9106E
:10066F00020404B9080104A2D5201A025001042083
:10067F0016689216B541005034C0E07F203017192C
:10068F007F30A216721A7219500F1206BCC216C210
:10069F001AC219C21C7F30800F301903E9C0E01253
:1006AF00040A301903D0E0F9D0E0B541CC30191766
:1006BF007F30B9100C12040A7F583018077F7880EA
:1006CF0003B9080312040A3016057F2D02040A7FAE
:1006DF0020201CF87F2B201AF322921680CF286E31
:1006EF00756C6C2900D2151203C73015F8C2157836
:1006FF004130D50108F60204762D504349581203B4
:10070F00C72403B405004001E4900708931203FBCC
:0D071F00743A1203FBD21775410402055B0A
:10039B00EF4E6012EF60010EEDBB010B89828A8379
:1003AB00F0A3DFFCDEFA2289F05007F709DFFCA986
:0C03BB00F022BBFEFCF309DFFCA9F022DD
:00000001FF
