:0300000002254591
:0C254500787FE4F6D8FD75816602258CD5
:0C000300000000000000000000000000F1
:0B32E600EF1FAC0670011E4C70F622BA
:10314000AB07AA06EB1BAE0270011A4E60097FAAFC
:083150007E051232E680ED223B
:1021DD00907120E04480F07F057E001232E6E4FF2E
:1021ED00FE12314075A75575AC5C9071327450F08C
:1021FD009071307403F0907136742FF090715C749F
:10220D0003F090715BE054FCF07F18EF2466FDE461
:10221D0034718D82F583E4F00FEFB433EE904011FD
:10222D00E4935407FF90711CE054F84FF090401761
:10223D00E493547FFF90711DE054804FF090401057
:10224D00E493FF5401C43333335480FE907123E083
:10225D00547F4EF0EFC313543F4440FFA3E054802E
:10226D004FF0904012E493FF540FFE907146E054EE
:10227D00F04EF0EFC4540FFF90714FE054F04FF05B
:10228D00904013E493543FFF907140E054C04FF0E1
:10229D00904014E493907126F0904015E493907162
:0B22AD0028F0904016E49390712AF096
:0122B8002203
:1031C40078D2E254FBF2E24404F2907187E4F0D244
:0231D400912246
:10307A0078D2E254FBF2E24404F2907187E4F078E9
:0D308A00D0E24402F208E24402F2D29122A8
:1030970078D2E254EFF2E24410F2907188E4F078CB
:0D30A700D0E24404F208E24404F2D2922286
:1030B40078C2E254FBF2E24404F290717FE4F078C7
:0D30C400C0E24402F208E24402F2C281229E
:10321A0078C2E254BFF2E24440F2907181E4F022B3
:1030D10078E3E254EFF2E24410F2907194E4F07874
:0D30E100E0E24440F208E24440F2C2A622C0
:0D324A0078C3E254CFF278C0E24440F22293
:0D32570078C3E2543FF278C0E24480F222D6
:0D32640078D2E254FCF278D0E24401F2226C
:0D32710078D2E2543FF278D0E24408F22215
:0D327E0078D3E254FCF278D0E24410F22242
:0D328B0078E2E254F3F278E0E24402F2222D
:0D32980078E2E254CFF278E0E24404F22242
:0D32A50078E2E2543FF278E0E24408F222C1
:0D32B20078E3E254F3F278E0E24420F222E7
:0D32BF0078E3E2543FF278E0E24480F2222E
:0D32CC0078F2E254FCF278F0E24401F222C4
:071FD80044602C0000000032
:102DB800E5B154F342B153A8DFD2AF7892E4F208F8
:102DC800F27890E254E3F2E2441CF2E254FCF2E2BC
:102DD8004401F208E2547FF2E24420F2789574014B
:102DE800F2187476F27890E2541FF2E244A0F222CC
:10322A007890E2541FF2E244C0F243A820D2AF22BF
:10002A007890E2541FF2E244A0F27892E4F208F2E5
:04003A0053A8DF22C6
:03001E00022B7141
:102B7100C0E0C0F0C083C082C0D075D000C000C02A
:102B810004C005C006C0077891E230E71DE2448029
:102B9100F290602C12026EEF2401FFE43EFEE43D50
:102BA100FDE43CFC90602C120296D007D006D005C3
:0F2BB100D004D000D0D0D082D083D0F0D0E0328A
:071FDF004464BA0000000099
:102DF800E5B154CF42B153A8BFD2AF789EE4F208F0
:102E0800F2789CE254E3F2E2441CF2E254FCF2E26F
:102E18004401F208E2547FF2E24420F278A1E4F29D
:0F2E2800187424F2789CE2541FF2E244A0F222C4
:10323A00789CE2541FF2E244C0F243A840D2AF2283
:1031B000789CE2541FF2E244A0F2789EE4F208F216
:0431C00053A8BF222F
:03002100022BC0EF
:102BC000C0E0C0F0C083C082C0D075D000C000C0DB
:102BD00004C005C006C007789DE230E71DE24480CE
:102BE000F29064BA12026EEF2401FFE43EFEE43D6F
:102BF000FDE43CFC9064BA120296D007D006D005E2
:0F2C0000D004D000D0D0D082D083D0F0D0E0323A
:071FE6004464BE000000008E
:102CEA00E5B254FC42B253A9FED2AF907102E4F0AD
:102CFA00A3F0907100E054E3F0E0441CF0E054FCCF
:102D0A00F0E04401F0A3E0547FF0E04420F0907139
:102D1A0005E4F09071047424F0907100E0541FF0FF
:052D2A00E044A0F022CE
:1031D600907100E0541FF0E044C0F043A901D2AF63
:0131E60022C6
:10315800907100E0541FF0E044A0F0907102E4F098
:06316800A3F053A9FE22B2
:03002400022AD1DC
:102AD100C0E0C0F0C083C082C0D075D000C000C0CB
:102AE10004C005C006C007907101E030E71DE04455
:102AF10080F09064BE12026EEF2401FFE43EFEE41A
:102B01003DFDE43CFC9064BE120296D007D006D095
:102B110005D004D000D0D0D082D083D0F0D0E03224
:071FED004464C20000000083
:102C5E00E5B254F342B253A9FDD2AF90710AE4F03B
:102C6E00A3F0907108E054E3F0E0441CF0E054FC53
:102C7E00F0E04401F0A3E0547FF0E04420F09071C6
:102C8E000D7401F090710C7476F0907108E0541F81
:062C9E00F0E044A0F0226A
:1031E700907108E0541FF0E044C0F043A902D2AF49
:0131F70022B5
:10316E00907108E0541FF0E044A0F090710AE4F072
:06317E00A3F053A9FD229D
:03002700022B2188
:102B2100C0E0C0F0C083C082C0D075D000C000C07A
:102B310004C005C006C007907109E030E71DE044FC
:102B410080F09064C212026EEF2401FFE43EFEE4C5
:102B51003DFDE43CFC9064C2120296D007D006D041
:102B610005D004D000D0D0D082D083D0F0D0E032D4
:1028AD00726563762074696D65206F757421200AD9
:1028BD0000666F726D6174206C656E20696E766155
:1028CD006C6964210A00256420202564200A0072A9
:1028DD0065637620637263206F72206C656E206570
:1028ED00727221200A0025327820000A3D3D3D3DBF
:1028FD003D3D3D3D3D3D3D3D3D3D3D3D3D3D3D3DFB
:08290D003D3D3D3D3D3D0A004A
:101FF4005E645E00000000000000000000000000BD
:1020040000000000000000000000000000000000CC
:102014000043647C00000043648000000043648447
:10202400000000C12041647F004164590041648381
:082034000044645A00000000A2
:0E004E00906451EFF01232D9906451E0FF221D
:102FB00078D2E2F2E24404F2907187E04404F090A7
:102FC0007175E0440BF043AA20D2AF75D60175D5D8
:052FD0009F75D21122E3
:03004B00021D4D46
:101D4D00C0E0C0F0C083C082C0D075D000C000C05C
:0D1D5D0001C002C003C004C005C006C007DD
:101D6A00906452E4F0E5D420E503021EA9E5D7F019
:101D7A00202004E0B4A509906483E0C394034003DF
:101D8A00021E9C906452E0B4A51BD220906459E4D0
:101D9A00F090647FF012002A90602C1202A20000D8
:101DAA00000012322A906459E0B40108906452E0AB
:101DBA0090647FF090645A12026E74802FF582E468
:101DCA003464F583E06003021EA9906452E0FF9038
:101DDA00645A12028A90645E75F00AEB1202D3EA20
:101DEA0075F00AA42583F583C083C082906459E004
:101DFA00FE04F0D082D083E5822EF582E43583F5A5
:101E0A0083EFF090602C1202A20000000090647F21
:101E1A00E07003021EA9E0FF906459E06F600302BC
:101E2A001EA990647FE0FB90645A12026E747C2FA4
:101E3A00F582E43464F583EBF0C220906459E4F04F
:101E4A0090647FF090645A12026E74802FF582E4D7
:101E5A003464F5837401F0906483E004F090645A6A
:101E6A0012026EEF2401FFE43EFEE43DFDE43CFC79
:101E7A0090645A120296E47F03FEFDFC90645A12A3
:101E8A00028AC3120237400A90645A1202A2000060
:0F1E9A00000012002A90602C1202A2000000002B
:101EA900D007D006D005D004D003D002D001D0008D
:0B1EB900D0D0D082D083D0F0D0E03237
:0D32D900E5D430E4FB8FD7E5D430E4FB22D0
:062FD5009064CA1202FF25
:102FDB00E4FEEEC39D50159064CA1202DF8E82751B
:0C2FEB008300120079FF1232D90E80E63C
:012FF70022B7
:10163100E4906424F0A3F0C2147F0AFEFDFC9060E4
:101641002C12028AD3120237402112002A90602CF8
:101651001202A200000000E4906459F090647FF04F
:10166100C2207BFF7A2879AD020432E4906424F031
:10167100906424E0FFC39403400302181374802F85
:10168100F582E43464F583E0700302180A9064245F
:10169100E075F00AA4245FF582E43464F583E0FE8A
:1016A100747C2FF582E43464F583E06E70030217D5
:1016B100327BFF7A2879BE1204327BFF7A2879D3F4
:1016C100906424E0247CF582E43464F583E0FFE453
:1016D100FCFDFE90642C120296906424E075F00AE1
:1016E100A4245FF582E43464F583E0FFE4FCFDFEAD
:1016F100906430120296120432122751906424E051
:10170100FF2480F582E43464F583E4F0906483E09F
:1017110014F090000AC083C0827D00EF75F00AA426
:10172100245EF9746435F0FA7B01D007D006020318
:011731009B1C
:10173200E4906426F0906425F0A3F0906424E0FF26
:10174200247CF582E43464F583E014FE906426E0A0
:10175200FDC39E5026EF75F00AA4245EF582E434A0
:1017620064F583E5822DF582E43583F583E0FF900D
:101772006425E02FF0A3E004F080C0906425E054DB
:101782000FF0906424E0FF247CF582E43464F58356
:10179200E0FEEF75F00AA4245DF582E43464F5837B
:1017A200E5822EF582E43583F583E0FF906425E03F
:0517B2006F6002D2147B
:1017B7003014407BFF7A2879DC120432C21490641B
:1017C70024E0FF2480F582E43464F583E4F0906438
:1017D70083E014F090000AC083C0827D00EF75F0AB
:1017E7000AA4245EF9746435F0FA7B01D007D006A9
:1017F70012039B906424E02484F582E43464F58327
:0C1807007401F0906424E004F0021671FB
:0118130022B2
:102D740074842FF582E43464F583E4F0747C2FF5D5
:102D840082E43464F583E4F074802FF582E43464DF
:102D9400F583E4F0F58375820AC083C082FDEF7584
:102DA400F00AA4245EF9746435F0FA7B01D007D0EC
:042DB4000602039B75
:10275100E4906427F0A3F0906427F0906427E0FFF1
:10276100C394035060EF2430FF1232D97F0A123232
:10277100D9E4A3F0906428E0FFC3940A50367BFFAC
:102781007A2879F3906427E075F00AA4245EF58233
:10279100E43464F583E5822FF582E43583F583E043
:1027A100FF90642CE4F0A3EFF0120432906428E06F
:1027B10004F080C07BFF7A2879F8120432906427F4
:0527C100E004F0809629
:0127C60022F0
:05203C004264CD00002C
:102F8A0078E2E244C0F278C2E24403F2E2440CF28C
:102F9A00907123E054D8F0E054BFF0E0441EF09062
:062FAA0071227407F02201
:1030EE00EF24FE600804700E75990480037599052F
:0D30FE007869E24448F27F017E0002314013
:102FF8007869E24401F2786BE230E1FA7402F2AFE8
:1030080093EF75F010A4FFAEF0E594C4540FFDEFF4
:033018004DFF2247
:102A7F00E49064B5F0F09064B612028AC000122F91
:102A8F00F8E4FCFDD0001200CE9064B612029690CE
:102A9F0064B5E0C39401400FA312026E78011202D5
:102AAF00489064B61202969064B5E004F0E0C394C7
:102ABF002040C39064B612026E9064CDEEF0A3EF87
:012ACF00F016
:012AD00022E3
:10305C007F011230EE122A7F7FF47E011231407F05
:0E306C00021230EE122A7F7FF47E0102314004
:102EDF007F011230EE122A7F9064CDE0FEA3E0FF57
:102EEF007C007D6412036EE47BFF7A0FF9F8120108
:0F2EFF007490649FEFF0D2047F0A7E000231408E
:1031F80075AF3F8FAF75AEB975A402E5A530E1FB99
:0132080022A3
:102E74009064251202FF75AF3F8FAF906428E0C3C2
:102E840094014022E5A530E0FB906425E475F0014F
:102E94001202E8120060F5A675AEB975A40190643B
:072EA40028E014F080D522A4
:102EAB009064251202FF906428E06027AE070FEEB6
:102EBB002400FDE4343F8D82F583E493FE9064257A
:102ECB00E475F0011202E8EE1200A6906428E014FB
:042EDB00F080D3228E
:102F0E00000009C4006400C80101F4004B000A006F
:102F1E0000010F04050600000064000200640003B7
:0E2F2E00006400090064000A006400190064D9
:10121100E4FF74FA2FF582E43463F583E0C39408A4
:1012210040030212C274FA2FF582E43463F583E0BD
:10123100C39404504478C2C000E2FE74FA2FF582D0
:10124100E43463F583E025E0FDF87403088002C30C
:1012510033D8FCF45ED000F278C2C000E2FE74FA2A
:101261002FF582E43463F583E025E0FDF87403088B
:101271008002C333D8FC02142478C3C000E2FE7498
:10128100FA2FF582E43463F583E024FC25E0FDF8D0
:101291007403088002C333D8FCF45ED000F278C333
:1012A100C000E2FE74FA2FF582E43463F583E02492
:1012B100FC25E0FDF87403088002C333D8FC021456
:1012C1002474FA2FF582E43463F583E0C394085063
:1012D1000302138874FA2FF582E43463F583E0C3C3
:1012E1009410400302138874FA2FF582E43463F5F5
:1012F10083E0C3940C504878D2C000E2FE74FA2F08
:10130100F582E43463F583E024F825E0FDF8740305
:10131100088002C333D8FCF45ED000F278D2C0005A
:10132100E2FE74FA2FF582E43463F583E024F825B4
:10133100E0FDF87403088002C333D8FC021424785A
:10134100D3C000E2FE74FA2FF582E43463F583E042
:1013510024F425E0FDF87403088002C333D8FCF4BB
:101361005ED000F278D3C000E2FE74FA2FF582E479
:101371003463F583E024F425E0FDF874030880026A
:10138100C333D8FC02142474FA2FF582E43463F5D4
:1013910083E0C39414504778E2C000E2FE74FA2F50
:1013A100F582E43463F583E024F025E0FDF874036D
:1013B100088002C333D8FCF45ED000F278E2C000AA
:1013C100E2FE74FA2FF582E43463F583E024F0251C
:1013D100E0FDF87403088002C333D8FC804578E34C
:1013E100C000E2FE74FA2FF582E43463F583E02451
:1013F100EC25E0FDF87403088002C333D8FCF45EE9
:10140100D000F278E3C000E2FE74FA2FF582E434F2
:1014110063F583E024EC25E0FDF87403088002C342
:1014210033D8FC4ED000F20FEF64066003021213B2
:011431002298
:03005D00022D2F42
:102D2F00C0E0C0F0C083C082C0D075D000C000C06A
:102D3F0001C002C003C004C005C006C0077881E20D
:102D4F0030E607E24440F21227C7D007D006D0057D
:102D5F00D004D003D002D001D000D0D0D082D08305
:052D6F00D0F0D0E032BD
:102C0F00D2AF43AB0843B6C0907132E04440F043BB
:102C1F00AB087877743FF208744BF2787A7430F21D
:102C2F00788914F27871744FF2187427F2787274ED
:102C3F00A8F2087410F208E4F208F208F2787E7431
:0F2C4F00D0F2087404F208741EF2087402F22224
:03003F00022CA4EC
:102CA400C0E0C0F0C083C082C0D075D000C000C0F6
:102CB40001C002C003C004C005C006C00790715320
:102CC400E030E707E04480F0120018D007D006D0C7
:102CD40005D004D003D002D001D000D0D0D082D00F
:062CE40083D0F0D0E032C5
:10241B00E4FBEB25E025E02424F582E4342FF5835F
:10242B00740193FF74FA2BF582E43463F583EFF0B8
:10243B00EB25E025E02426F582E4342FF583E493A5
:10244B00FE740193FFEB25E02418F582E43464F568
:10245B0083EEF0A3EFF0EB25E024DCF582E43463AC
:10246B00F583E4F0A37441F0E47F01FEFDFC74FA04
:10247B002BF582E43463F583E0F9F812025BE53F58
:10248B004FFFE53E4EFEE53D4DFDE53C4C8F3F8E4F
:10249B003E8D3DF53C0BEB6406600302241D1212CE
:0724AB0011122380022C0F27
:1031260079656172202564206D6F6E746820256450
:0A31360020646179202564200A005E
:102977001221DD75D9DD75D95590715EE054FEF0F1
:1029870075D9BB12310B7BFF7A317926906497E0BA
:10299700FFA3E090642CCFF0A3EFF0906499E0FFE1
:1029A70090642EE4F0A3EFF090649AE0FF90643017
:1029B700E4F0A3EFF0120432121631121814120ABF
:0C29C7006B12283C1220E0121EC480ECB1
:102041006020648700000000000000000000000024
:10205100000000000000000000000000000000007F
:04206100000000007B
:103209007B017A6479879064287420F0E4FF022EA8
:01321900AB09
:10318400E4FF1231F87B017A647987906428742013
:06319400F0E4FF022E74BE
:060D240090642412029607
:100D2A0090642C1202A2000000007FA51232D99012
:100D3A00642412026E12032E0D8E000000010DAD06
:100D4A00000000020DCC000000030DEB00000004BF
:100D5A000E0A000000050E29000000060E480000D9
:100D6A0000070E7A000000080EAC000000090ECA47
:100D7A000000000A0EEC0000000B0F4F0000000CF0
:100D8A0000000FAF7F051232D97F011232D9906469
:100D9A002812026E1232D990642812026EEF24AB26
:100DAA00020EE67F051232D97F021232D9906428E8
:100DBA0012026E1232D990642812026EEF24AC022B
:100DCA000EE67F051232D97F031232D990642812B7
:100DDA00026E1232D990642812026EEF24AD020E0E
:100DEA00E67F051232D97F041232D99064281202A2
:100DFA006E1232D990642812026EEF24AE020EE609
:100E0A007F051232D97F051232D990642812026EF8
:100E1A001232D990642812026EEF24AF020EE67FD6
:100E2A00051232D97F061232D990642812026E1244
:100E3A0032D990642812026EEF24B0020EE67F06C1
:100E4A001232D97F071232D990642812026E7808BA
:100E5A001202481232D990642812026E1232D990C4
:100E6A00642812026E7808120248EF24B2020F7E3A
:100E7A007F061232D97F081232D990642812026E84
:100E8A0078081202481232D990642812026E12327D
:100E9A00D990642812026E7808120248EF24B3022D
:100EAA000F7E7F051232D97F091232D99064281237
:100EBA00026E1232D990642812026EEF24B3801C9B
:100ECA007F051232D97F0A1232D990642812026E33
:100EDA001232D990642812026EEF24B4FFE433026E
:100EEA000F8F7F071232D97F0B1232D990642812E2
:100EFA00026E78101202481232D990642812026ED9
:100F0A0078081202481232D990642812026E1232FC
:100F1A00D990642812026E7810120248EF24B7FBA7
:100F2A00E433FA90642812026E78081202487E00AE
:100F3A00EB2FFBEE3AFA90642812026E7E00EB2F3A
:100F4A00FFEE3A80407F061232D97F0C1232D990D6
:100F5A00642812026E78081202481232D990642864
:100F6A0012026E1232D990642812026E78081202A6
:100F7A0048EF24B7FBE433FA90642812026E7E002D
:100F8A00EB2FFFEE3AFE3395E0FDFC90642C120243
:100F9A009690642C12026EEF540FFFE4FEFDFC9053
:100FAA00642C12029690642C12026E1232D97F0AB5
:050FBA007E0002314041
:10301B0012328B1232981232A51232B21232CC12F9
:10302B0032BF12327E1232711232641232570232B6
:01303B004A4A
:1022B90020A30C9064A0E07011D20504F0800B906B
:1022C90064A0E0B40104E4F0D20520A5099064A15A
:1022D900E0700E0480089064A1E0B40104E4F0D237
:1022E9001020A2099064A2E0700E0480089064A2F4
:1022F900E0B40104E4F0D20E20A1099064A3E070D7
:102309000E0480089064A3E0B40104E4F0D209202B
:10231900860990649EE0605EE4805820870C906492
:102329009EE0640160507401804920900C90649E85
:10233900E0640260417402803A20930C90649EE04C
:10234900640360327403802B20940C90649EE064D3
:102359000460237404801C20A70C90649EE064052B
:1023690060147405800D20B00D90649EE0640660D1
:07237900057406F0D20A22F0
:102065004464B1000000004464AD00000000446415
:0D207500A7000000004164AB004164AC0016
:102F3C00E5B854F342B843A802D2AF78C2E254CFFA
:102F4C00F218E24404F278C7E24404F278C4E25482
:072F5C00CFF2E24420F22253
:1020E0009064241202A200000000E47FE87E03FD59
:1020F000FC9064BE12028AC312023750030221DC34
:102100009064BE1202A200000000E47F037E07FD7F
:10211000FC9064B112028A1200E9E47B10FAF9F82B
:102120001201749064241202969064AD12026E90B3
:10213000642412028A1200CE9064AD12029690645A
:102140002412026EE47B407A38F9F81200E99064B8
:102150002412029690642412026E7B407A42790F18
:1021600078001201749064241202969064B11202F5
:10217000A2000000009064A712026E906424120274
:102180008AD31202374012E49064ACF09064ABE062
:1021900004F0E0940A404580219064A712026E90FA
:1021A000642412028AC3120237502AE49064ABF00E
:1021B000A3E004F0E0C3940A402290642412026E6B
:1021C0009064A712029690642412026E90648B129F
:0C21D0000296D20822E49064ABF0A3F069
:0121DC0022E0
:030012000229D3ED
:1029D300C0E0C0F0C083C082C0D075D000C000C0CA
:0929E30003C004C005C006C007D2
:1029EC0078C6E2FB30E2199064B112026EEF24015A
:1029FC00FFE43EFEE43DFDE43CFC9064B112029623
:062A0C00AF0378C6EBF2F7
:102A1200D007D006D005D004D003D000D0D0D082C9
:072A2200D083D0F0D0E032B8
:10310B00123209122DB8122FB012301B122DF812D9
:0B311B002F3C122F63122C5E022F8A43
:10319A00656E67696E6520737065656420256C7558
:0631AA002072706D0A00A6
:072082004464C600000000E9
:102F6300E5B854CF42B843A804D2AF78D2E254CFE5
:102F7300F218E24404F278D7E24404F278D4E2543B
:072F8300CFF2E24420F2222C
:10283C009064241202A200000000E47FC47E09FD13
:10284C00FC9064BA12028AC31202374053E47FF040
:10285C00FEFDFC9064C612028A1200E9E47B10FAB9
:10286C00F9F81201749064241202969064BA120260
:10287C00A2000000009064C61202A20000000090AA
:10288C00642412026E9064871202967BFF7A31796F
:10289C009A90642412026E90642C120296120432E6
:0128AC002209
:03001500022A2993
:102A2900C0E0C0F0C083C082C0D075D000C000C073
:092A390003C004C005C006C0077B
:102A420078D6E2FB30E2199064C612026EEF2401DE
:102A5200FFE43EFEE43DFDE43CFC9064C6120296B7
:062A6200AF0378D6EBF291
:102A6800D007D006D005D004D003D000D0D0D08273
:072A7800D083D0F0D0E03262
:102089004460240000000044602800000000C121D1
:101EC40020210FD2219064C21202A200000000124D
:101ED40031E7E47F307E75FDFC9064C212028AC350
:101EE400120237400D9064C21202A20000000012D8
:101EF4003184E47FE87E03FDFC9064AD12028AC362
:101F0400120237407B90648F12028AC000C001C065
:101F140002C003E47BE87A03F9F89064AD12026E20
:101F2400120174D003D002D001D0001200CE90640C
:101F34008F12029690649312028AC000C001C002FC
:101F4400C003E47BE87A03F9F89064AD12026E12E0
:101F54000174D003D002D001D0001200CE9064935B
:101F64001202969064AD12026EC3EF94E8FFEE94F1
:101F740003FEED9400FDEC9400FC9064AD12029617
:101F840090602412028A90648F12026E1200DBE4C5
:101F94007B64FAF9F8C3120237500E90648F120270
:101FA4006E906024120296D20090602812028A90E9
:101FB400649312026E1200DBE47BE87A03F9F8C33F
:101FC400120237500E90649312026E90602812022F
:031FD40096D2079B
:011FD70022E7
:1014320020666C61675F6765745F616C6C5F737473
:10144200617475730A0020666C61675F6765745F1B
:10145200676561720A0020666C61675F6765745F29
:10146200626174746572790A0020666C61675F67F5
:1014720065745F6272616B650A0020666C61675F0A
:101482006765745F6C6566745F7475726E0A0020BE
:10149200666C61675F6765745F72696768745F74C1
:1014A20075726E0A0020666C61675F6765745F68BB
:1014B2006967685F6265616D0A0020666C61675FDB
:1014C2006765745F656E67696E655F737065656495
:1014D200200A0020666C61675F6765745F737065E0
:1014E2006564200A0020666C61675F6765745F66E9
:1014F20075656C200A0020666C61675F6765745FC2
:1015020074656D705F6F665F7761746572200A0043
:1015120020666C61675F6765745F746F74616C5F8E
:101522006D696C65616765200A0020666C61675FA2
:101532006765745F7375625F746F74616C5F6D6908
:101542006C65616765200A0020666C61675F67658C
:10155200745F746F7563685F6B65795F73746174D0
:101562007573200A0020666C61675F616C74657236
:101572005F64617465200A007965617220256420C8
:101582006D6F6E7468202564206461792025642063
:101592000A0020666C61675F616C7465725F7469D2
:1015A2006D65200A00686F7572202564206D696E72
:1015B20020256420736563202564200A0020666C60
:1015C20061675F6765745F6261745F76616C200A50
:1015D2000020666C61675F7365745F74656D705F30
:1015E2006F665F77617465725F7761726E696E674D
:1015F200200A0020666C61675F636C6561725F74CC
:101602006F74616C5F6D696C65616765200A0020AB
:10161200666C61675F636C6561725F7375625F744C
:0F1622006F74616C5F6D696C65616765200A00AC
:10209900C10DC10AC104C105C110C10EC109C101E7
:1020A900C108C10CC102C100C107C111C103C106E8
:0820B900C113C112C10BC10FDC
:10181400E4906424F0F0906424E0FFC39403400354
:101824000219DE74842FF582E43464F583E07003D6
:101834000219D5906424E0FD75F00AA42460F582B1
:10184400E43464F583E0120308188D2018922118FB
:101854009722189C2318A12418A62518AB2618B083
:101864002718B52818BA2918BF2A18C42B18C92C48
:1018740018CE2D18D32E192E2F197230197631192E
:101884007A32197E3300001980D20D021980D20AEF
:10189400021980D204021980D205021980D21002E2
:1018A4001980D20E021980D209021980D2010219BC
:1018B40080D208021980D20C021980D20202198047
:1018C400D200021980D207021980D211021980D2E3
:1018D40003ED75F00AA42461F582E43464F583E031
:1018E400FEED75F00AA42462F582E43464F583E025
:1018F4007C002400FFEC3E906497F0A3EFF090642A
:1019040024E0FF75F00AA42463F582E43464F583CB
:10191400E0906499F0EF75F00AA42464F582E4344D
:1019240064F583E090649AF08052D206906424E0D7
:10193400FF75F00AA42461F582E43464F583E09031
:10194400649BF0EF75F00AA42462F582E43464F534
:1019540083E090649CF0906424E075F00AA424630E
:10196400F582E43464F583E090649DF0800ED21334
:10197400800AD2128006D20B8002D20F906483E0D8
:10198400D394004003E014F0906424E0FF2484F531
:1019940082E43464F583E4F0747C2FF582E43464E7
:1019A400F583E4F074802FF582E43464F583E4F085
:1019B400FE7F0AC006C007FD906424E075F00AA407
:1019C400245EF9746435F0FA7B01D007D006120363
:0A19D4009B906424E004F002181A4E
:0119DE0022E6
:100A6B00300D0BC20D7BFF7A147932120432300A2F
:100A7B0025C20A7BFF7A14794812043290649EE0F7
:100A8B00FFE4FCFDFE9064281202967F017E007D40
:100A9B00007C00120D24300425C2047BFF7A1479EC
:100AAB005812043290649FE0FFE4FCFDFE90642832
:100ABB001202967F027E007D007C00120D24300511
:100ACB0025C2057BFF7A14796B1204329064A0E087
:100ADB00FFE4FCFDFE9064281202967F037E007DEE
:100AEB00007C00120D24301025C2107BFF7A147984
:100AFB007C1204329064A1E0FFE4FCFDFE906428BC
:100B0B001202967F047E007D007C00120D24300EB5
:100B1B0025C20E7BFF7A1479911204329064A2E005
:100B2B00FFE4FCFDFE9064281202967F057E007D9B
:100B3B00007C00120D24300925C2097BFF7A147941
:100B4B00A71204329064A3E0FFE4FCFDFE9064283E
:100B5B001202967F067E007D007C00120D24300170
:100B6B0022C2017BFF7A1479BC1204329064871283
:100B7B00026E9064281202967F077E007D007C0037
:100B8B00120D24300822C2087BFF7A1479D5120487
:100B9B003290648B12026E9064281202967F087E4C
:100BAB00007D007C00120D24300C0BC20C7BFF7AF5
:100BBB001479E712043230020BC2027BFF7A1479EC
:100BCB00F812043230002BC2007BFF7A1579121217
:100BDB000432E47B64FAF9F890648F12026E12010E
:100BEB00749064281202967F0B7E007D007C0012AD
:100BFB000D2430072BC2077BFF7A15792C12043298
:100C0B00E47B64FAF9F890649312026E120174900B
:100C1B0064281202967F0C7E007D007C00120D244E
:100C2B0030110BC2117BFF7A15794A120432300353
:100C3B0040C2037BFF7A1579671204327BFF7A156A
:100C4B00797A906497E0FFA3E090642CCFF0A3EF48
:100C5B00F0906499E0FF90642EE4F0A3EFF09064C1
:100C6B009AE0FF906430E4F0A3EFF01204321231FB
:100C7B008430063EC2067BFF7A1579941204327BD0
:100C8B00FF7A1579A790649BE0FF90642CE4F0A3A6
:100C9B00EFF090649CE0FF90642EE4F0A3EFF090F3
:100CAB00649DE0FF906430E4F0A3EFF01204321285
:100CBB00318430130BC2137BFF7A1579BF120432C8
:100CCB0030120BC2127BFF7A1579D3120432300B20
:100CDB0022C20B90648F1202A2000000009064AD40
:100CEB001202A2000000001231847BFF7A1579F505
:100CFB00120432300F22C20F9064931202A2000032
:100D0B0000009064AD1202A2000000001231847B3F
:090D1B00FF7A167911120432224C
:1020C10041604801426049000041604B0041604C61
:0E20D1000041604D0041604E7F42604FFFFFB6
:102E3700E4F561AE3EAD3DAC3C853F178E168D1572
:102E47008C14787EE254FCF2E24514F218E515F290
:102E570018E516F218E517F2787FE254FBF2E25410
:0D2E6700FB4404F2E24401F27F010225D198
:100FBF009064D1EFF0E0FF24E8F582E43463F58329
:100FCF00E004F074F42FF582E43463F583E4F074F5
:100FDF00E82FF582E43463F583E0C3956350030291
:100FEF0012109064D1E0FB24E8F582E43463F583BA
:100FFF00E4F0902F1F93640160030211C17F01FE83
:10100F00FDFC74FA2BF582E43463F583E0F9F812F2
:10101F00025BE51F4FF51FE51E4EF51EE51D4DF555
:10102F001DE51C4CF51CAF1FAE1EAD1DFC7801124B
:10103F000248EF5455FBEE5455FAED5455F9EC5464
:10104F0055F8C3E51F9BF53BE51E9AF53AE51D994B
:10105F00F539E51C98F538AF3BAE3AAD39FC78025F
:10106F00120248EF5433FBEE5433FAED5433F9ECDC
:10107F005433F8E53B5433FFE53A5433FEE5395426
:10108F0033FDE5385433FCEB2FF53BEA3EF53AE9F7
:10109F003DF539E83CF538AF3BAE3AAD39FC780455
:1010AF00120248EF253BFFEE353AFEED3539FDECE8
:1010BF003538FCEF540FF53BEE540FF53AED540F66
:1010CF00F539EC540FF538AF3BAE3AAD39FC780833
:1010DF00120248EF253BFFEE353AED3539FDEC3581
:1010EF0038EFF53BE4F53AEDF539E4F538AE3AACC7
:1010FF00387810120248EF253BFFEE353AFEEFF538
:10110F003BEEF53AE4F539F5389064D1E025E0246B
:10111F0000F582E43464F583E0FEA3E0D39553EE4B
:10112F00955240249064D1E0FF25E02400F582E43D
:10113F003464F583E0F552A3E0F55374FA2FF5828A
:10114F00E43463F583E0F564902F1FE493FFE4FC30
:10115F00FDFEAB3BAA3AA939A838D3120237405249
:10116F00AF650565D3EF940374809480500302122A
:10117F0010E4F565F51FF51EF51DF51C7F01FEFD4D
:10118F00FCA964A80112025B8F1B8E1A8D198C1893
:10119F00E47F01FEFDFCA80112025B8F338E328DBE
:1011AF00318C30E4F552F5537564201226554337D0
:1011BF000222E4F5657F01FEFDFC9064D1E0FB2483
:1011CF00FAF582E43463F583E0F9F812025BE51B6C
:1011DF004FF51BE51A4EF51AE5194DF519E5184CA3
:1011EF00F518E47F01FEFDFCA80312025BE5334F07
:1011FF00F533E5324EF532E5314DF531E5304CF54D
:02120F0030228B
:10072C00E4F566902F23E493FFE566C39F40030234
:10073C000A6AE56625E02400F582E4346085828A45
:10074C007F548F8B7E0E8E8C758903758889E56638
:10075C0025E02400F582E4346085828A8F8B758CC9
:10076C0012758904758889E56625E02418F582E4FC
:10077C003460F583E0FCA3E0C3950FEC950E502E8E
:10078C00E56625E0243CF582E43460F583E0FCA3C7
:10079C00E0C39513EC95125015AF600560EF940211
:1007AC0074809480400BE4F5605337FD8003E4F5CE
:1007BC0060E53730E125E56625E02400F582E43478
:1007CC0064F583E4F0A3F0E56625E0240CF582E4FF
:1007DC003464F583E4F0A3F002087AE56625E0249E
:1007EC0018F582E4346085828A8E8B758C0A758943
:1007FC00267588892088FDE5F130E00875F107E45D
:10080C00F50AF50BAE0AE50B7802C333CE33CED81E
:10081C00F9FFE56625E02400F582E43464F583EE07
:10082C00F0A3EFF0E56625E0243CF582E434608526
:10083C00828A758B12758C0A758927758889208830
:10084C00FDE5F130E00875F107E4F50AF50BAE0AA9
:10085C00E50B7802C333CE33CED8F9FFE56625E03D
:10086C00240CF582E43464F583EEF0A3EFF0E56636
:10087C0025E02418F582E43464F583E0FEA3E078E7
:10088C0002CEC313CE13D8F9F5518E50E56625E090
:10089C002400F582E43464F583E0FEA3E0FF902F9E
:1008AC001BE493FC740193FDC3EF9DEE9C4017E594
:1008BC006625E0240CF582E43464F583E0FEA3E0C5
:1008CC00C39DEE9C50028068E56625E02400F5820D
:1008DC00E43464F583E0FEA3E0C39551EE955040FB
:1008EC001CE56625E0240CF582E43464F583E0FE17
:1008FC00A3E0C39551EE9550400302098674EE2592
:10090C0066F582E43463F583E004F074EE2566F555
:10091C0082E43463F583E0FF902F20E493FEEFD361
:10092C009E406474EE2566F582E43463F583E4F04E
:10093C00E56625E0240CF582E43460F583E0FEA343
:10094C00E0FFE56625E02418F582E43460F583EEDB
:10095C00F0A3EFF0E56625E02430F582E43460F591
:10096C0083E0FEA3E0FFE56625E0243CF582E43459
:10097C0060F583EEF0A3EFF0800D74EE2566F58242
:10098C00E43463F583E4F0E56625E0240CF582E4B9
:10099C00346085828AE56625E02400F582E43460C3
:1009AC0085828B758C0A7589207588CB2088FDE52E
:1009BC00F130E00875F107E4F50AF50BE56625E082
:1009CC00240CF582E4346085828A758B547F0E8FFB
:1009DC008C7589237588897E0A8E8A8F8BE56625AE
:1009EC00E0240CF582E4346085828CE4F58975880A
:1009FC0029E56625E02430F582E4346085828AE5B9
:100A0C006625E02400F582E4346085828B8E8C753B
:100A1C0089207588CB2088FDE5F130E00875F10759
:100A2C00E4F50AF50BE56625E02430F582E4346044
:100A3C0085828A758B547F0E8F8C75892475888975
:100A4C00758A0A8F8BE56625E02430F582E43460E4
:0F0A5C0085828CE4F589758829056602072F22AB
:1019DF00E4F566902F23E493FFE566C39F4003026F
:1019EF001B97E56625E02418F582E43464F583E05F
:1019FF00FEA3E07802CEC313CE13D8F9F5518E5063
:101A0F00E56625E02400F582E43464F583E0FEA367
:101A1F00E0D39551EE9550402EE56625E0240CF568
:101A2F0082E43464F583E0FEA3E0D39551EE955044
:101A3F00401574F42566F582E43463F583E4F0AF62
:101A4F0066120FBF021B92902F22E493FFC3E55142
:101A5F009FFFE5509400FED3EF9400EE94004002F8
:101A6F0080047E007F00E56625E02400F582E434E3
:101A7F0064F583E0FCA3E0C39FEC9E4003021B854B
:101A8F00902F22E493FFC3E5519FFFE5509400FE92
:101A9F00D3EF9400EE9400400280047E007F00E5B7
:101AAF006625E0240CF582E43464F583E0FCA3E0C2
:101ABF00C39FEC9E4003021B8574E82566F582E404
:101ACF003463F583E4F074F42566F582E43463F54A
:101ADF0083E004F074F42566F582E43463F583E063
:101AEF00C395635003021B9274F42566F582E434A8
:101AFF0063F583E4F07F01FEFDFC74FA2566F58241
:101B0F00E43463F583E0F9F812025B120206E51F75
:101B1F005FF51FE51E5EF51EE51D5DF51DE51C5C01
:101B2F00F51CE47F01FEFDFCA966A80112025B1201
:101B3F000206E5335FF533E5325EF532E5315DF5EB
:101B4F0031E5305CF530E47F01FEFDFC74FA25666B
:101B5F00F582E43463F583E0F9F812025B120206B2
:101B6F00E51B5FF51BE51A5EF51AE5195DF519E53D
:101B7F00185CF518800D74F42566F582E43463F56E
:091B8F0083E4F005660219E2226C
:10265500E4F566902F23E493FFE566C39F506EE58E
:102665006625E02400F582E43464F583E4F0A3F004
:10267500E56625E0240CF582E43464F583E4F0A3F3
:10268500F0E56625E0240CF582E43460F583E0FE90
:10269500A3E0FFE56625E02418F582E43460F583C0
:1026A500EEF0A3EFF0E56625E02430F582E4346032
:1026B500F583E0FEA3E0FFE56625E0243CF582E432
:0E26C5003460F583EEF0A3EFF0056680862208
:1024B200E4F566902F23E493FFE566C39F5067908F
:1024C2006048E0FF7E00C39410748094805053EF04
:1024D2009408748094804025E56625E02400F58206
:1024E200E43460F583E0FEA3E0FFE56625E0240C1A
:1024F200F582E43460F583EE8FF01200B8E56625CC
:10250200E02400F582E43460F583E0FEA3E0FFE519
:102512006625E02430F582E43460F583EE8FF01214
:1025220000B80566808D906048E0C3941074809472
:102532008040054337048006906048E004F07F0144
:032542000225D19E
:1026D300E4FFFEFDFCAB1BAA1AA919A818C312023A
:1026E30037606390604AE004F07006906049E0044C
:1026F300F0902F17E493FE740193FF4E602ED39056
:10270300604AE09F906049E09E4021E4F0A3F0F529
:102713001FF51EF51DF51CF533F532F531F530F5D2
:102723001BF51AF519F518C21F022655902F19E447
:1027330093FE740193FFD390604AE09F906049E059
:0D2743009E400AD21F22E4906049F0A3F0EE
:012750002266
:051B9800906454EFF021
:101B9D00A3E0FCA3E0FDA3E0FEA3E0F54C8E4B8D8E
:101BAD004A8C497884E2F50A08E2F50B758A0875C6
:101BBD008B49758C4575881D2088FDE4FFFEFDFC65
:101BCD00AB48AA47A946A845D31202214006AC4509
:101BDD00A8048013AF48AE47AD46AC45120213AB17
:101BED0007AA06A905A80490604FE0FEA3E0FFE454
:101BFD00FCFDC31202215041E4FFFEFDFCAB48AADF
:101C0D0047A946A8451202214006AF48AE47800BB2
:101C1D00AF48AE47AD46AC4512021390604FEEF0A3
:101C2D00A3EFF0906454E025E024DCF582E4346306
:101C3D00F583E0A3E090604EF0902F14E493FE74D2
:101C4D000193FFD3906050E09F90604FE09E501B3A
:101C5D00906454E025E024DCF582E43463F583E000
:101C6D00A3E090604EF090604B8079E4FFFEFDFCA8
:101C7D00AB48AA47A946A845D31202214034906427
:101C8D0054E0FF25E024DCF582E43463F583E0FCC9
:101C9D00A3E0D39400EC9400404DEF25E024DCF557
:101CAD0082E43463F58374FFF5F01200B890604C54
:101CBD008032906454E0FF25E024DCF582E4346347
:101CCD00F583E0FCA3E0C3947FEC94005019EF255D
:101CDD00E024DCF582E43463F583E475F001120051
:101CED00B890604D7401F090604CE064017011A3E8
:101CFD00E06401700B90604CF0A3F090604B04F029
:101D0D0090604BE06401703590604EE0FF9064543C
:101D1D00E025E024DCF582E43463F583E4F0A3EF01
:101D2D00F074FF90604FF0A3F090604E747FF0E47C
:0F1D3D0090604CF0A3F090604BF07F01227F008C
:011D4C002274
:10291500E4906453F0902F0E12027A780112025B54
:10292500906455120296AF61121B98EF6022056103
:10293500E53730E4095337EF9064537401F0902F75
:1029450023E493FFE561C39F4006E4F56143371037
:10295500C3902F127401939562E4939400400890FC
:102965006453E064017005D21E022E37E4FF122580
:01297500D190
:01297600223E
:1025D100EF70607F01FEFDFC74FA2561F582E43441
:1025E10063F583E0F9F812025B8F178E168D158C57
:1025F10014787EE254FCF2E24514F218E515F21863
:10260100E516F218E517F2E56125E024DCF582E430
:102611003463F583E0A3E0547FFF7878E254804F80
:10262100F2787FE254FBF2E254FB4404F2E244010B
:10263100F2801CE56125E024DCF582E43463F58356
:10264100E0A3E0547FFF7878E254804FF2787FE294
:042651004402F2222B
:10238000E49064CFF0A3F09064CFE0FEA3E0FFC33D
:102390009488EE94035031EF242CFFEE34078F82A3
:1023A000F583E493FF9064D0E02451FD9064CFE086
:1023B00034608D82F583EFF09064D0E004F070C754
:0823C0009064CFE004F080BF3F
:1023C8009063D97401F0A37460F0A37451F0E4F53C
:1023D80061F537F536F535F534C21EC21FF51FF520
:1023E8001EF51DF51CF533F532F531F530F51BF505
:1023F8001AF519F518902F1D93FF902F21E493FEDD
:10240800A807088002C333D8FCF563756420E4FF8D
:032418000225D1C9
:1027C7007884E2F50A08E2F50BAE0A7803CEC31364
:1027D700CE13D8F97802C333CE33CED8F9FFE561EB
:1027E70025E02400F582E43460F583EEF0A3EFF0F2
:1027F700201E0F902F16E4937005D21E022E37026B
:1028070029150561902F23E493FFE561C39F401FBE
:10281700787FE254FBF2E254FB4404F2E24401F213
:10282700E4F561E53720E2030224B2433701227F52
:05283700011225D12271
:0500180005620226D381
:10303C00E53730E01A9063D9A3E0FAA3E0F9120364
:10304C00681219DFE4F5617F011225D15337FE2296
:10255100022977E493A3F8E493A34003F68001F200
:1025610008DFF48029E493A3F85407240CC8C3338B
:10257100C4540F4420C8834004F456800146F6DF5A
:10258100E4800B0102040810204080901FD8E47EF3
:10259100019360BCA3FF543F30E509541FFEE4934F
:1025A100A360010ECF54C025E060A840B8E493A316
:1025B100FAE493A3F8E493A3C8C582C8CAC583CA41
:1025C100F0A3C8C582C8CAC583CADFE9DEE780BEF9
:0120DF000000
:10006000BB010689828A83E0225002E722BBFE029E
:09007000E32289828A83E49322D1
:10007900BB010CE58229F582E5833AF583E022503C
:1000890006E92582F8E622BBFE06E92582F8E22286
:0D009900E58229F582E5833AF583E49322A0
:1000A600BB010689828A83F0225002F722BBFE0139
:0200B600F32233
:1000B800C5F0F8A3E028F0C5F0F8E58215827002D3
:0600C8001583E038F02270
:0D00CE00EF2BFFEE3AFEED39FDEC38FC2281
:0E00DB00C3EF9BFFEE9AFEED99FDEC98FC2220
:1000E900E88FF0A4CC8BF0A42CFCE98EF0A42CFCB6
:1000F9008AF0EDA42CFCEA8EF0A4CDA8F08BF0A434
:100109002DCC3825F0FDE98FF0A42CCD35F0FCEB92
:100119008EF0A4FEA9F0EB8FF0A4CFC5F02ECD3957
:0F012900FEE43CFCEAA42DCE35F0FDE43CFC22C4
:1001380075F008758200EF2FFFEE33FECD33CDCC7E
:1001480033CCC58233C5829BED9AEC99E582984001
:100158000CF582EE9BFEED9AFDEC99FC0FD5F0D6DE
:10016800E4CEFBE4CDFAE4CCF9A88222B800C1B908
:100178000059BA002DEC8BF084CFCECDFCE5F0CB46
:10018800F97818EF2FFFEE33FEED33FDEC33FCEB7F
:1001980033FB10D703994004EB99FB0FD8E5E4F93A
:1001A800FA227818EF2FFFEE33FEED33FDEC33FC27
:1001B800C933C910D7059BE99A4007EC9BFCE99A1B
:1001C800F90FD8E0E4C9FAE4CCFB2275F010EF2F60
:1001D800FFEE33FEED33FDCC33CCC833C810D70760
:1001E8009BEC9AE899400AED9BFDEC9AFCE899F89B
:0E01F8000FD5F0DAE4CDFBE4CCFAE4C8F9222E
:0D020600CFF4CFCEF4CECDF4CDCCF4CC228D
:0E021300C3E49FFFE49EFEE49DFDE49CFC22FC
:10022100EB9FF5F0EA9E42F0E99D42F0EC6480C854
:0602310064809845F022F4
:10023700EB9FF5F0EA9E42F0E99D42F0E89C45F01D
:010247002294
:10024800E8600FECC313FCED13FDEE13FEEF13FF94
:03025800D8F122B8
:10025B00E8600FEFC333FFEE33FEED33FDEC33FC01
:03026B00D8F122A5
:0C026E00E0FCA3E0FDA3E0FEA3E0FF2203
:10027A00E493FC740193FD740293FE740393FF22CA
:0C028A00E0F8A3E0F9A3E0FAA3E0FB22F7
:0C029600ECF0A3EDF0A3EEF0A3EFF022DB
:1002A200A8828583F0D083D0821202B91202B912D9
:1002B20002B91202B9E473E493A3C583C5F0C583FE
:1002C200C8C582C8F0A3C583C5F0C583C8C582C8A6
:0102D2002209
:0C02D300A42582F582E5F03583F5832236
:0902DF00E0FBA3E0FAA3E0F92220
:1002E800F8E0FBA3A3E0F925F0F0E582158270029F
:0702F8001583E0FA38F02243
:0902FF00EBF0A3EAF0A3E9F02200
:10030800D083D082F8E4937012740193700DA3A384
:1003180093F8740193F5828883E473740293686098
:06032800EFA3A3A380DF98
:10032E00D083D082E4937012740193700DA3A393C3
:10033E00F8740193F5828883E4737402936C7012DF
:10034E007403936D700C7404936E70067405936F42
:0A035E0060DDA3A3A3A3A3A380CA3C
:060368008A838982E47320
:10036E00EC8EF0A4CCC5F0CCCDF8EFA4CEC5F02D1C
:10037E00FDE43CFCE8A42EC8C5F03DFDE43CFCEFDA
:0D038E00A4FFE5F028FEE43DFDE43CFC2268
:1003C700E540242CF582E43464F583E0054022906F
:1003D7006429301C0390642CE475F0011202E802D2
:1003E70000602015E97F2ED2158018EF540F249056
:1003F700D43440D4FF30190BEF24BFB41A00500394
:100407002461FFE541600215410544E5447002059A
:1004170043301C0E906429E475F0011202E8EF02E4
:1004270000A602004E7403D21C8003E4C21CF540F0
:100437009064291202FFE4F541F543F544E5416074
:10044700077F2012040A80F57542FFC216C215C243
:1004570017C218C21AC21BC21D1203D6FF700D3075
:100467001C057F0012041BAF44AE4322B4255FC2B4
:10047700D5C2191203D6FF24D0B40A00501A75F05A
:100487000A784130D50508B6FF0106C6A426F6202E
:10049700D5047002D21880D924CFB41A00EF5004C3
:1004A700C2E5D21902061CD21680C6D21580C0D268
:1004B7001780BCD2D580BAD21A80B47F2012040A22
:1004C7002017077401B5410040F11203C7FF12045A
:1004D7000A020444D21DD21B80951203C7FB1203E4
:1004E700C7FA1203C7F94A4B700679ED7A067BFF04
:1004F70020172EE541602A7E008E82758300120048
:100507007960060EEE654270F0C2D5EBC0E0EAC036
:10051700E0E9C0E0EE120663D0E0F9D0E0FAD0E0FF
:10052700FB120060FF60AAEBC0E0EAC0E0E9C0E0B0
:1005370012040AD0E02401F9D0E03400FAD0E0FB3D
:10054700E5420460DCD542D980877BFF7A06795F74
:10055700D217809C791080027908C21BC21D8008BF
:10056700D2D5790A8004790AC2D5E542047002F52A
:1005770042E4FAFDFEFF1203C7FC7B0820161312A4
:1005870003C7FD7B1030150A1203C7FE1203C7FF0E
:100597007B20EC3382D592D55013C3E43015069FE8
:1005A700FFE49EFEE42016039DFDE49CFCE4CBF8EB
:1005B700C216EC700CCFCECDCCE824F8F870F380DF
:1005C70017C3EF33FFEE33FEED33FDEC33FCEB33B4
:1005D700FB994002FB0FD8E9EB301605F8D0E0C4D1
:1005E70048B216C0E00AEC4D4E4F78207B0070C22F
:1005F700EAB5420040BCC0E0120665D0F0D0E0206A
:100607001604C4C0E0C4B216C0F01203F3D0F0D58C
:10061700F0EB02044412030804E153055B5804B2EB
:100627004C04AE42055F4F05674405674904C7435D
:08063700056D55055146055102
:10063F0045055147070D5004B62D04BA2E04DD2B86
:10064F0004BE2304DB2006F62A047648000004D5F6
:10065F003F3F3F00790AA2D5201814301A09B9106C
:10066F00020404B9080104A2D5201B025001042082
:10067F0017689217B541005034C0E07F2030181929
:10068F007F30A217721B721A500F1206BCC217C20C
:10069F001BC21AC21D7F30800F301A03E9C0E0124F
:1006AF00040A301A03D0E0F9D0E0B541CC301A1764
:1006BF007F30B9100C12040A7F583019077F7880E9
:1006CF0003B9080312040A3017057F2D02040A7FAD
:1006DF0020201DF87F2B201BF322921780CF286E2E
:1006EF00756C6C2900D2161203C73016F8C2167833
:1006FF004130D50108F60204762D504349581203B4
:10070F00C72403B405004001E4900708931203FBCC
:0D071F00743A1203FBD21875410402055B09
:10039B00EF4E6012EF60010EEDBB010B89828A8379
:1003AB00F0A3DFFCDEFA2289F05007F709DFFCA986
:0C03BB00F022BBFEFCF309DFFCA9F022DD
:00000001FF
