:0300000002224990
:0C224900787FE4F6D8FD75812302229016
:0C000300000000000000000000000000F1
:0B2CAB00EF1FAC0670011E4C70F622FB
:102ACE00AB07AA06EB1BAE0270011A4E60097FAA75
:082ADE007E05122CAB80ED22F5
:101E8E00907120E04480F07F057E00122CABE4FFC1
:101E9E00FE122ACE75A75575AC5C9071327450F057
:101EAE009071307403F0907136742FF090715C74F1
:101EBE0003F090715BE054FCF07F18EF2466FDE4B4
:101ECE0034718D82F583E4F00FEFB433EE90401150
:101EDE00E4935407FF90711CE054F84FF0904017B4
:101EEE00E493547FFF90711DE054804FF0904010AA
:101EFE00E493FF5401C43333335480FE907123E0D6
:101F0E00547F4EF0EFC313543F4440FFA3E0548080
:101F1E004FF0904012E493FF540FFE907146E05440
:101F2E00F04EF0EFC4540FFF90714FE054F04FF0AD
:101F3E00904013E493543FFF907140E054C04FF033
:101F4E00904014E493907126F0904015E4939071B4
:0B1F5E0028F0904016E49390712AF0E8
:011F69002255
:102B7C0078D2E254FBF2E24404F2907187E4F0D292
:022B8C00912294
:10002D0078D2E254FBF2E24404F2907187E4F07866
:0D003D00D0E24402F208E24402F2D2912225
:102A5D0078D2E254EFF2E24410F2907188E4F0780B
:0D2A6D00D0E24404F208E24404F2D29222C6
:102A7A0078C2E254FBF2E24404F290717FE4F07807
:0D2A8A00C0E24402F208E24402F2C28122DE
:102BC10078C2E254BFF2E24440F2907181E4F02213
:102A970078E3E254EFF2E24410F2907194E4F078B4
:0D2AA700E0E24440F208E24440F2C2A62200
:0D2C0F0078C3E254CFF278C0E24440F222D4
:0D2C1C0078C3E2543FF278C0E24480F22217
:0D2C290078D2E254FCF278D0E24401F222AD
:0D2C360078D2E2543FF278D0E24408F22256
:0D2C430078D3E254FCF278D0E24410F22283
:0D2C500078E2E254F3F278E0E24402F2226E
:0D2C5D0078E2E254CFF278E0E24404F22283
:0D2C6A0078E2E2543FF278E0E24408F22202
:0D2C770078E3E254F3F278E0E24420F22228
:0D2C840078E3E2543FF278E0E24480F2226F
:0D2C910078F2E254FCF278F0E24401F22205
:071A16004460D8000000004D
:10280700E5B154F342B153A8DFD2AF7892E4F208AE
:10281700F27890E254E3F2E2441CF2E254FCF2E272
:102827004401F208E2547FF2E24420F27895740101
:10283700F2187476F27890E2541FF2E244A0F22282
:102BD1007890E2541FF2E244C0F243A820D2AF221F
:102B40007890E2541FF2E244A0F27892E4F208F2A4
:042B500053A8DF2285
:03001E0002269B1C
:10269B00C0E0C0F0C083C082C0D075D000C000C005
:1026AB0004C005C006C0077891E230E71DE2448004
:1026BB00F29060D8120E65EF2401FFE43EFEE43D7C
:1026CB00FDE43CFC9060D8120E7DD007D006D005FF
:0F26DB00D004D000D0D0D082D083D0F0D0E03265
:10284700E5B154CF42B153A8BFD2AF789EE4F208A6
:10285700F2789CE254E3F2E2441CF2E254FCF2E226
:102867004401F208E2547FF2E24420F278A17401B5
:10287700F2187476F2789CE2541FF2E244A0F22236
:102BE100789CE2541FF2E244C0F243A840D2AF22E3
:102B5400789CE2541FF2E244A0F2789EE4F208F278
:042B640053A8BF2291
:0300210002203189
:10203100C0E0C0F0C083C082C0D075D000C000C075
:1020410001C002C003C004C005C006C007789DE2FC
:1020510020E7030220DCE24480F274FFFFFEFDFC76
:102061009060D4120E71C3120E2E50199060D412CA
:102071000E65EF2401FFE43EFEE43DFDE43CFC90EF
:1020810060D4120E7D74FFFFFEFDFC9060CC120E39
:1020910071C3120E2E50199060CC120E65EF2401FF
:1020A100FFE43EFEE43DFDE43CFC9060CC120E7D7D
:1020B10074FFFFFEFDFC9060BB120E71C3120E2E69
:1020C10050199060BB120E65EF2401FFE43EFEE45F
:1020D1003DFDE43CFC9060BB120E7DD007D006D0E4
:1020E10005D004D003D002D001D000D0D0D082D00E
:0620F10083D0F0D0E032C4
:071A1D004460DC0000000042
:10273700E5B254FC42B253A9FED2AF907102E4F065
:10274700A3F0907100E054E3F0E0441CF0E054FC87
:10275700F0E04401F0A3E0547FF0E04420F09071F2
:10276700057401F09071047476F0907100E0541FC5
:06277700F0E044A0F02296
:102B8E00907100E0541FF0E044C0F043A901D2AFB1
:012B9E002214
:102AFE00907100E0541FF0E044A0F0907102E4F0F9
:062B0E00A3F053A9FE2212
:030024000225FBB7
:1025FB00C0E0C0F0C083C082C0D075D000C000C0A6
:10260B0004C005C006C007907101E030E71DE0442F
:10261B0080F09060DC120E65EF2401FFE43EFEE4D7
:10262B003DFDE43CFC9060DC120E7DD007D006D063
:10263B0005D004D000D0D0D082D083D0F0D0E032FF
:071A24004460E00000000037
:10277D00E5B254F342B253A9FDD2AF90710AE4F021
:10278D00A3F0907108E054E3F0E0441CF0E054FC39
:10279D00F0E04401F0A3E0547FF0E04420F09071AC
:1027AD000D7401F090710C7476F0907108E0541F67
:0627BD00F0E044A0F02250
:102B9F00907108E0541FF0E044C0F043A902D2AF97
:012BAF002203
:102B1400907108E0541FF0E044A0F090710AE4F0D2
:062B2400A3F053A9FD22FD
:0300270002264B63
:10264B00C0E0C0F0C083C082C0D075D000C000C055
:10265B0004C005C006C007907109E030E71DE044D7
:10266B0080F09060E0120E65EF2401FFE43EFEE483
:10267B003DFDE43CFC9060E0120E7DD007D006D00F
:10268B0005D004D000D0D0D082D083D0F0D0E032AF
:071A2B004460E4000000002C
:102AE60043A90475D11075E67F75E7BB75DA1C75C9
:082AF600DF2075DE01D2AF22E2
:03002A000226EAC1
:1026EA00C0E0C0F0C083C082C0D075D000C000C0B6
:1026FA0004C005C006C007E5EE30E51C43E22090A1
:10270A0060E4120E65EF2401FFE43EFEE43DFDE4C1
:10271A003CFC9060E4120E7DD007D006D005D004B0
:0D272A00D000D0D0D082D083D0F0D0E032EB
:10259300726563762074696D65206F757421200AF6
:1025A30000666F726D6174206C656E20696E766172
:1025B3006C6964210A00256420202564200A0072C6
:1025C30065637620637263206F72206C656E20658D
:1025D300727221200A0025327820000A3D3D3D3DDC
:1025E3003D3D3D3D3D3D3D3D3D3D3D3D3D3D3D3D18
:0825F3003D3D3D3D3D3D0A0068
:101A32005E603600000000000000000000000000B0
:101A42000000000000000000000000000000000094
:101A52000043605400000043605800000043605C93
:101A6200000000C11C416057004160310041605BD1
:081A7200004460320000000096
:0E2C010090602DEFF0122C9E90602DE0FF22CF
:1029680078D2E2F2E24404F2907187E04404F090F5
:102978007175E0440BF043AA20D2AF75D60175D526
:052988009F75D2112231
:03004B0002174554
:10174500C0E0C0F0C083C082C0D075D000C000C06A
:0D17550001C002C003C004C005C006C007EB
:1017620090602EE4F0E5D420E5030218A1E5D7F05D
:10177200201C04E0B4A50990605BE0C3940340031D
:1017820002189490602EE0B4A51BD21C906031E444
:10179200F0906057F0122B409060D8120E89000032
:1017A2000000122BD1906031E0B4010890602EE06D
:1017B200906057F0906032120E6574582FF582E4F3
:1017C2003460F583E060030218A190602EE0FF9080
:1017D2006032120E7190603675F00AEB120EBAEAA0
:1017E20075F00AA42583F583C083C082906031E03E
:1017F200FE04F0D082D083E5822EF582E43583F5B3
:1018020083EFF09060D8120E8900000000906057BC
:10181200E070030218A1E0FF906031E06F60030204
:1018220018A1906057E0FB906032120E6574542F3D
:10183200F582E43460F583EBF0C21C906031E4F091
:10184200906057F0906032120E6574582FF582E462
:101852003460F5837401F090605BE004F0906032D4
:10186200120E65EF2401FFE43EFEE43DFDE43CFC84
:10187200906032120E7DE47F03FEFDFC9060321216
:101882000E71C3120E2E400A906032120E890000B1
:0F1892000000122B409060D8120E890000000059
:1018A100D007D006D005D004D003D002D001D0009B
:0B18B100D0D0D082D083D0F0D0E03245
:0D2C9E00E5D430E4FB8FD7E5D430E4FB2211
:0629D6009060F0120EE615
:1029DC00E4FEEEC39D50159060F0120EC68E82750B
:0C29EC008300120C2DFF122C9E0E80E6C2
:0129F80022BC
:1013CA00E4906000F0A3F0C2127F0AFEFDFC906078
:1013DA00D8120E71D3120E2E4021122B409060D8D3
:1013EA00120E8900000000E4906031F0906057F01E
:1013FA00C21C7BFF7A25799302091AE4906000F0F7
:10140A00906000E0FFC3940340030215AA74582FAA
:10141A00F582E43460F583E070030215A190600060
:10142A00E075F00AA42437F582E43460F583E0FE1F
:10143A0074542FF582E43460F583E06E700302146D
:10144A00CB7BFF7A2579A412091A7BFF7A2579B911
:10145A00906000E02454F582E43460F583E0FFE410
:10146A00FCFDFE906008120E7D906000E075F00AA7
:10147A00A42437F582E43460F583E0FFE4FCFDFE42
:10148A0090600C120E7D12091A122358906000E027
:10149A00FF2458F582E43460F583E4F090605BE061
:1014AA0014F090000AC083C0827D00EF75F00AA490
:1014BA002436F9746035F0FA7B01D007D006020EA3
:0114CA00EF32
:1014CB00E4906002F0906001F0A3F0906000E0FF08
:1014DB002454F582E43460F583E014FE906002E05E
:1014EB00FDC39E5026EF75F00AA42436F582E43432
:1014FB0060F583E5822DF582E43583F583E0FF907B
:10150B006001E02FF0A3E004F080C0906001E0F0F8
:10151B00906000E0FF2454F582E43460F583E0FE34
:10152B00EF75F00AA42435F582E43460F583E58287
:10153B002EF582E43583F583E0FF906001E06F6068
:03154B0002D212B7
:10154E003012407BFF7A2579C212091AC2129060BE
:10155E0000E0FF2458F582E43460F583E4F09060F7
:10156E005BE014F090000AC083C0827D00EF75F03E
:10157E000AA42436F9746035F0FA7B01D007D00640
:10158E00120EEF906000E0245CF582E43460F58387
:0C159E007401F0906000E004F002140AF8
:0115AA00221E
:1027C300745C2FF582E43460F583E4F074542FF5E0
:1027D30082E43460F583E4F074582FF582E43460C6
:1027E300F583E4F0F58375820AC083C082FDEF753B
:1027F300F00AA42436F9746035F0FA7B01D007D0CF
:0428030006020EEFCC
:10235800E4906003F0A3F0906003F0906003E0FF66
:10236800C394035060EF2430FF122C9E7F0A122C76
:102378009EE4A3F0906004E0FFC3940A50367BFF0C
:102388007A2579D9906003E075F00AA42436F5829D
:10239800E43460F583E5822FF582E43583F583E044
:1023A800FF906008E4F0A3EFF012091A906004E0CF
:1023B80004F080C07BFF7A2579DE12091A90600349
:0523C800E004F0809626
:0123CD0022ED
:051A7A004260F30000D2
:1029B20078C2E24403F2E2440CF2E2440CF2907177
:1029C20023E054D8F0E054BFF0E0441EF0907122AE
:0429D2007407F02274
:10294200EF24FE600C14600E24027013759904804B
:102952000875990580037599017869E24448F27F08
:06296200017E00022ACEF6
:1029F9007869E24401F2786BE230E1FA7402F2AFED
:102A090093EF75F010A4FFAEF0E594C4540FFDEFF9
:032A19004DFF224C
:101D9F00E4906002F0A3F0A3120E8900000000E4AB
:101DAF00906008F0A3F074FFA3F0A3F0E4A3F0F0A9
:101DBF001229F9906002EEF0A3EFF090600CE0C3EF
:101DCF0094024054906008E0FEA3E0FF906002E0B0
:101DDF00FCA3E0FDD39FEC9E4008906008ECF0A3BD
:101DEF00EDF090600AE0FEA3E0FFC3ED9FEC9E5084
:101DFF000F906002E0FFA3E090600ACFF0A3EFF036
:101E0F00906004120E71906002E0FEA3E0FFE4FC0C
:101E1F00FD120CE9A3120E7D90600CE004F0E0C3FC
:101E2F009414408C906004120E65C006C007906039
:101E3F0008E0FEA3E0FBAA06E4F9F8D007D00612EB
:101E4F000CF6906004120E7D906004120E65C006B1
:101E5F00C00790600AE0FEA3E0FBAA06E4F8D007F3
:101E6F00D006120CF6906004120E7D906004120ED4
:0E1E7F00657804120E3F906002EEF0A3EFF0C3
:011E8D002232
:102BB00075AF3F8FAF75AEB975A402E5A530E1FBE7
:012BC00022F2
:10288700906005120EE675AF3F8FAF906008E0C30A
:1028970094014022E5A530E0FB906005E475F00166
:1028A700120ECF120C14F5A675AEB975A40190607F
:0728B70008E014F080D522B7
:1028BE00906001120EE6906004E06027AE070FEE06
:1028CE002400FDE4343F8D82F583E493FE90600195
:1028DE00E475F001120ECFEE120C5A906004E01463
:0428EE00F080D32281
:030012000223CEF8
:1023CE00C0E0C0F0C083C082C0D075D000C000C0D5
:0D23DE0001C002C003C004C005C006C00756
:1023EB0078C6E290602FF0E030E22B74FFFFFEFD29
:1023FB00FC9060C8120E71C3120E2E50199060C85B
:10240B00120E65EF2401FFE43EFEE43DFDE43CFCCF
:0D241B009060C8120E7D90602FE078C6F230
:10242800D007D006D005D004D003D002D001D00008
:0B243800D0D0D082D083D0F0D0E032B2
:030015000224437F
:10244300C0E0C0F0C083C082C0D075D000C000C05F
:0D24530001C002C003C004C005C006C007E0
:1024600078D6E2906030F0E030E22B74FFFFFEFDA2
:10247000FC9060D0120E71C3120E2E50199060D0D5
:10248000120E65EF2401FFE43EFEE43DFDE43CFC5A
:0D2490009060D0120E7D906030E078D6F2A2
:10249D00D007D006D005D004D003D002D001D00093
:0B24AD00D0D0D082D083D0F0D0E0323D
:102AB40079656172202564206D6F6E7468202564C9
:0A2AC40020646179202564200A00D7
:10252900E47FE87E03FDFC9060E4120E71C3120E95
:102539002E40569060E4120E65C3EF94E8FFEE94C6
:1025490003FEED9400FDEC9400FC9060E4120E7D16
:1025590090606DE0C3943B50028021E490606DF07F
:10256900122B2A90606CE0C3943B5002800EE490D9
:10257900606CF090606BE0C394175004E004F022A3
:0A258900E490606BF0A3F0A3F022D1
:1022D500121E8E75D9DD75D95590715EE054FEF0EC
:1022E50075D9BB122A3D122807122968122A1C1219
:1022F50028471228F212291A122AE6122BC1D28374
:102305001229B27BFF7A2A79B4906067E0FFA3E0D7
:10231500906008CFF0A3EFF0906069E0FF90600A4D
:10232500E4F0A3EFF090606AE0FF90600CE4F0A3A6
:10233500EFF012091A122BE17F021229421204FE54
:102345001213CA1218BC12004E7F0312294212152D
:03235500AB80E575
:101A7F006022605F00000000000000000000000016
:101A8F000000000000000000000000000000000047
:061A9F0000000000000041
:102A3D007E007F227D007B017A60795F120EEF7B35
:102A4D00017A60795F906004740FF0E4FF0228BE94
:102B2A00E4FF122BB07B017A60795F906008740F22
:062B3A00F0E4FF02288711
:050F4100906004EFF0D8
:100F4600906009120E89000000007FA5122C9E9069
:100F56006009120E65EF24A5FFE43EFEE43DFDE4C4
:100F66003CFC906009120E7D906004E0FF64016015
:100F760028EF64026023EF6403601EEF64046019C7
:100F8600EF64056014EF6406600FEF6409600AEF12
:100F9600640A6005EF6411703D7F05122C9E906017
:100FA60004E0FF122C9E906005120E65122C9E9096
:100FB6006009120E71C000906005120E657E0090E9
:100FC6006004E02405FDE433CD2FFFEE3DFE3395AE
:100FD600E0FDFC0211A1906004E0FF64076014EFDD
:100FE6006408600FEF640C600AEF640D6005EF643F
:100FF6001070647F06122C9E906004E0FF122C9EF7
:10100600906005120E657808120E3F122C9E9060B5
:1010160005120E65122C9E906009120E71C000C05A
:1010260002C003906005120E657808120E3F7E001E
:10103600906004E02406FDE433CD2FFBEE3DFAA3D9
:10104600120E657E00EB2FFFEE3AFE3395E0FDFCB7
:10105600D003D0020211A1906004E0FF640B600887
:10106600EF640F60030210F37F07122C9E9060045A
:10107600E0FF122C9E906005120E657810120E3F4E
:10108600122C9E906005120E657808120E3F122CE7
:101096009E906005120E65122C9E906009120E71CC
:1010A600C000C002C003906005120E657810120ED3
:1010B6003F7E00906004E02407FDE433CD2FFBEE75
:1010C6003DFAA3120E657808120E3F7E00EB2FFB49
:1010D600EE3AFA906005120E657E00EB2FFFEE3AAF
:1010E600FE3395E0FDFCD003D0020211A19060040E
:1010F600E0640E60030211AC7F08122C9E9060041F
:10110600E0FF122C9E906005120E657818120E3FB5
:10111600122C9E906005120E657810120E3F122C4E
:101126009E906005120E657808120E3F122C9E9056
:101136006005120E65122C9E906009120E71C00099
:10114600C002C003906005120E657818120E3F7E2D
:1011560000906004E02408FDE433CD2FFBEE3DFA59
:10116600A3120E657810120E3F7E00EB2FFBEE3AAF
:10117600FA906005120E657808120E3F7E00EB2F7E
:10118600FBEE3AFA906005120E657E00EB2FFFEE3D
:101196003AFE3395E0FDFCD003D002D000120CE9F4
:1011A600906009120E7D906009120E65E4FEFDFC4A
:1011B600906009120E7D906009120E65122C9E7FBA
:0611C6000A7E00022ACEA1
:102A1C00122C50122C5D122C6A122C77122C911243
:102A2C002C84122C43122C36122C29122C1C022C06
:012A3C000F8A
:101F6A0020A30C90607AE07011D20404F0800B90E8
:101F7A00607AE0B40104E4F0D20420A50990607B01
:101F8A00E0700E04800890607BE0B40104E4F0D2B3
:101F9A001020A20990607CE0700E04800890607C9A
:101FAA00E0B40104E4F0D20E20A10990607DE07053
:101FBA000E04800890607DE0B40104E4F0D20920A8
:101FCA008609906078E0605EE4805820870C906013
:101FDA0078E0640160507401804920900C90607828
:101FEA00E0640260417402803A20930C906078E0C9
:101FFA00640360327403802B20940C906078E06450
:10200A000460237404801C20A70C906078E06405A7
:10201A0060147405800D20B00D906078E06406604D
:07202A00057406F0D20A2242
:102B680063757220737065656420256C75206B6DC4
:042B78002F680A00B8
:101AA5004460CC000000004460C8000000004460B1
:091AB500C3000000004160C700FD
:1028F200E5B854F342B843A802D2AF78C2E254CF4B
:10290200F278C0E24404F278C7E24404F278C4E206
:0829120054CFF2E24420F2224E
:101B60009060E8120E8900000000E47F64FEFDFC36
:101B70009060CC120E71C3120E2E5003021C98906E
:101B800060CC120E65C3EF9464FFEE9400FEED94FA
:101B900000FDEC9400FC9060CC120E7DE47F037E8F
:101BA00007FDFC9060C8120E71120D04E47B40FA30
:101BB000F9F8120D8F9060E8120E7D9060C8120E39
:101BC00089000000009060BF120E659060E8120E60
:101BD00071120CE99060BF120E7DE47F24FEFDFCC3
:101BE0009060E8120E71120D04E47B64FAF9F812A9
:101BF0000D8FE47B0AFAF9F8120D8F9060E8120E4F
:101C00007D9060C7E0C3940A5018E004F09060C370
:101C1000120E659060E8120E71120CE99060C3021A
:101C20000E7DE49060C7F09060C3120E65E47B0AFD
:101C3000FAF9F8120D8F9060C3120E7D9060C312F6
:101C40000E65906072120E7D9060C3120E890000C6
:101C50000000E4FFFEFDFC906072120E71C3120ED4
:101C60002E60157BFF7A2B7968906072120E65905A
:101C70006008120E7D12091AE47FE77E03FDFC90D6
:101C80006072120E71D3120E2E400B906072120E03
:081C9000890000000022D208C7
:011C98002229
:0E1ABE004460D4000000004460D0000000002E
:10291A00E5B854CF42B843A804D2AF78D2E254CF34
:10292A00F278D0E24404F278D7E24404F278D4E2AE
:08293A0054CFF2E24420F22226
:1021BB009060EC120E8900000000E47F64FEFDFCD1
:1021CB009060D4120E71C3120E2E40719060D41217
:1021DB000E65C3EF9464FFEE9400FEED9400FDECEE
:1021EB009400FC9060D4120E7DE47F587E02FDFCBF
:1021FB009060D0120E71120D04E47B10FAF9F812F4
:10220B000D8F9060EC120E7D9060D0120E89000045
:10221B000000E47FFF7EFFFDFC9060EC120E71C3AB
:10222B00120E2E400A9060EC120E890000FFFF90F8
:0D223B0060EC120E6590606E120E7DD201F7
:012248002273
:102BF10066756E5F696E666F5F7361766528290021
:101ACC004460BB000000004460BF000000004460A4
:0C1ADC00B3000000004460B700000000F0
:101C9900E47F307E75FDFC9060BB120E71C3120E9D
:101CA9002E40169060BB120E8900000000122B2AEC
:101CB9007BFF7A2B79F112091AE47FE87E03FDFC98
:101CC9009060BF120E71C3120E2E40777F007ECA3C
:101CD9007D9A7C3B90605F120E71C3120E2E5019D3
:101CE90090605F120E65EF2401FFE43EFEE43DFDC6
:101CF900E43CFC90605F120E7D7F407E427D0F7C4C
:101D090000906063120E71C3120E2E501990606319
:101D1900120E65EF2401FFE43EFEE43DFDE43CFCC8
:101D2900906063120E7D9060BF120E65C3EF94E858
:101D3900FFEE9403FEED9400FDEC9400FC9060BF6F
:101D4900120E7D9060B3120E7190605F120E6512D3
:101D59000CF6E47B64FAF9F8C3120E2E500E90606B
:101D69005F120E659060B3120E7DD2009060B712BB
:101D79000E71906063120E65120CF6E47B64FAF939
:101D8900F8C3120E2E500E906063120E659060B764
:051D9900120E7DD206D0
:011D9E002222
:1011CC0020666C61675F6765745F616C6C5F7374DC
:1011DC00617475730A0020666C61675F6765745F84
:1011EC00676561720A0020666C61675F6765745F92
:1011FC00626174746572790A0020666C61675F675E
:10120C0065745F6272616B650A0020666C61675F72
:10121C006765745F6C6566745F7475726E0A002026
:10122C00666C61675F6765745F72696768745F7429
:10123C0075726E0A0020666C61675F6765745F6823
:10124C006967685F6265616D0A0020666C61675F43
:10125C006765745F6675656C200A0020666C616753
:10126C005F6765745F746F74616C5F6D696C6561E9
:10127C006765200A002063757220746F74616C209E
:10128C006D696C6561676520256C75206D200A00A1
:10129C0020666C61675F6765745F7375625F746FFE
:1012AC0074616C5F6D696C65616765200A00206311
:1012BC00757220737562746F74616C206D696C65E6
:1012CC0061676520256C75206D200A0020666C61B5
:1012DC00675F616C7465725F64617465200A007984
:1012EC00656172202564206D6F6E74682025642002
:1012FC00646179202564200A0020666C61675F6157
:10130C006C7465725F74696D65200A00686F757224
:10131C00202564206D696E2025642073656320256B
:10132C0064200A0020666C61675F6765745F766F86
:10133C006C746167655F6F665F6261747465727906
:10134C00200A002063757220766F6C7461676520CB
:10135C006F662062617474657279202575200A00AD
:10136C0020666C61675F7365745F74656D705F6F29
:10137C00665F77617465725F7761726E696E672004
:10138C000A0020666C61675F636C6561725F746FE5
:10139C0074616C5F6D696C65616765200A0020661D
:1013AC006C61675F636C6561725F7375625F746FAC
:0E13BC0074616C5F6D696C65616765200A0085
:101AE800C10DC10AC103C104C110C10EC109C101A0
:101AF800C108C10CC100C106C102C105C107C1119D
:041B0800C10BC10F3D
:1018BC00E4906000F0F0906000E0FFC394034003FC
:1018CC00021A15745C2FF582E43460F583E0700322
:1018DC00021A0C906000E0FD75F00AA42438F58221
:1018EC00E43460F583E024D2601C14607424FD7031
:1018FC00030219B11470030219B524136003021901
:10190C00B7D20D0219B7D202ED75F00AA42439F53D
:10191C0082E43460F583E0FEED75F00AA4243AF518
:10192C0082E43460F583E07C002400FFEC3E9060A0
:10193C0067F0A3EFF0906000E0FF75F00AA4243B81
:10194C00F582E43460F583E0906069F0EF75F00A9D
:10195C00A4243CF582E43460F583E090606AF08066
:10196C004AD205906000E0FF75F00AA42439F58294
:10197C00E43460F583E090606BF0EF75F00AA4241A
:10198C003AF582E43460F583E090606CF09060008E
:10199C00E075F00AA4243BF582E43460F583E09012
:1019AC00606DF08006D20B8002D20F90605BE0D3AA
:1019BC0094004003E014F0906000E0FF245CF5829A
:1019CC00E43460F583E4F074542FF582E43460F56C
:1019DC0083E4F074582FF582E43460F583E4F0FE70
:1019EC007F0AC006C007FD906000E075F00AA424D1
:1019FC0036F9746035F0FA7B01D007D006120EEF81
:091A0C00906000E004F00218C231
:011A150022AE
:06004E00200D0302023D3B
:10005400906000120E8900000000C20D7BFF7A112F
:1000640079CC12091A906078E0FFE4FCFDFE906000
:1000740005120E7D7F01120F41906079E0FFE4FCD0
:10008400FDFE906005120E7D7F02120F4190607A92
:10009400E0FFE4FCFDFE906005120E7D7F03120F6D
:1000A4004190607BE0FFE4FCFDFE906005120E7D54
:1000B4007F04120F4190607CE0FFE4FCFDFE906041
:1000C40005120E7D7F05120F4190607DE0FFE4FC78
:1000D400FDFE906005120E7D7F06120F4190606E4A
:1000E400120E65906005120E7D7F07120F4190601D
:1000F40072120E65906005120E7D7F08120F4190FA
:10010400607EE0FFE4FCFDFE906005120E7D7F0939
:10011400120F4190607FE0FFE4FCFDFE9060051249
:100124000E7D7F0A120F41E47B64FAF9F890605F58
:10013400120E65120D8F906005120E7D7F0B120F4B
:1001440041E47B64FAF9F8906063120E65120D8F36
:10015400906005120E7D7F0C120F41906067E0FEE7
:10016400A3E0FFE4FCFD7810120E52C004C005C0E9
:1001740006C007906069E0FFE4FCFDFE7808120EFB
:1001840052D003D002D001D000120E21A804A90538
:10019400AA06AB07A3E0FFE4FCFDFE120E2190606B
:1001A40000120E7D906000120E65906005120E7DA7
:1001B4007F0E120F4190606CE0FFE4FCFDFE7808B6
:1001C400120E52C004C005C006C00790606BE0FF69
:1001D400E4FCFDFE7810120E52D003D002D001D000
:1001E40000120E21A804A905AA06AB0790606DE0D1
:1001F400FFE4FCFDFE120E21906000120E7D906063
:1002040000120E65906005120E7D7F0F120F419053
:100214006076E0FEA3E0FFE4FCFD906005120E7D35
:100224007F10120F41906080E0FFE4FCFDFE9060BF
:0902340005120E7D7F11120F412D
:10023D00300A1FC20A7BFF7A1179E212091A906007
:10024D0078E0FFE4FCFDFE906005120E7D7F01124B
:10025D000F4130031FC2037BFF7A1179F212091A85
:10026D00906079E0FFE4FCFDFE906005120E7D7F4D
:10027D0002120F4130041FC2047BFF7A127905125E
:10028D00091A90607AE0FFE4FCFDFE906005120E05
:10029D007D7F03120F4130101FC2107BFF7A127940
:1002AD001612091A90607BE0FFE4FCFDFE906005DC
:1002BD00120E7D7F04120F41300E1FC20E7BFF7A8E
:1002CD0012792B12091A90607CE0FFE4FCFDFE9080
:1002DD006005120E7D7F05120F4130091FC2097B8B
:1002ED00FF7A12794112091A90607DE0FFE4FCFD5E
:1002FD00FE906005120E7D7F06120F41300113C274
:10030D000190606E120E65906005120E7D7F0712D2
:10031D000F41300813C208906072120E659060058F
:10032D00120E7D7F08120F41300C1FC20C7BFF7A1D
:10033D0012795612091A90607EE0FFE4FCFDFE90E2
:10034D006005120E7D7F09120F4130003AC2007B0D
:10035D00FF7A12796712091A7BFF7A127981906000
:10036D005F120E65906008120E7D12091AE47B640F
:10037D00FAF9F890605F120E65120D8F90600512FC
:10038D000E7D7F0B120F4130063AC2067BFF7A12AB
:10039D00799C12091A7BFF7A1279BA906063120E5A
:1003AD0065906008120E7D12091AE47B64FAF9F863
:1003BD00906063120E65120D8F906005120E7D7F99
:1003CD000C120F41300240C2027BFF7A1279D81213
:1003DD00091A7BFF7A1279EB906067E0FFA3E0903A
:1003ED006008CFF0A3EFF0906069E0FF90600AE441
:1003FD00F0A3EFF090606AE0FF90600CE4F0A3EFE3
:10040D00F012091A122B2A30053EC2057BFF7A1312
:10041D00790512091A7BFF7A13791890606BE0FF4A
:10042D00906008E4F0A3EFF090606CE0FF90600A3C
:10043D00E4F0A3EFF090606DE0FF90600CE4F0A3AA
:10044D00EFF012091A122B2A300739C2077BFF7AF7
:10045D0013793012091A7BFF7A13794F906076E089
:10046D00FFA3E0906008CFF0A3EFF012091A90609F
:10047D0076E0FEA3E0FFE4FCFD906005120E7D7FAB
:10048D0010120F4130111FC2117BFF7A13796C12BC
:10049D00091A906080E0FFE4FCFDFE906005120EED
:1004AD007D7F11120F41300B22C20B90605F120E37
:1004BD0089000000009060BF120E8900000000123C
:1004CD002B2A7BFF7A13798E12091A300F22C20F55
:1004DD00906063120E89000000009060BF120E89BB
:1004ED0000000000122B2A7BFF7A1379AA12091A39
:0104FD0022DC
:1020F7006C6F6E672070726573730A0073686F7216
:10210700742070726573730A006F6E65206C656664
:10211700742070726573730A0074776F206C65663C
:10212700742070726573730A007468726565206C39
:102137006566742070726573730A006F6E6520722E
:10214700696768742070726573730A0074776F200B
:1021570072696768742070726573730A00746872B5
:1021670065652072696768742070726573730A0009
:1021770074776F206C656674206C6F6E6720707261
:102187006573730A0074776F207269676874206CCF
:102197006F6E672070726573730A006F6E65206CCF
:1021A70065667420636F6E74696E756520707265FD
:0421B70073730A0034
:101B0C004160890058608A0001036C00020E1400C9
:101B1C00030B2B000405DB000506D0000609374239
:101B2C00608300004460850000000042608100007A
:1024B800E4FD906002F0A3F0ED25E025E0248CF522
:1024C80082E43460F583E0FAA3E024CEFBEA34FF2B
:1024D800FAD3EF9BEE9A403BED25E025E0248CF5FE
:1024E80082E43460F583E0FAA3E02432FBE43AFAAC
:1024F800C3EF9BEE9A501CED25E025E0248AF58277
:10250800E43460F583E0FFA3E0906002CFF0A3EF2E
:10251800F080050DEDB406A0906002E0FEA3E0FF98
:012528002290
:1004FE00E4906000F0A3F0121D9F906000EEF0A358
:10050E00EFF0906000E0FEA3E0FF1224B8906000D0
:10051E00EEF0A3EFF0906089E060030205B3906007
:10052E0083E0FEA3E0FF4E7011906000E0FDA3E0BB
:10053E00906083CDF0A3EDF08064906000E0FCA3AA
:10054E00E0B5074BEEB50447906085120E65EF24BB
:10055E0003FFE43EFEE43DFDE43CFC906085120E9C
:10056E007DE47FEE7E02FDFC906085120E71C3125B
:10057E000E2E402A906085120E89000000007BFF2F
:10058E007A2079F712091A9060897402F0800F9020
:10059E0060897404F07BFF7A21790312091A7F01B6
:1005AE007E00122ACE906089E06404600302068FFA
:1005BE00906083E07004A3E0640170167BFF7A21E3
:1005CE00791012091A906005120E8900000041027E
:1005DE000684906083E07004A3E0640270167BFFD3
:1005EE007A21792012091A906005120E89000000F6
:1005FE0040020684906083E07004A3E064037015EB
:10060E007BFF7A21793012091A906005120E89004B
:10061E000000428061906083E07004A3E064047087
:10062E00157BFF7A21794212091A906005120E8904
:10063E00000000E48040906083E07004A3E0640555
:10064E0070157BFF7A21795312091A906005120EEC
:10065E008900000065801F906083E07004A3E06451
:10066E000670187BFF7A21796412091A90600512C0
:10067E000E89000000E37F0D120F41906089740512
:10068E00F0906089E064027064906083E0FEA3E005
:10069E00FF64014E6051EF64024E701A7BFF7A21A7
:1006AE00797712091A906005120E89000000467FB4
:1006BE000D120F418031906083E0FEA3E0FF6403D2
:1006CE004E6024EF64044E601EEF64054E70187B7E
:1006DE00FF7A21798C12091A906005120E8900009A
:1006EE0000117F0D120F419060897403F0906089A4
:1006FE00E064036003020842906000E0FEA3E0FFA6
:10070E00906083E0FAA3E0FB6F7002EA6E60030272
:10071E00083CA3120E65EF2401FFE43EFEE43DFD0E
:10072E00E43CFC906085120E7DEB64014A70337FD1
:10073E0096FEFDFC906085120E71C3120E2E5003B4
:10074E00020833906085120E89000000007BFF7A4C
:10075E002179A212091A906005120E89000000413B
:10076E008057906083E07004A3E0640270177F9658
:10077E00FEFDFC906085120E71C3120E2E50030208
:10078E000833020829906083E07004A3E0640370CC
:10079E002F7F96FEFDFC906085120E71C3120E2EF9
:1007AE005003020833906085120E890000000090FD
:1007BE006005120E89000000427F0D120F41806508
:1007CE00906083E07004A3E0640470137F96FEFDD6
:1007DE00FC906085120E71C3120E2E4048803C9024
:1007EE006083E07004A3E0640570137F96FEFDFC49
:1007FE00906085120E71C3120E2E4029801D9060DE
:10080E0083E07004A3E06406701B7F96FEFDFC90EF
:10081E006085120E71C3120E2E400A906085120E64
:10082E0089000000007F017E00122ACE80069060B3
:10083E00897406F0906089E064066005E0640570D6
:01084E003E6B
:10084F00906000E07002A3E0701290608175F0017B
:10085F00120CD37F017E00122ACE8007E4906081B4
:10086F00F0A3F0C3906082E09432906081E0940036
:0E087F00400CE4F0A3F0906089E0FF7407F0F5
:10088D00906089E0B4071AE4906000F0A3F09060E6
:10089D0083F0A3F0A3120E8900000000E49060899C
:0108AD00F05A
:0108AE002227
:10298D006675656C206164632076616C20256C75BD
:10299D00200A006675656C2070657263656E742023
:0529AD002562750A001F
:101B3C004460A5000000004460A90000000044605F
:101B4C00AD000000004260A200004260B100004104
:031B5C0060A40082
:1015AB00121D9F9060F3EEF0A3EFF09060A9120E66
:1015BB00719060F3E0FEA3E0FFE4FCFD120CE990F8
:1015CB0060A9120E7D9060AD120E65EF2401FFE451
:1015DB003EFEE43DFDE43CFC9060AD120E7D906060
:1015EB00A5120E65EF2402FFE43EFEE43DFDE43C54
:1015FB00FC9060A5120E7DE47FF47E01FDFC9060F3
:10160B00A5120E71C3120E2E50030217449060A543
:10161B00120E89000000009060A9120E659060AD5B
:10162B00120E71120D8F9060A9120E7D9060AD128B
:10163B000E89000000007BFF7A29798D9060A9123A
:10164B000E65906008120E7D12091A9060A2740A42
:10165B00F0A37423F09060A2E0FEA3E0FFE4FCFD96
:10166B009060A9120E71C3120E2E4008E49060A474
:04167B00F00217273B
:10167F009060007401F0906000E0FFC39409400394
:10168F000217277E007C087D34120C6C7C007D0ACB
:10169F00120C7EAC06AD07ED24C5FEEC3401906054
:1016AF00A2F0A3CEF0ED24EBFEEC34029060B1F08B
:1016BF00A3CEF0E47FC17E02FDFC9060A9120E71F3
:1016CF00D3120E2E50089060A47464F0804A90607C
:1016DF00A2E0FEA3E0FFE4FCFD9060A9120E71C32F
:1016EF00120E2E402A9060B1E0FEA3E0FFE4FCFD55
:1016FF009060A9120E71D3120E2E5013906000E05D
:10170F0075F00AA4FFC374649F9060A4F0800990E1
:08171F006000E004F0021685F1
:101727007BFF7A2979A09060A4E0906008F0120905
:0E1737001A9060A9120E8900000000D20C2248
:102255000222D5E493A3F8E493A34003F68001F2A8
:1022650008DFF48029E493A3F85407240CC8C3338A
:10227500C4540F4420C8834004F456800146F6DF59
:10228500E4800B0102040810204080901A16E47EB9
:10229500019360BCA3FF543F30E509541FFEE4934E
:1022A500A360010ECF54C025E060A840B8E493A315
:1022B500FAE493A3F8E493A3C8C582C8CAC583CA40
:1022C500F0A3C8C582C8CAC583CADFE9DEE780BEF8
:011B5F000085
:100C1400BB010689828A83E0225002E722BBFE02DE
:090C2400E32289828A83E4932211
:100C2D00BB010CE58229F582E5833AF583E022507C
:100C3D0006E92582F8E622BBFE06E92582F8E222C6
:0D0C4D00E58229F582E5833AF583E49322E0
:100C5A00BB010689828A83F0225002F722BBFE0179
:020C6A00F32273
:100C6C00EF8DF0A4A8F0CF8CF0A428CE8DF0A42E9C
:020C7C00FE2256
:100C7E00BC000BBE0029EF8DF084FFADF022E4CC5A
:100C8E00F875F008EF2FFFEE33FEEC33FCEE9DEC23
:100C9E00984005FCEE9DFE0FD5F0E9E4CEFD22ED69
:100CAE00F8F5F0EE8420D21CFEADF075F008EF2FB3
:100CBE00FFED33FD4007985006D5F0F222C398FDA4
:050CCE000FD5F0EA2241
:100CD300C5F0F8A3E028F0C5F0F8E58215827002AC
:060CE3001583E038F02249
:0D0CE900EF2BFFEE3AFEED39FDEC38FC225A
:0E0CF600C3EF9BFFEE9AFEED99FDEC98FC22F9
:100D0400E88FF0A4CC8BF0A42CFCE98EF0A42CFC8E
:100D14008AF0EDA42CFCEA8EF0A4CDA8F08BF0A40C
:100D24002DCC3825F0FDE98FF0A42CCD35F0FCEB6B
:100D34008EF0A4FEA9F0EB8FF0A4CFC5F02ECD3930
:0F0D4400FEE43CFCEAA42DCE35F0FDE43CFC229D
:100D530075F008758200EF2FFFEE33FECD33CDCC57
:100D630033CCC58233C5829BED9AEC99E5829840DA
:100D73000CF582EE9BFEED9AFDEC99FC0FD5F0D6B7
:100D8300E4CEFBE4CDFAE4CCF9A88222B800C1B9E1
:100D93000059BA002DEC8BF084CFCECDFCE5F0CB1F
:100DA300F97818EF2FFFEE33FEED33FDEC33FCEB58
:100DB30033FB10D703994004EB99FB0FD8E5E4F913
:100DC300FA227818EF2FFFEE33FEED33FDEC33FC00
:100DD300C933C910D7059BE99A4007EC9BFCE99AF4
:100DE300F90FD8E0E4C9FAE4CCFB2275F010EF2F39
:100DF300FFEE33FEED33FDCC33CCC833C810D70739
:100E03009BEC9AE899400AED9BFDEC9AFCE899F873
:0E0E13000FD5F0DAE4CDFBE4CCFAE4C8F92206
:0D0E2100EF4BFFEE4AFEED49FDEC48FC22D0
:100E2E00EB9FF5F0EA9E42F0E99D42F0E89C45F01A
:010E3E002291
:100E3F00E8600FECC313FCED13FDEE13FEEF13FF91
:030E4F00D8F122B5
:100E5200E8600FEFC333FFEE33FEED33FDEC33FCFE
:030E6200D8F122A2
:0C0E6500E0FCA3E0FDA3E0FEA3E0FF2200
:0C0E7100E0F8A3E0F9A3E0FAA3E0FB2204
:0C0E7D00ECF0A3EDF0A3EEF0A3EFF022E8
:100E8900A8828583F0D083D082120EA0120EA01200
:100E99000EA0120EA0E473E493A3C583C5F0C58325
:100EA900C8C582C8F0A3C583C5F0C583C8C582C8B3
:010EB9002216
:0C0EBA00A42582F582E5F03583F5832243
:090EC600E0FBA3E0FAA3E0F9222D
:100ECF00F8E0FBA3A3E0F925F0F0E58215827002AC
:070EDF001583E0FA38F02250
:090EE600EBF0A3EAF0A3E9F0220D
:1008AF00E5082408F582E43460F583E0050822901A
:1008BF006005301A03906008E475F001120ECF0244
:1008CF000C142013E97F2ED2138018EF540F2490AD
:1008DF00D43440D4FF30170BEF24BFB41A005003A9
:1008EF002461FFE50960021509050CE50C7002058E
:1008FF000B301A0E906005E475F001120ECFEF0267
:10090F000C5A022C017403D21A8003E4C21AF508A0
:10091F00906005120EE6E4F509F50BF50CE509609C
:10092F00077F201208F280F5750AFFC214C213C2A6
:10093F0015C216C218C219C21B1208BEFF700D30A5
:10094F001A057F00120903AF0CAE0B22B4255FC24C
:10095F00D5C2171208BEFF24D0B40A00501A75F082
:10096F000A780930D50508B6FF0106C6A426F62079
:10097F00D5047002D21680D924CFB41A00EF5004D8
:10098F00C2E5D217020B04D21480C6D21380C0D294
:10099F001580BCD2D580BAD21880B47F201208F24D
:1009AF002015077401B5090040F11208AFFF1208B6
:1009BF00F202092CD21BD21980951208AFFB120834
:1009CF00AFFA1208AFF94A4B700679D57A0B7BFF55
:1009DF0020152EE509602A7E008E82758300120C89
:1009EF002D60060EEE650A70F0C2D5EBC0E0EAC0CE
:1009FF00E0E9C0E0EE120B4BD0E0F9D0E0FAD0E026
:100A0F00FB120C14FF60AAEBC0E0EAC0E0E9C0E003
:100A1F001208F2D0E02401F9D0E03400FAD0E0FB64
:100A2F00E50A0460DCD50AD980877BFF7A0B79470A
:100A3F00D215809C791080027908C219C21B8008D8
:100A4F00D2D5790A8004790AC2D5E50A047002F575
:100A5F000AE4FAFDFEFF1208AFFC7B082014131204
:100A6F0008AFFD7B1030130A1208AFFE1208AFFF5C
:100A7F007B20EC3382D592D55013C3E43013069FFD
:100A8F00FFE49EFEE42014039DFDE49CFCE4CBF800
:100A9F00C214EC700CCFCECDCCE824F8F870F380F4
:100AAF0017C3EF33FFEE33FEED33FDEC33FCEB33C7
:100ABF00FB994002FB0FD8E9EB301405F8D0E0C4E6
:100ACF0048B214C0E00AEC4D4E4F78207B0070C244
:100ADF00EAB50A0040BCC0E0120B4DD0F0D0E020C8
:100AEF001404C4C0E0C4B214C0F01208DBD0F0D5B7
:100AFF00F0EB02092C120F1B09C9530A4358099A2C
:100B0F004C0996420A474F0A4F440A4F4909AF43CF
:080B1F000A55550A39460A394E
:100B2700450A39470BF550099E2D09A22E09C52BF9
:100B370009A62309C3200BDE2A095E48000009BD68
:100B47003F3F3F00790AA2D5201614301809B91083
:100B5700020404B9080104A2D52019025001042097
:100B670015689215B509005034C0E07F203016197A
:100B77007F30A21572197218500F120BA4C215C23A
:100B870019C218C21B7F30800F301803E9C0E0126A
:100B970008F2301803D0E0F9D0E0B509CC301817C7
:100BA7007F30B9100C1208F27F583017077F788012
:100BB70003B908031208F23015057F2D0208F27FEA
:100BC70020201BF87F2B2019F322921580CF286E47
:100BD700756C6C2900D2141208AF3014F8C214785F
:100BE7000930D50108F602095E2D5043495812080D
:100BF700AF2403B405004001E4900BF0931208E31F
:0D0C0700743A1208E3D216750904020A437C
:100EEF00EF4E6012EF60010EEDBB010B89828A831A
:100EFF00F0A3DFFCDEFA2289F05007F709DFFCA927
:0C0F0F00F022BBFEFCF309DFFCA9F0227D
:100F1B00D083D082F8E4937012740193700DA3A365
:100F2B0093F8740193F5828883E473740293686079
:060F3B00EFA3A3A380DF79
:00000001FF
