:03000000022016C5
:0C201600787FE4F6D8FD75812302205D80
:0C000300000000000000000000000000F1
:0B2A4300EF1FAC0670011E4C70F62265
:10287400AB07AA06EB1BAE0270011A4E60097FAAD1
:082884007E05122A4380ED22BB
:101D1F00907120E04480F07F057E00122A43E4FF9B
:101D2F00FE12287475A75575AC5C9071327450F023
:101D3F009071307403F0907136742FF090715C7461
:101D4F0003F090715BE054FCF07F18EF2466FDE424
:101D5F0034718D82F583E4F00FEFB433EE904011C0
:101D6F00E4935407FF90711CE054F84FF090401724
:101D7F00E493547FFF90711DE054804FF09040101A
:101D8F00E493FF5401C43333335480FE907123E046
:101D9F00547F4EF0EFC313543F4440FFA3E05480F1
:101DAF004FF0904012E493FF540FFE907146E054B1
:101DBF00F04EF0EFC4540FFF90714FE054F04FF01E
:101DCF00904013E493543FFF907140E054C04FF0A4
:101DDF00904014E493907126F0904015E493907125
:0B1DEF0028F0904016E49390712AF059
:011DFA0022C6
:1029240078D2E254FBF2E24404F2907187E4F0D2EC
:022934009122EE
:10002D0078D2E254FBF2E24404F2907187E4F07866
:0D003D00D0E24402F208E24402F2D2912225
:1027E60078D2E254EFF2E24410F2907188E4F07885
:0D27F600D0E24404F208E24404F2D2922240
:1028030078C2E254FBF2E24404F290717FE4F07880
:0D281300C0E24402F208E24402F2C2812257
:1029690078C2E254BFF2E24440F2907181E4F0226D
:1028200078E3E254EFF2E24410F2907194E4F0782D
:0D283000E0E24440F208E24440F2C2A62279
:0D29A70078C3E254CFF278C0E24440F2223F
:0D29B40078C3E2543FF278C0E24480F22282
:0D29C10078D2E254FCF278D0E24401F22218
:0D29CE0078D2E2543FF278D0E24408F222C1
:0D29DB0078D3E254FCF278D0E24410F222EE
:0D29E80078E2E254F3F278E0E24402F222D9
:0D29F50078E2E254CFF278E0E24404F222EE
:0D2A020078E2E2543FF278E0E24408F2226C
:0D2A0F0078E3E254F3F278E0E24420F22292
:0D2A1C0078E3E2543FF278E0E24480F222D9
:0D2A290078F2E254FCF278F0E24401F2226F
:071B11004460B60000000073
:1025E200E5B154F342B153A8DFD2AF7892E4F208D6
:1025F200F27890E254E3F2E2441CF2E254FCF2E29A
:102602004401F208E2547FF2E24420F27895740128
:10261200F2187476F27890E2541FF2E244A0F222A9
:102979007890E2541FF2E244C0F243A820D2AF2279
:1028FC007890E2541FF2E244A0F27892E4F208F2EB
:04290C0053A8DF22CB
:03001E0002242891
:10242800C0E0C0F0C083C082C0D075D000C000C07A
:1024380004C005C006C0077891E230E71DE2448079
:10244800F29060B6120E27EF2401FFE43EFEE43D51
:10245800FDE43CFC9060B6120E3FD007D006D005D4
:0F246800D004D000D0D0D082D083D0F0D0E032DA
:071B18004460BA0000000068
:10262200E5B154CF42B153A8BFD2AF789EE4F208CD
:10263200F2789CE254E3F2E2441CF2E254FCF2E24D
:102642004401F208E2547FF2E24420F278A1E4F27B
:0F265200187424F2789CE2541FF2E244A0F222A2
:10298900789CE2541FF2E244C0F243A840D2AF223D
:10291000789CE2541FF2E244A0F2789EE4F208F2BE
:0429200053A8BF22D7
:030021000224773F
:10247700C0E0C0F0C083C082C0D075D000C000C02B
:1024870004C005C006C007789DE230E71DE244801E
:10249700F29060BA120E27EF2401FFE43EFEE43DFE
:1024A700FDE43CFC9060BA120E3FD007D006D00581
:0F24B700D004D000D0D0D082D083D0F0D0E0328B
:071B1F004460BE000000005D
:10255900E5B254FC42B253A9FED2AF907102E4F045
:10256900A3F0907100E054E3F0E0441CF0E054FC67
:10257900F0E04401F0A3E0547FF0E04420F09071D2
:1025890005E4F09071047424F0907100E0541FF098
:05259900E044A0F02267
:10293600907100E0541FF0E044C0F043A901D2AF0B
:01294600226E
:1028A400907100E0541FF0E044A0F0907102E4F055
:0628B400A3F053A9FE226F
:030024000223882C
:10238800C0E0C0F0C083C082C0D075D000C000C01B
:1023980004C005C006C007907101E030E71DE044A5
:1023A80080F09060BE120E27EF2401FFE43EFEE4A9
:1023B8003DFDE43CFC9060BE120E3FD007D006D035
:1023C80005D004D000D0D0D082D083D0F0D0E03275
:071B26004460C20000000052
:10251300E5B254F342B253A9FDD2AF90710AE4F08D
:10252300A3F0907108E054E3F0E0441CF0E054FCA5
:10253300F0E04401F0A3E0547FF0E04420F0907118
:102543000D7401F090710C7476F0907108E0541FD3
:06255300F0E044A0F022BC
:10294700907108E0541FF0E044C0F043A902D2AFF1
:01295700225D
:1028BA00907108E0541FF0E044A0F090710AE4F02F
:0628CA00A3F053A9FD225A
:030027000223D8D9
:1023D800C0E0C0F0C083C082C0D075D000C000C0CB
:1023E80004C005C006C007907109E030E71DE0444D
:1023F80080F09060C2120E27EF2401FFE43EFEE455
:102408003DFDE43CFC9060C2120E3FD007D006D0E0
:1024180005D004D000D0D0D082D083D0F0D0E03224
:071B2D004460C60000000047
:10288C0043A90475D11075E67F75E7BB75DA1C7525
:08289C00DF2075DE01D2AF223E
:03002A000224C6E7
:1024C600C0E0C0F0C083C082C0D075D000C000C0DC
:1024D60004C005C006C007E5EE30E51C43E22090C7
:1024E60060C6120E27EF2401FFE43EFEE43DFDE444
:1024F6003CFC9060C6120E3FD007D006D005D00433
:0D250600D000D0D0D082D083D0F0D0E03211
:10227400726563762074696D65206F757421200A18
:1022840000666F726D6174206C656E20696E766194
:102294006C6964210A00256420202564200A0072E8
:1022A40065637620637263206F72206C656E2065AF
:1022B400727221200A0025327820000A3D3D3D3DFE
:1022C4003D3D3D3D3D3D3D3D3D3D3D3D3D3D3D3D3A
:0822D4003D3D3D3D3D3D0A008A
:101B34005E603400000000000000000000000000AF
:101B44000000000000000000000000000000000091
:101B54000043605200000043605600000043605A96
:101B6400000000C11C4160550041602F00416059D4
:081B7400004460300000000095
:0E29990090602DEFF0122A3690602DE0FF22A4
:10271A0078D2E2F2E24404F2907187E04404F09045
:10272A007175E0440BF043AA20D2AF75D60175D576
:05273A009F75D2112281
:03004B000215BCDF
:1015BC00C0E0C0F0C083C082C0D075D000C000C0F5
:0D15CC0001C002C003C004C005C006C00776
:1015D90090602EE4F0E5D420E503021718E5D7F072
:1015E900201C04E0B4A509906059E0C394034003AA
:1015F90002170B90602EE0B4A51BD21C90602FE45B
:10160900F0906055F01228FC9060B6120E4B000065
:10161900000012297990602FE0B4010890602EE053
:10162900906055F0906030120E2774562FF582E4C1
:101639003460F583E0600302171890602EE0FF9094
:101649006030120E3390603475F00AEB120E7CEAAA
:1016590075F00AA42583F583C083C08290602FE0CA
:10166900FE04F0D082D083E5822EF582E43583F53D
:1016790083EFF09060B6120E4B00000000906055A9
:10168900E07003021718E0FF90602FE06F6003021B
:101699001718906055E0FB906030120E2774522F96
:1016A900F582E43460F583EBF0C21C90602FE4F01E
:1016B900906055F0906030120E2774562FF582E431
:1016C9003460F5837401F0906059E004F090603063
:1016D900120E27EF2401FFE43EFEE43DFDE43CFC4D
:1016E900906030120E3FE47F03FEFDFC90603012E3
:1016F9000E33C3120DF0400A906030120E4B0000F9
:0F17090000001228FC9060B6120E4B000000008A
:10171800D007D006D005D004D003D002D001D00025
:0B172800D0D0D082D083D0F0D0E032CF
:0D2A3600E5D430E4FB8FD7E5D430E4FB227B
:06273F009060D6120EA806
:10274500E4FEEEC39D50159060D6120E888E8275FC
:0C2755008300120C56FF122A360E80E69C
:012761002255
:1013DB00E4906000F0A3F0C2127F0AFEFDFC906067
:1013EB00B6120E33D3120DF040211228FC9060B6CA
:1013FB00120E4B00000000E490602FF0906055F04F
:10140B00C21C7BFF7A227974020943E4906000F0DE
:10141B00906000E0FFC3940340030215BB74562F8A
:10142B00F582E43460F583E070030215B29060003E
:10143B00E075F00AA42435F582E43460F583E0FE10
:10144B0074522FF582E43460F583E06E700302145E
:10145B00DC7BFF7A2279851209437BFF7A22799A0A
:10146B00906000E02452F582E43460F583E0FFE401
:10147B00FCFDFE906008120E3F906000E075F00AD4
:10148B00A42435F582E43460F583E0FFE4FCFDFE33
:10149B0090600C120E3F120943122123906000E062
:1014AB00FF2456F582E43460F583E4F0906059E054
:1014BB0014F090000AC083C0827D00EF75F00AA47F
:1014CB002434F9746035F0FA7B01D007D006020E94
:0114DB00B15F
:1014DC00E4906002F0906001F0A3F0906000E0FFF7
:1014EC002452F582E43460F583E014FE906002E04F
:1014FC00FDC39E5026EF75F00AA42434F582E43423
:10150C0060F583E5822DF582E43583F583E0FF9069
:10151C006001E02FF0A3E004F080C0906001E0F0E7
:10152C00906000E0FF2452F582E43460F583E0FE25
:10153C00EF75F00AA42433F582E43460F583E58278
:10154C002EF582E43583F583E0FF906001E06F6057
:03155C0002D212A6
:10155F003012407BFF7A2279A3120943C2129060A6
:10156F0000E0FF2456F582E43460F583E4F09060E8
:10157F0059E014F090000AC083C0827D00EF75F02F
:10158F000AA42434F9746035F0FA7B01D007D00631
:10159F00120EB1906000E0245AF582E43460F583B6
:0C15AF007401F0906000E004F002141BD6
:0115BB00220D
:10259E00745A2FF582E43460F583E4F074522FF50B
:1025AE0082E43460F583E4F074562FF582E43460EF
:1025BE00F583E4F0F58375820AC083C082FDEF7562
:1025CE00F00AA42434F9746035F0FA7B01D007D0F8
:0425DE0006020EB132
:10212300E4906003F0A3F0906003F0906003E0FF9D
:10213300C394035060EF2430FF122A367F0A122A19
:1021430036E4A3F0906004E0FFC3940A50367BFFAB
:102153007A2279BA906003E075F00AA42434F582F8
:10216300E43460F583E5822FF582E43583F583E07B
:10217300FF906008E4F0A3EFF0120943906004E0DD
:1021830004F080C07BFF7A2279BF12094390600379
:05219300E004F080965D
:012198002224
:051B7C004260D90000E9
:1027A60078C2E24403F2E2440CF2907123E054D87A
:1027B600F0E054BFF0E0441EF09071227407F0225E
:10283D00EF24FE600804700E7599048003759905E8
:0D284D007869E24448F27F017E00022874A1
:102762007869E24401F2786BE230E1FA7402F2AF86
:1027720093EF75F010A4FFAEF0E594C4540FFDEF93
:032782004DFF22E6
:101C3000E4906002F0A3F0A3120E4B00000000E459
:101C4000906008F0A3F074FFA3F0A3F0E4A3F0F019
:101C5000122762906002EEF0A3EFF090600CE0C3F8
:101C600094024054906008E0FEA3E0FF906002E020
:101C7000FCA3E0FDD39FEC9E4008906008ECF0A32D
:101C8000EDF090600AE0FEA3E0FFC3ED9FEC9E50F4
:101C90000F906002E0FFA3E090600ACFF0A3EFF0A6
:101CA000906004120E33906002E0FEA3E0FFE4FCBB
:101CB000FD120CABA3120E3F90600CE004F0E0C3E9
:101CC0009414408C906004120E27C006C0079060E8
:101CD00008E0FEA3E0FBAA06E4F9F8D007D006125C
:101CE0000CB8906004120E3F906004120E27C006DC
:101CF000C00790600AE0FEA3E0FBAA06E4F8D00764
:101D0000D006120CB8906004120E3F906004120EC0
:0E1D1000277804120E01906002EEF0A3EFF0AF
:011D1E0022A2
:1029580075AF3F8FAF75AEB975A402E5A530E1FB41
:01296800224C
:10266100906005120EA875AF3F8FAF906008E0C370
:1026710094014022E5A530E0FB906005E475F0018E
:10268100120E91120C3DF5A675AEB975A4019060BC
:0726910008E014F080D522DF
:10269800906001120EA8906004E06027AE070FEE6C
:1026A8002400FDE4343F8D82F583E493FE906001BD
:1026B800E475F001120E91EE120C83906004E014A0
:0426C800F080D322A9
:10285A0079656172202564206D6F6E746820256425
:0A286A0020646179202564200A0033
:10220A00E47FE87E03FDFC9060C6120E33C3120D14
:10221A00F040569060C6120E27C3EF94E8FFEE9482
:10222A0003FEED9400FDEC9400FC9060C6120E3F94
:10223A0090606BE0C3943B50028021E490606BF0A5
:10224A001228D090606AE0C3943B5002800EE4905A
:10225A00606AF0906069E0C394175004E004F022C9
:0A226A00E4906069F0A3F0A3F022F5
:1020A200121D1F75D9DD75D95590715EE054FEF091
:1020B20075D9BB1227C61225E212271A12278512DA
:1020C20026221225591226CC1226F3122513122883
:1020D2008C122969D2831227A67BFF7A28795A901B
:1020E2006065E0FFA3E0906008CFF0A3EFF090609E
:1020F20067E0FF90600AE4F0A3EFF0906068E0FF11
:1021020090600CE4F0A3EFF01209437F0212283D25
:102112001205271213DB12173312004E12220A8005
:01212200EAD2
:101B81006022605D00000000000000000000000015
:101B91000000000000000000000000000000000044
:061BA1000000000000003E
:1027C6007E007F227D007B017A60795D120EB17BEF
:1027D600017A60795D906004740FF0E4FF02269838
:1028D000E4FF1229587B017A60795D906008740FDB
:0628E000F0E4FF02266196
:050F0300906004EFF016
:100F0800906009120E4B000000007FA5122A36904F
:100F18006009120E27EF24A5FFE43EFEE43DFDE440
:100F28003CFC906009120E3F906004E0FF64016091
:100F380028EF64026023EF6403601EEF6404601905
:100F4800EF64056014EF6406600FEF6409600AEF50
:100F5800640A6005EF6411703D7F05122A369060BF
:100F680004E0FF122A36906005120E27122A3690E6
:100F78006009120E33C000906005120E277E0090A3
:100F88006004E02405FDE433CD2FFFEE3DFE3395EC
:100F9800E0FDFC021163906004E0FF64076014EF59
:100FA8006408600FEF640C600AEF640D6005EF647D
:100FB8001070647F06122A36906004E0FF122A3609
:100FC800906005120E277808120E01122A369060DA
:100FD80005120E27122A36906009120E33C000C07F
:100FE80002C003906005120E277808120E017E00D9
:100FF800906004E02406FDE433CD2FFBEE3DFAA318
:10100800120E277E00EB2FFFEE3AFE3395E0FDFC33
:10101800D003D002021163906004E0FF640B600803
:10102800EF640F60030210B57F07122A3690600440
:10103800E0FF122A36906005120E277810120E0172
:10104800122A36906005120E277808120E01122A0D
:1010580036906005120E27122A36906009120E3358
:10106800C000C002C003906005120E277810120E4F
:10107800017E00906004E02407FDE433CD2FFBEEF1
:101088003DFAA3120E277808120E017E00EB2FFB03
:10109800EE3AFA906005120E277E00EB2FFFEE3A2B
:1010A800FE3395E0FDFCD003D0020211639060048A
:1010B800E0640E600302116E7F08122A3690600405
:1010C800E0FF122A36906005120E277818120E01DA
:1010D800122A36906005120E277810120E01122A75
:1010E80036906005120E277808120E01122A3690E3
:1010F8006005120E27122A36906009120E33C000BE
:10110800C002C003906005120E277818120E017EE7
:1011180000906004E02408FDE433CD2FFBEE3DFA97
:10112800A3120E277810120E017E00EB2FFBEE3A69
:10113800FA906005120E277808120E017E00EB2F38
:10114800FBEE3AFA906005120E277E00EB2FFFEEB9
:101158003AFE3395E0FDFCD003D002D000120CAB70
:10116800906009120E3F906009120E27E4FEFDFC04
:10117800906009120E3F906009120E27122A367FDE
:061188000A7E000228743B
:102785001229E81229F5122A02122A0F122A2912F1
:102795002A1C1229DB1229CE1229C11229B40229B9
:0127A500A78C
:101DFB0020A30C906078E07011D20404F0800B905B
:101E0B006078E0B40104E4F0D20420A50990607975
:101E1B00E0700E048008906079E0B40104E4F0D225
:101E2B001020A20990607AE0700E04800890607A0E
:101E3B00E0B40104E4F0D20E20A10990607BE070C5
:101E4B000E04800890607BE0B40104E4F0D209201A
:101E5B008609906076E0605EE4805820870C906085
:101E6B0076E0640160507401804920900C9060769C
:101E7B00E0640260417402803A20930C906076E03B
:101E8B00640360327403802B20940C906076E064C2
:101E9B000460237404801C20A70C906076E064051A
:101EAB0060147405800D20B00D906076E0640660C0
:071EBB00057406F0D20A22B3
:101BA7004460A6000000004460AA000000004460F2
:0D1BB700A0000000004160A4004160A500F6
:1026CC00E5B854F342B843A802D2AF78C2E254CF73
:1026DC00F218E24404F278C7E24404F278C4E254FB
:0726EC00CFF2E24420F222CC
:10188D009060CA120E4B00000000E47FE87E03FD5D
:10189D00FC9060BE120E33C3120DF050030219D22C
:1018AD009060BE120E4B00000000E47F037E07FD2A
:1018BD00FC9060A6120E33120CC6E47B10FAF9F8F8
:1018CD00120D519060CA120E3F9060AA120E279011
:1018DD0060CA120E33120CAB9060AA120E3F9060CC
:1018ED00CA120E27E47B407A38F9F8120CC69060C4
:1018FD00CA120E3F9060CA120E277B407A42790FB2
:10190D007800120D519060CA120E3F9060A6120E13
:10191D004B000000009060A0120E279060CA120EBE
:10192D0033D3120DF0403EE49060A5F09060A4E03A
:10193D0004F0E0940A50030219D29060CA120E27E7
:10194D009060A0120E3FE47FE77E03FDFC9060CA1D
:10195D00120E33C3120DF040569060CA120E4B009A
:10196D000003E7804A9060A0120E279060CA120E05
:10197D0033C3120DF05047E49060A4F0A3E004F0DF
:10198D00E0C3940A403FE47FE77E03FDFC9060CA0C
:10199D00120E33C3120DF0400A9060CA120E4B00A6
:1019AD000003E79060CA120E279060A0120E3F90C0
:1019BD0060CA120E27906070120E3FD20822E4907A
:0519CD0060A4F0A3F08E
:0119D20022F2
:030012000222DCEB
:1022DC00C0E0C0F0C083C082C0D075D000C000C0C8
:0922EC0003C004C005C006C007D0
:1022F50078C6E2FB30E2199060A6120E27EF2401A2
:10230500FFE43EFEE43DFDE43CFC9060A6120E3F7A
:06231500AF0378C6EBF2F5
:10231B00D007D006D005D004D003D000D0D0D082C7
:07232B00D083D0F0D0E032B6
:1028E600656E67696E6520737065656420256C7515
:0628F6002072706D0A0063
:071BC4004460D200000000A4
:1026F300E5B854CF42B843A804D2AF78D2E254CF5E
:10270300F218E24404F278D7E24404F278D4E254B3
:07271300CFF2E24420F222A4
:101F86009060CE120E4B00000000E47FC47E09FD77
:101F9600FC9060BA120E33C3120DF04072E47FF06B
:101FA600FEFDFC9060D2120E33120CC6E47B10FAD2
:101FB600F9F8120D519060CE120E3F9060BA120ED3
:101FC6004B000000009060D2120E4B00000000E4AF
:101FD6007FFF7EFFFDFC9060CE120E33C3120DF024
:101FE600400A9060CE120E4B0000FFFF9060CE12AA
:101FF6000E2790606C120E3F7BFF7A2879E6906080
:0F200600CE120E27906008120E3F120943D2012E
:0120150022A8
:0300150002233291
:10233200C0E0C0F0C083C082C0D075D000C000C071
:0923420003C004C005C006C00779
:10234B0078D6E2FB30E2199060D2120E27EF24010F
:10235B00FFE43EFEE43DFDE43CFC9060D2120E3FF8
:06236B00AF0378D6EBF28F
:10237100D007D006D005D004D003D000D0D0D08271
:07238100D083D0F0D0E03260
:101BCB004460AE000000004460B200000000C11D84
:1019D300201D0FD21D9060C2120E4B00000000129A
:1019E3002947E47F307E75FDFC9060C2120E33C33D
:1019F300120DF0400D9060C2120E4B000000001259
:101A030028D0E47FE87E03FDFC9060AA120E33C366
:101A1300120DF05003021ABE7F177E0C7DA57CD4F5
:101A230090605D120E33C3120DF0502F90605D1263
:101A33000E33C000C001C002C003E47BE87A03F99F
:101A4300F89060AA120E27120D51D003D002D001D4
:101A5300D000120CAB90605D120E3F7F177EC67DE7
:101A63009A7C3B906061120E33C3120DF0502F909D
:101A73006061120E33C000C001C002C003E47BE802
:101A83007A03F9F89060AA120E27120D51D003D0F1
:101A930002D001D000120CAB906061120E3F906037
:101AA300AA120E27C3EF94E8FFEE9403FEED940011
:101AB300FDEC9400FC9060AA120E3F9060AE120EF3
:101AC3003390605D120E27120CB8E47B64FAF9F8C8
:101AD300C3120DF0500E90605D120E279060AE128F
:101AE3000E3FD2009060B2120E33906061120E2747
:101AF300120CB8E47B64FAF9F8C3120DF0500E909F
:0D1B03006061120E279060B2120E3FD206F4
:011B100022B2
:10118E0020666C61675F6765745F616C6C5F73741A
:10119E00617475730A0020666C61675F6765745FC2
:1011AE00676561720A0020666C61675F6765745FD0
:1011BE00626174746572790A0020666C61675F679C
:1011CE0065745F6272616B650A0020666C61675FB1
:1011DE006765745F6C6566745F7475726E0A002065
:1011EE00666C61675F6765745F72696768745F7468
:1011FE0075726E0A0020666C61675F6765745F6862
:10120E006967685F6265616D0A0020666C61675F81
:10121E006765745F656E67696E655F73706565643B
:10122E00200A002063757220656E67696E652073F3
:10123E00706565642025752072706D200020666CC7
:10124E0061675F6765745F7370656564200A00206F
:10125E00666C61675F6765745F6675656C200A0012
:10126E0020666C61675F6765745F746F74616C5F35
:10127E006D696C65616765200A0020637572207464
:10128E006F74616C206D696C6561676520256C7586
:10129E00202F302E316B6D200A0020666C61675F47
:1012AE006765745F7375625F746F74616C5F6D698F
:1012BE006C65616765200A00206375722073756224
:1012CE00746F74616C206D696C6561676520256C47
:1012DE0075202F302E316B6D200A0020666C6167F1
:1012EE005F616C7465725F64617465200A00796574
:1012FE006172202564206D6F6E74682025642064F1
:10130E006179202564200A0020666C61675F616C3C
:10131E007465725F74696D65200A00686F7572205E
:10132E002564206D696E2025642073656320256415
:10133E00200A0020666C61675F6765745F766F6C6C
:10134E00746167655F6F665F626174746572792040
:10135E000A002063757220766F6C74616765206F6A
:10136E00662062617474657279202575200A0020EA
:10137E00666C61675F7365745F74656D705F6F66D1
:10138E005F77617465725F7761726E696E67200A4E
:10139E000020666C61675F636C6561725F746F7469
:1013AE00616C5F6D696C65616765200A0020666C13
:1013BE0061675F636C6561725F7375625F746F7492
:0D13CE00616C5F6D696C65616765200A00E8
:101BDB00C10DC10AC103C104C110C10EC109C101AC
:101BEB00C108C10CC100C106C102C105C107C111A9
:041BFB00C10BC10F4A
:10173300E4906000F0F0906000E0FFC39403400386
:1017430002188C745A2FF582E43460F583E0700339
:10175300021883906000E0FD75F00AA42436F58238
:10176300E43460F583E024D2601C14607424FD70BB
:101773000302182814700302182C241360030218A0
:101783002ED20D02182ED202ED75F00AA42437F5DD
:1017930082E43460F583E0FEED75F00AA42438F5A5
:1017A30082E43460F583E07C002400FFEC3E90602B
:1017B30065F0A3EFF0906000E0FF75F00AA4243910
:1017C300F582E43460F583E0906067F0EF75F00A2A
:1017D300A4243AF582E43460F583E0906068F080F5
:1017E3004AD205906000E0FF75F00AA42437F58221
:1017F300E43460F583E0906069F0EF75F00AA424A7
:1018030038F582E43460F583E090606AF09060001C
:10181300E075F00AA42439F582E43460F583E0909E
:10182300606BF08006D20B8002D20F906059E0D338
:1018330094004003E014F0906000E0FF245AF58226
:10184300E43460F583E4F074522FF582E43460F5F8
:1018530083E4F074562FF582E43460F583E4F0FEFC
:101863007F0AC006C007FD906000E075F00AA4245B
:1018730034F9746035F0FA7B01D007D006120EB14B
:09188300906000E004F002173946
:01188C002239
:06004E00200D0302023D3B
:10005400906000120E4B00000000C20D7BFF7A116D
:10006400798E120943906076E0FFE4FCFDFE906017
:1000740005120E3F7F01120F03906077E0FFE4FC4E
:10008400FDFE906005120E3F7F02120F0390607810
:10009400E0FFE4FCFDFE906005120E3F7F03120FAB
:1000A40003906079E0FFE4FCFDFE906005120E3FD2
:1000B4007F04120F0390607AE0FFE4FCFDFE906081
:1000C40005120E3F7F05120F0390607BE0FFE4FCF6
:1000D400FDFE906005120E3F7F06120F0390606CC8
:1000E400120E27906005120E3F7F07120F039060D7
:1000F40070120E27906005120E3F7F08120F0390B6
:10010400607CE0FFE4FCFDFE906005120E3F7F0979
:10011400120F0390607DE0FFE4FCFDFE9060051289
:100124000E3F7F0A120F03E47B64FAF9F890605DD6
:10013400120E27120D51906005120E3F7F0B120F05
:1001440003E47B64FAF9F8906061120E27120D51F2
:10015400906005120E3F7F0C120F03906065E0FE65
:10016400A3E0FFE4FCFD7810120E14C004C005C027
:1001740006C007906067E0FFE4FCFDFE7808120EFD
:1001840014D003D002D001D000120DE3A804A905B5
:10019400AA06AB07A3E0FFE4FCFDFE120DE39060AA
:1001A40000120E3F906000120E27906005120E3F61
:1001B4007F0E120F0390606AE0FFE4FCFDFE7808F6
:1001C400120E14C004C005C006C007906069E0FFA9
:1001D400E4FCFDFE7810120E14D003D002D001D03E
:1001E40000120DE3A804A905AA06AB0790606BE012
:1001F400FFE4FCFDFE120DE3906000120E3F9060E0
:1002040000120E27906005120E3F7F0F120F03900D
:100214006074E0FEA3E0FFE4FCFD906005120E3F75
:100224007F10120F0390607EE0FFE4FCFDFE9060FF
:0902340005120E3F7F11120F03A9
:10023D00300A1FC20A7BFF7A1179A412094390601C
:10024D0076E0FFE4FCFDFE906005120E3F7F01128B
:10025D000F0330031FC2037BFF7A1179B4120943D8
:10026D00906077E0FFE4FCFDFE906005120E3F7F8D
:10027D0002120F0330041FC2047BFF7A1179C712DB
:10028D000943906078E0FFE4FCFDFE906005120EDE
:10029D003F7F03120F0330101FC2107BFF7A1179BD
:1002AD00D8120943906079E0FFE4FCFDFE906005F3
:1002BD00120E3F7F04120F03300E1FC20E7BFF7A0A
:1002CD001179ED12094390607AE0FFE4FCFDFE9098
:1002DD006005120E3F7F05120F0330091FC2097B07
:1002ED00FF7A12790312094390607BE0FFE4FCFD75
:1002FD00FE906005120E3F7F06120F03300133C2D0
:10030D00017BFF7A1279181209437BFF7A1279313A
:10031D0090606C120E27906008EEF0A3EFF01209BA
:10032D004390606C120E27906005120E3F7F0712EE
:10033D000F0330081CC2087BFF7A12794B12094358
:10034D00906070120E27906005120E3F7F08120FFD
:10035D0003300C1FC20C7BFF7A12795D120943909A
:10036D00607CE0FFE4FCFDFE906005120E3F7F090E
:10037D00120F0330003AC2007BFF7A12796E120918
:10038D00437BFF7A12798890605D120E279060088A
:10039D00120E3F120943E47B64FAF9F890605D1286
:1003AD000E27120D51906005120E3F7F0B120F0399
:1003BD0030063AC2067BFF7A1279A81209437BFFF9
:1003CD007A1279C6906061120E27906008120E3F66
:1003DD00120943E47B64FAF9F8906061120E27125A
:1003ED000D51906005120E3F7F0C120F033002402D
:1003FD00C2027BFF7A1279E91209437BFF7A1279E7
:10040D00FC906065E0FFA3E0906008CFF0A3EFF0F3
:10041D00906067E0FF90600AE4F0A3EFF0906068F1
:10042D00E0FF90600CE4F0A3EFF01209431228D026
:10043D0030053EC2057BFF7A1379161209437BFF07
:10044D007A137929906069E0FF906008E4F0A3EFDA
:10045D00F090606AE0FF90600AE4F0A3EFF0906026
:10046D006BE0FF90600CE4F0A3EFF012094312284B
:10047D00D0300739C2077BFF7A1379411209437BCC
:10048D00FF7A137960906074E0FFA3E0906008CF6D
:10049D00F0A3EFF0120943906074E0FEA3E0FFE4D7
:1004AD00FCFD906005120E3F7F10120F0330111FDF
:1004BD00C2117BFF7A13797D12094390607EE0FFB4
:1004CD00E4FCFDFE906005120E3F7F11120F03300C
:1004DD000B22C20B90605D120E4B0000000090606D
:1004ED00AA120E4B000000001228D07BFF7A137960
:1004FD009F120943300F22C20F906061120E4B0004
:10050D000000009060AA120E4B000000001228D0CF
:0A051D007BFF7A1379BB1209432219
:101EC2006C6F6E672070726573730A0073686F724D
:101ED200742070726573730A006F6E65206C65669C
:101EE200742070726573730A0074776F206C656674
:101EF200742070726573730A007468726565206C71
:101F02006566742070726573730A006F6E65207265
:101F1200696768742070726573730A0074776F2042
:101F220072696768742070726573730A00746872EC
:101F320065652072696768742070726573730A0040
:101F420074776F206C656674206C6F6E6720707298
:101F52006573730A0074776F207269676874206C06
:101F62006F6E672070726573730A006F6E65206C06
:101F720065667420636F6E74696E75652070726534
:041F820073730A006B
:101BFF00416087005860880001036C00020E1400DA
:101C0F00030B2B000405DB000506D0000609374245
:101C1F00608100004460830000000042607F00008C
:10219900E4FD906002F0A3F0ED25E025E0248AF546
:1021A90082E43460F583E0FAA3E024CEFBEA34FF4D
:1021B900FAD3EF9BEE9A403BED25E025E0248AF522
:1021C90082E43460F583E0FAA3E02432FBE43AFACE
:1021D900C3EF9BEE9A501CED25E025E02488F5829B
:1021E900E43460F583E0FFA3E0906002CFF0A3EF51
:1021F900F080050DEDB406A0906002E0FEA3E0FFBB
:0122090022B2
:10052700E4906000F0A3F0121C30906000EEF0A39E
:10053700EFF0906000E0FEA3E0FF122199906000C9
:10054700EEF0A3EFF0906087E060030205DC9060B7
:1005570081E0FEA3E0FF4E7011906000E0FDA3E094
:10056700906081CDF0A3EDF08064906000E0FCA383
:10057700E0B5074BEEB50447906083120E27EF24D2
:1005870002FFE43EFEE43DFDE43CFC906083120E76
:100597003FE47FEE7E02FDFC906083120E33C312B0
:1005A7000DF0402A906083120E4B000000007BFF85
:1005B7007A1E79C21209439060877402F0800F9007
:1005C70060877404F07BFF7A1E79CE1209437F019E
:1005D7007E00122874906087E0640460030206B806
:1005E700906081E07004A3E0640170167BFF7A1EBF
:1005F70079DB120943906005120E4B00000041029F
:1006070006AD906081E07004A3E0640270167BFF82
:100617007A1E79EB120943906005120E4B00000019
:10062700400206AD906081E07004A3E0640370159A
:100637007BFF7A1E79FB120943906005120E4B006F
:100647000000428061906081E07004A3E064047060
:10065700157BFF7A1F790D120943906005120E4B27
:10066700000000E48040906081E07004A3E064052E
:1006770070157BFF7A1F791E120943906005120ED1
:100687004B00000065801F906081E07004A3E06468
:100697000670187BFF7A1F792F12094390600512A5
:1006A7000E4B000000E37F0D120F03906087740567
:1006B700F0906087E064027064906081E0FEA3E0E0
:1006C700FF64014E6051EF64024E701A7BFF7A1F80
:1006D7007942120943906005120E4B000000467FD5
:1006E7000D120F038031906081E0FEA3E0FF6403E9
:1006F7004E6024EF64044E601EEF64054E70187B55
:10070700FF7A1F7957120943906005120E4B0000BC
:1007170000117F0D120F039060877403F0906087BC
:10072700E06403600302086B906000E0FEA3E0FF53
:10073700906081E0FAA3E0FB6F7002EA6E6003024B
:100747000865A3120E27EF2401FFE43EFEE43DFDFA
:10075700E43CFC906083120E3FEB64014A70337FE8
:1007670096FEFDFC906083120E33C3120DF050030A
:1007770002085C906083120E4B000000007BFF7A3A
:100787001F796D120943906005120E4B000000415E
:100797008057906081E07004A3E0640270177F9631
:1007A700FEFDFC906083120E33C3120DF05003025E
:1007B700085C020852906081E07004A3E064037053
:1007C7002F7F96FEFDFC906083120E33C3120DF04F
:1007D700500302085C906083120E4B0000000090EB
:1007E7006005120E4B000000427F0D120F0380655B
:1007F700906081E07004A3E0640470137F96FEFDAF
:10080700FC906083120E33C3120DF04048803C9079
:100817006081E07004A3E0640570137F96FEFDFC21
:10082700906083120E33C3120DF04029801D906033
:1008370081E07004A3E06406701B7F96FEFDFC90C8
:100847006083120E33C3120DF0400A906083120EBC
:100857004B000000007F017E001228748006906024
:10086700877406F0906087E064066005E0640570B1
:010877003E42
:10087800906000E07002A3E0701290607F75F00154
:10088800120C957F017E001228748007E490607F27
:10089800F0A3F0C3906080E0943290607FE0940011
:0E08A800400CE4F0A3F0906087E0FF7407F0CE
:1008B600906087E0B4071AE4906000F0A3F09060BF
:1008C60081F0A3F0A3120E4B00000000E4906087B5
:0108D600F031
:0108D70022FE
:102022000220A2E493A3F8E493A34003F68001F212
:1020320008DFF48029E493A3F85407240CC8C333BF
:10204200C4540F4420C8834004F456800146F6DF8E
:10205200E4800B0102040810204080901B11E47EF2
:10206200019360BCA3FF543F30E509541FFEE49383
:10207200A360010ECF54C025E060A840B8E493A34A
:10208200FAE493A3F8E493A3C8C582C8CAC583CA75
:10209200F0A3C8C582C8CAC583CADFE9DEE780BE2D
:011C2F0000B4
:100C3D00BB010689828A83E0225002E722BBFE02B5
:090C4D00E32289828A83E49322E8
:100C5600BB010CE58229F582E5833AF583E0225053
:100C660006E92582F8E622BBFE06E92582F8E2229D
:0D0C7600E58229F582E5833AF583E49322B7
:100C8300BB010689828A83F0225002F722BBFE0150
:020C9300F3224A
:100C9500C5F0F8A3E028F0C5F0F8E58215827002EA
:060CA5001583E038F02287
:0D0CAB00EF2BFFEE3AFEED39FDEC38FC2298
:0E0CB800C3EF9BFFEE9AFEED99FDEC98FC2237
:100CC600E88FF0A4CC8BF0A42CFCE98EF0A42CFCCD
:100CD6008AF0EDA42CFCEA8EF0A4CDA8F08BF0A44B
:100CE6002DCC3825F0FDE98FF0A42CCD35F0FCEBAA
:100CF6008EF0A4FEA9F0EB8FF0A4CFC5F02ECD396F
:0F0D0600FEE43CFCEAA42DCE35F0FDE43CFC22DB
:100D150075F008758200EF2FFFEE33FECD33CDCC95
:100D250033CCC58233C5829BED9AEC99E582984018
:100D35000CF582EE9BFEED9AFDEC99FC0FD5F0D6F5
:100D4500E4CEFBE4CDFAE4CCF9A88222B800C1B91F
:100D55000059BA002DEC8BF084CFCECDFCE5F0CB5D
:100D6500F97818EF2FFFEE33FEED33FDEC33FCEB96
:100D750033FB10D703994004EB99FB0FD8E5E4F951
:100D8500FA227818EF2FFFEE33FEED33FDEC33FC3E
:100D9500C933C910D7059BE99A4007EC9BFCE99A32
:100DA500F90FD8E0E4C9FAE4CCFB2275F010EF2F77
:100DB500FFEE33FEED33FDCC33CCC833C810D70777
:100DC5009BEC9AE899400AED9BFDEC9AFCE899F8B2
:0E0DD5000FD5F0DAE4CDFBE4CCFAE4C8F92245
:0D0DE300EF4BFFEE4AFEED49FDEC48FC220F
:100DF000EB9FF5F0EA9E42F0E99D42F0E89C45F059
:010E000022CF
:100E0100E8600FECC313FCED13FDEE13FEEF13FFCF
:030E1100D8F122F3
:100E1400E8600FEFC333FFEE33FEED33FDEC33FC3C
:030E2400D8F122E0
:0C0E2700E0FCA3E0FDA3E0FEA3E0FF223E
:0C0E3300E0F8A3E0F9A3E0FAA3E0FB2242
:0C0E3F00ECF0A3EDF0A3EEF0A3EFF02226
:100E4B00A8828583F0D083D082120E62120E6212BA
:100E5B000E62120E62E473E493A3C583C5F0C583DF
:100E6B00C8C582C8F0A3C583C5F0C583C8C582C8F1
:010E7B002254
:0C0E7C00A42582F582E5F03583F5832281
:090E8800E0FBA3E0FAA3E0F9226B
:100E9100F8E0FBA3A3E0F925F0F0E58215827002EA
:070EA1001583E0FA38F0228E
:090EA800EBF0A3EAF0A3E9F0224B
:1008D800E5082408F582E43460F583E005082290F1
:1008E8006005301A03906008E475F001120E910259
:1008F8000C3D2013E97F2ED2138018EF540F24905B
:10090800D43440D4FF30170BEF24BFB41A0050037F
:100918002461FFE50960021509050CE50C70020564
:100928000B301A0E906005E475F001120E91EF027B
:100938000C830229997403D21A8003E4C21AF508B9
:10094800906005120EA8E4F509F50BF50CE50960B1
:10095800077F2012091B80F5750AFFC214C213C253
:1009680015C216C218C219C21B1208E7FF700D3053
:100978001A057F0012092CAF0CAE0B22B4255FC2FA
:10098800D5C2171208E7FF24D0B40A00501A75F030
:100998000A780930D50508B6FF0106C6A426F62050
:1009A800D5047002D21680D924CFB41A00EF5004AF
:1009B800C2E5D217020B2DD21480C6D21380C0D242
:1009C8001580BCD2D580BAD21880B47F2012091BFA
:1009D8002015077401B5090040F11208D8FF120963
:1009E8001B020955D21BD21980951208D8FB120890
:1009F800D8FA1208D8F94A4B700679FE7A0B7BFFB1
:100A080020152EE509602A7E008E82758300120C5F
:100A18005660060EEE650A70F0C2D5EBC0E0EAC07B
:100A2800E0E9C0E0EE120B74D0E0F9D0E0FAD0E0D3
:100A3800FB120C3DFF60AAEBC0E0EAC0E0E9C0E0B1
:100A480012091BD0E02401F9D0E03400FAD0E0FB11
:100A5800E50A0460DCD50AD980877BFF7A0B7970B8
:100A6800D215809C791080027908C219C21B8008AF
:100A7800D2D5790A8004790AC2D5E50A047002F54C
:100A88000AE4FAFDFEFF1208D8FC7B0820141312B2
:100A980008D8FD7B1030130A1208D8FE1208D8FFB8
:100AA8007B20EC3382D592D55013C3E43013069FD4
:100AB800FFE49EFEE42014039DFDE49CFCE4CBF8D7
:100AC800C214EC700CCFCECDCCE824F8F870F380CB
:100AD80017C3EF33FFEE33FEED33FDEC33FCEB339E
:100AE800FB994002FB0FD8E9EB301405F8D0E0C4BD
:100AF80048B214C0E00AEC4D4E4F78207B0070C21B
:100B0800EAB50A0040BCC0E0120B76D0F0D0E02075
:100B18001404C4C0E0C4B214C0F0120904D0F0D563
:100B2800F0EB020955120EDD09F2530A6C5809C39D
:100B38004C09BF420A704F0A78440A784909D843D9
:080B48000A7E550A62460A62AA
:100B5000450A62470C1E5009C72D09CB2E09EE2B02
:100B600009CF2309EC200C072A098748000009E671
:100B70003F3F3F00790AA2D5201614301809B9105A
:100B8000020404B9080104A2D5201902500104206E
:100B900015689215B509005034C0E07F2030161951
:100BA0007F30A21572197218500F120BCDC215C2E8
:100BB00019C218C21B7F30800F301803E9C0E01241
:100BC000091B301803D0E0F9D0E0B509CC30181774
:100BD0007F30B9100C12091B7F583017077F7880BF
:100BE00003B9080312091B3015057F2D02091B7F6D
:100BF00020201BF87F2B2019F322921580CF286E1E
:100C0000756C6C2900D2141208D83014F8C214780C
:100C10000930D50108F60209872D504349581208BA
:100C2000D82403B405004001E4900C199312090C78
:0D0C3000743A12090CD216750904020A6C00
:100EB100EF4E6012EF60010EEDBB010B89828A8358
:100EC100F0A3DFFCDEFA2289F05007F709DFFCA965
:0C0ED100F022BBFEFCF309DFFCA9F022BC
:100EDD00D083D082F8E4937012740193700DA3A3A4
:100EED0093F8740193F5828883E4737402936860B8
:060EFD00EFA3A3A380DFB8
:00000001FF
