:03000000022409CE
:0C240900787FE4F6D8FD7581660224504F
:0C000300000000000000000000000000F1
:0B308600EF1FAC0670011E4C70F6221C
:102F0100AB07AA06EB1BAE0270011A4E60097FAA3D
:082F11007E0512308680ED22DE
:1020A100907120E04480F07F057E00123086E4FFCD
:1020B100FE122F0175A75575AC5C9071327450F00A
:1020C1009071307403F0907136742FF090715C74DC
:1020D10003F090715BE054FCF07F18EF2466FDE49F
:1020E10034718D82F583E4F00FEFB433EE9040113B
:1020F100E4935407FF90711CE054F84FF09040179F
:10210100E493547FFF90711DE054804FF090401094
:10211100E493FF5401C43333335480FE907123E0C0
:10212100547F4EF0EFC313543F4440FFA3E054806B
:102131004FF0904012E493FF540FFE907146E0542B
:10214100F04EF0EFC4540FFF90714FE054F04FF098
:10215100904013E493543FFF907140E054C04FF01E
:10216100904014E493907126F0904015E49390719F
:0B21710028F0904016E49390712AF0D3
:01217C002240
:102F5B0078D2E254FBF2E24404F2907187E4F0D2AF
:022F6B009122B1
:102E3B0078D2E254FBF2E24404F2907187E4F0782A
:0D2E4B00D0E24402F208E24402F2D29122E9
:102E580078D2E254EFF2E24410F2907188E4F0780C
:0D2E6800D0E24404F208E24404F2D29222C7
:102E750078C2E254FBF2E24404F290717FE4F07808
:0D2E8500C0E24402F208E24402F2C28122DF
:102FA00078C2E254BFF2E24440F2907181E4F02230
:102E920078E3E254EFF2E24410F2907194E4F078B5
:0D2EA200E0E24440F208E24440F2C2A62201
:0D2FDE0078C3E254CFF278C0E24440F22202
:0D2FEB0078C3E2543FF278C0E24480F22245
:0D2FF80078D2E254FCF278D0E24401F222DB
:0D30050078D2E2543FF278D0E24408F22283
:0D30120078D3E254FCF278D0E24410F222B0
:0D301F0078E2E254F3F278E0E24402F2229B
:0D302C0078E2E254CFF278E0E24404F222B0
:0D30390078E2E2543FF278E0E24408F2222F
:0D30460078E3E254F3F278E0E24420F22255
:0D30530078E3E2543FF278E0E24480F2229C
:0D30600078F2E254FCF278F0E24401F22232
:071FC2004464D1000000009F
:102B2C00E5B154F342B17890E254F3F2E24414F27A
:102B3C00E254FCF2E24401F208E2547FF2E2442057
:102B4C00F278947498F208E4F27892F208F27890A1
:0E2B5C00E2541FF2E244A0F253A8DFD2AF22EF
:102FB0007890E2541FF2E244C0F243A820D2AF223C
:10002A007890E2541FF2E244A0F27892E4F208F2E5
:04003A0053A8DF22C6
:03001E0002292292
:10292200C0E0C0F0C083C082C0D075D000C000C07B
:1029320004C005C006C0077891E230E71DE244807A
:10294200F29064D1120337EF2401FFE43EFEE43D2E
:10295200FDE43CFC9064D112035FD007D006D005A1
:0F296200D004D000D0D0D082D083D0F0D0E032DB
:071FC9004464D50000000094
:102B6A00E5B154CF42B1789CE254F3F2E24414F254
:102B7A00E254FCF2E24401F208E2547FF2E2442019
:102B8A00F278A07498F208E4F2789EF208F2789C3F
:0E2B9A00E2541FF2E244A0F253A8BFD2AF22D1
:102FC000789CE2541FF2E244C0F243A840D2AF2200
:102F4700789CE2541FF2E244A0F2789EE4F208F281
:042F570053A8BF229A
:0300210002297140
:10297100C0E0C0F0C083C082C0D075D000C000C02C
:1029810004C005C006C007789DE230E71DE244801F
:10299100F29064D5120337EF2401FFE43EFEE43DDB
:1029A100FDE43CFC9064D512035FD007D006D0054E
:0F29B100D004D000D0D0D082D083D0F0D0E0328C
:071FD0004464D90000000089
:102AE800E5B254F342B2907108E054E3F0E04414C4
:102AF800F0E054FCF0E04401F0A3E0547FF0E0443F
:102B080020F053A9FD90710C749BF0A3743BF090D6
:102B1800710AE4F0A3F0907108E0541FF0E044A0BB
:042B2800F0D2AF2216
:102F6D00907108E0541FF0E044C0F043A902D2AFC5
:012F7D002231
:102F3100907108E0541FF0E044A0F090710AE4F0B1
:062F4100A3F053A9FD22DC
:030027000228D2DA
:1028D200C0E0C0F0C083C082C0D075D000C000C0CC
:1028E20004C005C006C007907109E030E71DE0444E
:1028F20080F09064D9120337EF2401FFE43EFEE436
:102902003DFDE43CFC9064D912035FD007D006D0B1
:1029120005D004D000D0D0D082D083D0F0D0E03225
:101FD7005E6429000000000000000000000000000F
:101FE70000000000000000000000000000000000EA
:101FF7000043644700000043644B000000C11841E0
:10200700644A004164240041644E00446425000092
:022017000000C7
:0E004E009064EDEFF012306D9064EDE0FF2253
:102D4D0078D2E2F2E24404F2907187E04404F0900C
:102D5D007175E0440BF043AA20D2AF75D60175D53D
:052D6D009F75D2112248
:03004B00021AAAEC
:101AAA00C0E0C0F0C083C082C0D075D000C000C002
:101ABA0001C002C003C004C005C006C007E5D420A7
:101ACA00E503021C23201818E5D7B4A513D2187809
:101ADA0090E2541FF2E244C0F243A820D2AF802B16
:101AEA00201809E5D764A56003021C23301810E505
:101AFA00D7B4A50B906424E4F090644AF0800C906B
:101B0A00644EE0D394034003021C23906424E0B49F
:101B1A00010690644AE5D7F0906425120337744BA6
:101B2A002FF582E43464F583E0705490642512033F
:101B3A003790642975F00AEF12039CEE75F00AA437
:101B4A002583F583C083C082906424E0FF04F0D02B
:101B5A0082D083E5822FF582E43583F583E5D7F0D9
:101B6A00906424E0FBA312033774472FF582E43410
:101B7A0064F583EBF09064D112036B0000000090CF
:101B8A00644AE0FF906424E06F6003021C23C218D9
:101B9A00F090644AF0906425120337744B2FF58253
:101BAA00E43464F5837401F090644EE004F0E0C319
:101BBA0094035048906425120337EF2401FFE43E52
:101BCA00FEE43DFDE43CFC90642512035FE47F03E0
:101BDA00FEFDFC906425120353C3120300400A90D1
:101BEA00642512036B000000009064251203377409
:101BFA004B2FF582E43464F583E070B87890E254B0
:101C0A001FF2E244A0F27892E4F208F253A8DF90BD
:101C1A0064D112036B00000000D007D006D005D0B3
:101C2A0004D003D002D001D000D0D0D082D083D04B
:041C3A00F0D0E032D4
:0D306D00E5D430E4FB8FD7E5D430E4FB223E
:100B2C00E490648FF0A3F0A312036B00000000E4C8
:100B3C007F64FEFDFC9064D1120353D3120300407A
:100B4C001912002A9064D112036B00000000E4908B
:100B5C006424F090644AF0C21822E490648FF0A3ED
:100B6C00F090648FE0FEA3E0FFC39403EE9400408A
:100B7C0003020E23744B2FF58274643EF583E070F0
:100B8C0003020E1690648FA3E090642A75F00A128B
:100B9C00039CEE75F00AA42583F583E0FD74472FC2
:100BAC00F58274643EF583E06D601790648FA3E06A
:100BBC00244BF58274643EF583E4F090644EE014AB
:100BCC00F02290648FE0FAA3E0FB2447F582746472
:100BDC003AF583E024FB7003020C80147003020DC1
:100BEC003424026003020DFE90648FE0FEA3E0FF4C
:100BFC0090642A75F00A12039CEE75F00AA4258302
:100C0C00F583E0FD90642975F00AEF12039CEE75F4
:100C1C00F00AA42583F583E02DFFE433FE90642BCA
:100C2C0075F00AEB12039CEA75F00AA42583F58390
:100C3C00E07C002FFFEC3E7E00EF540FFFEE33956F
:100C4C00E0FDFC90649112035F90642C75F00AEB4C
:100C5C0012039CEA75F00AA42583F583E0FFE4FCFB
:100C6C00FDFE906491120353C31203007003020E35
:100C7C0016020DFE90648FE0FEA3E0FF90642A75CF
:100C8C00F00A12039CEE75F00AA42583F583E0FDAF
:100C9C0090642975F00AEF12039CEE75F00AA425F6
:100CAC0083F583E02DFFE433FE90648FE0FCA3E03A
:100CBC00FD90642B75F00A12039CEC75F00AA425C8
:100CCC0083F583E07A002FFFEA3EFE90642C75F0EA
:100CDC000AED12039CEC75F00AA42583F583E07CE5
:100CEC00002FFFEC3E7E00EF540FFFEE3395E0FD3E
:100CFC00FC90649112035F90648FE0FEA3E090641B
:100D0C002D75F00A12039CEE75F00AA42583F58369
:100D1C00E0FFE4FCFDFE906491120353C312030048
:100D2C007003020E16020DFE90648FE0FEA3E0FF2E
:100D3C0090642A75F00A12039CEE75F00AA42583C0
:100D4C00F583E0FD90642975F00AEF12039CEE75B3
:100D5C00F00AA42583F583E02DFFE433FE90648F25
:100D6C00E0FCA3E0FD90642B75F00A12039CEC757B
:100D7C00F00AA42583F583E07A002FFFEA3EFE906B
:100D8C00642C75F00AED12039CEC75F00AA4258313
:100D9C00F583E07C002FFFEC3EFE90648FE0FAA31D
:100DAC00E0FB90642D75F00A12039CEA75F00AA41E
:100DBC002583F583E02FFFEC3E7E00EF540FFFEE12
:100DCC003395E0FDFC90649112035F90642E75F0F6
:100DDC000AEB12039CEA75F00AA42583F583E0FF65
:100DEC00E4FCFDFE906491120353C3120300601ADD
:100DFC00800090648FE0FEA3E0244BF58274643E87
:100E0C00F583E4F090644EE014F090648FE475F098
:070E1C0001120181020B6DC0
:010E230022AC
:102CAD004144435F50494E5F42415454455259206F
:102CBD003D2025640D0A004144435F50494E5F5449
:0C2CCD004F554348203D2025640D0A00AF
:052019004264E9000033
:102D270078E2E244C0F278C2E24403F2E2440CF2F1
:102D3700907123E054D8F0E054BFF0E0441EF090C7
:062D470071227407F02266
:102EAF00EF24FE600804700E759904800375990570
:0D2EBF007869E24448F27F017E00022F0195
:102D96007869E24401F2786BE230E1FA7402F2AF4C
:102DA60093EF75F010A4FFAEF0E594C4540FFDEF59
:032DB6004DFF22AC
:10288000E49064C7F0F09064C8120353C000122DA6
:1028900096E4FCFDD0001201979064C812035F908B
:1028A00064C7E0C39401400FA312033778011203F9
:1028B000119064C812035F9064C7E004F0E0C39411
:1028C0002040C39064C81203379064E9EEF0A3EF90
:0128D000F017
:0128D10022E4
:102A0F007F01122EAF1228807BFF7A2C79AD906454
:102A1F00E9E0FFA3E0906452CFF0A3EFF01204F3CC
:102A2F007FF47E01122F017F02122EAF1228807BBE
:102A3F00FF7A2C79C49064E9E0FFA3E0906452CF51
:0E2A4F00F0A3EFF01204F37FF47E01022F01DA
:102C50007F01122EAF1228809064E9E0FEA3E0FF0E
:102C60007C007D6412042EE47BFF7A0FF9F81202D7
:0F2C70003D9064AAEFF0D2027F0A7E00022F018E
:102F190000000000000000000000000000000000A8
:082F29000000000000000000A0
:102F7E0075AF3F8FAF75AEB975A402E5A530E1FB15
:012F8E002220
:102BE5009064CD1203BF75AF3F8FAF9064D0E0C343
:102BF50094014022E5A530E0FB9064CDE475F00139
:102C05001203A8120156F5A675AEB975A401906414
:072C1500D0E014F080D5228D
:102C1C009064901203BF906493E06027AE070FEEB0
:102C2C002400FDE4343F8D82F583E493FE906490A0
:102C3C00E475F0011203A8EE12016F906493E01496
:042C4C00F080D3221F
:102D720078777C647D017BFF7A2F79197E007F183A
:102D82001201307B017A6479779064D07418F0E490
:042D9200FF022BE52C
:102C7F00000009C4006400C80101F4004B000A0001
:102C8F0000010F0405060000006400020064000349
:0E2C9F00006400090064000A0064001900646B
:10131100E4FF74FA2FF582E43463F583E0C39408A3
:1013210040030213C274FA2FF582E43463F583E0BB
:10133100C39404504478C2C000E2FE74FA2FF582CF
:10134100E43463F583E025E0FDF87403088002C30B
:1013510033D8FCF45ED000F278C2C000E2FE74FA29
:101361002FF582E43463F583E025E0FDF87403088A
:101371008002C333D8FC02152478C3C000E2FE7496
:10138100FA2FF582E43463F583E024FC25E0FDF8CF
:101391007403088002C333D8FCF45ED000F278C332
:1013A100C000E2FE74FA2FF582E43463F583E02491
:1013B100FC25E0FDF87403088002C333D8FC021554
:1013C1002474FA2FF582E43463F583E0C394085062
:1013D1000302148874FA2FF582E43463F583E0C3C1
:1013E1009410400302148874FA2FF582E43463F5F3
:1013F10083E0C3940C504878D2C000E2FE74FA2F07
:10140100F582E43463F583E024F825E0FDF8740304
:10141100088002C333D8FCF45ED000F278D2C00059
:10142100E2FE74FA2FF582E43463F583E024F825B3
:10143100E0FDF87403088002C333D8FC0215247858
:10144100D3C000E2FE74FA2FF582E43463F583E041
:1014510024F425E0FDF87403088002C333D8FCF4BA
:101461005ED000F278D3C000E2FE74FA2FF582E478
:101471003463F583E024F425E0FDF8740308800269
:10148100C333D8FC02152474FA2FF582E43463F5D2
:1014910083E0C39414504778E2C000E2FE74FA2F4F
:1014A100F582E43463F583E024F025E0FDF874036C
:1014B100088002C333D8FCF45ED000F278E2C000A9
:1014C100E2FE74FA2FF582E43463F583E024F0251B
:1014D100E0FDF87403088002C333D8FC804578E34B
:1014E100C000E2FE74FA2FF582E43463F583E02450
:1014F100EC25E0FDF87403088002C333D8FCF45EE8
:10150100D000F278E3C000E2FE74FA2FF582E434F1
:1015110063F583E024EC25E0FDF87403088002C341
:1015210033D8FC4ED000F20FEF64066003021313B0
:011531002297
:03005D00022AA3D1
:102AA300C0E0C0F0C083C082C0D075D000C000C0F9
:102AB30001C002C003C004C005C006C0077881E29C
:102AC30030E607E24440F212268AD007D006D0054A
:102AD300D004D003D002D001D000D0D0D082D08394
:052AE300D0F0D0E0324C
:1029C000D2AF43AB0843B6C0907132E04440F0430D
:1029D000AB087877743FF208744BF2787A7430F26F
:1029E000788914F27871744FF2187427F27872743F
:1029F000A8F2087410F208E4F208F208F2787E7483
:0F2A0000D0F2087404F208741EF2087402F22275
:03003F00022A5D35
:102A5D00C0E0C0F0C083C082C0D075D000C000C03F
:102A6D0001C002C003C004C005C006C00790715369
:102A7D00E030E707E04480F0120018D007D006D010
:102A8D0005D004D003D002D001D000D0D0D082D058
:062A9D0083D0F0D0E0320E
:1022DF00E4FBEB25E025E02495F582E4342CF5832F
:1022EF00740193FF74FA2BF582E43463F583EFF0F6
:1022FF00EB25E025E02497F582E4342CF583E49375
:10230F00FE740193FFEB25E02418F582E43464F5A5
:10231F0083EEF0A3EFF0EB25E024DCF582E43463E9
:10232F00F583E4F0A37441F0E47F01FEFDFC74FA41
:10233F002BF582E43463F583E0F9F8120324E53FCB
:10234F004FFFE53E4EFEE53D4DFDE53C4C8F3F8E8C
:10235F003E8D3DF53C0BEB640660030222E1121348
:07236F00111222440229C0F3
:102DB9001220A175D9DD75D95590715EE054FEF0E8
:102DC90075D9BB122DFB120B2C121EB3121C3E809F
:012DD900F504
:10201E00C10AC107C102C103C10CC10BC106C10176
:0A202E00C105C108C109C100C104C9
:101C3E00300A02C20A30071CC2079064A9E0FFE412
:101C4E00FCFDFE90649312035F7F017E007D007C9D
:101C5E0000120E2430021CC2029064AAE0FFE4FCC3
:101C6E00FDFE90649312035F7F027E007D007C0078
:101C7E00120E2430031CC2039064ABE0FFE4FCFDA3
:101C8E00FE90649312035F7F037E007D007C001242
:101C9E000E24300C1CC20C9064ACE0FFE4FCFDFE84
:101CAE0090649312035F7F047E007D007C00120E11
:101CBE0024300B1CC20B9064ADE0FFE4FCFDFE90E3
:101CCE00649312035F7F057E007D007C00120E245C
:101CDE0030061CC2069064AEE0FFE4FCFDFE90648C
:101CEE009312035F7F067E007D007C00120E24306F
:101CFE000119C2019064A112033790649312035F1D
:101D0E007F077E007D007C00120E24300519C2056F
:101D1E009064A512033790649312035F7F087E00D0
:101D2E007D007C00120E24300802C208300902C267
:101D3E0009300022C200E47B64FAF9F89064B9120B
:101D4E00033712023D90649312035F7F0B7E007D7A
:101D5E00007C00120E24300423C204E47BE87A03D4
:101D6E00F9F89064BD12033712023D90649312038A
:0D1D7E005F7F0C7E007D007C00120E242291
:102038005064A10000000000000000000000000043
:0320480000000095
:060E240090648F12035FD1
:100E2A0090649712036B000000007FA512306D904A
:100E3A00648F1203371203EE0E8E000000010EAD0E
:100E4A00000000020ECC000000030EEB00000004BC
:100E5A000F0A000000050F29000000060F480000D5
:100E6A0000070F7A000000080FAC000000090FCA43
:100E7A000000000A0FEC0000000B104F0000000CED
:100E8A00000010AF7F0512306D7F0112306D906443
:100E9A009312033712306D906493120337EF24AB29
:100EAA00020FE67F0512306D7F0212306D90649357
:100EBA0012033712306D906493120337EF24AC0299
:100ECA000FE67F0512306D7F0312306D9064931226
:100EDA00033712306D906493120337EF24AD020F7B
:100EEA00E67F0512306D7F0412306D906493120311
:100EFA003712306D906493120337EF24AE020FE677
:100F0A007F0512306D7F0512306D9064931203379E
:100F1A0012306D906493120337EF24AF020FE67F0D
:100F2A000512306D7F0612306D90649312033712EA
:100F3A00306D906493120337EF24B0020FE67F06F8
:100F4A0012306D7F0712306D906493120337780860
:100F5A0012031112306D90649312033712306D90A0
:100F6A0064931203377808120311EF24B202107E39
:100F7A007F0612306D7F0812306D9064931203372A
:100F8A00780812031112306D9064931203371230ED
:100F9A006D9064931203377808120311EF24B30299
:100FAA00107E7F0512306D7F0912306D90649312A6
:100FBA00033712306D906493120337EF24B3801C09
:100FCA007F0512306D7F0A12306D906493120337D9
:100FDA0012306D906493120337EF24B4FFE43302A6
:100FEA00108F7F0712306D7F0B12306D9064931251
:100FFA000337781012031112306D9064931203377D
:10100A00780812031112306D90649312033712306C
:10101A006D9064931203377810120311EF24B7FB13
:10102A00E433FA90649312033778081203117E00AE
:10103A00EB2FFBEE3AFA9064931203377E00EB2F04
:10104A00FFEE3A80407F0612306D7F0C12306D90B1
:10105A006493120337780812031112306D90649367
:10106A0012033712306D9064931203377808120313
:10107A0011EF24B7FBE433FA9064931203377E002E
:10108A00EB2FFFEE3AFE3395E0FDFC9064971203D6
:10109A005F906497120337EF540FFFE4FEFDFC9054
:1010AA00649712035F90649712033712306D7F0AB8
:0510BA007E00022F0181
:102DDA0012301F12302C1230391230461230601263
:102DEA003053123012123005122FF8122FEB022F25
:012DFA00DEFA
:10217D0020A30C9064ABE07011D20304F0800B909F
:10218D0064ABE0B40104E4F0D20320A5099064AC83
:10219D00E0700E0480089064ACE0B40104E4F0D269
:1021AD000C20A2099064ADE0700E0480089064AD1F
:1021BD00E0B40104E4F0D20B20A1099064AEE0700C
:1021CD000E0480089064AEE0B40104E4F0D2062061
:1021DD0086099064A9E0605EE4805820870C9064C5
:1021ED00A9E0640160507401804920900C9064A9AD
:1021FD00E0640260417402803A20930C9064A9E07F
:10220D00640360327403802B20940C9064A9E06405
:10221D000460237404801C20A70C9064A9E064055D
:10222D0060147405800D20B00D9064A9E064066003
:07223D00057406F0D2072230
:10204B0044602C0000000044602800000000446045
:05205B0024000000005C
:102CD900E5B854F342B843A802D2AF78C2E254CF60
:102CE900F218E24404F278C7E24404F278C4E254E8
:072CF900CFF2E24420F222B9
:102ECC0053A8FD90602C12036B00000000122F47DA
:0B2EDC009064D512036B000000002280
:102EE70090602C12036B000000009064D512036BF6
:0A2EF7000000000043A802022FC0F3
:1026FF009064DD12036B00000000122EE7E47FC42C
:10270F007E09FDFC9064D5120353C312030040ED04
:10271F00E47F037E07FDFC90602C1203531201B27D
:10272F00E47B10FAF9F812023D9064DD12035F901A
:10273F0060281203379064DD1203531201979060E3
:10274F002812035F122ECC9064DD120337E47B4016
:10275F007A38F9F81201B29064DD12035F9064DDEC
:03276F000203372B
:0E2FD0001226FF7B407A42790F780002023D04
:10153200122FD09064C112035F906024120337907F
:1015420064C1120353D3120300401B9060241203A0
:10155200539064C11203371201A4E47B02FAF9F832
:10156200C3120300402D9060241203379064C1120D
:101572000353C3120300501E9064C11203539060C0
:10158200241203371201A4E47B02FAF9F8C312030E
:101592000050030216FE9060241203379064C112B9
:1015A2000353D3120300401B906024120353906430
:1015B200C11203371201A4E47B02FAF9F8D3120331
:1015C2000050339060241203379064C1120353C356
:1015D200120300400302170C9064C112035390607F
:1015E200241203371201A4E47B02FAF9F8D312039E
:0615F20000500302170C7B
:1015F800E49064C5F09060241203379064C112032C
:1016080053D3120300406B9060241203539064C1BB
:101618001203371201A4E47B02FAF9F8D31203008B
:02162800405030
:10162A00E49064C6F0F0122FD09064C112035F9068
:10163A0060241203379064C1120353D3120300408B
:10164A00219060241203539064C11203371201A43B
:10165A00E47B02FAF9F8D312030040069064C5E06D
:10166A0004F09064C6E004F0E0C3940340B8807BC1
:10167A009060241203379064C1120353C31203000B
:10168A0050699064C1120353906024120337120107
:0D169A00A4E47B02FAF9F8D3120300404EDD
:1016A700E49064C6F0F0122FD09064C112035F90EB
:1016B70060241203379064C1120353C3120300500E
:1016C700219064C11203539060241203371201A4BE
:1016D700E47B02FAF9F8D312030040069064C5E0F0
:0E16E70004F09064C6E004F0E0C3940340B841
:1016F5009064C5E0C39402403D9064C112033790E5
:05170500602412035FE7
:10170A008021E4FFFEFDFC9064C1120353C312035F
:10171A0000701EFFFEFDFC906024120353C31203E7
:10172A0000600E9064C11203379064A512035FD261
:01173A0005A9
:01173B00228B
:030012000227D4EE
:1027D400C0E0C0F0C083C082C0D075D000C000C0CB
:0927E40003C004C005C006C007D3
:1027ED0078C6E2FB30E21990602C120337EF24011A
:1027FD00FFE43EFEE43DFDE43CFC90602C12035FE3
:06280D00AF0378C6EBF2F8
:10281300D007D006D005D004D003D000D0D0D082CA
:07282300D083D0F0D0E032B9
:102DFB00122B2C122D4D122DDA122B6A122CD912EA
:102E0B002D00122AE8122F8F122FA0D283022D270A
:072060004464E500000000EC
:102D0000E5B854CF42B843A804D2AF78D2E254CF4A
:102D1000F218E24404F278D7E24404F278D4E254A0
:072D2000CFF2E24420F22291
:102615009064E112036B000000009064E512036B07
:10262500000000009064D512036B00000000122F1B
:10263500C043A804E47FC47E09FDFC9064D5120361
:1026450053C312030040EDE47FF0FEFDFC9064E50A
:102655001203531201B2E47B10FAF9F812023D900D
:1026650064E112035F122F4753A8FB9064D5120350
:102675006B000000009064E512036B000000009001
:0526850064E1020337CF
:0B307A001226159064A112035FD20122
:013085002228
:0300150002282A94
:10282A00C0E0C0F0C083C082C0D075D000C000C074
:09283A0003C004C005C006C0077C
:1028430078D6E2FB30E2199064E5120337EF2401F6
:10285300FFE43EFEE43DFDE43CFC9064E512035FCF
:06286300AF0378D6EBF292
:10286900D007D006D005D004D003D000D0D0D08274
:07287900D083D0F0D0E03263
:102067004864B900000000000000004464B10000AB
:0B20770000004464B500000000C11927
:102F8F007B017A6479B99064937408F0E4FF022CA2
:012F9F001C15
:101D8B0020190FD2199064D912036B0000000012B6
:101D9B002F6DE47FB87E0BFDFC9064D9120353C307
:101DAB001203004020122F319064D912036B0000F4
:101DBB000000C2197B017A6479B99064D07408F081
:101DCB00E4FF122BE5E47FE87E03FDFC9060281214
:101DDB000353C3120300407C9064B9120353C00039
:101DEB00C001C002C003E47BE87A03F9F8906028D5
:101DFB0012033712023DD003D002D001D0001201E2
:101E0B00979064B912035F9064BD120353C000C076
:101E1B0001C002C003E47BE87A03F9F89060281252
:101E2B00033712023DD003D002D001D0001201972C
:101E3B009064BD12035F906028120337E47BE87A4D
:101E4B0003F9F812023DAC00AD01AE02AF03906096
:101E5B002812035F9064B11203539064B9120337D5
:101E6B001201A4E47B64FAF9F8C3120300500E903C
:101E7B0064B91203379064B112035FD2009064B55A
:101E8B001203539064BD1203371201A4E47BE87A6A
:101E9B0003F9F8C3120300500E9064BD1203379080
:071EAB0064B512035FD204CD
:011EB200220D
:101EB30090648F12036B0000000090648F12036B19
:101EC30000000000E47F03FEFDFC90648F120353C7
:101ED300C31203004003021FC190648F12033774BF
:101EE3004B2FF582E43464F583E07003021FA59061
:101EF300648F12035390642A75F00AEB12039CEA71
:101F030075F00AA42583F583E064046003021FA52A
:101F130090648F12035390642B75F00AEB12039CA9
:101F2300EA75F00AA42583F583E01203C81F5B203A
:101F33001F5F211F63221F67231F6B241F6F251F32
:101F430073261F77271F7B281F7F291F832A1F873D
:101F53002B1F8B2C00001F8DD20A802ED207802AC4
:101F6300D2028026D2038022D20C801ED20B801A8A
:101F7300D2068016D2018012D205800ED208800AC2
:101F8300D2098006D2008002D20490644EE0D3943A
:101F9300004003E014F0744B2FF582E43464F583BE
:101FA300E4F090648F120337EF2401FFE43EFEE474
:0E1FB3003DFDE43CFC90648F12035F021EC7EC
:011FC10022FD
:1020820041604801426049000041604B0041604CA0
:0E2092000041604D0041604E7F42604FFFFFF5
:102BA800E4F561AE3EAD3DAC3C853F178E168D1504
:102BB8008C14787EE254FCF2E24514F218E515F222
:102BC80018E516F218E517F2787FE254FBF2E254A2
:0D2BD800FB4404F2E24401F27F0102249567
:1010BF009064EEEFF0E0FF24E8F582E43463F5830B
:1010CF00E004F074F42FF582E43463F583E4F074F4
:1010DF00E82FF582E43463F583E0C3956350030290
:1010EF0013109064EEE0FB24E8F582E43463F5839B
:1010FF00E4F0902C9093640160030212C17F01FE13
:10110F00FDFC74FA2BF582E43463F583E0F9F812F1
:10111F000324E51F4FF51FE51E4EF51EE51D4DF58A
:10112F001DE51C4CF51CAF1FAE1EAD1DFC7801124A
:10113F000311EF5455FBEE5455FAED5455F9EC5499
:10114F0055F8C3E51F9BF53BE51E9AF53AE51D994A
:10115F00F539E51C98F538AF3BAE3AAD39FC78025E
:10116F00120311EF5433FBEE5433FAED5433F9EC11
:10117F005433F8E53B5433FFE53A5433FEE5395425
:10118F0033FDE5385433FCEB2FF53BEA3EF53AE9F6
:10119F003DF539E83CF538AF3BAE3AAD39FC780454
:1011AF00120311EF253BFFEE353AFEED3539FDEC1D
:1011BF003538FCEF540FF53BEE540FF53AED540F65
:1011CF00F539EC540FF538AF3BAE3AAD39FC780832
:1011DF00120311EF253BFFEE353AED3539FDEC35B6
:1011EF0038EFF53BE4F53AEDF539E4F538AE3AACC6
:1011FF00387810120311EF253BFFEE353AFEEFF56D
:10120F003BEEF53AE4F539F5389064EEE025E0244D
:10121F0000F582E43464F583E0FEA3E0D39553EE4A
:10122F00955240249064EEE0FF25E02400F582E41F
:10123F003464F583E0F552A3E0F55374FA2FF58289
:10124F00E43463F583E0F564902C90E493FFE4FCC1
:10125F00FDFEAB3BAA3AA939A838D312030040527E
:10126F00AF650565D3EF9403748094805003021328
:10127F0010E4F565F51FF51EF51DF51C7F01FEFD4C
:10128F00FCA964A8011203248F1B8E1A8D198C18C8
:10129F00E47F01FEFDFCA8011203248F338E328DF3
:1012AF00318C30E4F552F55375642012251943370C
:1012BF000222E4F5657F01FEFDFC9064EEE0FB2465
:1012CF00FAF582E43463F583E0F9F8120324E51BA1
:1012DF004FF51BE51A4EF51AE5194DF519E5184CA2
:1012EF00F518E47F01FEFDFCA803120324E5334F3C
:1012FF00F533E5324EF532E5314DF531E5304CF54C
:02130F0030228A
:1007ED00E4F566902C94E493FFE566C39F40030205
:1007FD000B2BE56625E02400F582E4346085828AC2
:10080D007F548F8B7E0E8E8C758903758889E56676
:10081D0025E02400F582E4346085828A8F8B758C07
:10082D0012758904758889E56625E02418F582E43A
:10083D003460F583E0FCA3E0C3950FEC950E502ECC
:10084D00E56625E0243CF582E43460F583E0FCA305
:10085D00E0C39513EC95125015AF600560EF94024F
:10086D0074809480400BE4F5605337FD8003E4F50C
:10087D0060E53730E125E56625E02400F582E434B6
:10088D0064F583E4F0A3F0E56625E0240CF582E43D
:10089D003464F583E4F0A3F002093BE56625E0241A
:1008AD0018F582E4346085828A8E8B758C0A758981
:1008BD00267588892088FDE5F130E00875F107E49B
:1008CD00F50AF50BAE0AE50B7802C333CE33CED85D
:1008DD00F9FFE56625E02400F582E43464F583EE46
:1008ED00F0A3EFF0E56625E0243CF582E434608565
:1008FD00828A758B12758C0A75892775888920886F
:10090D00FDE5F130E00875F107E4F50AF50BAE0AE7
:10091D00E50B7802C333CE33CED8F9FFE56625E07B
:10092D00240CF582E43464F583EEF0A3EFF0E56674
:10093D0025E02418F582E43464F583E0FEA3E07825
:10094D0002CEC313CE13D8F9F5518E50E56625E0CE
:10095D002400F582E43464F583E0FEA3E0FF902CDF
:10096D008CE493FC740193FDC3EF9DEE9C4017E561
:10097D006625E0240CF582E43464F583E0FEA3E003
:10098D00C39DEE9C50028068E56625E02400F5824B
:10099D00E43464F583E0FEA3E0C39551EE95504039
:1009AD001CE56625E0240CF582E43464F583E0FE55
:1009BD00A3E0C39551EE95504003020A4774EE250E
:1009CD0066F582E43463F583E004F074EE2566F594
:1009DD0082E43463F583E0FF902C91E493FEEFD332
:1009ED009E406474EE2566F582E43463F583E4F08D
:1009FD00E56625E0240CF582E43460F583E0FEA382
:100A0D00E0FFE56625E02418F582E43460F583EE19
:100A1D00F0A3EFF0E56625E02430F582E43460F5CF
:100A2D0083E0FEA3E0FFE56625E0243CF582E43497
:100A3D0060F583EEF0A3EFF0800D74EE2566F58280
:100A4D00E43463F583E4F0E56625E0240CF582E4F7
:100A5D00346085828AE56625E02400F582E4346001
:100A6D0085828B758C0A7589207588CB2088FDE56C
:100A7D00F130E00875F107E4F50AF50BE56625E0C0
:100A8D00240CF582E4346085828A758B547F0E8F39
:100A9D008C7589237588897E0A8E8A8F8BE56625EC
:100AAD00E0240CF582E4346085828CE4F589758848
:100ABD0029E56625E02430F582E4346085828AE5F7
:100ACD006625E02400F582E4346085828B8E8C757A
:100ADD0089207588CB2088FDE5F130E00875F10798
:100AED00E4F50AF50BE56625E02430F582E4346083
:100AFD0085828A758B547F0E8F8C758924758889B4
:100B0D00758A0A8F8BE56625E02430F582E4346022
:0F0B1D0085828CE4F58975882905660207F02228
:10173C00E4F566902C94E493FFE566C39F400302A6
:10174C0018F4E56625E02418F582E43464F583E0AA
:10175C00FEA3E07802CEC313CE13D8F9F5518E5008
:10176C00E56625E02400F582E43464F583E0FEA30D
:10177C00E0D39551EE9550402EE56625E0240CF50E
:10178C0082E43464F583E0FEA3E0D39551EE9550EA
:10179C00401574F42566F582E43463F583E4F0AF08
:1017AC00661210BF0218EF902C93E493FFC3E5511F
:1017BC009FFFE5509400FED3EF9400EE940040029E
:1017CC0080047E007F00E56625E02400F582E43489
:1017DC0064F583E0FCA3E0C39FEC9E40030218E297
:1017EC00902C93E493FFC3E5519FFFE5509400FECA
:1017FC00D3EF9400EE9400400280047E007F00E55D
:10180C006625E0240CF582E43464F583E0FCA3E067
:10181C00C39FEC9E40030218E274E82566F582E44F
:10182C003463F583E4F074F42566F582E43463F5EF
:10183C0083E004F074F42566F582E43463F583E008
:10184C00C3956350030218EF74F42566F582E434F3
:10185C0063F583E4F07F01FEFDFC74FA2566F582E6
:10186C00E43463F583E0F9F81203241202CFE51F88
:10187C005FF51FE51E5EF51EE51D5DF51DE51C5CA7
:10188C00F51CE47F01FEFDFCA966A80112032412DD
:10189C0002CFE5335FF533E5325EF532E5315DF5C8
:1018AC0031E5305CF530E47F01FEFDFC74FA256611
:1018BC00F582E43463F583E0F9F81203241202CFC5
:1018CC00E51B5FF51BE51A5EF51AE5195DF519E5E3
:1018DC00185CF518800D74F42566F582E43463F514
:0918EC0083E4F0056602173F22B7
:10251900E4F566902C94E493FFE566C39F506EE55D
:102529006625E02400F582E43464F583E4F0A3F041
:10253900E56625E0240CF582E43464F583E4F0A330
:10254900F0E56625E0240CF582E43460F583E0FECD
:10255900A3E0FFE56625E02418F582E43460F583FD
:10256900EEF0A3EFF0E56625E02430F582E434606F
:10257900F583E0FEA3E0FFE56625E0243CF582E46F
:0E2589003460F583EEF0A3EFF0056680862245
:10237600E4F566902C94E493FFE566C39F5067905E
:102386006048E0FF7E00C39410748094805053EF41
:102396009408748094804025E56625E02400F58243
:1023A600E43460F583E0FEA3E0FFE56625E0240C57
:1023B600F582E43460F583EE8FF0120181E566253F
:1023C600E02400F582E43460F583E0FEA3E0FFE557
:1023D6006625E02430F582E43460F583EE8FF01252
:1023E60001810566808D906048E0C39410748094E6
:1023F6008040054337048006906048E004F07F0182
:0324060002249518
:10259700E4FFFEFDFCAB1BAA1AA919A818C3120376
:1025A70000606390604AE004F07006906049E004C0
:1025B700F0902C88E493FE740193FF4E602ED39025
:1025C700604AE09F906049E09E4021E4F0A3F0F567
:1025D7001FF51EF51DF51CF533F532F531F530F510
:1025E7001BF51AF519F518C217022519902C8AE45C
:1025F70093FE740193FFD390604AE09F906049E097
:0D2607009E400AD21722E4906049F0A3F033
:0126140022A3
:0518F50090649CEFF07F
:1018FA00A3E0FCA3E0FDA3E0FEA3E0F52B8E2A8D76
:10190A00298C287884E2F50A08E2F50B758A0875AD
:10191A008B28758C2475881D2088FDE4FFFEFDFC4C
:10192A00AB27AA26A925A824D31202EA4006AC248A
:10193A00A8048013AF27AE26AD25AC241202DCAB77
:10194A0007AA06A905A80490604FE0FEA3E0FFE4F9
:10195A00FCFDC31202EA5041E4FFFEFDFCAB27AADC
:10196A0026A925A8241202EA4006AF27AE26800B34
:10197A00AF27AE26AD25AC241202DC90604FEEF004
:10198A00A3EFF090649CE025E024DCF582E4346364
:10199A00F583E0A3E090604EF0902C85E493FE740A
:1019AA000193FFD3906050E09F90604FE09E501BE0
:1019BA0090649CE025E024DCF582E43463F583E05E
:1019CA00A3E090604EF090604B8079E4FFFEFDFC4E
:1019DA00AB27AA26A925A824D31202EA4034906488
:1019EA009CE0FF25E024DCF582E43463F583E0FC27
:1019FA00A3E0D39400EC9400404DEF25E024DCF5FD
:101A0A0082E43463F58374FFF5F012018190604C2F
:101A1A00803290649CE0FF25E024DCF582E43463A4
:101A2A00F583E0FCA3E0C3947FEC94005019EF2502
:101A3A00E024DCF582E43463F583E475F0011201F5
:101A4A008190604D7401F090604CE064017011A3C4
:101A5A00E06401700B90604CF0A3F090604B04F0CE
:101A6A0090604BE06401703590604EE0FF90649C9A
:101A7A00E025E024DCF582E43463F583E4F0A3EFA7
:101A8A00F074FF90604FF0A3F090604E747FF0E422
:0F1A9A0090604CF0A3F090604BF07F01227F0032
:011AA900221A
:10277200E490649BF0902C7F1203437801120324AF
:1027820090649D12035FAF611218F5EF602205613C
:10279200E53730E4095337EF90649B7401F0902CD5
:1027A20094E493FFE561C39F4006E4F5614337106B
:1027B200C3902C837401939562E493940040089033
:1027C200649BE064017005D216022BA8E4FF122478
:0127D2009571
:0127D30022E3
:10249500EF70607F01FEFDFC74FA2561F582E4347E
:1024A50063F583E0F9F81203248F178E168D158CCA
:1024B50014787EE254FCF2E24514F218E515F218A0
:1024C500E516F218E517F2E56125E024DCF582E46E
:1024D5003463F583E0A3E0547FFF7878E254804FBE
:1024E500F2787FE254FBF2E254FB4404F2E2440149
:1024F500F2801CE56125E024DCF582E43463F58394
:10250500E0A3E0547FFF7878E254804FF2787FE2D1
:042515004402F22268
:10224400E49064EBF0A3F09064EBE0FEA3E0FFC342
:102254009488EE94035031EF24EDFFEE34078F821F
:10226400F583E493FF9064ECE02451FD9064EBE08B
:1022740034608D82F583EFF09064ECE004F070C775
:082284009064EBE004F080BF60
:10228C009063D97401F0A37460F0A37451F0E4F579
:10229C0061F537F536F535F534C216C217F51FF56D
:1022AC001EF51DF51CF533F532F531F530F51BF542
:1022BC001AF519F518902C8E93FF902C92E493FE3E
:1022CC00A807088002C333D8FCF563756420E4FFCB
:0322DC0002249544
:10268A007884E2F50A08E2F50BAE0A7803CEC313A2
:10269A00CE13D8F97802C333CE33CED8F9FFE56129
:1026AA0025E02400F582E43460F583EEF0A3EFF030
:1026BA0020160F902C87E4937005D216022BA802DD
:1026CA0027720561902C94E493FFE561C39F401F34
:1026DA00787FE254FBF2E254FB4404F2E24401F252
:1026EA00E4F561E53720E203022376433701227FCE
:0526FA000112249522ED
:050018000562022597BE
:102E1B00E53730E01A9063D9A3E0FAA3E0F9120486
:102E2B002812173CE4F5617F011224955337FE22DB
:10241500022DB9E493A3F8E493A34003F68001F2F7
:1024250008DFF48029E493A3F85407240CC8C333C8
:10243500C4540F4420C8834004F456800146F6DF97
:10244500E4800B0102040810204080901FC2E47E46
:10245500019360BCA3FF543F30E509541FFEE4938C
:10246500A360010ECF54C025E060A840B8E493A353
:10247500FAE493A3F8E493A3C8C582C8CAC583CA7E
:10248500F0A3C8C582C8CAC583CADFE9DEE780BE36
:0120A000003F
:10006000E709F608DFFA8046E709F208DFFA803E82
:1000700088828C83E709F0A3DFFA8032E309F6086F
:10008000DFFA8078E309F208DFFA807088828C83D7
:10009000E309F0A3DFFA806489828A83E0A3F6088B
:1000A000DFFA805889828A83E0A3F208DFFA804C65
:1000B00080D280FA80C680D4806980F2803380103C
:1000C00080A680EA809A80A880DA80E280CA8033A5
:1000D00089828A83ECFAE493A3C8C582C8CCC5831D
:1000E000CCF0A3C8C582C8CCC583CCDFE9DEE780ED
:1000F0000D89828A83E493A3F608DFF9ECFAA9F06C
:10010000EDFB2289828A83ECFAE0A3C8C582C8CCC1
:10011000C583CCF0A3C8C582C8CCC583CCDFEADEDA
:10012000E880DB89828A83E493A3F208DFF980CC3C
:1001300088F0EF60010E4E60C388F0ED2402B40435
:100140000050B9F582EB2402B4040050AF232345DC
:0601500082239000B07351
:10015600BB010689828A83E0225002E722BBFE02A7
:09016600E32289828A83E49322DA
:10016F00BB010689828A83F0225002F722BBFE016F
:02017F00F32269
:10018100C5F0F8A3E028F0C5F0F8E5821582700209
:060191001583E038F022A6
:0D019700EF2BFFEE3AFEED39FDEC38FC22B7
:0E01A400C3EF9BFFEE9AFEED99FDEC98FC2256
:1001B200E88FF0A4CC8BF0A42CFCE98EF0A42CFCEC
:1001C2008AF0EDA42CFCEA8EF0A4CDA8F08BF0A46A
:1001D2002DCC3825F0FDE98FF0A42CCD35F0FCEBC9
:1001E2008EF0A4FEA9F0EB8FF0A4CFC5F02ECD398E
:0F01F200FEE43CFCEAA42DCE35F0FDE43CFC22FB
:1002010075F008758200EF2FFFEE33FECD33CDCCB4
:1002110033CCC58233C5829BED9AEC99E582984037
:100221000CF582EE9BFEED9AFDEC99FC0FD5F0D614
:10023100E4CEFBE4CDFAE4CCF9A88222B800C1B93E
:100241000059BA002DEC8BF084CFCECDFCE5F0CB7C
:10025100F97818EF2FFFEE33FEED33FDEC33FCEBB5
:1002610033FB10D703994004EB99FB0FD8E5E4F970
:10027100FA227818EF2FFFEE33FEED33FDEC33FC5D
:10028100C933C910D7059BE99A4007EC9BFCE99A51
:10029100F90FD8E0E4C9FAE4CCFB2275F010EF2F96
:1002A100FFEE33FEED33FDCC33CCC833C810D70796
:1002B1009BEC9AE899400AED9BFDEC9AFCE899F8D1
:0E02C1000FD5F0DAE4CDFBE4CCFAE4C8F92264
:0D02CF00CFF4CFCEF4CECDF4CDCCF4CC22C4
:0E02DC00C3E49FFFE49EFEE49DFDE49CFC2233
:1002EA00EB9FF5F0EA9E42F0E99D42F0EC6480C88B
:0602FA0064809845F0222B
:10030000EB9FF5F0EA9E42F0E99D42F0E89C45F053
:0103100022CA
:10031100E8600FECC313FCED13FDEE13FEEF13FFCA
:03032100D8F122EE
:10032400E8600FEFC333FFEE33FEED33FDEC33FC37
:03033400D8F122DB
:0C033700E0FCA3E0FDA3E0FEA3E0FF2239
:10034300E493FC740193FD740293FE740393FF2200
:0C035300E0F8A3E0F9A3E0FAA3E0FB222D
:0C035F00ECF0A3EDF0A3EEF0A3EFF02211
:10036B00A8828583F0D083D082120382120382127B
:10037B000382120382E473E493A3C583C5F0C583A0
:10038B00C8C582C8F0A3C583C5F0C583C8C582C8DC
:01039B00223F
:0C039C00A42582F582E5F03583F583226C
:1003A800F8E0FBA3A3E0F925F0F0E58215827002DE
:0703B8001583E0FA38F02282
:0903BF00EBF0A3EAF0A3E9F0223F
:1003C800D083D082F8E4937012740193700DA3A3C4
:1003D80093F8740193F5828883E4737402936860D8
:0603E800EFA3A3A380DFD8
:1003EE00D083D082E4937012740193700DA3A39303
:1003FE00F8740193F5828883E4737402936C70121F
:10040E007403936D700C7404936E70067405936F81
:0A041E0060DDA3A3A3A3A3A380CA7B
:060428008A838982E4735F
:10042E00EC8EF0A4CCC5F0CCCDF8EFA4CEC5F02D5B
:10043E00FDE43CFCE8A42EC8C5F03DFDE43CFCEF19
:0D044E00A4FFE5F028FEE43DFDE43CFC22A7
:10048800E5402452F582E43464F583E00540229087
:10049800644F301403906452E475F0011203A8020B
:1004A8000156200DE97F2ED20D8018EF540F2490AD
:1004B800D43440D4FF30110BEF24BFB41A005003DA
:1004C8002461FFE541600215410544E544700205D9
:1004D8004330140E90644FE475F0011203A8EF0244
:1004E800016F02004E7403D2148003E4C214F54075
:1004F80090644F1203BFE4F541F543F544E54160CC
:10050800077F201204CB80F57542FFC20EC20DC2D0
:100518000FC210C212C213C215120497FF700D3019
:1005280014057F001204DCAF44AE4322B4255FC239
:10053800D5C211120497FF24D0B40A00501A75F0DE
:100548000A784130D50508B6FF0106C6A426F6206C
:10055800D5047002D21080D924CFB41A00EF500409
:10056800C2E5D2110206DDD20E80C6D20D80C0D2FD
:100578000F80BCD2D580BAD21280B47F201204CBAF
:10058800200F077401B5410040F1120488FF1204DE
:10059800CB020505D215D2138095120488FB1204EC
:1005A80088FA120488F94A4B700679AE7A077BFFFD
:1005B800200F2EE541602A7E008E8275830012048A
:1005C8005B60060EEE654270F0C2D5EBC0E0EAC093
:1005D800E0E9C0E0EE120724D0E0F9D0E0FAD0E07C
:1005E800FB120156FF60AAEBC0E0EAC0E0E9C0E0F8
:1005F8001204CBD0E02401F9D0E03400FAD0E0FBBB
:10060800E5420460DCD542D980877BFF7A077920F0
:10061800D20F809C791080027908C213C215800815
:10062800D2D5790A8004790AC2D5E542047002F568
:1006380042E4FAFDFEFF120488FC7B08200E131228
:100648000488FD7B10300D0A120488FE120488FF0E
:100658007B20EC3382D592D55013C3E4300D069F2E
:10066800FFE49EFEE4200E039DFDE49CFCE4CBF831
:10067800C20EEC700CCFCECDCCE824F8F870F38025
:1006880017C3EF33FFEE33FEED33FDEC33FCEB33F2
:10069800FB994002FB0FD8E9EB300E05F8D0E0C417
:1006A80048B20EC0E00AEC4D4E4F78207B0070C275
:1006B800EAB5420040BCC0E0120726D0F0D0E020E6
:1006C8000E04C4C0E0C4B20EC0F01204B4D0F0D519
:1006D800F0EB0205051203C805A253061C58057362
:1006E8004C056F4206204F062844062849058843D2
:0806F800062E550612460612FB
:100700004506124707CE5005772D057B2E059E2BFB
:10071000057F23059C2007B72A053748000005966A
:100720003F3F3F00790AA2D5201014301209B910BA
:10073000020404B9080104A2D520130250010420C8
:100740000F68920FB541005034C0E07F203010197F
:100750007F30A20F72137212500F12077DC20FC2A8
:1007600013C212C2157F30800F301203E9C0E012AD
:1007700004CB301203D0E0F9D0E0B541CC301217F1
:100780007F30B9100C1204CB7F583011077F78806E
:1007900003B908031204CB300F057F2D0204CB7F71
:1007A000202015F87F2B2013F322920F80CF286E84
:1007B000756C6C2900D20E120488300EF8C20E78C7
:1007C0004130D50108F60205372D5043495812042F
:1007D000882403B405004001E49007C9931204BCC7
:0D07E000743A1204BCD21075410402061CCC
:10045B00BB010CE58229F582E5833AF583E0225056
:10046B0006E92582F8E622BBFE06E92582F8E222A0
:0D047B00E58229F582E5833AF583E49322BA
:00000001FF
