:030000000227488C
:0C274800787FE4F6D8FD75816602278FCB
:0C000300000000000000000000000000F1
:0B33CA00EF1FAC0670011E4C70F622D5
:10324500AB07AA06EB1BAE0270011A4E60097FAAF6
:083255007E051233CA80ED2250
:10234F00907120E04480F07F057E001233CAE4FFD5
:10235F00FE12324575A75575AC5C9071327450F012
:10236F009071307403F0907136742FF090715C742B
:10237F0003F090715BE054FCF07F18EF2466FDE4EE
:10238F0034718D82F583E4F00FEFB433EE9040118A
:10239F00E4935407FF90711CE054F84FF0904017EE
:1023AF00E493547FFF90711DE054804FF0904010E4
:1023BF00E493FF5401C43333335480FE907123E010
:1023CF00547F4EF0EFC313543F4440FFA3E05480BB
:1023DF004FF0904012E493FF540FFE907146E0547B
:1023EF00F04EF0EFC4540FFF90714FE054F04FF0E8
:1023FF00904013E493543FFF907140E054C04FF06E
:10240F00904014E493907126F0904015E4939071EE
:0B241F0028F0904016E49390712AF022
:01242A00228F
:10329F0078D2E254FBF2E24404F2907187E4F0D268
:0232AF0091226A
:10317F0078D2E254FBF2E24404F2907187E4F078E3
:0D318F00D0E24402F208E24402F2D29122A2
:10319C0078D2E254EFF2E24410F2907188E4F078C5
:0D31AC00D0E24404F208E24404F2D2922280
:1031B90078C2E254FBF2E24404F290717FE4F078C1
:0D31C900C0E24402F208E24402F2C2812298
:1032E40078C2E254BFF2E24440F2907181E4F022E9
:1031D60078E3E254EFF2E24410F2907194E4F0786E
:0D31E600E0E24440F208E24440F2C2A622BA
:0D33220078C3E254CFF278C0E24440F222BA
:0D332F0078C3E2543FF278C0E24480F222FD
:0D333C0078D2E254FCF278D0E24401F22293
:0D33490078D2E2543FF278D0E24408F2223C
:0D33560078D3E254FCF278D0E24410F22269
:0D33630078E2E254F3F278E0E24402F22254
:0D33700078E2E254CFF278E0E24404F22269
:0D337D0078E2E2543FF278E0E24408F222E8
:0D338A0078E3E254F3F278E0E24420F2220E
:0D33970078E3E2543FF278E0E24480F22255
:0D33A40078F2E254FCF278F0E24401F222EB
:07225A004464CE0000000007
:102E7C00E5B154F342B153A8DFD2AF7892E4F20833
:102E8C00F27890E254F3F2E2441CF2E254FCF2E2E7
:102E9C004401F208E2547FF2E24420F27895740186
:102EAC00F2187476F27890E2541FF2E244A0F22207
:1032F4007890E2541FF2E244C0F243A820D2AF22F5
:10002A007890E2541FF2E244A0F27892E4F208F2E5
:04003A0053A8DF22C6
:03001E00022CC0F1
:102CC000C0E0C0F0C083C082C0D075D000C000C0DA
:102CD00004C005C006C0077891E230E71DE24480D9
:102CE000F29064CE120337EF2401FFE43EFEE43D90
:102CF000FDE43CFC9064CE12035FD007D006D00503
:0F2D0000D004D000D0D0D082D083D0F0D0E03239
:072261004464D200000000FC
:102EBC00E5B154CF42B1789CE254F3F2E24414F2FF
:102ECC00E254FCF2E24401F208E2547FF2E24420C4
:102EDC00F278A07498F208E4F2789EF208F2789CEA
:0E2EEC00E2541FF2E244A0F253A8BFD2AF227C
:10330400789CE2541FF2E244C0F243A840D2AF22B8
:10328B00789CE2541FF2E244A0F2789EE4F208F23A
:04329B0053A8BF2253
:03002100022D0F9E
:102D0F00C0E0C0F0C083C082C0D075D000C000C08A
:102D1F0004C005C006C007789DE230E71DE244807D
:102D2F00F29064D2120337EF2401FFE43EFEE43D3C
:102D3F00FDE43CFC9064D212035FD007D006D005AF
:0F2D4F00D004D000D0D0D082D083D0F0D0E032EA
:072268004464D600000000F1
:102E3800E5B254F342B2907108E054E3F0E0441470
:102E4800F0E054FCF0E04401F0A3E0547FF0E044EB
:102E580020F053A9FD90710C749BF0A3743BF09083
:102E6800710AE4F0A3F0907108E0541FF0E044A068
:042E7800F0D2AF22C3
:1032B100907108E0541FF0E044C0F043A902D2AF7E
:0132C10022EA
:10327500907108E0541FF0E044A0F090710AE4F06A
:06328500A3F053A9FD2295
:03002700022C7038
:102C7000C0E0C0F0C083C082C0D075D000C000C02A
:102C800004C005C006C007907109E030E71DE044AC
:102C900080F09064D6120337EF2401FFE43EFEE497
:102CA0003DFDE43CFC9064D612035FD007D006D013
:102CB00005D004D000D0D0D082D083D0F0D0E03284
:102B1300726563762074696D65206F757421200A70
:102B230000666F726D6174206C656E20696E7661EC
:102B33006C6964210A007265637620637263206F97
:102B430072206C656E2065727221200A002532782E
:102B530020000A3D3D3D3D3D3D3D3D3D3D3D3D3D2F
:0F2B63003D3D3D3D3D3D3D3D3D3D3D3D3D0A0040
:10226F005E645D0000000000000000000000000040
:10227F00000000000000000000000000000000004F
:10228F000043647B00000043647F000000436483CD
:10229F00000000C11E41647E004164580041648209
:0A22AF000044645900000000C11F44
:0E004E00906450EFF01233B1906450E0FF2246
:1030730078D2E2F2E24404F2907187E04404F090E3
:103083007175E0440BF043AA20D2AF75D60175D514
:053093009F75D211221F
:03004B00021FBDD4
:101FBD00C0E0C0F0C083C082C0D075D000C000C0EA
:0D1FCD0001C002C003C004C005C006C0076B
:101FDA00906451E4F0E5D420E503022117E5D7F037
:101FEA00E0B4A51DD21E906458E4F090647EF0120D
:101FFA00002A9064CE12036B000000001232F480B3
:10200A0016201E07906451E0B4A509906482E0C3CB
:10201A009403400302210A906458E0B401089064D2
:10202A0051E090647EF0906459120337747F2FF563
:10203A0082E43464F583E06003022117906451E07E
:10204A00FF90645912035390645D75F00AEB120312
:10205A009CEA75F00AA42583F583C083C082906444
:10206A0058E0FE04F0D082D083E5822EF582E43572
:10207A0083F583EFF09064CE12036B0000000090AA
:10208A00647EE0FF906458E06F6003022117906459
:10209A007EE0FB906459120337747B2FF582E43497
:1020AA0064F583EBF0C21E906458E4F090647EF00D
:1020BA00906459120337747F2FF582E43464F583F0
:1020CA007401F0906482E004F0D21F906459120304
:1020DA0037EF2401FFE43EFEE43DFDE43CFC90645E
:1020EA005912035FE47F03FEFDFC90645912035307
:1020FA00C3120300400A90645912036B00000000E7
:0D210A0012002A9064CE12036B000000004A
:10211700D007D006D005D004D003D002D001D0001C
:0B212700D0D0D082D083D0F0D0E032C6
:0D33B100E5D430E4FB8FD7E5D430E4FB22F7
:101E1F00E4906424F0A3F0C2147F0AFEFDFC9064EA
:101E2F00CE120353D3120300402112002A9064CE26
:101E3F0012036B00000000E4906458F090647EF091
:101E4F00C21E7BFF7A2B791302051FE4906424F0E6
:101E5F00906424E0FFC394034003021FBC747F2FE0
:101E6F00F582E43464F583E07003021FB3906424B9
:101E7F00E075F00AA4245EF582E43464F583E0FE95
:101E8F00747B2FF582E43464F583E06E603E7BFF54
:101E9F007A2B792412051F906424E0FF247FF582AA
:101EAF00E43464F583E4F0906482E014F090000A67
:101EBF00C083C0827D00EF75F00AA4245DF97464BD
:0C1ECF0035F0FA7B01D007D00602045B5E
:101EDB00E4906426F0906425F0A3F0906424E0FF76
:101EEB00247BF582E43464F583E014FE906426E0F1
:101EFB00FDC39E5026EF75F00AA4245DF582E434F1
:101F0B0064F583E5822DF582E43583F583E0FF905C
:101F1B006425E02FF0A3E004F080C0906425E0542A
:101F2B000FF0906424E0FF247BF582E43464F583A6
:101F3B00E0FEEF75F00AA4245CF582E43464F583CB
:101F4B00E5822EF582E43583F583E0FF906425E08E
:051F5B006F6002D214CA
:101F60003014407BFF7A2B793912051FC21490641C
:101F700024E0FF247FF582E43464F583E4F0906488
:101F800082E014F090000AC083C0827D00EF75F0FB
:101F90000AA4245DF9746435F0FA7B01D007D006F9
:101FA00012045B906424E02483F582E43464F583B6
:0C1FB0007401F0906424E004F0021E5F55
:011FBC002202
:1026B700E49064E6F0A3F0A3F0201F03022747C2CB
:1026C7001F9064E6F0E49064E7F09064E7E0FFC3EE
:1026D70094035060EF2430FF1233B17F0A1233B1F5
:1026E700E4A3F09064E8E0FFC3940A50367BFF7AD6
:1026F7002B79509064E7E075F00AA4245DF582E435
:102707003464F583E5822FF582E43583F583E0FFB2
:1027170090642BE4F0A3EFF012051F9064E8E00447
:10272700F080C07BFF7A2B795512051F9064E7E094
:1027370004F080969064E6E004F0E0C394034085DB
:01274700226F
:0522B9004264E9000091
:10304D0078E2E244C0F278C2E24403F2E2440CF2C8
:10305D00907123E054D8F0E054BFF0E0441EF0909E
:06306D0071227407F0223D
:1031F300EF24FE600804700E759904800375990529
:0D3203007869E24448F27F017E0002324506
:1030BC007869E24401F2786BE230E1FA7402F2AF23
:1030CC0093EF75F010A4FFAEF0E594C4540FFDEF30
:0330DC004DFF2283
:102C1E00E49064C4F0F09064C5120353C000123007
:102C2E00BCE4FCFDD0001201979064C512035F90C6
:102C3E0064C4E0C39401400FA3120337780112035A
:102C4E00119064C512035F9064C4E004F0E0C39475
:102C5E002040C39064C51203379064E9EEF0A3EFF1
:012C6E00F075
:012C6F002242
:103161007F011231F3122C1E7FF47E011232457F52
:0E317100021231F3122C1E7FF47E0102324551
:102FA2007F011231F3122C1E9064E9E0FEA3E0FFD0
:102FB2007C007D6412042EE47BFF7A0FF9F8120282
:0F2FC2003D9064A7EFF0D2047F0A7E00023245F3
:10325D000000000000000000000000000000000061
:08326D00000000000000000059
:1032C20075AF3F8FAF75AEB975A402E5A530E1FBCE
:0132D20022D9
:102F37009064CA1203BF75AF3F8FAF9064CDE0C3F3
:102F470094014022E5A530E0FB9064CAE475F001E6
:102F57001203A8120156F5A675AEB975A4019064BF
:072F6700CDE014F080D5223B
:102F6E009064251203BF906428E06027AE070FEE31
:102F7E002400FDE4343F8D82F583E493FE906425B6
:102F8E00E475F0011203A8EE12016F906428E014AC
:042F9E00F080D322CA
:1030980078867C647D017BFF7A32795D7E007F18BB
:1030A8001201307B017A6479869064CD7418F0E45B
:0430B800FF022F37AD
:102FD100000009C4006400C80101F4004B000A00AC
:102FE10000010F04050600000064000200640003F4
:0E2FF100006400090064000A00640019006416
:10126900E4FF74FA2FF582E43463F583E0C394084C
:10127900400302131A74FA2FF582E43463F583E00C
:10128900C39404504478C2C000E2FE74FA2FF58278
:10129900E43463F583E025E0FDF87403088002C3B4
:1012A90033D8FCF45ED000F278C2C000E2FE74FAD2
:1012B9002FF582E43463F583E025E0FDF874030833
:1012C9008002C333D8FC02147C78C3C000E2FE74E8
:1012D900FA2FF582E43463F583E024FC25E0FDF878
:1012E9007403088002C333D8FCF45ED000F278C3DB
:1012F900C000E2FE74FA2FF582E43463F583E0243A
:10130900FC25E0FDF87403088002C333D8FC0214FD
:101319007C74FA2FF582E43463F583E0C3940850B2
:10132900030213E074FA2FF582E43463F583E0C312
:10133900941040030213E074FA2FF582E43463F544
:1013490083E0C3940C504878D2C000E2FE74FA2FAF
:10135900F582E43463F583E024F825E0FDF87403AD
:10136900088002C333D8FCF45ED000F278D2C00002
:10137900E2FE74FA2FF582E43463F583E024F8255C
:10138900E0FDF87403088002C333D8FC02147C78AA
:10139900D3C000E2FE74FA2FF582E43463F583E0EA
:1013A90024F425E0FDF87403088002C333D8FCF463
:1013B9005ED000F278D3C000E2FE74FA2FF582E421
:1013C9003463F583E024F425E0FDF8740308800212
:1013D900C333D8FC02147C74FA2FF582E43463F524
:1013E90083E0C39414504778E2C000E2FE74FA2FF8
:1013F900F582E43463F583E024F025E0FDF8740315
:10140900088002C333D8FCF45ED000F278E2C00051
:10141900E2FE74FA2FF582E43463F583E024F025C3
:10142900E0FDF87403088002C333D8FC804578E3F3
:10143900C000E2FE74FA2FF582E43463F583E024F8
:10144900EC25E0FDF87403088002C333D8FCF45E90
:10145900D000F278E3C000E2FE74FA2FF582E4349A
:1014690063F583E024EC25E0FDF87403088002C3EA
:1014790033D8FC4ED000F20FEF6406600302126B02
:011489002240
:03005D00022DF37E
:102DF300C0E0C0F0C083C082C0D075D000C000C0A6
:102E030001C002C003C004C005C006C0077881E248
:102E130030E607E24440F21229C9D007D006D005B4
:102E2300D004D003D002D001D000D0D0D082D08340
:052E3300D0F0D0E032F8
:102D5E00D2AF43AB0843B6C0907132E04440F0436B
:102D6E00AB087877743FF208744BF2787A7430F2CD
:102D7E00788914F27871744FF2187427F27872749D
:102D8E00A8F2087410F208E4F208F208F2787E74E1
:0F2D9E00D0F2087404F208741EF2087402F222D4
:03003F00022DADE2
:102DAD00C0E0C0F0C083C082C0D075D000C000C0EC
:102DBD0001C002C003C004C005C006C00790715316
:102DCD00E030E707E04480F0120018D007D006D0BD
:102DDD0005D004D003D002D001D000D0D0D082D005
:062DED0083D0F0D0E032BB
:10258D00E4FBEB25E025E024E7F582E4342FF58329
:10259D00740193FF74FA2BF582E43463F583EFF045
:1025AD00EB25E025E024E9F582E4342FF583E4936F
:1025BD00FE740193FFEB25E02418F582E43464F5F5
:1025CD0083EEF0A3EFF0EB25E024DCF582E4346339
:1025DD00F583E4F0A37441F0E47F01FEFDFC74FA91
:1025ED002BF582E43463F583E0F9F8120324E53F1B
:1025FD004FFFE53E4EFEE53D4DFDE53C4C8F3F8EDC
:10260D003E8D3DF53C0BEB6406600302258F1212E7
:07261D00691224F2022D5E98
:1030DF0012234F75D9DD75D95590715EE054FEF00E
:1030EF0075D9BB123121121E1F121699121045806D
:0130FF00F5DB
:1022BE0050649E00000000000000000000000000BE
:0322CE000000000D
:060B580090642412035F0B
:100B5E0090642C12036B000000007FA51233B1903D
:100B6E0064241203371203EE0BC2000000010BE1E6
:100B7E00000000020C00000000030C1F0000000427
:100B8E000C3E000000050C5D000000060C7C000011
:100B9E0000070CAE000000080CE0000000090CFE7F
:100BAE000000000A0D200000000B0D830000000C59
:100BBE0000000DE37F051233B17F011233B1906453
:100BCE00281203371233B1906428120337EF24AB87
:100BDE00020D1A7F051233B17F021233B1906428D1
:100BEE001203371233B1906428120337EF24AC028C
:100BFE000D1A7F051233B17F031233B190642812A0
:100C0E0003371233B1906428120337EF24AD020D6F
:100C1E001A7F051233B17F041233B1906428120388
:100C2E00371233B1906428120337EF24AE020D1A37
:100C3E007F051233B17F051233B19064281203374A
:100C4E001233B1906428120337EF24AF020D1A7FCE
:100C5E00051233B17F061233B19064281203371296
:100C6E0033B1906428120337EF24B0020D1A7F06B9
:100C7E001233B17F071233B190642812033778080C
:100C8E001203111233B19064281203371233B1904C
:100C9E0064281203377808120311EF24B2020DB242
:100CAE007F061233B17F081233B1906428120337D6
:100CBE0078081203111233B19064281203371233DD
:100CCE00B19064281203377808120311EF24B3028F
:100CDE000DB27F051233B17F091233B19064281221
:100CEE0003371233B1906428120337EF24B3801CFC
:100CFE007F051233B17F0A1233B190642812033785
:100D0E001233B1906428120337EF24B4FFE4330298
:100D1E000DC37F071233B17F0B1233B190642812CB
:100D2E00033778101203111233B19064281203376F
:100D3E0078081203111233B190642812033712335C
:100D4E00B19064281203377810120311EF24B7FB09
:100D5E00E433FA90642812033778081203117E00E8
:100D6E00EB2FFBEE3AFA9064281203377E00EB2F3E
:100D7E00FFEE3A80407F061233B17F0C1233B190F2
:100D8E00642812033778081203111233B1906428C5
:100D9E001203371233B19064281203377808120306
:100DAE0011EF24B7FBE433FA9064281203377E0068
:100DBE00EB2FFFEE3AFE3395E0FDFC90642C120310
:100DCE005F90642C120337EF540FFFE4FEFDFC908E
:100DDE00642C12035F90642C1203371233B17F0A16
:050DEE007E0002324509
:1031000012336312337012337D12338A1233A412D6
:10311000339712335612334912333C12332F023392
:01312000228C
:10242B0020A30C9064A8E07011D20504F0800B90EF
:10243B0064A8E0B40104E4F0D20520A5099064A9D6
:10244B00E0700E0480089064A9E0B40104E4F0D2BB
:10245B001020A2099064AAE0700E0480089064AA70
:10246B00E0B40104E4F0D20E20A1099064ABE0705B
:10247B000E0480089064ABE0B40104E4F0D20920B0
:10248B0086099064A6E0605EE4805820870C906417
:10249B00A6E0640160507401804920900C9064A602
:1024AB00E0640260417402803A20930C9064A6E0D1
:1024BB00640360327403802B20940C9064A6E06458
:1024CB000460237404801C20A70C9064A6E06405B0
:1024DB0060147405800D20B00D9064A6E064066056
:0724EB00057406F0D20A227D
:1022D10044602C00000000446028000000004460BD
:0522E1002400000000D4
:102FFF00E5B854F342B843A802D2AF78C2E254CF37
:10300F00F218E24404F278C7E24404F278C4E254BE
:07301F00CFF2E24420F2228F
:1032100053A8FD90602C12036B0000000012328B4B
:0B3220009064D212036B00000000223B
:10322B0090602C12036B000000009064D212036BB1
:0A323B000000000043A80202330463
:102A3E009064DA12036B0000000012322BE47FC4A4
:102A4E007E09FDFC9064D2120353C312030040EDC5
:102A5E00E47F037E07FDFC90602C1203531201B23B
:102A6E00E47B10FAF9F812023D9064DA12035F90DB
:102A7E0060281203379064DA1203531201979060A4
:102A8E002812035F1232109064DA120337E47B408F
:102A9E007A38F9F81201B29064DA12035F9064DAB0
:032AAE00020337E9
:0E331400122A3E7B407A42790F780002023D79
:1018A7001233149064BE12035F90602412033790C2
:1018B70064BE120353D3120300401B90602412032B
:1018C700539064BE1203371201A4E47B02FAF9F8BD
:1018D700C3120300402D9060241203379064BE1298
:1018E7000353C3120300501E9064BE12035390604B
:1018F700241203371201A4E47B02FAF9F8C3120396
:10190700005003021A739060241203379064BE12CA
:101917000353D3120300401B9060241203539064B7
:10192700BE1203371201A4E47B02FAF9F8D31203BB
:101937000050339060241203379064BE120353C3E0
:101947001203004003021A819064BE120353906091
:10195700241203371201A4E47B02FAF9F8D3120325
:06196700005003021A818A
:10196D00E49064C2F09060241203379064BE1203B9
:10197D0053D3120300406B9060241203539064BE46
:10198D001203371201A4E47B02FAF9F8D312030013
:02199D004050B8
:10199F00E49064C3F0F01233149064BE12035F90AE
:1019AF0060241203379064BE120353D31203004016
:1019BF00219060241203539064BE1203371201A4C6
:1019CF00E47B02FAF9F8D312030040069064C2E0F8
:1019DF0004F09064C3E004F0E0C3940340B8807B4C
:1019EF009060241203379064BE120353C312030096
:1019FF0050699064BE120353906024120337120192
:0D1A0F00A4E47B02FAF9F8D3120300404E64
:101A1C00E49064C3F0F01233149064BE12035F9030
:101A2C0060241203379064BE120353C31203005098
:101A3C00219064BE1203539060241203371201A448
:101A4C00E47B02FAF9F8D312030040069064C2E07A
:0E1A5C0004F09064C3E004F0E0C3940340B8CB
:101A6A009064C2E0C39402403D9064BE1203379072
:051A7A00602412035F6F
:101A7F008021E4FFFEFDFC9064BE120353C31203EA
:101A8F0000701EFFFEFDFC906024120353C312036F
:101A9F0000600E9064BE1203379064A212035FD2EF
:011AAF00082E
:011AB0002213
:03001200022B724C
:102B7200C0E0C0F0C083C082C0D075D000C000C029
:092B820003C004C005C006C00731
:102B8B0078C6E2FB30E21990602C120337EF240178
:102B9B00FFE43EFEE43DFDE43CFC90602C12035F41
:062BAB00AF0378C6EBF257
:102BB100D007D006D005D004D003D000D0D0D08229
:072BC100D083D0F0D0E03218
:10312100122E7C123073123100122EBC122FFF129C
:103131003026122E381232D31232E4D28302304DAD
:0722E6004464E20000000067
:10302600E5B854CF42B843A804D2AF78D2E254CF21
:10303600F218E24404F278D7E24404F278D4E25477
:07304600CFF2E24420F22268
:102954009064DE12036B000000009064E212036BCB
:10296400000000009064D212036B000000001233D8
:102974000443A804E47FC47E09FDFC9064D21203DE
:1029840053C312030040EDE47FF0FEFDFC9064E2CB
:102994001203531201B2E47B10FAF9F812023D90CB
:1029A40064DE12035F12328B53A8FB9064D21203CD
:1029B4006B000000009064E212036B0000000090C2
:0529C40064DE02033790
:0B33BE0012295490649E12035FD2019C
:0133C90022E1
:03001500022BC8F3
:102BC800C0E0C0F0C083C082C0D075D000C000C0D3
:092BD80003C004C005C006C007DB
:102BE10078D6E2FB30E2199064E2120337EF240158
:102BF100FFE43EFEE43DFDE43CFC9064E212035F31
:062C0100AF0378D6EBF2F0
:102C0700D007D006D005D004D003D000D0D0D082D2
:072C1700D083D0F0D0E032C1
:1022ED004864B600000000000000004464AE000029
:0B22FD0000004464B200000000C12299
:1032D3007B017A6479B69064287408F0E4FF022FC6
:0132E3006E7C
:1021320020220FD2229064D612036B0000000012FC
:1021420032B1E47FB87E0BFDFC9064D6120353C318
:1021520012030040201232759064D612036B000005
:102162000000C2227B017A6479B69064CD7408F0D3
:10217200E4FF122F37E47FE87E03FDFC9060281213
:102182000353C3120300407C9064B6120353C00091
:10219200C001C002C003E47BE87A03F9F89060282A
:1021A20012033712023DD003D002D001D000120137
:1021B200979064B612035F9064BA120353C000C0D2
:1021C20001C002C003E47BE87A03F9F890602812A8
:1021D200033712023DD003D002D001D00012019782
:1021E2009064BA12035F906028120337E47BE87AA6
:1021F20003F9F812023DAC00AD01AE02AF039060EC
:102202002812035F9064AE1203539064B612033730
:102212001201A4E47B64FAF9F8C3120300500E9091
:1022220064B61203379064AE12035FD2009064B2B8
:102232001203539064BA1203371201A4E47BE87AC2
:1022420003F9F8C3120300500E9064BA12033790D8
:0722520064B212035FD20722
:012259002262
:10148A0025327820000A3D3D3D3D3D3D3D3D3D3DF7
:10149A003D3D3D3D3D3D3D3D3D3D3D3D3D3D3D3D72
:1014AA000A00636865636B2073756D2070617373DE
:1014BA000A00636865636B2073756D20657272201C
:1014CA000A0020666C61675F6765745F616C6C5FB8
:1014DA007374617475730A0020666C61675F67656F
:1014EA00745F676561720A0020666C61675F676591
:1014FA00745F626174746572790A0020666C616750
:10150A005F6765745F6272616B650A0020666C6171
:10151A00675F6765745F6C6566745F7475726E0A7F
:10152A000020666C61675F6765745F7269676874DB
:10153A005F7475726E0A0020666C61675F67657416
:10154A005F686967685F6265616D0A0020666C6141
:10155A00675F6765745F656E67696E655F737065FF
:10156A006564200A0020666C61675F6765745F7353
:10157A0070656564200A0020666C61675F67657440
:10158A005F6675656C200A0020666C61675F676537
:10159A00745F74656D705F6F665F776174657220E2
:1015AA000A0020666C61675F6765745F746F7461B7
:1015BA006C5F6D696C65616765200A0020666C6105
:1015CA00675F6765745F7375625F746F74616C5F80
:1015DA006D696C65616765200A0020666C61675FEA
:1015EA006765745F746F7563685F6B65795F737441
:1015FA0061747573200A0020666C61675F616C74A0
:10160A0065725F64617465200A0020666C61675FB9
:10161A00616C7465725F74696D65200A0020666C7E
:10162A0061675F6765745F6261745F76616C200AE7
:10163A000020666C61675F7365745F74656D705FC7
:10164A006F665F77617465725F7761726E696E67E4
:10165A00200A0020666C61675F636C6561725F7463
:10166A006F74616C5F6D696C65616765200A002043
:10167A00666C61675F636C6561725F7375625F74E4
:0F168A006F74616C5F6D696C65616765200A0044
:10230800C10DC10AC104C105C110C10EC109C10175
:10231800C108C10CC102C100C107C111C103C10676
:08232800C113C112C10BC10F6A
:10169900E4906424F0F0906424E0FFC394034003D1
:1016A9000218A674832FF582E43464F583E070038D
:1016B90002189D906424E075F00AA4245FF582E481
:1016C9003464F583E01203C8171120171621171B7C
:1016D90022172023172524172A25172F26173427E1
:1016E900173928173E2917432A17482B174D2C1746
:1016F900522D17572E175C2F185330185731185B76
:1017090032185F3300001861D20D021861D20A0243
:101719001861D204021861D205021861D2100218A8
:1017290061D20E021861D209021861D20102186150
:10173900D208021861D20C021861D202021861D2D1
:1017490000021861D207021861D211021861D2038E
:05175900021861D20638
:10175E00E4906425F0F0906425E0FFC3940A5036BF
:10176E007BFF7A14798A906424E075F00AA4245DD4
:10177E00F582E43464F583E5822FF582E43583F552
:10178E0083E0FF90642BE4F0A3EFF012051F90644A
:0F179E0025E004F080C07BFF7A14798F12051FBD
:1017AD00E4906425F0906424E0FF75F00AA4245EB3
:1017BD00F582E43464F583E0FEEF75F00AA4245D50
:1017CD00F582E43464F583E02EFF906424E0FE7529
:1017DD00F00AA4245FF582E43464F583E02FFFEE74
:1017ED0075F00AA42460F582E43464F583E02FFFDC
:1017FD00906424E075F00AA42461F582E43464F564
:10180D0083E02FFFEE75F00AA42462F582E43464C0
:10181D00F583E02FFF906425E02FF0E0540FFFF0EB
:10182D00906424E075F00AA42463F582E43464F531
:10183D0083E07BFFB507067A1479AC80047A1479BE
:04184D00BC12051FA5
:02185100800E07
:10185300D213800AD2128006D20B8002D20F906478
:1018630082E0D394004003E014F0906424E0FF246A
:1018730083F582E43464F583E4F0F58375820AC06A
:1018830083C082FDEF75F00AA4245DF9746435F01A
:10189300FA7B01D007D00612045B906424E004F0C5
:0318A30002169F8B
:0118A600221F
:10104500300D0BC20D7BFF7A1479CC12051F300AC7
:1010550025C20A7BFF7A1479E212051F9064A6E087
:10106500FFE4FCFDFE90642812035F7F017E007D96
:10107500007C00120B58300425C2047BFF7A1479DA
:10108500F212051F9064A7E0FFE4FCFDFE906428C2
:1010950012035F7F027E007D007C00120B58300535
:1010A50025C2057BFF7A15790512051F9064A8E016
:1010B500FFE4FCFDFE90642812035F7F037E007D44
:1010C500007C00120B58301025C2107BFF7A157971
:1010D5001612051F9064A9E0FFE4FCFDFE9064284C
:1010E50012035F7F047E007D007C00120B58300EDA
:1010F50025C20E7BFF7A15792B12051F9064AAE095
:10110500FFE4FCFDFE90642812035F7F057E007DF1
:10111500007C00120B58300925C2097BFF7A15792E
:101125004112051F9064ABE0FFE4FCFDFE906428CE
:1011350012035F7F067E007D007C00120B58300194
:1011450022C2017BFF7A15795612051F90649E1203
:10115500033790642812035F7F077E007D007C00C3
:10116500120B58300822C2087BFF7A15796F1205D9
:101175001F9064A212033790642812035F7F087ED4
:10118500007D007C00120B58300C0BC20C7BFF7AE3
:1011950015798112051F30020BC2027BFF7A157982
:1011A5009212051F30002BC2007BFF7A1579AC1215
:1011B500051FE47B64FAF9F89064B612033712024E
:1011C5003D90642812035F7F0B7E007D007C00123A
:1011D5000B5830072CC2077BFF7A1579C612051FFD
:1011E500E47BE87A03F9F89064BA12033712023DFA
:1011F50090642812035F7F0C7E007D007C00120B3B
:101205005830110BC2117BFF7A1579E412051F3096
:10121500030BC2037BFF7A16790112051F30060BFB
:10122500C2067BFF7A16791412051F30130BC21301
:101235007BFF7A16792712051F30120BC2127BFF2E
:101245007A16793B12051F300B0BC20B7BFF7A1602
:10125500795D12051F300F0BC20F7BFF7A16797966
:0412650012051F222D
:1023300041604801426049000041604B0041604CEF
:0E2340000041604D0041604E7F42604FFFFF44
:102EFA00E4F561AE3EAD3DAC3C853F178E168D15AF
:102F0A008C14787EE254FCF2E24514F218E515F2CC
:102F1A0018E516F218E517F2787FE254FBF2E2544C
:0D2F2A00FB4404F2E24401F27F010227D4CF
:100DF3009064EDEFF0E0FF24E8F582E43463F583DB
:100E0300E004F074F42FF582E43463F583E4F074C2
:100E1300E82FF582E43463F583E0C395635003025E
:100E230010449064EDE0FB24E8F582E43463F58339
:100E3300E4F0902FE29364016003020FF57F01FE5B
:100E4300FDFC74FA2BF582E43463F583E0F9F812C0
:100E53000324E51F4FF51FE51E4EF51EE51D4DF559
:100E63001DE51C4CF51CAF1FAE1EAD1DFC78011219
:100E73000311EF5455FBEE5455FAED5455F9EC5468
:100E830055F8C3E51F9BF53BE51E9AF53AE51D9919
:100E9300F539E51C98F538AF3BAE3AAD39FC78022D
:100EA300120311EF5433FBEE5433FAED5433F9ECE0
:100EB3005433F8E53B5433FFE53A5433FEE53954F4
:100EC30033FDE5385433FCEB2FF53BEA3EF53AE9C5
:100ED3003DF539E83CF538AF3BAE3AAD39FC780423
:100EE300120311EF253BFFEE353AFEED3539FDECEC
:100EF3003538FCEF540FF53BEE540FF53AED540F34
:100F0300F539EC540FF538AF3BAE3AAD39FC780800
:100F1300120311EF253BFFEE353AED3539FDEC3584
:100F230038EFF53BE4F53AEDF539E4F538AE3AAC94
:100F3300387810120311EF253BFFEE353AFEEFF53B
:100F43003BEEF53AE4F539F5389064EDE025E0241D
:100F530000F582E43464F583E0FEA3E0D39553EE19
:100F6300955240249064EDE0FF25E02400F582E4EF
:100F73003464F583E0F552A3E0F55374FA2FF58258
:100F8300E43463F583E0F564902FE2E493FFE4FC3B
:100F9300FDFEAB3BAA3AA939A838D312030040524D
:100FA300AF650565D3EF94037480948050030210FA
:100FB30044E4F565F51FF51EF51DF51C7F01FEFDE7
:100FC300FCA964A8011203248F1B8E1A8D198C1897
:100FD300E47F01FEFDFCA8011203248F338E328DC2
:100FE300318C30E4F552F553756420122858433799
:100FF3000222E4F5657F01FEFDFC9064EDE0FB2435
:10100300FAF582E43463F583E0F9F8120324E51B6F
:101013004FF51BE51A4EF51AE5194DF519E5184C70
:10102300F518E47F01FEFDFCA803120324E5334F0A
:10103300F533E5324EF532E5314DF531E5304CF51A
:02104300302259
:10081900E4F566902FE6E493FFE566C39F40030283
:100829000B57E56625E02400F582E4346085828A69
:100839007F548F8B7E0E8E8C758903758889E5664A
:1008490025E02400F582E4346085828A8F8B758CDB
:1008590012758904758889E56625E02418F582E40E
:100869003460F583E0FCA3E0C3950FEC950E502EA0
:10087900E56625E0243CF582E43460F583E0FCA3D9
:10088900E0C39513EC95125015AF600560EF940223
:1008990074809480400BE4F5605337FD8003E4F5E0
:1008A90060E53730E125E56625E02400F582E4348A
:1008B90064F583E4F0A3F0E56625E0240CF582E411
:1008C9003464F583E4F0A3F0020967E56625E024C2
:1008D90018F582E4346085828A8E8B758C0A758955
:1008E900267588892088FDE5F130E00875F107E46F
:1008F900F50AF50BAE0AE50B7802C333CE33CED831
:10090900F9FFE56625E02400F582E43464F583EE19
:10091900F0A3EFF0E56625E0243CF582E434608538
:10092900828A758B12758C0A758927758889208842
:10093900FDE5F130E00875F107E4F50AF50BAE0ABB
:10094900E50B7802C333CE33CED8F9FFE56625E04F
:10095900240CF582E43464F583EEF0A3EFF0E56648
:1009690025E02418F582E43464F583E0FEA3E078F9
:1009790002CEC313CE13D8F9F5518E50E56625E0A2
:100989002400F582E43464F583E0FEA3E0FF902FB0
:10099900DEE493FC740193FDC3EF9DEE9C4017E5E3
:1009A9006625E0240CF582E43464F583E0FEA3E0D7
:1009B900C39DEE9C50028068E56625E02400F5821F
:1009C900E43464F583E0FEA3E0C39551EE9550400D
:1009D9001CE56625E0240CF582E43464F583E0FE29
:1009E900A3E0C39551EE95504003020A7374EE25B6
:1009F90066F582E43463F583E004F074EE2566F568
:100A090082E43463F583E0FF902FE3E493FEEFD3B0
:100A19009E406474EE2566F582E43463F583E4F060
:100A2900E56625E0240CF582E43460F583E0FEA355
:100A3900E0FFE56625E02418F582E43460F583EEED
:100A4900F0A3EFF0E56625E02430F582E43460F5A3
:100A590083E0FEA3E0FFE56625E0243CF582E4346B
:100A690060F583EEF0A3EFF0800D74EE2566F58254
:100A7900E43463F583E4F0E56625E0240CF582E4CB
:100A8900346085828AE56625E02400F582E43460D5
:100A990085828B758C0A7589207588CB2088FDE540
:100AA900F130E00875F107E4F50AF50BE56625E094
:100AB900240CF582E4346085828A758B547F0E8F0D
:100AC9008C7589237588897E0A8E8A8F8BE56625C0
:100AD900E0240CF582E4346085828CE4F58975881C
:100AE90029E56625E02430F582E4346085828AE5CB
:100AF9006625E02400F582E4346085828B8E8C754E
:100B090089207588CB2088FDE5F130E00875F1076B
:100B1900E4F50AF50BE56625E02430F582E4346056
:100B290085828A758B547F0E8F8C75892475888987
:100B3900758A0A8F8BE56625E02430F582E43460F6
:0F0B490085828CE4F589758829056602081C22CF
:101AB100E4F566902FE6E493FFE566C39F400302D9
:101AC1001C69E56625E02418F582E43464F583E0B9
:101AD100FEA3E07802CEC313CE13D8F9F5518E5090
:101AE100E56625E02400F582E43464F583E0FEA395
:101AF100E0D39551EE9550402EE56625E0240CF596
:101B010082E43464F583E0FEA3E0D39551EE955071
:101B1100401574F42566F582E43463F583E4F0AF8F
:101B210066120DF3021C64902FE5E493FFC3E551A7
:101B31009FFFE5509400FED3EF9400EE9400400225
:101B410080047E007F00E56625E02400F582E43410
:101B510064F583E0FCA3E0C39FEC9E4003021C57A5
:101B6100902FE5E493FFC3E5519FFFE5509400FEFC
:101B7100D3EF9400EE9400400280047E007F00E5E4
:101B81006625E0240CF582E43464F583E0FCA3E0EF
:101B9100C39FEC9E4003021C5774E82566F582E45E
:101BA1003463F583E4F074F42566F582E43463F577
:101BB10083E004F074F42566F582E43463F583E090
:101BC100C395635003021C6474F42566F582E43402
:101BD10063F583E4F07F01FEFDFC74FA2566F5826E
:101BE100E43463F583E0F9F81203241202CFE51F10
:101BF1005FF51FE51E5EF51EE51D5DF51DE51C5C2F
:101C0100F51CE47F01FEFDFCA966A8011203241264
:101C110002CFE5335FF533E5325EF532E5315DF54F
:101C210031E5305CF530E47F01FEFDFC74FA256698
:101C3100F582E43463F583E0F9F81203241202CF4C
:101C4100E51B5FF51BE51A5EF51AE5195DF519E56A
:101C5100185CF518800D74F42566F582E43463F59B
:091C610083E4F00566021AB422C6
:10285800E4F566902FE6E493FFE566C39F506EE5C6
:102868006625E02400F582E43464F583E4F0A3F0FF
:10287800E56625E0240CF582E43464F583E4F0A3EE
:10288800F0E56625E0240CF582E43460F583E0FE8B
:10289800A3E0FFE56625E02418F582E43460F583BB
:1028A800EEF0A3EFF0E56625E02430F582E434602D
:1028B800F583E0FEA3E0FFE56625E0243CF582E42D
:0E28C8003460F583EEF0A3EFF0056680862203
:10262400E4F566902FE6E493FFE566C39F50679058
:102634006048E0FF7E00C39410748094805053EF90
:102644009408748094804025E56625E02400F58292
:10265400E43460F583E0FEA3E0FFE56625E0240CA6
:10266400F582E43460F583EE8FF0120181E566258E
:10267400E02400F582E43460F583E0FEA3E0FFE5A6
:102684006625E02430F582E43460F583EE8FF012A1
:1026940001810566808D906048E0C3941074809435
:1026A4008040054337048006906048E004F07F01D1
:0326B4000227D426
:1028D600E4FFFEFDFCAB1BAA1AA919A818C3120334
:1028E60000606390604AE004F07006906049E0047E
:1028F600F0902FDAE493FE740193FF4E602ED3908E
:10290600604AE09F906049E09E4021E4F0A3F0F524
:102916001FF51EF51DF51CF533F532F531F530F5CD
:102926001BF51AF519F518C221022858902FDCE478
:1029360093FE740193FFD390604AE09F906049E054
:0D2946009E400AD22122E4906049F0A3F0E7
:012953002261
:051C6A00906453EFF04F
:101C6F00A3E0FCA3E0FDA3E0FEA3E0F54C8E4B8DBB
:101C7F004A8C497884E2F50A08E2F50B758A0875F3
:101C8F008B49758C4575881D2088FDE4FFFEFDFC92
:101C9F00AB48AA47A946A845D31202EA4006AC456D
:101CAF00A8048013AF48AE47AD46AC451202DCAB7B
:101CBF0007AA06A905A80490604FE0FEA3E0FFE481
:101CCF00FCFDC31202EA5041E4FFFEFDFCAB48AA43
:101CDF0047A946A8451202EA4006AF48AE47800B17
:101CEF00AF48AE47AD46AC451202DC90604FEEF008
:101CFF00A3EFF0906453E025E024DCF582E4346335
:101D0F00F583E0A3E090604EF0902FD7E493FE743C
:101D1F000193FFD3906050E09F90604FE09E501B67
:101D2F00906453E025E024DCF582E43463F583E02E
:101D3F00A3E090604EF090604B8079E4FFFEFDFCD5
:101D4F00AB48AA47A946A845D31202EA403490648B
:101D5F0053E0FF25E024DCF582E43463F583E0FCF7
:101D6F00A3E0D39400EC9400404DEF25E024DCF584
:101D7F0082E43463F58374FFF5F012018190604CB7
:101D8F008032906453E0FF25E024DCF582E4346375
:101D9F00F583E0FCA3E0C3947FEC94005019EF258A
:101DAF00E024DCF582E43463F583E475F00112017D
:101DBF008190604D7401F090604CE064017011A34C
:101DCF00E06401700B90604CF0A3F090604B04F056
:101DDF0090604BE06401703590604EE0FF9064536B
:101DEF00E025E024DCF582E43463F583E4F0A3EF2F
:101DFF00F074FF90604FF0A3F090604E747FF0E4AA
:0F1E0F0090604CF0A3F090604BF07F01227F00B9
:011E1E0022A1
:102AB100E4906452F0902FD1120343780112032461
:102AC10090645412035FAF61121C6AEF60220561CA
:102AD100E53730E4095337EF9064527401F0902FD9
:102AE100E6E493FFE561C39F4006E4F561433710D7
:102AF100C3902FD57401939562E49394004008909C
:102B01006452E064017005D220022EFAE4FF12271C
:012B1100D4EF
:012B120022A0
:1027D400EF70607F01FEFDFC74FA2561F582E4343C
:1027E40063F583E0F9F81203248F178E168D158C88
:1027F40014787EE254FCF2E24514F218E515F2185E
:10280400E516F218E517F2E56125E024DCF582E42B
:102814003463F583E0A3E0547FFF7878E254804F7B
:10282400F2787FE254FBF2E254FB4404F2E2440106
:10283400F2801CE56125E024DCF582E43463F58351
:10284400E0A3E0547FFF7878E254804FF2787FE28F
:042854004402F22226
:1024F200E49064EBF0A3F09064EBE0FEA3E0FFC392
:102502009488EE94035031EF2419FFEE34088F8241
:10251200F583E493FF9064ECE02451FD9064EBE0DA
:1025220034608D82F583EFF09064ECE004F070C7C4
:082532009064EBE004F080BFAF
:10253A009063D97401F0A37460F0A37451F0E4F5C8
:10254A0061F537F536F535F534C220C221F51FF5A8
:10255A001EF51DF51CF533F532F531F530F51BF591
:10256A001AF519F518902FE093FF902FE4E493FEE3
:10257A00A807088002C333D8FCF563756420E4FF1A
:03258A000227D451
:1029C9007884E2F50A08E2F50BAE0A7803CEC31360
:1029D900CE13D8F97802C333CE33CED8F9FFE561E7
:1029E90025E02400F582E43460F583EEF0A3EFF0EE
:1029F90020200F902FD9E4937005D220022EFA02DD
:102A09002AB10561902FE6E493FFE561C39F401F5A
:102A1900787FE254FBF2E254FB4404F2E24401F20F
:102A2900E4F561E53720E203022624433701227FDA
:052A3900011227D42268
:0500180005620228D67C
:10314100E53730E01A9063D9A3E0FAA3E0F912045D
:1031510028121AB1E4F5617F011227D45337FE22F8
:102754000230DFE493A3F8E493A34003F68001F28C
:1027640008DFF48029E493A3F85407240CC8C33386
:10277400C4540F4420C8834004F456800146F6DF55
:10278400E4800B010204081020408090225AE47E69
:10279400019360BCA3FF543F30E509541FFEE4934A
:1027A400A360010ECF54C025E060A840B8E493A311
:1027B400FAE493A3F8E493A3C8C582C8CAC583CA3C
:1027C400F0A3C8C582C8CAC583CADFE9DEE780BEF4
:01234E00008E
:10006000E709F608DFFA8046E709F208DFFA803E82
:1000700088828C83E709F0A3DFFA8032E309F6086F
:10008000DFFA8078E309F208DFFA807088828C83D7
:10009000E309F0A3DFFA806489828A83E0A3F6088B
:1000A000DFFA805889828A83E0A3F208DFFA804C65
:1000B00080D280FA80C680D4806980F2803380103C
:1000C00080A680EA809A80A880DA80E280CA8033A5
:1000D00089828A83ECFAE493A3C8C582C8CCC5831D
:1000E000CCF0A3C8C582C8CCC583CCDFE9DEE780ED
:1000F0000D89828A83E493A3F608DFF9ECFAA9F06C
:10010000EDFB2289828A83ECFAE0A3C8C582C8CCC1
:10011000C583CCF0A3C8C582C8CCC583CCDFEADEDA
:10012000E880DB89828A83E493A3F208DFF980CC3C
:1001300088F0EF60010E4E60C388F0ED2402B40435
:100140000050B9F582EB2402B4040050AF232345DC
:0601500082239000B07351
:10015600BB010689828A83E0225002E722BBFE02A7
:09016600E32289828A83E49322DA
:10016F00BB010689828A83F0225002F722BBFE016F
:02017F00F32269
:10018100C5F0F8A3E028F0C5F0F8E5821582700209
:060191001583E038F022A6
:0D019700EF2BFFEE3AFEED39FDEC38FC22B7
:0E01A400C3EF9BFFEE9AFEED99FDEC98FC2256
:1001B200E88FF0A4CC8BF0A42CFCE98EF0A42CFCEC
:1001C2008AF0EDA42CFCEA8EF0A4CDA8F08BF0A46A
:1001D2002DCC3825F0FDE98FF0A42CCD35F0FCEBC9
:1001E2008EF0A4FEA9F0EB8FF0A4CFC5F02ECD398E
:0F01F200FEE43CFCEAA42DCE35F0FDE43CFC22FB
:1002010075F008758200EF2FFFEE33FECD33CDCCB4
:1002110033CCC58233C5829BED9AEC99E582984037
:100221000CF582EE9BFEED9AFDEC99FC0FD5F0D614
:10023100E4CEFBE4CDFAE4CCF9A88222B800C1B93E
:100241000059BA002DEC8BF084CFCECDFCE5F0CB7C
:10025100F97818EF2FFFEE33FEED33FDEC33FCEBB5
:1002610033FB10D703994004EB99FB0FD8E5E4F970
:10027100FA227818EF2FFFEE33FEED33FDEC33FC5D
:10028100C933C910D7059BE99A4007EC9BFCE99A51
:10029100F90FD8E0E4C9FAE4CCFB2275F010EF2F96
:1002A100FFEE33FEED33FDCC33CCC833C810D70796
:1002B1009BEC9AE899400AED9BFDEC9AFCE899F8D1
:0E02C1000FD5F0DAE4CDFBE4CCFAE4C8F92264
:0D02CF00CFF4CFCEF4CECDF4CDCCF4CC22C4
:0E02DC00C3E49FFFE49EFEE49DFDE49CFC2233
:1002EA00EB9FF5F0EA9E42F0E99D42F0EC6480C88B
:0602FA0064809845F0222B
:10030000EB9FF5F0EA9E42F0E99D42F0E89C45F053
:0103100022CA
:10031100E8600FECC313FCED13FDEE13FEEF13FFCA
:03032100D8F122EE
:10032400E8600FEFC333FFEE33FEED33FDEC33FC37
:03033400D8F122DB
:0C033700E0FCA3E0FDA3E0FEA3E0FF2239
:10034300E493FC740193FD740293FE740393FF2200
:0C035300E0F8A3E0F9A3E0FAA3E0FB222D
:0C035F00ECF0A3EDF0A3EEF0A3EFF02211
:10036B00A8828583F0D083D082120382120382127B
:10037B000382120382E473E493A3C583C5F0C583A0
:10038B00C8C582C8F0A3C583C5F0C583C8C582C8DC
:01039B00223F
:0C039C00A42582F582E5F03583F583226C
:1003A800F8E0FBA3A3E0F925F0F0E58215827002DE
:0703B8001583E0FA38F02282
:0903BF00EBF0A3EAF0A3E9F0223F
:1003C800D083D082F8E4937012740193700DA3A3C4
:1003D80093F8740193F5828883E4737402936860D8
:0603E800EFA3A3A380DFD8
:1003EE00D083D082E4937012740193700DA3A39303
:1003FE00F8740193F5828883E4737402936C70121F
:10040E007403936D700C7404936E70067405936F81
:0A041E0060DDA3A3A3A3A3A380CA7B
:060428008A838982E4735F
:10042E00EC8EF0A4CCC5F0CCCDF8EFA4CEC5F02D5B
:10043E00FDE43CFCE8A42EC8C5F03DFDE43CFCEF19
:0D044E00A4FFE5F028FEE43DFDE43CFC22A7
:1004B400E540242BF582E43464F583E00540229082
:1004C4006428301C0390642BE475F0011203A80225
:1004D40001562015E97F2ED2158018EF540F249071
:1004E400D43440D4FF30190BEF24BFB41A005003A6
:1004F4002461FFE541600215410544E544700205AD
:1005040043301C0E906428E475F0011203A8EF0236
:10051400016F02004E7403D21C8003E4C21CF54038
:100524009064281203BFE4F541F543F544E54160C6
:10053400077F201204F780F57542FFC216C215C268
:1005440017C218C21AC21BC21D1204C3FF700D3099
:100554001C057F00120508AF44AE4322B4255FC2D8
:10056400D5C2191204C3FF24D0B40A00501A75F07E
:100574000A784130D50508B6FF0106C6A426F62040
:10058400D5047002D21880D924CFB41A00EF5004D5
:10059400C2E5D219020709D21680C6D21580C0D28C
:1005A4001780BCD2D580BAD21A80B47F201204F747
:1005B4002017077401B5410040F11204B4FF12047E
:1005C400F7020531D21DD21B80951204B4FB12042C
:1005D400B4FA1204B4F94A4B700679DA7A077BFF4D
:1005E40020172EE541602A7E008E82758300120456
:1005F4008760060EEE654270F0C2D5EBC0E0EAC03B
:10060400E0E9C0E0EE120750D0E0F9D0E0FAD0E023
:10061400FB120156FF60AAEBC0E0EAC0E0E9C0E0CB
:100624001204F7D0E02401F9D0E03400FAD0E0FB62
:10063400E5420460DCD542D980877BFF7A07794C98
:10064400D217809C791080027908C21BC21D8008D1
:10065400D2D5790A8004790AC2D5E542047002F53C
:1006640042E4FAFDFEFF1204B4FC7B0820161312C8
:1006740004B4FD7B1030150A1204B4FE1204B4FF56
:100684007B20EC3382D592D55013C3E43015069FFA
:10069400FFE49EFEE42016039DFDE49CFCE4CBF8FD
:1006A400C216EC700CCFCECDCCE824F8F870F380F1
:1006B40017C3EF33FFEE33FEED33FDEC33FCEB33C6
:1006C400FB994002FB0FD8E9EB301605F8D0E0C4E3
:1006D40048B216C0E00AEC4D4E4F78207B0070C241
:1006E400EAB5420040BCC0E0120752D0F0D0E0208E
:1006F4001604C4C0E0C4B216C0F01204E0D0F0D5B1
:10070400F0EB0205311203C805CE53064858059F85
:100714004C059B42064C4F06544406544905B443C9
:08072400065A55063E46063E4A
:10072C0045063E4707FA5005A32D05A72E05CA2BF3
:10073C0005AB2305C82007E32A056348000005C262
:10074C003F3F3F00790AA2D5201814301A09B9107E
:10075C00020404B9080104A2D5201B025001042094
:10076C0017689217B541005034C0E07F203018193B
:10077C007F30A217721B721A500F1207A9C217C230
:10078C001BC21AC21D7F30800F301A03E9C0E01261
:10079C0004F7301A03D0E0F9D0E0B541CC301A1789
:1007AC007F30B9100C1204F77F583019077F78800E
:1007BC0003B908031204F73017057F2D0204F77FE5
:1007CC0020201DF87F2B201BF322921780CF286E40
:1007DC00756C6C2900D2161204B43016F8C2167857
:1007EC004130D50108F60205632D504349581204D7
:1007FC00B42403B405004001E49007F5931204E817
:0D080C00743A1204E8D2187541040206483F
:10045B00EF4E6012EF60010EEDBB010B89828A83B8
:10046B00F0A3DFFCDEFA2289F05007F709DFFCA9C5
:0C047B00F022BBFEFCF309DFFCA9F0221C
:10048700BB010CE58229F582E5833AF583E022502A
:1004970006E92582F8E622BBFE06E92582F8E22274
:0D04A700E58229F582E5833AF583E493228E
:00000001FF
