:03000000022709CB
:0C270900787FE4F6D8FD75816602275049
:0C000300000000000000000000000000F1
:0B358B00EF1FAC0670011E4C70F62212
:1033DC00AB07AA06EB1BAE0270011A4E60097FAA5E
:0833EC007E0512358B80ED22F5
:1023A100907120E04480F07F057E0012358BE4FFC0
:1023B100FE1233DC75A75575AC5C9071327450F028
:1023C1009071307403F0907136742FF090715C74D9
:1023D10003F090715BE054FCF07F18EF2466FDE49C
:1023E10034718D82F583E4F00FEFB433EE90401138
:1023F100E4935407FF90711CE054F84FF09040179C
:10240100E493547FFF90711DE054804FF090401091
:10241100E493FF5401C43333335480FE907123E0BD
:10242100547F4EF0EFC313543F4440FFA3E0548068
:102431004FF0904012E493FF540FFE907146E05428
:10244100F04EF0EFC4540FFF90714FE054F04FF095
:10245100904013E493543FFF907140E054C04FF01B
:10246100904014E493907126F0904015E49390719C
:0B24710028F0904016E49390712AF0D0
:01247C00223D
:10002D0078D2E254FBF2E24404F2907187E4F0D20C
:02003D0091220E
:1033310078D2E254FBF2E24404F2907187E4F0782F
:0D334100D0E24402F208E24402F2D29122EE
:10334E0078D2E254EFF2E24410F2907188E4F07811
:0D335E00D0E24404F208E24404F2D29222CC
:10336B0078C2E254FBF2E24404F290717FE4F0780D
:0D337B00C0E24402F208E24402F2C28122E4
:1034BF0078C2E254BFF2E24440F2907181E4F0220C
:1033880078E3E254EFF2E24410F2907194E4F078BA
:0D339800E0E24440F208E24440F2C2A62206
:0D34EF0078C3E254CFF278C0E24440F222EC
:0D34FC0078C3E2543FF278C0E24480F2222F
:0D35090078D2E254FCF278D0E24401F222C4
:0D35160078D2E2543FF278D0E24408F2226D
:0D35230078D3E254FCF278D0E24410F2229A
:0D35300078E2E254F3F278E0E24402F22285
:0D353D0078E2E254CFF278E0E24404F2229A
:0D354A0078E2E2543FF278E0E24408F22219
:0D35570078E3E254F3F278E0E24420F2223F
:0D35640078E3E2543FF278E0E24480F22286
:0D35710078F2E254FCF278F0E24401F2221C
:0721950044602C0000000073
:10304F00E5B154F342B153A8DFD2AF7892E4F2085E
:10305F00F27890E254E3F2E2441CF2E254FCF2E222
:10306F004401F208E2547FF2E24420F278957401B1
:10307F00F2187476F27890E2541FF2E244A0F22232
:1034CF007890E2541FF2E244C0F243A820D2AF2218
:103464007890E2541FF2E244A0F27892E4F208F277
:0434740053A8DF2258
:03001E00022DBBF5
:102DBB00C0E0C0F0C083C082C0D075D000C000C0DE
:102DCB0004C005C006C0077891E230E71DE24480DD
:102DDB00F290602C120DF8EF2401FFE43EFEE43D6F
:102DEB00FDE43CFC90602C120E20D007D006D005E1
:0F2DFB00D004D000D0D0D082D083D0F0D0E0323E
:07219C004464BE00000000D6
:10308F00E5B154CF42B153A8BFD2AF789EE4F20856
:10309F00F2789CE254E3F2E2441CF2E254FCF2E2D6
:1030AF004401F208E2547FF2E24420F278A1E4F204
:0F30BF00187424F2789CE2541FF2E244A0F2222B
:1034DF00789CE2541FF2E244C0F243A840D2AF22DC
:10347800789CE2541FF2E244A0F2789EE4F208F24B
:0434880053A8BF2264
:03002100022E0AA2
:102E0A00C0E0C0F0C083C082C0D075D000C000C08E
:102E1A0004C005C006C007789DE230E71DE2448081
:102E2A00F29064BE120DF8EF2401FFE43EFEE43D89
:102E3A00FDE43CFC9064BE120E20D007D006D005FB
:0F2E4A00D004D000D0D0D082D083D0F0D0E032EE
:0721A3004464C200000000CB
:102F8100E5B254FC42B253A9FED2AF907102E4F013
:102F9100A3F0907100E054E3F0E0441CF0E054FC35
:102FA100F0E04401F0A3E0547FF0E04420F09071A0
:102FB10005E4F09071047424F0907100E0541FF066
:052FC100E044A0F02235
:10348C00907100E0541FF0E044C0F043A901D2AFAA
:01349C00220D
:10340C00907100E0541FF0E044A0F0907102E4F0E1
:06341C00A3F053A9FE22FB
:03002400022D1B8F
:102D1B00C0E0C0F0C083C082C0D075D000C000C07E
:102D2B0004C005C006C007907101E030E71DE04408
:102D3B0080F09064C2120DF8EF2401FFE43EFEE434
:102D4B003DFDE43CFC9064C2120E20D007D006D0AF
:102D5B0005D004D000D0D0D082D083D0F0D0E032D8
:0721AA004464C600000000C0
:102EF500E5B254F342B253A9FDD2AF90710AE4F0A2
:102F0500A3F0907108E054E3F0E0441CF0E054FCB9
:102F1500F0E04401F0A3E0547FF0E04420F090712C
:102F25000D7401F090710C7476F0907108E0541FE7
:062F3500F0E044A0F022D0
:10349D00907108E0541FF0E044C0F043A902D2AF90
:0134AD0022FC
:10342200907108E0541FF0E044A0F090710AE4F0BB
:06343200A3F053A9FD22E6
:03002700022D6B3C
:102D6B00C0E0C0F0C083C082C0D075D000C000C02E
:102D7B0004C005C006C007907109E030E71DE044B0
:102D8B0080F09064C6120DF8EF2401FFE43EFEE4E0
:102D9B003DFDE43CFC9064C6120E20D007D006D05B
:102DAB0005D004D000D0D0D082D083D0F0D0E03288
:0721B1004464CA00000000B5
:1033F40043A90475D11075E67F75E7BB75DA1C75B2
:08340400DF2075DE01D2AF22CA
:03002A00022EA8FB
:102EA800C0E0C0F0C083C082C0D075D000C000C0F0
:102EB80004C005C006C007E5EE30E51C43E22090DB
:102EC80064CA120DF8EF2401FFE43EFEE43DFDE480
:102ED8003CFC9064CA120E20D007D006D005D0045E
:0D2EE800D000D0D0D082D083D0F0D0E03226
:102B5300726563762074696D65206F757421200A30
:102B630000666F726D6174206C656E20696E7661AC
:102B73006C6964210A00256420202564200A007200
:102B830065637620637263206F72206C656E2065C7
:102B9300727221200A0025327820000A3D3D3D3D16
:102BA3003D3D3D3D3D3D3D3D3D3D3D3D3D3D3D3D52
:082BB3003D3D3D3D3D3D0A00A2
:1021B8005E645E00000000000000000000000000F7
:1021C8000000000000000000000000000000000007
:1021D8000043647C00000043648000000043648482
:1021E800000000C11E41647F0041645900416483BE
:0821F8000044645A00000000DD
:0E004E00906451EFF012357E906451E0FF2275
:1032470078D2E2F2E24404F2907187E04404F0900D
:103257007175E0440BF043AA20D2AF75D60175D53E
:053267009F75D2112249
:03004B00021DB1E2
:101DB100C0E0C0F0C083C082C0D075D000C000C0F8
:0D1DC10001C002C003C004C005C006C00779
:101DCE00906452E4F0E5D420E503021F0DE5D7F050
:101DDE00201E04E0B4A509906483E0C3940340037D
:101DEE00021F00906452E0B4A51BD21E906459E409
:101DFE00F090647FF012346490602C120E2C000070
:101E0E0000001234CF906459E0B40108906452E09F
:101E1E0090647FF090645A120DF874802FF582E46E
:101E2E003464F583E06003021F0D906452E0FF906E
:101E3E00645A120E1490645E75F00AEB120E5DEA8F
:101E4E0075F00AA42583F583C083C082906459E09F
:101E5E00FE04F0D082D083E5822EF582E43583F540
:101E6E0083EFF090602C120E2C0000000090647F27
:101E7E00E07003021F0DE0FF906459E06F600302F3
:101E8E001F0D90647FE0FB90645A120DF8747C2F46
:101E9E00F582E43464F583EBF0C21E906459E4F0ED
:101EAE0090647FF090645A120DF874802FF582E4DE
:101EBE003464F5837401F0906483E004F090645A06
:101ECE00120DF8EF2401FFE43EFEE43DFDE43CFC80
:101EDE0090645A120E20E47F03FEFDFC90645A12A9
:101EEE000E14C3120DC1400A90645A120E2C00003B
:0F1EFE00000012346490602C120E2C00000000C3
:101F0D00D007D006D005D004D003D002D001D00028
:0B1F1D00D0D0D082D083D0F0D0E032D2
:0D357E00E5D430E4FB8FD7E5D430E4FB2228
:06326C009064DA120E89E5
:10327200E4FEEEC39D50159064DA120E698E8275DB
:0C3282008300120BF6FF12357E0E80E672
:01328E00221D
:10186200E4906424F0A3F0C2127F0AFEFDFC9060B3
:101872002C120E14D3120DC1402112346490602C2C
:10188200120E2C00000000E4906459F090647FF086
:10189200C21E7BFF7A2B79530205A4E4906424F0E4
:1018A200906424E0FFC394034003021A4274802F21
:1018B200F582E43464F583E07003021A39906424FB
:1018C200E075F00AA4245FF582E43464F583E0FE57
:1018D200747C2FF582E43464F583E06E70030219A0
:1018E200637BFF7A2B79641205A47BFF7A2B7979CB
:1018F200906424E0247CF582E43464F583E0FFE420
:10190200FCFDFE90642C120E20906424E075F00A17
:10191200A4245FF582E43464F583E0FFE4FCFDFE79
:10192200906430120E201205A4122915906424E04E
:10193200FF2480F582E43464F583E4F0906483E06C
:1019420014F090000AC083C0827D00EF75F00AA4F3
:10195200245EF9746435F0FA7B01D007D006020EDA
:01196200C5BF
:10196300E4906426F0906425F0A3F0906424E0FFF3
:10197300247CF582E43464F583E014FE906426E06D
:10198300FDC39E5026EF75F00AA4245EF582E4346D
:1019930064F583E5822DF582E43583F583E0FF90DA
:1019A3006425E02FF0A3E004F080C0906425E0F00C
:1019B300906424E0FF247CF582E43464F583E0FE44
:1019C300EF75F00AA4245DF582E43464F583E582BF
:1019D3002EF582E43583F583E0FF906425E06F60A4
:0319E30002D2121B
:1019E6003012407BFF7A2B79821205A4C2129064D2
:1019F60024E0FF2480F582E43464F583E4F0906407
:101A060083E014F090000AC083C0827D00EF75F079
:101A16000AA4245EF9746435F0FA7B01D007D00677
:101A2600120EC5906424E02484F582E43464F583C0
:0C1A36007401F0906424E004F00218A297
:011A42002281
:10300B0074842FF582E43464F583E4F0747C2FF53B
:10301B0082E43464F583E4F074802FF582E4346445
:10302B00F583E4F0F58375820AC083C082FDEF75EA
:10303B00F00AA4245EF9746435F0FA7B01D007D052
:04304B0006020EC5A6
:10291500E4906427F0A3F0906427F0906427E0FF2B
:10292500C394035060EF2430FF12357E7F0A1235C1
:102935007EE4A3F0906428E0FFC3940A50367BFF41
:102945007A2B7999906427E075F00AA4245EF582C4
:10295500E43464F583E5822FF582E43583F583E07D
:10296500FF90642CE4F0A3EFF01205A4906428E036
:1029750004F080C07BFF7A2B799E1205A490642712
:05298500E004F0809663
:01298A00222A
:052200004264DD000056
:1032210078E2E244C0F278C2E24403F2E2440CF2F2
:10323100907123E054D8F0E054BFF0E0441EF090C8
:0632410071227407F02267
:1033A500EF24FE600804700E759904800375990575
:0D33B5007869E24448F27F017E000233DCBB
:10328F007869E24401F2786BE230E1FA7402F2AF4E
:10329F0093EF75F010A4FFAEF0E594C4540FFDEF5B
:0332AF004DFF22AE
:102CC900E49064B9F0F09064BA120E14C0001232A4
:102CD9008FE4FCFDD000120C4B9064BA120E2090C8
:102CE90064B9E0C39401400FA3120DF87801120DE5
:102CF900D29064BA120E209064B9E004F0E0C39453
:102D09002040C39064BA120DF89064DDEEF0A3EF91
:012D1900F0C9
:012D1A002296
:103313007F011233A5122CC97FF47E011233DC7FA7
:0E332300021233A5122CC97FF47E010233DCA6
:103176007F011233A5122CC99064DDE0FEA3E0FFA7
:103186007C007D64120E98E47BFF7A0FF9F8120C2E
:0F319600F19064A3EFF0D2037F0A7E000233DCD6
:1034AE0075AF3F8FAF75AEB975A402E5A530E1FBE0
:0134BE0022EB
:10310B00906429120E8975AF3F8FAF90642CE0C38A
:10311B0094014022E5A530E0FB906429E475F001B1
:10312B00120E72120BDDF5A675AEB975A401906483
:07313B002CE014F080D52206
:10314200906425120E89906428E06027AE070FEE86
:103152002400FDE4343F8D82F583E493FE906425E0
:10316200E475F001120E72EE120C23906428E01442
:04317200F080D322F4
:1031A500000009C4006400C80101F4004B000A00D6
:1031B50000010F040506000000640002006400031E
:0E31C500006400090064000A00640019006440
:10164100E4FF74FA2FF582E43463F583E0C3940870
:1016510040030216F274FA2FF582E43463F583E055
:10166100C39404504478C2C000E2FE74FA2FF5829C
:10167100E43463F583E025E0FDF87403088002C3D8
:1016810033D8FCF45ED000F278C2C000E2FE74FAF6
:101691002FF582E43463F583E025E0FDF874030857
:1016A1008002C333D8FC02185478C3C000E2FE7430
:1016B100FA2FF582E43463F583E024FC25E0FDF89C
:1016C1007403088002C333D8FCF45ED000F278C3FF
:1016D100C000E2FE74FA2FF582E43463F583E0245E
:1016E100FC25E0FDF87403088002C333D8FC02181E
:1016F1005474FA2FF582E43463F583E0C3940850FF
:10170100030217B874FA2FF582E43463F583E0C35A
:10171100941040030217B874FA2FF582E43463F58C
:1017210083E0C3940C504878D2C000E2FE74FA2FD3
:10173100F582E43463F583E024F825E0FDF87403D1
:10174100088002C333D8FCF45ED000F278D2C00026
:10175100E2FE74FA2FF582E43463F583E024F82580
:10176100E0FDF87403088002C333D8FC02185478F2
:10177100D3C000E2FE74FA2FF582E43463F583E00E
:1017810024F425E0FDF87403088002C333D8FCF487
:101791005ED000F278D3C000E2FE74FA2FF582E445
:1017A1003463F583E024F425E0FDF8740308800236
:1017B100C333D8FC02185474FA2FF582E43463F56C
:1017C10083E0C39414504778E2C000E2FE74FA2F1C
:1017D100F582E43463F583E024F025E0FDF8740339
:1017E100088002C333D8FCF45ED000F278E2C00076
:1017F100E2FE74FA2FF582E43463F583E024F025E8
:10180100E0FDF87403088002C333D8FC804578E317
:10181100C000E2FE74FA2FF582E43463F583E0241C
:10182100EC25E0FDF87403088002C333D8FCF45EB4
:10183100D000F278E3C000E2FE74FA2FF582E434BE
:1018410063F583E024EC25E0FDF87403088002C30E
:1018510033D8FC4ED000F20FEF640660030216434A
:011861002264
:03005D00022FC6A9
:102FC600C0E0C0F0C083C082C0D075D000C000C0D1
:102FD60001C002C003C004C005C006C0077881E274
:102FE60030E607E24440F2122A01D007D006D005A7
:102FF600D004D003D002D001D000D0D0D082D0836C
:05300600D0F0D0E03223
:102E5900D2AF43AB0843B6C0907132E04440F0436F
:102E6900AB087877743FF208744BF2787A7430F2D1
:102E7900788914F27871744FF2187427F2787274A1
:102E8900A8F2087410F208E4F208F208F2787E74E5
:0F2E9900D0F2087404F208741EF2087402F222D8
:03003F00022F3B52
:102F3B00C0E0C0F0C083C082C0D075D000C000C05C
:102F4B0001C002C003C004C005C006C00790715386
:102F5B00E030E707E04480F0120018D007D006D02D
:102F6B0005D004D003D002D001D000D0D0D082D075
:062F7B0083D0F0D0E0322B
:1025DF00E4FBEB25E025E024BBF582E43431F58301
:1025EF00740193FF74FA2BF582E43463F583EFF0F3
:1025FF00EB25E025E024BDF582E43431F583E49347
:10260F00FE740193FFEB25E02418F582E43464F5A2
:10261F0083EEF0A3EFF0EB25E024DCF582E43463E6
:10262F00F583E4F0A37441F0E47F01FEFDFC74FA3E
:10263F002BF582E43463F583E0F9F8120DE5E53FFD
:10264F004FFFE53E4EFEE53D4DFDE53C4C8F3F8E89
:10265F003E8D3DF53C0BEB640660030225E112163F
:07266F0041122544022E591F
:1033C20079656172202564206D6F6E7468202564B2
:0A33D20020646179202564200A00C0
:102AE900E47FE87E03FDFC9064CA120E14C3120D44
:102AF900C140569064CA120DF8C3EF94E8FFEE94F2
:102B090003FEED9400FDEC9400FC9064CA120E20C3
:102B1900906495E0C3943B50028021E4906495F061
:102B2900123438906494E0C3943B5002800EE490D0
:102B39006494F0906493E0C394175004E004F02285
:0A2B4900E4906493F0A3F0A3F022DF
:10298B001223A175D9DD75D95590715EE054FEF017
:10299B0075D9BB1232D312304F1232471232B212E8
:1029AB00308F1231D31231FA122EF51233F4123456
:1029BB00BFD2831232217BFF7A3379C290648FE0CE
:1029CB00FFA3E090642CCFF0A3EFF0906491E0FFB5
:1029DB0090642EE4F0A3EFF0906492E0FF906430EB
:1029EB00E4F0A3EFF01205A4121862121F281200D4
:0629FB0060122AE980F2DF
:10220500602464870000000000000000000000005A
:1022150000000000000000000000000000000000B9
:082225000000000000000000B1
:1032D3007E007F247D007B017A647987120EC57B93
:1032E300017A647987906428740FF0E4FF02314215
:10343800E4FF1234AE7B017A64798790642C740FB0
:06344800F0E4FF02310B6D
:050F1700906428EFF0DA
:100F1C0090642D120E2C000000007FA512357E90DF
:100F2C00642D120DF8EF24A5FFE43EFEE43DFDE434
:100F3C003CFC90642D120E20906428E0FF6401604C
:100F4C0028EF64026023EF6403601EEF64046019F1
:100F5C00EF64056014EF6406600FEF6409600AEF3C
:100F6C00640A6005EF6411703D7F0512357E906454
:100F7C0028E0FF12357E906429120DF812357E9010
:100F8C00642D120E14C000906429120DF87E00908E
:100F9C006428E02405FDE433CD2FFFEE3DFE3395B0
:100FAC00E0FDFC021177906428E0FF64076014EF09
:100FBC006408600FEF640C600AEF640D6005EF6469
:100FCC001070647F0612357E906428E0FF12357E27
:100FDC00906429120DF87808120DD212357E9064A7
:100FEC0029120DF812357E90642D120E14C000C01B
:100FFC0002C003906429120DF87808120DD27E00FD
:10100C00906428E02406FDE433CD2FFBEE3DFAA3DB
:10101C00120DF87E00EB2FFFEE3AFE3395E0FDFC4F
:10102C00D003D002021177906428E0FF640B6008B3
:10103C00EF640F60030210C97F0712357E9064289D
:10104C00E0FF12357E906429120DF87810120DD243
:10105C0012357E906429120DF87808120DD21235D3
:10106C007E906429120DF812357E90642D120E14A8
:10107C00C000C002C003906429120DF87810120D44
:10108C00D27E00906428E02407FDE433CD2FFBEEE4
:10109C003DFAA3120DF87808120DD27E00EB2FFB4F
:1010AC00EE3AFA906429120DF87E00EB2FFFEE3A1F
:1010BC00FE3395E0FDFCD003D0020211779064283A
:1010CC00E0640E60030211827F0812357E90642862
:1010DC00E0FF12357E906429120DF87818120DD2AB
:1010EC0012357E906429120DF87810120DD212353B
:1010FC007E906429120DF87808120DD212357E906C
:10110C006429120DF812357E90642D120E14C00055
:10111C00C002C003906429120DF87818120DD27E0B
:10112C0000906428E02408FDE433CD2FFBEE3DFA5B
:10113C00A3120DF87810120DD27E00EB2FFBEE3AB5
:10114C00FA906429120DF87808120DD27E00EB2F5C
:10115C00FBEE3AFA906429120DF87E00EB2FFFEEAD
:10116C003AFE3395E0FDFCD003D002D000120C4BBC
:10117C0090642D120E2090642D120DF8E4FEFDFCEF
:10118C0090642D120E2090642D120DF812357E7F76
:06119C000A7E000233DCB4
:1032B20012353012353D12354A1235571235711218
:1032C20035641235231235161235091234FC0234D4
:0132D200EF0C
:10247D0020A30C9064A4E07011D20404F0800B90A2
:10248D0064A4E0B40104E4F0D20420A5099064A58D
:10249D00E0700E0480089064A5E0B40104E4F0D26D
:1024AD001020A2099064A6E0700E0480089064A626
:1024BD00E0B40104E4F0D20E20A1099064A7E0700D
:1024CD000E0480089064A7E0B40104E4F0D2092062
:1024DD0086099064A2E0605EE4805820870C9064C9
:1024ED00A2E0640160507401804920900C9064A2B8
:1024FD00E0640260417402803A20930C9064A2E083
:10250D00640360327403802B20940C9064A2E06409
:10251D000460237404801C20A70C9064A2E0640561
:10252D0060147405800D20B00D9064A2E064066007
:07253D00057406F0D20A222A
:10222D004464B1000000004464B500000000446443
:0D223D00AB000000004164AF004164B00040
:1031D300E5B854F342B843A802D2AF78C2E254CF61
:1031E300F218E24404F278C7E24404F278C4E254E9
:0731F300CFF2E24420F222BA
:1022A4009064CE120E2C00000000E47FE87E03FD53
:1022B400FC9064C2120E14C3120DC150030223A079
:1022C4009064C2120E2C00000000E47F037E07FD20
:1022D400FC9064B1120E14120C66E47B10FAF9F847
:1022E400120CF19064CE120E209064B5120DF89089
:1022F40064CE120E14120C4B9064B5120E2090642E
:10230400CE120DF8E47B407A38F9F8120C6690642A
:10231400CE120E209064CE120DF87B407A42790FD3
:102324007800120CF19064CE120E209064B1120E5B
:102334002C000000009064AB120DF89064CE120ED5
:1023440014D3120DC14012E49064B0F09064AFE075
:1023540004F0E0940A404580219064AB120DF8909B
:1023640064CE120E14C3120DC1502AE49064AFF06F
:10237400A3E004F0E0C3940A40229064CE120DF866
:102384009064AB120E209064CE120DF890649A12F1
:0C2394000E20D20822E49064AFF0A3F009
:0123A000221A
:03001200022C1DA0
:102C1D00C0E0C0F0C083C082C0D075D000C000C07D
:092C2D0003C004C005C006C00785
:102C360078C6E2FB30E2199064B1120DF8EF240178
:102C4600FFE43EFEE43DFDE43CFC9064B1120E2040
:062C5600AF0378C6EBF2AB
:102C5C00D007D006D005D004D003D000D0D0D0827D
:072C6C00D083D0F0D0E0326C
:10344E00656E67696E6520737065656420256C75A1
:06345E002072706D0A00EF
:07224A004464D6000000000F
:1031FA00E5B854CF42B843A804D2AF78D2E254CF4C
:10320A00F218E24404F278D7E24404F278D4E254A1
:07321A00CFF2E24420F22292
:102A76009064D2120E2C00000000E47FC47E09FD93
:102A8600FC9064BE120E14C3120DC14055E47FF0D3
:102A9600FEFDFC9064D6120E14120C66E47B10FA4E
:102AA600F9F8120CF19064D2120E209064BE120E48
:102AB6002C000000009064D6120E2C00000000903E
:102AC60064D2120DF8906496120E207BFF7A347948
:102AD6004E9064D2120DF890642C120E201205A4AA
:022AE600D2011B
:012AE80022CB
:03001500022C7347
:102C7300C0E0C0F0C083C082C0D075D000C000C027
:092C830003C004C005C006C0072F
:102C8C0078D6E2FB30E2199064D6120DF8EF2401ED
:102C9C00FFE43EFEE43DFDE43CFC9064D6120E20C5
:062CAC00AF0378D6EBF245
:102CB200D007D006D005D004D003D000D0D0D08227
:072CC200D083D0F0D0E03216
:102251004460240000000044602800000000C11F09
:10208200201F0FD21F9064C6120E2C0000000012F7
:10209200349DE47F307E75FDFC9064C6120E14C33D
:1020A200120DC1400D9064C6120E2C0000000012E9
:1020B2003438E47FE87E03FDFC9064B5120E14C34D
:1020C200120DC1407B906487120E14C000C001C083
:1020D20002C003E47BE87A03F9F89064B5120DF8C4
:1020E200120CF1D003D002D001D000120C4B90643C
:1020F20087120E2090648B120E14C000C001C00221
:10210200C003E47BE87A03F9F89064B5120DF81283
:102112000CF1D003D002D001D000120C4B90648B92
:10212200120E209064B5120DF8C3EF94E8FFEE94FE
:1021320003FEED9400FDEC9400FC9064B5120E20B9
:10214200906024120E14906487120DF8120C58E459
:102152007B64FAF9F8C3120DC1500E906487120D18
:10216200F8906024120E20D200906028120E149073
:10217200648B120DF8120C58E47B64FAF9F8C3125E
:102182000DC1500E90648B120DF8906028120E2033
:02219200D20673
:012194002228
:1013F40020666C61675F6765745F616C6C5F7374B2
:10140400617475730A0020666C61675F6765745F59
:10141400676561720A0020666C61675F6765745F67
:10142400626174746572790A0020666C61675F6733
:1014340065745F6272616B650A0020666C61675F48
:101444006765745F6C6566745F7475726E0A0020FC
:10145400666C61675F6765745F72696768745F74FF
:1014640075726E0A0020666C61675F6765745F68F9
:101474006967685F6265616D0A0020666C61675F19
:101484006765745F656E67696E655F7370656564D3
:10149400200A002063757220656E67696E6520738B
:1014A400706565642025752072706D200020666C5F
:1014B40061675F6765745F7370656564200A002007
:1014C400666C61675F6765745F6675656C200A00AA
:1014D40020666C61675F6765745F746F74616C5FCD
:1014E4006D696C65616765200A00206375722074FC
:1014F4006F74616C206D696C6561676520256C751E
:10150400202F302E316B6D200A0020666C61675FDE
:101514006765745F7375625F746F74616C5F6D6926
:101524006C65616765200A002063757220737562BB
:10153400746F74616C206D696C6561676520256CDE
:1015440075202F302E316B6D200A0020666C616788
:101554005F616C7465725F64617465200A0079650B
:101564006172202564206D6F6E7468202564206488
:101574006179202564200A0020666C61675F616CD4
:101584007465725F74696D65200A00686F757220F6
:101594002564206D696E20256420736563202564AD
:1015A400200A0020666C61675F6765745F766F6C04
:1015B400746167655F6F665F6261747465727920D8
:1015C4000A002063757220766F6C74616765206F02
:1015D400662062617474657279202575200A002082
:1015E400666C61675F7365745F74656D705F6F6669
:1015F4005F77617465725F7761726E696E67200AE6
:101604000020666C61675F636C6561725F746F7400
:10161400616C5F6D696C65616765200A0020666CAA
:1016240061675F636C6561725F7375625F746F7429
:0D163400616C5F6D696C65616765200A007F
:10226100C10DC10AC103C104C110C10EC109C1011F
:10227100C108C10CC100C106C102C105C107C1111C
:04228100C10BC10FBD
:101F2800E4906424F0F0906424E0FFC39403400339
:101F380002208174842FF582E43464F583E0700311
:101F4800022078906424E0FD75F00AA42460F582EC
:101F5800E43464F583E024D2601C14607424FD70BA
:101F68000302201D147003022021241360030220A1
:101F780023D20D022023D202ED75F00AA42461F5C4
:101F880082E43464F583E0FEED75F00AA42462F57A
:101F980082E43464F583E07C002400FFEC3E906426
:101FA8008FF0A3EFF0906424E0FF75F00AA4246397
:101FB800F582E43464F583E0906491F0EF75F00AFB
:101FC800A42464F582E43464F583E0906492F0809C
:101FD8004AD205906424E0FF75F00AA42461F582D2
:101FE800E43464F583E0906493F0EF75F00AA42478
:101FF80062F582E43464F583E0906494F09064249C
:10200800E075F00AA42463F582E43464F583E09073
:102018006495F08006D20B8002D20F906483E0D3DF
:1020280094004003E014F0906424E0FF2484F582D7
:10203800E43464F583E4F0747C2FF582E43464F5C9
:1020480083E4F074802FF582E43464F583E4F0FED1
:102058007F0AC006C007FD906424E075F00AA42436
:102068005EF9746435F0FA7B01D007D006120EC50C
:09207800906424E004F0021F2E24
:01208100223C
:06006000200D0302024F17
:10006600906424120E2C00000000C20D7BFF7A1350
:1000760079F41205A49064A2E0FFE4FCFDFE90640E
:1000860029120E207F01120F179064A3E0FFE4FCF3
:10009600FDFE906429120E207F02120F179064A4B1
:1000A600E0FFE4FCFDFE906429120E207F03120F90
:1000B600179064A5E0FFE4FCFDFE906429120E2073
:1000C6007F04120F179064A6E0FFE4FCFDFE906427
:1000D60029120E207F05120F179064A7E0FFE4FC9B
:1000E600FDFE906429120E207F06120F179064966B
:1000F600120DF8906429120E207F07120F179064D4
:100106009A120DF8906429120E207F08120F17908C
:1001160064A8E0FFE4FCFDFE906429120E207F092E
:10012600120F179064A9E0FFE4FCFDFE906429120B
:100136000E207F0A120F17E47B64FAF9F8906487A1
:10014600120DF8120CF1906429120E207F0B120F7B
:1001560017E47B64FAF9F890648B120DF8120CF12F
:10016600906429120E207F0C120F1790648FE0FE08
:10017600A3E0FFE4FCFD7810120DE5C004C005C045
:1001860006C007906491E0FFE4FCFDFE7808120DBE
:10019600E5D003D002D001D000120D83A804A90532
:1001A600AA06AB07A3E0FFE4FCFDFE120D839064F4
:1001B60024120E20906424120DF8906429120E2049
:1001C6007F0E120F17906494E0FFE4FCFDFE7808A2
:1001D600120DE5C004C005C006C007906493E0FF99
:1001E600E4FCFDFE7810120DE5D003D002D001D05C
:1001F60000120D83A804A905AA06AB07906495E032
:10020600FFE4FCFDFE120D83906424120E20906420
:1002160024120DF8906429120E207F0F120F1790EA
:1002260064A0E0FEA3E0FFE4FCFD906429120E202A
:100236007F10120F179064AAE0FFE4FCFDFE9064A5
:0902460029120E207F11120F177E
:10024F00300A1FC20A7BFF7A14790A1205A4906440
:10025F00A2E0FFE4FCFDFE906429120E207F011244
:10026F000F1730031FC2037BFF7A14791A1205A4EC
:10027F009064A3E0FFE4FCFDFE906429120E207F42
:10028F0002120F1730041FC2047BFF7A14792D124C
:10029F0005A49064A4E0FFE4FCFDFE906429120E17
:1002AF00207F03120F1730101FC2107BFF7A1479B3
:1002BF003E1205A49064A5E0FFE4FCFDFE906429C6
:1002CF00120E207F04120F17300E1FC20E7BFF7A03
:1002DF001479531205A49064A6E0FFE4FCFDFE9090
:1002EF006429120E207F05120F1730091FC2097BD8
:1002FF00FF7A1479691205A49064A7E0FFE4FCFD6E
:10030F00FE906429120E207F06120F17300133C2A0
:10031F00017BFF7A14797E1205A47BFF7A147997FB
:10032F00906496120DF890642CEEF0A3EFF0120586
:10033F00A4906496120DF8906429120E207F071274
:10034F000F1730081CC2087BFF7A1479B11205A46D
:10035F0090649A120DF8906429120E207F08120FE4
:10036F0017300C1FC20C7BFF7A1479C31205A490AF
:10037F0064A8E0FFE4FCFDFE906429120E207F09C3
:10038F00120F1730003AC2007BFF7A1479D412058E
:10039F00A47BFF7A1479EE906487120DF890642C89
:1003AF00120E201205A4E47B64FAF9F89064871208
:1003BF000DF8120CF1906429120E207F0B120F17FB
:1003CF0030063AC2067BFF7A15790E1205A47BFF21
:1003DF007A15792C90648B120DF890642C120E20E4
:1003EF001205A4E47B64FAF9F890648B120DF812ED
:1003FF000CF1906429120E207F0C120F173002405F
:10040F00C2027BFF7A15794F1205A47BFF7A15790B
:10041F006290648FE0FFA3E090642CCFF0A3EFF025
:10042F00906491E0FF90642EE4F0A3EFF09064925B
:10043F00E0FF906430E4F0A3EFF01205A41234381B
:10044F0030053EC2057BFF7A15797C1205A47BFF30
:10045F007A15798F906493E0FF90642CE4F0A3EF0A
:10046F00F0906494E0FF90642EE4F0A3EFF09064BA
:10047F0095E0FF906430E4F0A3EFF01205A412347E
:10048F0038300739C2077BFF7A1579A71205A47B8D
:10049F00FF7A1579C69064A0E0FFA3E090642CCF9B
:1004AF00F0A3EFF01205A49064A0E0FEA3E0FFE438
:1004BF00FCFD906429120E207F10120F1730111FB0
:1004CF00C2117BFF7A1579E31205A49064AAE0FFAD
:1004DF00E4FCFDFE906429120E207F11120F1730DD
:1004EF000B22C20B906487120E2C00000000906448
:1004FF00B5120E2C000000001234387BFF7A1679EB
:10050F00051205A4300F22C20F90648B120E2C001F
:10051F000000009064B5120E2C0000000012343859
:0A052F007BFF7A1679211205A42241
:1022850041604801426049000041604B0041604C9B
:0E2295000041604D0041604E7F42604FFFFFF0
:1030CE00E4F561AE3EAD3DAC3C853F178E168D15D9
:1030DE008C14787EE254FCF2E24514F218E515F2F7
:1030EE0018E516F218E517F2787FE254FBF2E25477
:0D30FE00FB4404F2E24401F27F0102279539
:1011A2009064E1EFF0E0FF24E8F582E43463F58334
:1011B200E004F074F42FF582E43463F583E4F07410
:1011C200E82FF582E43463F583E0C39563500302AC
:1011D20013F39064E1E0FB24E8F582E43463F583E1
:1011E200E4F09031B693640160030213A47F01FE20
:1011F200FDFC74FA2BF582E43463F583E0F9F8120E
:101202000DE5E51F4FF51FE51E4EF51EE51D4DF5DB
:101212001DE51C4CF51CAF1FAE1EAD1DFC78011266
:101222000DD2EF5455FBEE5455FAED5455F9EC54EA
:1012320055F8C3E51F9BF53BE51E9AF53AE51D9966
:10124200F539E51C98F538AF3BAE3AAD39FC78027A
:10125200120DD2EF5433FBEE5433FAED5433F9EC62
:101262005433F8E53B5433FFE53A5433FEE5395441
:1012720033FDE5385433FCEB2FF53BEA3EF53AE912
:101282003DF539E83CF538AF3BAE3AAD39FC780470
:10129200120DD2EF253BFFEE353AFEED3539FDEC6E
:1012A2003538FCEF540FF53BEE540FF53AED540F81
:1012B200F539EC540FF538AF3BAE3AAD39FC78084E
:1012C200120DD2EF253BFFEE353AED3539FDEC3507
:1012D20038EFF53BE4F53AEDF539E4F538AE3AACE2
:1012E200387810120DD2EF253BFFEE353AFEEFF5BE
:1012F2003BEEF53AE4F539F5389064E1E025E02477
:1013020000F582E43464F583E0FEA3E0D39553EE66
:10131200955240249064E1E0FF25E02400F582E448
:101322003464F583E0F552A3E0F55374FA2FF582A5
:10133200E43463F583E0F5649031B6E493FFE4FCB2
:10134200FDFEAB3BAA3AA939A838D3120DC14052CF
:10135200AF650565D3EF9403748094805003021344
:10136200F3E4F565F51FF51EF51DF51C7F01FEFD85
:10137200FCA964A801120DE58F1B8E1A8D198C1819
:10138200E47F01FEFDFCA801120DE58F338E328D44
:10139200318C30E4F552F553756420122819433725
:1013A2000222E4F5657F01FEFDFC9064E1E0FB248E
:1013B200FAF582E43463F583E0F9F8120DE5E51BF2
:1013C2004FF51BE51A4EF51AE5194DF519E5184CBE
:1013D200F518E47F01FEFDFCA803120DE5E5334F8D
:1013E200F533E5324EF532E5314DF531E5304CF568
:0213F2003022A7
:10089E00E4F5669031BAE493FFE566C39F40030228
:1008AE000BDCE56625E02400F582E4346085828A5F
:1008BE007F548F8B7E0E8E8C758903758889E566C5
:1008CE0025E02400F582E4346085828A8F8B758C56
:1008DE0012758904758889E56625E02418F582E489
:1008EE003460F583E0FCA3E0C3950FEC950E502E1B
:1008FE00E56625E0243CF582E43460F583E0FCA354
:10090E00E0C39513EC95125015AF600560EF94029D
:10091E0074809480400BE4F5605337FD8003E4F55A
:10092E0060E53730E125E56625E02400F582E43404
:10093E0064F583E4F0A3F0E56625E0240CF582E48B
:10094E003464F583E4F0A3F00209ECE56625E024B7
:10095E0018F582E4346085828A8E8B758C0A7589CF
:10096E00267588892088FDE5F130E00875F107E4E9
:10097E00F50AF50BAE0AE50B7802C333CE33CED8AB
:10098E00F9FFE56625E02400F582E43464F583EE94
:10099E00F0A3EFF0E56625E0243CF582E4346085B3
:1009AE00828A758B12758C0A7589277588892088BD
:1009BE00FDE5F130E00875F107E4F50AF50BAE0A36
:1009CE00E50B7802C333CE33CED8F9FFE56625E0CA
:1009DE00240CF582E43464F583EEF0A3EFF0E566C3
:1009EE0025E02418F582E43464F583E0FEA3E07874
:1009FE0002CEC313CE13D8F9F5518E50E56625E01D
:100A0E002400F582E43464F583E0FEA3E0FF903128
:100A1E00B2E493FC740193FDC3EF9DEE9C4017E589
:100A2E006625E0240CF582E43464F583E0FEA3E051
:100A3E00C39DEE9C50028068E56625E02400F58299
:100A4E00E43464F583E0FEA3E0C39551EE95504087
:100A5E001CE56625E0240CF582E43464F583E0FEA3
:100A6E00A3E0C39551EE95504003020AF874EE25AB
:100A7E0066F582E43463F583E004F074EE2566F5E2
:100A8E0082E43463F583E0FF9031B7E493FEEFD355
:100A9E009E406474EE2566F582E43463F583E4F0DB
:100AAE00E56625E0240CF582E43460F583E0FEA3D0
:100ABE00E0FFE56625E02418F582E43460F583EE68
:100ACE00F0A3EFF0E56625E02430F582E43460F51E
:100ADE0083E0FEA3E0FFE56625E0243CF582E434E6
:100AEE0060F583EEF0A3EFF0800D74EE2566F582CF
:100AFE00E43463F583E4F0E56625E0240CF582E446
:100B0E00346085828AE56625E02400F582E434604F
:100B1E0085828B758C0A7589207588CB2088FDE5BA
:100B2E00F130E00875F107E4F50AF50BE56625E00E
:100B3E00240CF582E4346085828A758B547F0E8F87
:100B4E008C7589237588897E0A8E8A8F8BE566253A
:100B5E00E0240CF582E4346085828CE4F589758896
:100B6E0029E56625E02430F582E4346085828AE545
:100B7E006625E02400F582E4346085828B8E8C75C8
:100B8E0089207588CB2088FDE5F130E00875F107E6
:100B9E00E4F50AF50BE56625E02430F582E43460D1
:100BAE0085828A758B547F0E8F8C75892475888902
:100BBE00758A0A8F8BE56625E02430F582E4346071
:0F0BCE0085828CE4F58975882905660208A122C5
:101A4300E4F5669031BAE493FFE566C39F40030271
:101A53001BFBE56625E02418F582E43464F583E096
:101A6300FEA3E07802CEC313CE13D8F9F5518E50FE
:101A7300E56625E02400F582E43464F583E0FEA303
:101A8300E0D39551EE9550402EE56625E0240CF504
:101A930082E43464F583E0FEA3E0D39551EE9550E0
:101AA300401574F42566F582E43463F583E4F0AFFE
:101AB300661211A2021BF69031B9E493FFC3E551FC
:101AC3009FFFE5509400FED3EF9400EE9400400294
:101AD30080047E007F00E56625E02400F582E4347F
:101AE30064F583E0FCA3E0C39FEC9E4003021BE983
:101AF3009031B9E493FFC3E5519FFFE5509400FE95
:101B0300D3EF9400EE9400400280047E007F00E552
:101B13006625E0240CF582E43464F583E0FCA3E05D
:101B2300C39FEC9E4003021BE974E82566F582E43B
:101B33003463F583E4F074F42566F582E43463F5E5
:101B430083E004F074F42566F582E43463F583E0FE
:101B5300C395635003021BF674F42566F582E434DF
:101B630063F583E4F07F01FEFDFC74FA2566F582DC
:101B7300E43463F583E0F9F8120DE5120D90E51FE7
:101B83005FF51FE51E5EF51EE51D5DF51DE51C5C9D
:101B9300F51CE47F01FEFDFCA966A801120DE51208
:101BA3000D90E5335FF533E5325EF532E5315DF5F2
:101BB30031E5305CF530E47F01FEFDFC74FA256607
:101BC300F582E43463F583E0F9F8120DE5120D9024
:101BD300E51B5FF51BE51A5EF51AE5195DF519E5D9
:101BE300185CF518800D74F42566F582E43463F50A
:091BF30083E4F00566021A4622A3
:10281900E4F5669031BAE493FFE566C39F506EE52F
:102829006625E02400F582E43464F583E4F0A3F03E
:10283900E56625E0240CF582E43464F583E4F0A32D
:10284900F0E56625E0240CF582E43460F583E0FECA
:10285900A3E0FFE56625E02418F582E43460F583FA
:10286900EEF0A3EFF0E56625E02430F582E434606C
:10287900F583E0FEA3E0FFE56625E0243CF582E46C
:0E2889003460F583EEF0A3EFF0056680862242
:10267600E4F5669031BAE493FFE566C39F50679030
:102686006048E0FF7E00C39410748094805053EF3E
:102696009408748094804025E56625E02400F58240
:1026A600E43460F583E0FEA3E0FFE56625E0240C54
:1026B600F582E43460F583EE8FF0120C35E566257D
:1026C600E02400F582E43460F583E0FEA3E0FFE554
:1026D6006625E02430F582E43460F583EE8FF0124F
:1026E6000C350566808D906048E0C3941074809424
:1026F6008040054337048006906048E004F07F017F
:0327060002279512
:10289700E4FFFEFDFCAB1BAA1AA919A818C3120D69
:1028A700C1606390604AE004F07006906049E004FC
:1028B700F09031AEE493FE740193FF4E602ED390F7
:1028C700604AE09F906049E09E4021E4F0A3F0F564
:1028D7001FF51EF51DF51CF533F532F531F530F50D
:1028E7001BF51AF519F518C21D0228199031B0E425
:1028F70093FE740193FFD390604AE09F906049E094
:0D2907009E400AD21D22E4906049F0A3F02A
:0129140022A0
:051BFC00906454EFF0BD
:101C0100A3E0FCA3E0FDA3E0FEA3E0F54C8E4B8D29
:101C11004A8C497884E2F50A08E2F50B758A087561
:101C21008B49758C4575881D2088FDE4FFFEFDFC00
:101C3100AB48AA47A946A845D3120DAB4006AC450F
:101C4100A8048013AF48AE47AD46AC45120D9DAB1D
:101C510007AA06A905A80490604FE0FEA3E0FFE4EF
:101C6100FCFDC3120DAB5041E4FFFEFDFCAB48AAE5
:101C710047A946A845120DAB4006AF48AE47800BB9
:101C8100AF48AE47AD46AC45120D9D90604FEEF0AA
:101C9100A3EFF0906454E025E024DCF582E43463A2
:101CA100F583E0A3E090604EF09031ABE493FE74D5
:101CB1000193FFD3906050E09F90604FE09E501BD6
:101CC100906454E025E024DCF582E43463F583E09C
:101CD100A3E090604EF090604B8079E4FFFEFDFC44
:101CE100AB48AA47A946A845D3120DAB403490642E
:101CF10054E0FF25E024DCF582E43463F583E0FC65
:101D0100A3E0D39400EC9400404DEF25E024DCF5F2
:101D110082E43463F58374FFF5F0120C3590604C66
:101D21008032906454E0FF25E024DCF582E43463E2
:101D3100F583E0FCA3E0C3947FEC94005019EF25F8
:101D4100E024DCF582E43463F583E475F001120CE0
:101D51003590604D7401F090604CE064017011A306
:101D6100E06401700B90604CF0A3F090604B04F0C4
:101D710090604BE06401703590604EE0FF906454D8
:101D8100E025E024DCF582E43463F583E4F0A3EF9D
:101D9100F074FF90604FF0A3F090604E747FF0E418
:0F1DA10090604CF0A3F090604BF07F01227F0028
:011DB0002210
:102BBB00E4906453F09031A5120E047801120DE5E8
:102BCB00906455120E20AF61121BFCEF6022056161
:102BDB00E53730E4095337EF9064537401F09031CB
:102BEB00BAE493FFE561C39F4006E4F561433710F8
:102BFB00C39031A97401939562E4939400400890BB
:102C0B006453E064017005D21C0230CEE4FF12273E
:012C1B009523
:012C1C002295
:10279500EF70607F01FEFDFC74FA2561F582E4347B
:1027A50063F583E0F9F8120DE58F178E168D158CFC
:1027B50014787EE254FCF2E24514F218E515F2189D
:1027C500E516F218E517F2E56125E024DCF582E46B
:1027D5003463F583E0A3E0547FFF7878E254804FBB
:1027E500F2787FE254FBF2E254FB4404F2E2440146
:1027F500F2801CE56125E024DCF582E43463F58391
:10280500E0A3E0547FFF7878E254804FF2787FE2CE
:042815004402F22265
:10254400E49064DFF0A3F09064DFE0FEA3E0FFC357
:102554009488EE94035031EF249EFFEE34088F826A
:10256400F583E493FF9064E0E02451FD9064DFE0A0
:1025740034608D82F583EFF09064E0E004F070C77E
:082584009064DFE004F080BF69
:10258C009063D97401F0A37460F0A37451F0E4F576
:10259C0061F537F536F535F534C21CC21DF51FF55E
:1025AC001EF51DF51CF533F532F531F530F51BF53F
:1025BC001AF519F5189031B493FF9031B8E493FEE5
:1025CC00A807088002C333D8FCF563756420E4FFC8
:0325DC000227953E
:102A01007884E2F50A08E2F50BAE0A7803CEC31327
:102A1100CE13D8F97802C333CE33CED8F9FFE561AE
:102A210025E02400F582E43460F583EEF0A3EFF0B5
:102A3100201C0F9031ADE4937005D21C0230CE0200
:102A41002BBB05619031BAE493FFE561C39F401F41
:102A5100787FE254FBF2E254FB4404F2E24401F2D7
:102A6100E4F561E53720E203022676433701227F50
:052A710001122795226F
:050018000562022897BB
:1032F300E53730E01A9063D9A3E0FAA3E0F9120EA0
:1033030092121A43E4F5617F011227955337FE2287
:1027150002298BE493A3F8E493A34003F68001F226
:1027250008DFF48029E493A3F85407240CC8C333C5
:10273500C4540F4420C8834004F456800146F6DF94
:10274500E4800B0102040810204080902195E47E6E
:10275500019360BCA3FF543F30E509541FFEE49389
:10276500A360010ECF54C025E060A840B8E493A350
:10277500FAE493A3F8E493A3C8C582C8CAC583CA7B
:10278500F0A3C8C582C8CAC583CADFE9DEE780BE33
:0122A300003A
:100BDD00BB010689828A83E0225002E722BBFE0216
:090BED00E32289828A83E4932249
:100BF600BB010CE58229F582E5833AF583E02250B4
:100C060006E92582F8E622BBFE06E92582F8E222FD
:0D0C1600E58229F582E5833AF583E4932217
:100C2300BB010689828A83F0225002F722BBFE01B0
:020C3300F322AA
:100C3500C5F0F8A3E028F0C5F0F8E582158270024A
:060C45001583E038F022E7
:0D0C4B00EF2BFFEE3AFEED39FDEC38FC22F8
:0E0C5800C3EF9BFFEE9AFEED99FDEC98FC2297
:100C6600E88FF0A4CC8BF0A42CFCE98EF0A42CFC2D
:100C76008AF0EDA42CFCEA8EF0A4CDA8F08BF0A4AB
:100C86002DCC3825F0FDE98FF0A42CCD35F0FCEB0A
:100C96008EF0A4FEA9F0EB8FF0A4CFC5F02ECD39CF
:0F0CA600FEE43CFCEAA42DCE35F0FDE43CFC223C
:100CB50075F008758200EF2FFFEE33FECD33CDCCF6
:100CC50033CCC58233C5829BED9AEC99E582984079
:100CD5000CF582EE9BFEED9AFDEC99FC0FD5F0D656
:100CE500E4CEFBE4CDFAE4CCF9A88222B800C1B980
:100CF5000059BA002DEC8BF084CFCECDFCE5F0CBBE
:100D0500F97818EF2FFFEE33FEED33FDEC33FCEBF6
:100D150033FB10D703994004EB99FB0FD8E5E4F9B1
:100D2500FA227818EF2FFFEE33FEED33FDEC33FC9E
:100D3500C933C910D7059BE99A4007EC9BFCE99A92
:100D4500F90FD8E0E4C9FAE4CCFB2275F010EF2FD7
:100D5500FFEE33FEED33FDCC33CCC833C810D707D7
:100D65009BEC9AE899400AED9BFDEC9AFCE899F812
:0E0D75000FD5F0DAE4CDFBE4CCFAE4C8F922A5
:0D0D8300EF4BFFEE4AFEED49FDEC48FC226F
:0D0D9000CFF4CFCEF4CECDF4CDCCF4CC22F8
:0E0D9D00C3E49FFFE49EFEE49DFDE49CFC2267
:100DAB00EB9FF5F0EA9E42F0E99D42F0EC6480C8BF
:060DBB0064809845F0225F
:100DC100EB9FF5F0EA9E42F0E99D42F0E89C45F088
:010DD10022FF
:100DD200E8600FECC313FCED13FDEE13FEEF13FFFF
:030DE200D8F12223
:100DE500E8600FEFC333FFEE33FEED33FDEC33FC6C
:030DF500D8F12210
:0C0DF800E0FCA3E0FDA3E0FEA3E0FF226E
:100E0400E493FC740193FD740293FE740393FF2234
:0C0E1400E0F8A3E0F9A3E0FAA3E0FB2261
:0C0E2000ECF0A3EDF0A3EEF0A3EFF02245
:100E2C00A8828583F0D083D082120E43120E431217
:100E3C000E43120E43E473E493A3C583C5F0C5833C
:100E4C00C8C582C8F0A3C583C5F0C583C8C582C810
:010E5C002273
:0C0E5D00A42582F582E5F03583F58322A0
:090E6900E0FBA3E0FAA3E0F9228A
:100E7200F8E0FBA3A3E0F925F0F0E5821582700209
:070E82001583E0FA38F022AD
:090E8900EBF0A3EAF0A3E9F0226A
:060E92008A838982E473EB
:100E9800EC8EF0A4CCC5F0CCCDF8EFA4CEC5F02DE7
:100EA800FDE43CFCE8A42EC8C5F03DFDE43CFCEFA5
:0D0EB800A4FFE5F028FEE43DFDE43CFC2233
:10053900E540242CF582E43464F583E005402290FB
:100549006429301A0390642CE475F001120E7202CA
:100559000BDD2013E97F2ED2138018EF540F24905E
:10056900D43440D4FF30170BEF24BFB41A00500322
:100579002461FFE541600215410544E54470020527
:1005890043301A0E906429E475F001120E72EF02DD
:100599000C2302004E7403D21A8003E4C21AF540F8
:1005A900906429120E89E4F541F543F544E541606B
:1005B900077F2012057C80F57542FFC214C213C261
:1005C90015C216C218C219C21B120548FF700D3098
:1005D9001A057F0012058DAF44AE4322B4255FC2D0
:1005E900D5C217120548FF24D0B40A00501A75F075
:1005F9000A784130D50508B6FF0106C6A426F620BB
:10060900D5047002D21680D924CFB41A00EF500451
:10061900C2E5D21702078ED21480C6D21380C0D287
:100629001580BCD2D580BAD21880B47F2012057C3F
:100639002015077401B5410040F1120539FF120573
:100649007C0205B6D21BD2198095120539FB120519
:1006590039FA120539F94A4B7006795F7A087BFF36
:1006690020152EE541602A7E008E82758300120BCB
:10067900F660060EEE654270F0C2D5EBC0E0EAC046
:10068900E0E9C0E0EE1207D5D0E0F9D0E0FAD0E019
:10069900FB120BDDFF60AAEBC0E0EAC0E0E9C0E0B5
:1006A90012057CD0E02401F9D0E03400FAD0E0FB57
:1006B900E5420460DCD542D980877BFF7A0779D18E
:1006C900D215809C791080027908C219C21B800852
:1006D900D2D5790A8004790AC2D5E542047002F5B7
:1006E90042E4FAFDFEFF120539FC7B0820141312BF
:1006F9000539FD7B1030130A120539FE120539FF41
:100709007B20EC3382D592D55013C3E43013069F76
:10071900FFE49EFEE42014039DFDE49CFCE4CBF879
:10072900C214EC700CCFCECDCCE824F8F870F3806D
:1007390017C3EF33FFEE33FEED33FDEC33FCEB3340
:10074900FB994002FB0FD8E9EB301405F8D0E0C45F
:1007590048B214C0E00AEC4D4E4F78207B0070C2BD
:10076900EAB5420040BCC0E01207D7D0F0D0E02083
:100779001404C4C0E0C4B214C0F0120565D0F0D5A9
:10078900F0EB0205B6120EF106535306CD580624B6
:100799004C06204206D14F06D94406D949063943A9
:0807A90006DF5506C34606C336
:1007B1004506C347087F5006282D062C2E064F2BD1
:1007C100063023064D2008682A05E8480000064740
:1007D1003F3F3F00790AA2D5201614301809B910FD
:1007E100020404B9080104A2D52019025001042011
:1007F10015689215B541005034C0E07F20301619BC
:100801007F30A21572197218500F12082EC215C22C
:1008110019C218C21B7F30800F301803E9C0E012E3
:10082100057C301803D0E0F9D0E0B541CC30181781
:100831007F30B9100C12057C7F583017077F788004
:1008410003B9080312057C3015057F2D02057C7F55
:1008510020201BF87F2B2019F322921580CF286EC0
:10086100756C6C2900D2141205393014F8C2147851
:100871004130D50108F60205E82D504349581205CB
:10088100392403B405004001E490087A9312056D00
:0D089100743A12056DD2167541040206CDB1
:100EC500EF4E6012EF60010EEDBB010B89828A8344
:100ED500F0A3DFFCDEFA2289F05007F709DFFCA951
:0C0EE500F022BBFEFCF309DFFCA9F022A8
:100EF100D083D082F8E4937012740193700DA3A390
:100F010093F8740193F5828883E4737402936860A3
:060F1100EFA3A3A380DFA3
:00000001FF
