:0300000002202FAC
:0C202F00787FE4F6D8FD7581230220764E
:0C000300000000000000000000000000F1
:0B2AAB00EF1FAC0670011E4C70F622FD
:1028DC00AB07AA06EB1BAE0270011A4E60097FAA69
:0828EC007E05122AAB80ED22EB
:101DC800907120E04480F07F057E00122AABE4FF8A
:101DD800FE1228DC75A75575AC5C9071327450F012
:101DE8009071307403F0907136742FF090715C74B8
:101DF80003F090715BE054FCF07F18EF2466FDE47B
:101E080034718D82F583E4F00FEFB433EE90401116
:101E1800E4935407FF90711CE054F84FF09040177A
:101E2800E493547FFF90711DE054804FF090401070
:101E3800E493FF5401C43333335480FE907123E09C
:101E4800547F4EF0EFC313543F4440FFA3E0548047
:101E58004FF0904012E493FF540FFE907146E05407
:101E6800F04EF0EFC4540FFF90714FE054F04FF074
:101E7800904013E493543FFF907140E054C04FF0FA
:101E8800904014E493907126F0904015E49390717B
:0B1E980028F0904016E49390712AF0AF
:011EA300221C
:10298C0078D2E254FBF2E24404F2907187E4F0D284
:02299C00912286
:10002D0078D2E254FBF2E24404F2907187E4F07866
:0D003D00D0E24402F208E24402F2D2912225
:10284E0078D2E254EFF2E24410F2907188E4F0781C
:0D285E00D0E24404F208E24404F2D29222D7
:10286B0078C2E254FBF2E24404F290717FE4F07818
:0D287B00C0E24402F208E24402F2C28122EF
:1029D10078C2E254BFF2E24440F2907181E4F02205
:1028880078E3E254EFF2E24410F2907194E4F078C5
:0D289800E0E24440F208E24440F2C2A62211
:0D2A0F0078C3E254CFF278C0E24440F222D6
:0D2A1C0078C3E2543FF278C0E24480F22219
:0D2A290078D2E254FCF278D0E24401F222AF
:0D2A360078D2E2543FF278D0E24408F22258
:0D2A430078D3E254FCF278D0E24410F22285
:0D2A500078E2E254F3F278E0E24402F22270
:0D2A5D0078E2E254CFF278E0E24404F22285
:0D2A6A0078E2E2543FF278E0E24408F22204
:0D2A770078E3E254F3F278E0E24420F2222A
:0D2A840078E3E2543FF278E0E24480F22271
:0D2A910078F2E254FCF278F0E24401F22207
:0719B2004460AB00000000DF
:10264400E5B154F342B153A8DFD2AF7892E4F20873
:10265400F27890E254E3F2E2441CF2E254FCF2E237
:102664004401F208E2547FF2E24420F278957401C6
:10267400F2187476F27890E2541FF2E244A0F22247
:1029E1007890E2541FF2E244C0F243A820D2AF2211
:102964007890E2541FF2E244A0F27892E4F208F282
:0429740053A8DF2263
:03001E0002244079
:10244000C0E0C0F0C083C082C0D075D000C000C062
:1024500004C005C006C0077891E230E71DE2448061
:10246000F29060AB120F4CEF2401FFE43EFEE43D1E
:10247000FDE43CFC9060AB120F64D007D006D005A1
:0F248000D004D000D0D0D082D083D0F0D0E032C2
:0719B9004460AF00000000D4
:10268400E5B154CF42B153A8BFD2AF789EE4F2086B
:10269400F2789CE254E3F2E2441CF2E254FCF2E2EB
:1026A4004401F208E2547FF2E24420F278A1E4F219
:0F26B400187424F2789CE2541FF2E244A0F22240
:1029F100789CE2541FF2E244C0F243A840D2AF22D5
:10297800789CE2541FF2E244A0F2789EE4F208F256
:0429880053A8BF226F
:0300210002248F27
:10248F00C0E0C0F0C083C082C0D075D000C000C013
:10249F0004C005C006C007789DE230E71DE2448006
:1024AF00F29060AF120F4CEF2401FFE43EFEE43DCB
:1024BF00FDE43CFC9060AF120F64D007D006D0054E
:0F24CF00D004D000D0D0D082D083D0F0D0E03273
:0719C0004460B300000000C9
:1025BB00E5B254FC42B253A9FED2AF907102E4F0E3
:1025CB00A3F0907100E054E3F0E0441CF0E054FC05
:1025DB00F0E04401F0A3E0547FF0E04420F0907170
:1025EB0005E4F09071047424F0907100E0541FF036
:0525FB00E044A0F02205
:10299E00907100E0541FF0E044C0F043A901D2AFA3
:0129AE002206
:10290C00907100E0541FF0E044A0F0907102E4F0EC
:06291C00A3F053A9FE2206
:030024000223A014
:1023A000C0E0C0F0C083C082C0D075D000C000C003
:1023B00004C005C006C007907101E030E71DE0448D
:1023C00080F09060B3120F4CEF2401FFE43EFEE476
:1023D0003DFDE43CFC9060B3120F64D007D006D002
:1023E00005D004D000D0D0D082D083D0F0D0E0325D
:0719C7004460B700000000BE
:10257500E5B254F342B253A9FDD2AF90710AE4F02B
:10258500A3F0907108E054E3F0E0441CF0E054FC43
:10259500F0E04401F0A3E0547FF0E04420F09071B6
:1025A5000D7401F090710C7476F0907108E0541F71
:0625B500F0E044A0F0225A
:1029AF00907108E0541FF0E044C0F043A902D2AF89
:0129BF0022F5
:10292200907108E0541FF0E044A0F090710AE4F0C6
:06293200A3F053A9FD22F1
:030027000223F0C1
:1023F000C0E0C0F0C083C082C0D075D000C000C0B3
:1024000004C005C006C007907109E030E71DE04434
:1024100080F09060B7120F4CEF2401FFE43EFEE421
:102420003DFDE43CFC9060B7120F64D007D006D0AD
:1024300005D004D000D0D0D082D083D0F0D0E0320C
:0719CE004460BB00000000B3
:1028F40043A90475D11075E67F75E7BB75DA1C75BD
:08290400DF2075DE01D2AF22D5
:03002A000224DECF
:1024DE00C0E0C0F0C083C082C0D075D000C000C0C4
:1024EE0004C005C006C007E5EE30E51C43E22090AF
:1024FE0060BB120F4CEF2401FFE43EFEE43DFDE411
:10250E003CFC9060BB120F64D007D006D005D004FF
:0D251E00D000D0D0D082D083D0F0D0E032F9
:10228C00726563762074696D65206F757421200A00
:10229C0000666F726D6174206C656E20696E76617C
:1022AC006C6964210A00256420202564200A0072D0
:1022BC0065637620637263206F72206C656E206597
:1022CC00727221200A0025327820000A3D3D3D3DE6
:1022DC003D3D3D3D3D3D3D3D3D3D3D3D3D3D3D3D22
:0822EC003D3D3D3D3D3D0A0072
:1019D5005E60340000000000000000000000000010
:1019E50000000000000000000000000000000000F2
:1019F5000043605200000043605600000043605AF7
:101A0500000000C11C4160550041602F0041605934
:081A15000044603000000000F5
:0E2A010090602DEFF0122A9E90602DE0FF22D3
:1027A20078D2E2F2E24404F2907187E04404F090BD
:1027B2007175E0440BF043AA20D2AF75D60175D5EE
:0527C2009F75D21122F9
:03004B000216E1B9
:1016E100C0E0C0F0C083C082C0D075D000C000C0CF
:0D16F10001C002C003C004C005C006C00750
:1016FE0090602EE4F0E5D420E50302183DE5D7F026
:10170E00201C04E0B4A509906059E0C39403400383
:10171E0002183090602EE0B4A51BD21C90602FE40E
:10172E00F0906055F01229649060AB120F700000BB
:10173E0000001229E190602FE0B4010890602EE0C5
:10174E00906055F0906030120F4C74562FF582E475
:10175E003460F583E0600302183D90602EE0FF9048
:10176E006030120F5890603475F00AEB120FA1EA38
:10177E0075F00AA42583F583C083C08290602FE0A4
:10178E00FE04F0D082D083E5822EF582E43583F517
:10179E0083EFF09060AB120F700000000090605568
:1017AE00E0700302183DE0FF90602FE06F600302CF
:1017BE00183D906055E0FB906030120F4C74522F24
:1017CE00F582E43460F583EBF0C21C90602FE4F0F8
:1017DE00906055F0906030120F4C74562FF582E4E5
:1017EE003460F5837401F0906059E004F09060303D
:1017FE00120F4CEF2401FFE43EFEE43DFDE43CFC01
:10180E00906030120F64E47F03FEFDFC9060301296
:10181E000F58C3120F15400A906030120F7000005F
:0F182E0000001229649060AB120F7000000000E0
:10183D00D007D006D005D004D003D002D001D000FF
:0B184D00D0D0D082D083D0F0D0E032A9
:0D2A9E00E5D430E4FB8FD7E5D430E4FB2213
:0627C7009060CB120FCD63
:1027CD00E4FEEEC39D50159060CB120FAD8E827559
:0C27DD008300120D7BFF122A9E0E80E686
:0127E90022CD
:10150000E4906000F0A3F0C2127F0AFEFDFC906040
:10151000AB120F58D3120F1540211229649060AB03
:10152000120F7000000000E490602FF0906055F002
:10153000C21C7BFF7A22798C020A68E4906000F07A
:10154000906000E0FFC3940340030216E074562F3E
:10155000F582E43460F583E070030216D7906000F2
:10156000E075F00AA42435F582E43460F583E0FEEA
:1015700074522FF582E43460F583E06E7003021636
:10158000017BFF7A22799D120A687BFF7A2279B269
:10159000906000E02452F582E43460F583E0FFE4DB
:1015A000FCFDFE906008120F64906000E075F00A88
:1015B000A42435F582E43460F583E0FFE4FCFDFE0D
:1015C00090600C120F64120A68122139906000E0DA
:1015D000FF2456F582E43460F583E4F0906059E02E
:1015E00014F090000AC083C0827D00EF75F00AA459
:1015F0002434F9746035F0FA7B01D007D006020F6D
:01160000D613
:10160100E4906002F0906001F0A3F0906000E0FFD0
:101611002452F582E43460F583E014FE906002E028
:10162100FDC39E5026EF75F00AA42434F582E434FC
:1016310060F583E5822DF582E43583F583E0FF9043
:101641006001E02FF0A3E004F080C0906001E0F0C1
:10165100906000E0FF2452F582E43460F583E0FEFF
:10166100EF75F00AA42433F582E43460F583E58252
:101671002EF582E43583F583E0FF906001E06F6031
:0316810002D21280
:101684003012407BFF7A2279BB120A68C212906042
:1016940000E0FF2456F582E43460F583E4F09060C2
:1016A40059E014F090000AC083C0827D00EF75F009
:1016B4000AA42434F9746035F0FA7B01D007D0060B
:1016C400120FD6906000E0245AF582E43460F5836A
:0C16D4007401F0906000E004F00215408A
:0116E00022E7
:10260000745A2FF582E43460F583E4F074522FF5A8
:1026100082E43460F583E4F074562FF582E434608C
:10262000F583E4F0F58375820AC083C082FDEF75FF
:10263000F00AA42434F9746035F0FA7B01D007D095
:0426400006020FD6A9
:10213900E4906003F0A3F0906003F0906003E0FF87
:10214900C394035060EF2430FF122A9E7F0A122A9B
:102159009EE4A3F0906004E0FFC3940A50367BFF2D
:102169007A2279D2906003E075F00AA42434F582CA
:10217900E43460F583E5822FF582E43583F583E065
:10218900FF906008E4F0A3EFF0120A68906004E0A1
:1021990004F080C07BFF7A2279D7120A6890600325
:0521A900E004F0809647
:0121AE00220E
:051A1D004260CE000054
:10277C0078E2E244C0F278C2E24403F2E2440CF2A2
:10278C00907123E054D8F0E054BFF0E0441EF09078
:06279C0071227407F02217
:1028A500EF24FE600804700E759904800375990580
:0D28B5007869E24448F27F017E000228DCD1
:1027EA007869E24401F2786BE230E1FA7402F2AFFE
:1027FA0093EF75F010A4FFAEF0E594C4540FFDEF0B
:03280A004DFF225D
:101CD900E4906002F0A3F0A3120F7000000000E48A
:101CE900906008F0A3F074FFA3F0A3F0E4A3F0F070
:101CF9001227EA906002EEF0A3EFF090600CE0C3C7
:101D090094024054906008E0FEA3E0FF906002E076
:101D1900FCA3E0FDD39FEC9E4008906008ECF0A383
:101D2900EDF090600AE0FEA3E0FFC3ED9FEC9E504A
:101D39000F906002E0FFA3E090600ACFF0A3EFF0FC
:101D4900906004120F58906002E0FEA3E0FFE4FCEB
:101D5900FD120DD0A3120F6490600CE004F0E0C3F3
:101D69009414408C906004120F4CC006C007906018
:101D790008E0FEA3E0FBAA06E4F9F8D007D00612B2
:101D89000DDD906004120F64906004120F4CC006C0
:101D9900C00790600AE0FEA3E0FBAA06E4F8D007BA
:101DA900D006120DDD906004120F64906004120FCA
:0E1DB9004C7804120F26906002EEF0A3EFF0BB
:011DC70022F9
:1029C00075AF3F8FAF75AEB975A402E5A530E1FBD9
:0129D00022E4
:1026C300906005120FCD75AF3F8FAF906008E0C3E8
:1026D30094014022E5A530E0FB906005E475F0012C
:1026E300120FB6120D62F5A675AEB975A40190600E
:0726F30008E014F080D5227D
:1026FA00906001120FCD906004E06027AE070FEEE4
:10270A002400FDE4343F8D82F583E493FE9060015A
:10271A00E475F001120FB6EE120DA8906004E014F1
:04272A00F080D32246
:1028C20079656172202564206D6F6E7468202564BD
:0A28D20020646179202564200A00CB
:10222200E47FE87E03FDFC9060BB120F58C3120FDF
:102232001540569060BB120F4CC3EF94E8FFEE942A
:1022420003FEED9400FDEC9400FC9060BB120F6461
:1022520090606BE0C3943B50028021E490606BF08D
:1022620012293890606AE0C3943B5002800EE490D9
:10227200606AF0906069E0C394175004E004F022B1
:0A228200E4906069F0A3F0A3F022DD
:1020BB00121DC875D9DD75D95590715EE054FEF0CF
:1020CB0075D9BB12282E1226441227A212280D12E4
:1020DB00268412272E1227551225751228F4122941
:1020EB00D1D28312277C7BFF7A2879C2906065E07E
:1020FB00FFA3E0906008CFF0A3EFF0906067E0FFE4
:10210B0090600AE4F0A3EFF0906068E0FF90600C41
:10211B00E4F0A3EFF0120A687F021228A51205273C
:0E212B0012150012185812004E12222280EADD
:101A22006022605D00000000000000000000000075
:101A320000000000000000000000000000000000A4
:061A42000000000000009E
:10282E007E007F227D007B017A60795D120FD67B60
:10283E00017A60795D906004740FF0E4FF0226FA6D
:10293800E4FF1229C07B017A60795D906008740F0A
:06294800F0E4FF0226C3CB
:05102800906004EFF0F0
:10102D00906009120F70000000007FA5122A9E909B
:10103D006009120F4CEF24A5FFE43EFEE43DFDE4F4
:10104D003CFC906009120F64906004E0FF64016045
:10105D0028EF64026023EF6403601EEF64046019DF
:10106D00EF64056014EF6406600FEF6409600AEF2A
:10107D00640A6005EF6411703D7F05122A9E906031
:10108D0004E0FF122A9E906005120F4C122A9E90CA
:10109D006009120F58C000906005120F4C7E009031
:1010AD006004E02405FDE433CD2FFFEE3DFE3395C6
:1010BD00E0FDFC021288906004E0FF64076014EF0D
:1010CD006408600FEF640C600AEF640D6005EF6457
:1010DD001070647F06122A9E906004E0FF122A9E13
:1010ED00906005120F4C7808120F26122A9E906000
:1010FD0005120F4C122A9E906009120F58C000C0A5
:10110D0002C003906005120F4C7808120F267E0066
:10111D00906004E02406FDE433CD2FFBEE3DFAA3F1
:10112D00120F4C7E00EB2FFFEE3AFE3395E0FDFCE7
:10113D00D003D002021288906004E0FF640B6008B7
:10114D00EF640F60030211DA7F07122A9E9060048C
:10115D00E0FF122A9E906005120F4C7810120F2698
:10116D00122A9E906005120F4C7808120F26122A33
:10117D009E906005120F4C122A9E906009120F5816
:10118D00C000C002C003906005120F4C7810120F02
:10119D00267E00906004E02407FDE433CD2FFBEEA6
:1011AD003DFAA3120F4C7808120F267E00EB2FFB91
:1011BD00EE3AFA906005120F4C7E00EB2FFFEE3ADF
:1011CD00FE3395E0FDFCD003D0020212889060043E
:1011DD00E0640E60030212937F08122A9E90600451
:1011ED00E0FF122A9E906005120F4C7818120F2600
:1011FD00122A9E906005120F4C7810120F26122A9B
:10120D009E906005120F4C7808120F26122A9E90A0
:10121D006005120F4C122A9E906009120F58C000E3
:10122D00C002C003906005120F4C7818120F267E75
:10123D0000906004E02408FDE433CD2FFBEE3DFA71
:10124D00A3120F4C7810120F267E00EB2FFBEE3AF7
:10125D00FA906005120F4C7808120F267E00EB2FC6
:10126D00FBEE3AFA906005120F4C7E00EB2FFFEE6D
:10127D003AFE3395E0FDFCD003D002D000120DD024
:10128D00906009120F64906009120F4CE4FEFDFC92
:10129D00906009120F64906009120F4C122A9E7F04
:0612AD000A7E000228DCAD
:10280D00122A50122A5D122A6A122A77122A91125E
:10281D002A84122A43122A36122A29122A1C022A23
:01282D000F9B
:101EA40020A30C906078E07011D20404F0800B90B1
:101EB4006078E0B40104E4F0D20420A509906079CC
:101EC400E0700E048008906079E0B40104E4F0D27C
:101ED4001020A20990607AE0700E04800890607A65
:101EE400E0B40104E4F0D20E20A10990607BE0701C
:101EF4000E04800890607BE0B40104E4F0D2092071
:101F04008609906076E0605EE4805820870C9060DB
:101F140076E0640160507401804920900C906076F2
:101F2400E0640260417402803A20930C906076E091
:101F3400640360327403802B20940C906076E06418
:101F44000460237404801C20A70C906076E0640570
:101F540060147405800D20B00D906076E064066016
:071F6400057406F0D20A2209
:101A480044609B0000000044609F00000000446068
:0D1A580095000000004160990041609A0077
:10272E00E5B854F342B843A802D2AF78C2E254CF10
:10273E00F218E24404F278C7E24404F278C4E25498
:07274E00CFF2E24420F22269
:101BDC009060BF120F7000000000E47FE87E03FDF0
:101BEC00FC9060B3120F58C3120F155003021CD88F
:101BFC009060B3120F7000000000E47F037E07FDBD
:101C0C00FC90609B120F58120DEBE47B10FAF9F864
:101C1C00120E769060BF120F6490609F120F4C9062
:101C2C0060BF120F58120DD090609F120F6490601D
:101C3C00BF120F4CE47B407A38F9F8120DEB906030
:101C4C00BF120F649060BF120F4C7B407A42790F29
:101C5C007800120E769060BF120F6490609B120F8A
:101C6C007000000000906095120F4C9060BF120F36
:101C7C0058D3120F154012E490609AF0906099E0DE
:101C8C0004F0E0940A40458021906095120F4C902E
:101C9C0060BF120F58C3120F15502AE4906099F0D0
:101CAC00A3E004F0E0C3940A40229060BF120F4CF2
:101CBC00906095120F649060BF120F4C9060701280
:0C1CCC000F64D20822E4906099F0A3F0AD
:011CD80022E9
:030012000222F4D3
:1022F400C0E0C0F0C083C082C0D075D000C000C0B0
:0923040003C004C005C006C007B7
:10230D0078C6E2FB30E21990609B120F4CEF24016E
:10231D00FFE43EFEE43DFDE43CFC90609B120F6447
:06232D00AF0378C6EBF2DD
:10233300D007D006D005D004D003D000D0D0D082AF
:07234300D083D0F0D0E0329E
:10294E00656E67696E6520737065656420256C75AC
:06295E002072706D0A00FA
:071A65004460C7000000000F
:10275500E5B854CF42B843A804D2AF78D2E254CFFB
:10276500F218E24404F278D7E24404F278D4E25451
:07277500CFF2E24420F22242
:1021AF009060C3120F7000000000E47FC47E09FD31
:1021BF00FC9060AF120F58C3120F154055E47FF01B
:1021CF00FEFDFC9060C7120F58120DEBE47B10FA66
:1021DF00F9F8120E769060C3120F649060AF120F71
:1021EF0070000000009060C7120F70000000009098
:1021FF0060C3120F4C90606C120F647BFF7A2979C9
:10220F004E9060C3120F4C906008120F64120A6850
:02221F00D201EA
:01222100229A
:0300150002234A79
:10234A00C0E0C0F0C083C082C0D075D000C000C059
:09235A0003C004C005C006C00761
:1023630078D6E2FB30E2199060C7120F4CEF2401DC
:10237300FFE43EFEE43DFDE43CFC9060C7120F64C5
:06238300AF0378D6EBF277
:10238900D007D006D005D004D003D000D0D0D08259
:07239900D083D0F0D0E03248
:101A6C004460A3000000004460A700000000C11DFA
:101AC900201D0FD21D9060B7120F70000000001288
:101AD90029AFE47F307E75FDFC9060B7120F58C3C3
:101AE900120F15400D9060B7120F70000000001220
:101AF9002938E47FE87E03FDFC90609F120F58C3EC
:101B0900120F15407B90605D120F58C000C001C0D4
:101B190002C003E47BE87A03F9F890609F120F4C46
:101B2900120E76D003D002D001D000120DD09060F1
:101B39005D120F64906061120F58C000C001C002AD
:101B4900C003E47BE87A03F9F890609F120F4C1206
:101B59000E76D003D002D001D000120DD090606172
:101B6900120F6490609F120F4CC3EF94E8FFEE943C
:101B790003FEED9400FDEC9400FC90609F120F644D
:101B89009060A3120F5890605D120F4C120DDDE4A6
:101B99007B64FAF9F8C3120F15500E90605D120FAD
:101BA9004C9060A3120F64D2009060A7120F589056
:101BB9006061120F4C120DDDE47B64FAF9F8C3126F
:101BC9000F15500E906061120F4C9060A7120F64B0
:021BD900D20632
:011BDB0022E7
:1012B30020666C61675F6765745F616C6C5F7374F4
:1012C300617475730A0020666C61675F6765745F9C
:1012D300676561720A0020666C61675F6765745FAA
:1012E300626174746572790A0020666C61675F6776
:1012F30065745F6272616B650A0020666C61675F8B
:101303006765745F6C6566745F7475726E0A00203E
:10131300666C61675F6765745F72696768745F7441
:1013230075726E0A0020666C61675F6765745F683B
:101333006967685F6265616D0A0020666C61675F5B
:101343006765745F656E67696E655F737065656415
:10135300200A002063757220656E67696E652073CD
:10136300706565642025752072706D200020666CA1
:1013730061675F6765745F7370656564200A002049
:10138300666C61675F6765745F6675656C200A00EC
:1013930020666C61675F6765745F746F74616C5F0F
:1013A3006D696C65616765200A002063757220743E
:1013B3006F74616C206D696C6561676520256C7560
:1013C300202F302E316B6D200A0020666C61675F21
:1013D3006765745F7375625F746F74616C5F6D6969
:1013E3006C65616765200A002063757220737562FE
:1013F300746F74616C206D696C6561676520256C21
:1014030075202F302E316B6D200A0020666C6167CA
:101413005F616C7465725F64617465200A0079654D
:101423006172202564206D6F6E74682025642064CA
:101433006179202564200A0020666C61675F616C16
:101443007465725F74696D65200A00686F75722038
:101453002564206D696E20256420736563202564EF
:10146300200A0020666C61675F6765745F766F6C46
:10147300746167655F6F665F62617474657279201A
:101483000A002063757220766F6C74616765206F44
:10149300662062617474657279202575200A0020C4
:1014A300666C61675F7365745F74656D705F6F66AB
:1014B3005F77617465725F7761726E696E67200A28
:1014C3000020666C61675F636C6561725F746F7443
:1014D300616C5F6D696C65616765200A0020666CED
:1014E30061675F636C6561725F7375625F746F746C
:0D14F300616C5F6D696C65616765200A00C2
:101A7C00C10DC10AC103C104C110C10EC109C1010C
:101A8C00C108C10CC100C106C102C105C107C11109
:041A9C00C10BC10FAA
:10185800E4906000F0F0906000E0FFC39403400360
:101868000219B1745A2FF582E43460F583E07003ED
:101878000219A8906000E0FD75F00AA42436F582EC
:10188800E43460F583E024D2601C14607424FD7095
:101898000302194D1470030219512413600302192D
:1018A80053D20D021953D202ED75F00AA42437F56C
:1018B80082E43460F583E0FEED75F00AA42438F57F
:1018C80082E43460F583E07C002400FFEC3E906005
:1018D80065F0A3EFF0906000E0FF75F00AA42439EA
:1018E800F582E43460F583E0906067F0EF75F00A04
:1018F800A4243AF582E43460F583E0906068F080CF
:101908004AD205906000E0FF75F00AA42437F582FA
:10191800E43460F583E0906069F0EF75F00AA42480
:1019280038F582E43460F583E090606AF0906000F6
:10193800E075F00AA42439F582E43460F583E09078
:10194800606BF08006D20B8002D20F906059E0D312
:1019580094004003E014F0906000E0FF245AF58200
:10196800E43460F583E4F074522FF582E43460F5D2
:1019780083E4F074562FF582E43460F583E4F0FED6
:101988007F0AC006C007FD906000E075F00AA42435
:1019980034F9746035F0FA7B01D007D006120FD6FF
:0919A800906000E004F002185EFA
:0119B1002213
:06004E00200D0302023D3B
:10005400906000120F7000000000C20D7BFF7A1246
:1000640079B3120A68906076E0FFE4FCFDFE9060CC
:1000740005120F647F01121028906077E0FFE4FC02
:10008400FDFE906005120F647F02121028906078C4
:10009400E0FFE4FCFDFE906005120F647F03121084
:1000A40028906079E0FFE4FCFDFE906005120F6487
:1000B4007F0412102890607AE0FFE4FCFDFE90605B
:1000C40005120F647F0512102890607BE0FFE4FCAA
:1000D400FDFE906005120F647F0612102890606C7C
:1000E400120F4C906005120F647F07121028906065
:1000F40070120F4C906005120F647F081210289044
:10010400607CE0FFE4FCFDFE906005120F647F0953
:1001140012102890607DE0FFE4FCFDFE9060051263
:100124000F647F0A121028E47B64FAF9F890605D8A
:10013400120F4C120E76906005120F647F0B121092
:1001440028E47B64FAF9F8906061120F4C120E7681
:10015400906005120F647F0C121028906065E0FE19
:10016400A3E0FFE4FCFD7810120F39C004C005C001
:1001740006C007906067E0FFE4FCFDFE7808120FFC
:1001840039D003D002D001D000120F08A804A90569
:10019400AA06AB07A3E0FFE4FCFDFE120F08906083
:1001A40000120F64906000120F4C906005120F64EF
:1001B4007F0E12102890606AE0FFE4FCFDFE7808D0
:1001C400120F39C004C005C006C007906069E0FF83
:1001D400E4FCFDFE7810120F39D003D002D001D018
:1001E40000120F08A804A905AA06AB0790606BE0EB
:1001F400FFE4FCFDFE120F08906000120F64906093
:1002040000120F4C906005120F647F0F121028909B
:100214006074E0FEA3E0FFE4FCFD906005120F644F
:100224007F1012102890607EE0FFE4FCFDFE9060D9
:0902340005120F647F111210285D
:10023D00300A1FC20A7BFF7A1279C9120A689060D0
:10024D0076E0FFE4FCFDFE906005120F647F011265
:10025D00102830031FC2037BFF7A1279D9120A6866
:10026D00906077E0FFE4FCFDFE906005120F647F67
:10027D000212102830041FC2047BFF7A1279EC128F
:10028D000A68906078E0FFE4FCFDFE906005120FB7
:10029D00647F0312102830101FC2107BFF7A127971
:1002AD00FD120A68906079E0FFE4FCFDFE906005A8
:1002BD00120F647F04121028300E1FC20E7BFF7ABE
:1002CD00137912120A6890607AE0FFE4FCFDFE904B
:1002DD006005120F647F0512102830091FC2097BBB
:1002ED00FF7A137928120A6890607BE0FFE4FCFD29
:1002FD00FE906005120F647F06121028300133C284
:10030D00017BFF7A13793D120A687BFF7A137956C8
:10031D0090606C120F4C906008EEF0A3EFF0120A93
:10032D006890606C120F4C906005120F647F07127D
:10033D00102830081CC2087BFF7A137970120A68E6
:10034D00906070120F4C906005120F647F081210B0
:10035D0028300C1FC20C7BFF7A137982120A689029
:10036D00607CE0FFE4FCFDFE906005120F647F09E8
:10037D0012102830003AC2007BFF7A137993120ACB
:10038D00687BFF7A1379AD90605D120F4C90600819
:10039D00120F64120A68E47B64FAF9F890605D123A
:1003AD000F4C120E76906005120F647F0B12102801
:1003BD0030063AC2067BFF7A1379CD120A687BFFAD
:1003CD007A1379EB906061120F4C906008120F64F4
:1003DD00120A68E47B64FAF9F8906061120F4C120E
:1003ED000E76906005120F647F0C121028300240BB
:1003FD00C2027BFF7A14790E120A687BFF7A147998
:10040D0021906065E0FFA3E0906008CFF0A3EFF0CE
:10041D00906067E0FF90600AE4F0A3EFF0906068F1
:10042D00E0FF90600CE4F0A3EFF0120A6812293897
:10043D0030053EC2057BFF7A14793B120A687BFFBB
:10044D007A14794E906069E0FF906008E4F0A3EFB4
:10045D00F090606AE0FF90600AE4F0A3EFF0906026
:10046D006BE0FF90600CE4F0A3EFF0120A68122924
:10047D0038300739C2077BFF7A147966120A687B18
:10048D00FF7A147985906074E0FFA3E0906008CF47
:10049D00F0A3EFF0120A68906074E0FEA3E0FFE4B1
:1004AD00FCFD906005120F647F1012102830111F93
:1004BD00C2117BFF7A1479A2120A6890607EE0FF68
:1004CD00E4FCFDFE906005120F647F1112102830C0
:1004DD000B22C20B90605D120F7000000000906047
:1004ED009F120F70000000001229387BFF7A1479DB
:1004FD00C4120A68300F22C20F906061120F700093
:10050D0000000090609F120F70000000001229384B
:0A051D007BFF7A1479E0120A6822CD
:101F6B006C6F6E672070726573730A0073686F72A3
:101F7B00742070726573730A006F6E65206C6566F2
:101F8B00742070726573730A0074776F206C6566CA
:101F9B00742070726573730A007468726565206CC7
:101FAB006566742070726573730A006F6E652072BC
:101FBB00696768742070726573730A0074776F2099
:101FCB0072696768742070726573730A0074687243
:101FDB0065652072696768742070726573730A0097
:101FEB0074776F206C656674206C6F6E67207072EF
:101FFB006573730A0074776F207269676874206C5D
:10200B006F6E672070726573730A006F6E65206C5C
:10201B0065667420636F6E74696E7565207072658A
:04202B0073730A00C1
:101AA000416088004C6089036C0E140B2B05DB062B
:101AB000D00937426081000044608300000000418B
:081AC00060870042607F000016
:10252B00E4FDFCEC25E02489F582E43460F583E0DE
:10253B00FAA3E024CEFBEA34FFFAD3EF9BEE9A40EA
:10254B0021EC25E02489F582E43460F583E0FAA3DD
:10255B00E02432FBE43AFAC3EF9BEE9A50047D0180
:09256B0080050CECB406BCAF05C0
:012574002244
:10052700E4906000F0A3F0121CD9906000EEF0A3F5
:10053700EFF0906088E06003020601906087E0704A
:1005470022906000E0FEA3E0FF12252B906087EF6A
:10055700F0E0600F906000E0FFA3E0906081CFF0D3
:10056700A3EFF0906087E070030209FC906001E060
:1005770024CEFF906000E034FFFE906081E0FCA392
:10058700E0FDD39FEC9E405C906001E02432FF9039
:100597006000E03400FEC3ED9FEC9E5047906083FF
:1005A700120F4CEF2402FFE43EFEE43DFDE43CFC69
:1005B700906083120F64E47FEE7E02FDFC906083FF
:1005C700120F58C3120F15402A906083120F700044
:1005D7000000007BFF7A1F796B120A6890608874AD
:1005E70002F0800F9060887404F07BFF7A1F7977A0
:1005F700120A687F017E001228DC906088E064049C
:100607006003020726906081E0FEA3E0FFD3943ADF
:10061700EE9403401EEF949EEE940350167BFF7AF0
:100627001F7984120A68906005120F70000000415C
:1006370002071B906081E0FEA3E0FFD394E2EE94F3
:100647000D401EEF9446EE940E50167BFF7A1F79ED
:1006570094120A68906005120F70000000400207AC
:100667001B906081E0FEA3E0FFD394F9EE940A406B
:100677001EEF945DEE940B50167BFF7A1F79A41240
:100687000A68906005120F700000004202071B9075
:100697006081E0FEA3E0FFD394A9EE9405401DEF2F
:1006A700940DEE940650157BFF7A1F79B6120A68EF
:1006B700906005120F70000000E48058906081E0A0
:1006C700FEA3E0FFD3949EEE9406401DEF9402EE46
:1006D700940750157BFF7A1F79C7120A6890600547
:1006E700120F7000000065802B906081E0FEA3E090
:1006F700FFD39405EE94094020EF9469EE940950D6
:10070700187BFF7A1F79D8120A68906005120F705C
:10071700000000E37F0D1210289060887405F090A8
:100727006088E0640260030207D6906081E0FEA360
:10073700E0FFD3943AEE9403400BEF949EEE9403BC
:1007470050030207D0D3EF94E2EE940D4022EF94CA
:1007570046EE940E501A7BFF7A1F79EB120A6890C7
:100767006005120F70000000467F0D121028805997
:10077700906081E0FEA3E0FFD394F9EE940A40086D
:10078700EF945DEE940B4041906081E0FEA3E0FFA3
:10079700D394A9EE94054008EF940DEE94064029F2
:1007A700D3EF949EEE94064020EF9402EE94075008
:1007B700187BFF7A207900120A68906005120F7083
:1007C700000000117F0D1210289060887403F090CC
:1007D7006088E064036003020985906001E024CE2D
:1007E700FF906000E034FFFE906081E0FCA3E0FD35
:1007F700D39FEC9E500302097F906001E02432FFF3
:10080700906000E03400FEC3ED9FEC9E40030209B8
:100817007F906083120F4CEF2401FFE43EFEE43D1E
:10082700FDE43CFC906083120F64906081E0FEA3BE
:10083700E0FFD3943AEE9403403AEF949EEE94038C
:100847005032E47F96FEFDFCA3120F58C3120F151A
:100857005003020976906083120F70000000007B3E
:10086700FF7A207916120A68906005120F7000004F
:100877000041806D906081E0FEA3E0FFD394E2EE3B
:10088700940D401EEF9446EE940E5016E47F96FEAC
:10089700FDFCA3120F58C3120F155003020976026D
:1008A700096C906081E0FEA3E0FFD394F9EE940A0F
:1008B7004037EF945DEE940B502FE47F96FEFDFCDE
:1008C700A3120F58C3120F155003020976906083C5
:1008D700120F7000000000906005120F70000000FA
:1008E700427F0D121028020976906081E0FEA3E096
:1008F700FFD394A9EE9405401AEF940DEE94065099
:1009070012E47F96FEFDFCA3120F58C3120F154089
:100917005E8052906081E0FEA3E0FFD3949EEE9448
:1009270006401AEF9402EE94075012E47F96FEFDFC
:10093700FCA3120F58C3120F154034802890608112
:10094700E0FEA3E0FFD39405EE94094022EF9469FB
:10095700EE9409501AE47F96FEFDFCA3120F58C3CC
:10096700120F15400A906083120F70000000007F7D
:10097700017E001228DC80069060887406F0906083
:0B09870088E064066005E0640570472E
:10099200906000E0FEA3E0FF12252B906087EFF04D
:1009A200E0701290607F75F001120DBA7F017E0037
:1009B2001228DC8007E490607FF0A3F0C39060808F
:1009C200E0943290607FE09400400CE4F0A3F09059
:0709D2006088E0FF7407F0EC
:1009D900906088E0B4071CE4906000F0A3F0906098
:1009E90081F0A3F0A3120F7000000000E49060876B
:0309F900F0A3F078
:0109FC0022D8
:10203B000220BBE493A3F8E493A34003F68001F2E0
:10204B0008DFF48029E493A3F85407240CC8C333A6
:10205B00C4540F4420C8834004F456800146F6DF75
:10206B00E4800B01020408102040809019B2E47E3A
:10207B00019360BCA3FF543F30E509541FFEE4936A
:10208B00A360010ECF54C025E060A840B8E493A331
:10209B00FAE493A3F8E493A3C8C582C8CAC583CA5C
:1020AB00F0A3C8C582C8CAC583CADFE9DEE780BE14
:011AC800001D
:100D6200BB010689828A83E0225002E722BBFE028F
:090D7200E32289828A83E49322C2
:100D7B00BB010CE58229F582E5833AF583E022502D
:100D8B0006E92582F8E622BBFE06E92582F8E22277
:0D0D9B00E58229F582E5833AF583E4932291
:100DA800BB010689828A83F0225002F722BBFE012A
:020DB800F32224
:100DBA00C5F0F8A3E028F0C5F0F8E58215827002C4
:060DCA001583E038F02261
:0D0DD000EF2BFFEE3AFEED39FDEC38FC2272
:0E0DDD00C3EF9BFFEE9AFEED99FDEC98FC2211
:100DEB00E88FF0A4CC8BF0A42CFCE98EF0A42CFCA7
:100DFB008AF0EDA42CFCEA8EF0A4CDA8F08BF0A425
:100E0B002DCC3825F0FDE98FF0A42CCD35F0FCEB83
:100E1B008EF0A4FEA9F0EB8FF0A4CFC5F02ECD3948
:0F0E2B00FEE43CFCEAA42DCE35F0FDE43CFC22B5
:100E3A0075F008758200EF2FFFEE33FECD33CDCC6F
:100E4A0033CCC58233C5829BED9AEC99E5829840F2
:100E5A000CF582EE9BFEED9AFDEC99FC0FD5F0D6CF
:100E6A00E4CEFBE4CDFAE4CCF9A88222B800C1B9F9
:100E7A000059BA002DEC8BF084CFCECDFCE5F0CB37
:100E8A00F97818EF2FFFEE33FEED33FDEC33FCEB70
:100E9A0033FB10D703994004EB99FB0FD8E5E4F92B
:100EAA00FA227818EF2FFFEE33FEED33FDEC33FC18
:100EBA00C933C910D7059BE99A4007EC9BFCE99A0C
:100ECA00F90FD8E0E4C9FAE4CCFB2275F010EF2F51
:100EDA00FFEE33FEED33FDCC33CCC833C810D70751
:100EEA009BEC9AE899400AED9BFDEC9AFCE899F88C
:0E0EFA000FD5F0DAE4CDFBE4CCFAE4C8F9221F
:0D0F0800EF4BFFEE4AFEED49FDEC48FC22E8
:100F1500EB9FF5F0EA9E42F0E99D42F0E89C45F032
:010F250022A9
:100F2600E8600FECC313FCED13FDEE13FEEF13FFA9
:030F3600D8F122CD
:100F3900E8600FEFC333FFEE33FEED33FDEC33FC16
:030F4900D8F122BA
:0C0F4C00E0FCA3E0FDA3E0FEA3E0FF2218
:0C0F5800E0F8A3E0F9A3E0FAA3E0FB221C
:0C0F6400ECF0A3EDF0A3EEF0A3EFF02200
:100F7000A8828583F0D083D082120F87120F871248
:100F80000F87120F87E473E493A3C583C5F0C5836D
:100F9000C8C582C8F0A3C583C5F0C583C8C582C8CB
:010FA000222E
:0C0FA100A42582F582E5F03583F583225B
:090FAD00E0FBA3E0FAA3E0F92245
:100FB600F8E0FBA3A3E0F925F0F0E58215827002C4
:070FC6001583E0FA38F02268
:090FCD00EBF0A3EAF0A3E9F02225
:1009FD00E5082408F582E43460F583E005082290CB
:100A0D006005301A03906008E475F001120FB6020C
:100A1D000D622013E97F2ED2138018EF540F24900E
:100A2D00D43440D4FF30170BEF24BFB41A00500359
:100A3D002461FFE50960021509050CE50C7002053E
:100A4D000B301A0E906005E475F001120FB6EF022F
:100A5D000DA8022A017403D21A8003E4C21AF50804
:100A6D00906005120FCDE4F509F50BF50CE5096065
:100A7D00077F20120A4080F5750AFFC214C213C207
:100A8D0015C216C218C219C21B120A0CFF700D3006
:100A9D001A057F00120A51AF0CAE0B22B4255FC2AE
:100AAD00D5C217120A0CFF24D0B40A00501A75F0E3
:100ABD000A780930D50508B6FF0106C6A426F6202A
:100ACD00D5047002D21680D924CFB41A00EF500489
:100ADD00C2E5D217020C52D21480C6D21380C0D2F6
:100AED001580BCD2D580BAD21880B47F20120A40AE
:100AFD002015077401B5090040F11209FDFF120A16
:100B0D0040020A7AD21BD21980951209FDFB1209F7
:100B1D00FDFA1209FDF94A4B700679237A0D7BFF18
:100B2D0020152EE509602A7E008E82758300120D38
:100B3D007B60060EEE650A70F0C2D5EBC0E0EAC030
:100B4D00E0E9C0E0EE120C99D0E0F9D0E0FAD0E087
:100B5D00FB120D62FF60AAEBC0E0EAC0E0E9C0E065
:100B6D00120A40D0E02401F9D0E03400FAD0E0FBC5
:100B7D00E50A0460DCD50AD980877BFF7A0C79956C
:100B8D00D215809C791080027908C219C21B800889
:100B9D00D2D5790A8004790AC2D5E50A047002F526
:100BAD000AE4FAFDFEFF1209FDFC7B082014131266
:100BBD0009FDFD7B1030130A1209FDFE1209FDFF20
:100BCD007B20EC3382D592D55013C3E43013069FAE
:100BDD00FFE49EFEE42014039DFDE49CFCE4CBF8B1
:100BED00C214EC700CCFCECDCCE824F8F870F380A5
:100BFD0017C3EF33FFEE33FEED33FDEC33FCEB3378
:100C0D00FB994002FB0FD8E9EB301405F8D0E0C496
:100C1D0048B214C0E00AEC4D4E4F78207B0070C2F4
:100C2D00EAB50A0040BCC0E0120C9BD0F0D0E02029
:100C3D001404C4C0E0C4B214C0F0120A29D0F0D517
:100C4D00F0EB020A7A1210020B17530B91580AE8B7
:100C5D004C0AE4420B954F0B9D440B9D490AFD43F5
:080C6D000BA3550B87460B8712
:100C7500450B87470D43500AEC2D0AF02E0B132B1D
:100C85000AF4230B11200D2C2A0AAC4800000B0B8B
:100C95003F3F3F00790AA2D5201614301809B91034
:100CA500020404B9080104A2D52019025001042048
:100CB50015689215B509005034C0E07F203016192B
:100CC5007F30A21572197218500F120CF2C215C29C
:100CD50019C218C21B7F30800F301803E9C0E0121B
:100CE5000A40301803D0E0F9D0E0B509CC30181728
:100CF5007F30B9100C120A407F583017077F788073
:100D050003B90803120A403015057F2D020A407FFA
:100D150020201BF87F2B2019F322921580CF286EF7
:100D2500756C6C2900D2141209FD3014F8C21478C0
:100D35000930D50108F6020AAC2D5043495812096D
:100D4500FD2403B405004001E4900D3E93120A31E1
:0D0D5500743A120A31D216750904020B918E
:100FD600EF4E6012EF60010EEDBB010B89828A8332
:100FE600F0A3DFFCDEFA2289F05007F709DFFCA93F
:0C0FF600F022BBFEFCF309DFFCA9F02296
:10100200D083D082F8E4937012740193700DA3A37D
:1010120093F8740193F5828883E473740293686091
:06102200EFA3A3A380DF91
:00000001FF
