:0300000002269342
:0C269300787FE4F6D8FD7581230226DA7A
:0C000300000000000000000000000000F1
:0B309C00EF1FAC0670011E4C70F62206
:102EAE00AB07AA06EB1BAE0270011A4E60097FAA91
:082EBE007E0512309C80ED221C
:10216800907120E04480F07F057E0012309CE4FFEF
:10217800FE122EAE75A75575AC5C9071327450F096
:102188009071307403F0907136742FF090715C7414
:1021980003F090715BE054FCF07F18EF2466FDE4D7
:1021A80034718D82F583E4F00FEFB433EE90401173
:1021B800E4935407FF90711CE054F84FF0904017D7
:1021C800E493547FFF90711DE054804FF0904010CD
:1021D800E493FF5401C43333335480FE907123E0F9
:1021E800547F4EF0EFC313543F4440FFA3E05480A4
:1021F8004FF0904012E493FF540FFE907146E05464
:10220800F04EF0EFC4540FFF90714FE054F04FF0D0
:10221800904013E493543FFF907140E054C04FF056
:10222800904014E493907126F0904015E4939071D7
:0B22380028F0904016E49390712AF00B
:012243002278
:102F5C0078D2E254FBF2E24404F2907187E4F0D2AE
:022F6C009122B0
:10002D0078D2E254FBF2E24404F2907187E4F07866
:0D003D00D0E24402F208E24402F2D2912225
:102E3D0078D2E254EFF2E24410F2907188E4F07827
:0D2E4D00D0E24404F208E24404F2D29222E2
:102E5A0078C2E254FBF2E24404F290717FE4F07823
:0D2E6A00C0E24402F208E24402F2C28122FA
:102FB20078C2E254BFF2E24440F2907181E4F0221E
:102E770078E3E254EFF2E24410F2907194E4F078D0
:0D2E8700E0E24440F208E24440F2C2A6221C
:0D30000078C3E254CFF278C0E24440F222DF
:0D300D0078C3E2543FF278C0E24480F22222
:0D301A0078D2E254FCF278D0E24401F222B8
:0D30270078D2E2543FF278D0E24408F22261
:0D30340078D3E254FCF278D0E24410F2228E
:0D30410078E2E254F3F278E0E24402F22279
:0D304E0078E2E254CFF278E0E24404F2228E
:0D305B0078E2E2543FF278E0E24408F2220D
:0D30680078E3E254F3F278E0E24420F22233
:0D30750078E3E2543FF278E0E24480F2227A
:0D30820078F2E254FCF278F0E24401F22210
:071A8D004460E700000000C7
:102BCE00E5B154F342B153A8DFD2AF7892E4F208E4
:102BDE00F27890E254E3F2E2441CF2E254FCF2E2A8
:102BEE004401F208E2547FF2E24420F27895740137
:102BFE00F2187476F27890E2541FF2E244A0F222B8
:102FC2007890E2541FF2E244C0F243A820D2AF222A
:102F20007890E2541FF2E244A0F27892E4F208F2C0
:042F300053A8DF22A1
:03001E00022A6251
:102A6200C0E0C0F0C083C082C0D075D000C000C03A
:102A720004C005C006C0077891E230E71DE2448039
:102A8200F29060E71211A3EF2401FFE43EFEE43D61
:102A9200FDE43CFC9060E71211BBD007D006D005E4
:0F2AA200D004D000D0D0D082D083D0F0D0E0329A
:102C0E00E5B154CF42B153A8BFD2AF789EE4F208DB
:102C1E00F2789CE254E3F2E2441CF2E254FCF2E25B
:102C2E004401F208E2547FF2E24420F278A17401EA
:102C3E00F2187476F2789CE2541FF2E244A0F2226B
:102FD200789CE2541FF2E244C0F243A840D2AF22EE
:102F3400789CE2541FF2E244A0F2789EE4F208F294
:042F440053A8BF22AD
:03002100021F8833
:101F8800C0E0C0F0C083C082C0D075D000C000C01F
:101F980001C002C003C004C005C006C007789DE2A6
:101FA80020E70302205EE24480F274FFFFFEFDFC9E
:101FB8009060DB1211AFC312116C50199060DB12E4
:101FC80011A3EF2401FFE43EFEE43DFDE43CFC9058
:101FD80060DB1211BB74FFFFFEFDFC9060BA1211AA
:101FE800AFC312116C50199060BA1211A3EF2401FB
:101FF800FFE43EFEE43DFDE43CFC9060BA1211BBF8
:1020080074FFFFFEFDFC9060A91211AFC312116CA2
:1020180050199060A91211A3EF2401FFE43EFEE4D9
:102028003DFDE43CFC9060A91211BB74FFFFFEFD6E
:10203800FC9060BF1211AFC312116C50199060BFB1
:102048001211A3EF2401FFE43EFEE43DFDE43CFC55
:102058009060BF1211BBD007D006D005D004D003C2
:10206800D002D001D000D0D0D082D083D0F0D0E040
:012078003235
:071A94004460EB00000000BC
:102AFE00E5B254FC42B253A9FED2AF907102E4F09B
:102B0E00A3F0907100E054E3F0E0441CF0E054FCBC
:102B1E00F0E04401F0A3E0547FF0E04420F0907127
:102B2E00057401F09071047476F0907100E0541FFA
:062B3E00F0E044A0F022CB
:102F6E00907100E0541FF0E044C0F043A901D2AFCD
:012F7E002230
:102EDE00907100E0541FF0E044A0F0907102E4F015
:062EEE00A3F053A9FE222F
:030024000229C2EC
:1029C200C0E0C0F0C083C082C0D075D000C000C0DB
:1029D20004C005C006C007907101E030E71DE04465
:1029E20080F09060EB1211A3EF2401FFE43EFEE4BD
:1029F2003DFDE43CFC9060EB1211BBD007D006D049
:102A020005D004D000D0D0D082D083D0F0D0E03234
:071A9B004460EF00000000B1
:102B4400E5B254F342B253A9FDD2AF90710AE4F056
:102B5400A3F0907108E054E3F0E0441CF0E054FC6E
:102B6400F0E04401F0A3E0547FF0E04420F09071E1
:102B74000D7401F090710C7476F0907108E0541F9C
:062B8400F0E044A0F02285
:102F7F00907108E0541FF0E044C0F043A902D2AFB3
:012F8F00221F
:102EF400907108E0541FF0E044A0F090710AE4F0EF
:062F0400A3F053A9FD2219
:03002700022A1298
:102A1200C0E0C0F0C083C082C0D075D000C000C08A
:102A220004C005C006C007907109E030E71DE0440C
:102A320080F09060EF1211A3EF2401FFE43EFEE468
:102A42003DFDE43CFC9060EF1211BBD007D006D0F4
:102A520005D004D000D0D0D082D083D0F0D0E032E4
:071AA2004460F300000000A6
:102EC60043A90475D11075E67F75E7BB75DA1C75E5
:082ED600DF2075DE01D2AF22FE
:03002A00022AB1F6
:102AB100C0E0C0F0C083C082C0D075D000C000C0EB
:102AC10004C005C006C007E5EE30E51C43E22090D6
:102AD10060F31211A3EF2401FFE43EFEE43DFDE4A7
:102AE1003CFC9060F31211BBD007D006D005D00496
:0D2AF100D000D0D0D082D083D0F0D0E03221
:10295A00726563762074696D65206F757421200A2B
:10296A0000666F726D6174206C656E20696E7661A7
:10297A006C6964210A00256420202564200A0072FB
:10298A0065637620637263206F72206C656E2065C2
:10299A00727221200A0025327820000A3D3D3D3D11
:1029AA003D3D3D3D3D3D3D3D3D3D3D3D3D3D3D3D4D
:0829BA003D3D3D3D3D3D0A009D
:101AA9005E60360000000000000000000000000039
:101AB900000000000000000000000000000000001D
:101AC9000043605400000043605800000043605C1C
:101AD900000000C11C416057004160310041605B5A
:081AE90000446032000000001F
:0E2FF20090602DEFF012308F90602DE0FF22E6
:102D6D0078D2E2F2E24404F2907187E04404F090EC
:102D7D007175E0440BF043AA20D2AF75D60175D51D
:052D8D009F75D2112228
:03004B0002191681
:10191600C0E0C0F0C083C082C0D075D000C000C097
:0D19260001C002C003C004C005C006C00718
:1019330090602EE4F0E5D420E503021A72E5D7F0B7
:10194300201C04E0B4A50990605BE0C3940340034A
:10195300021A6590602EE0B4A51BD21C906031E49E
:10196300F0906057F0122F209060E71211C700002B
:101973000000122FC2906031E0B4010890602EE0A5
:10198300906057F09060321211A374582FF582E4DF
:101993003460F583E06003021A7290602EE0FF90DA
:1019A30060321211AF90603675F00AEB1211F8EA4B
:1019B30075F00AA42583F583C083C082906031E06B
:1019C300FE04F0D082D083E5822EF582E43583F5E0
:1019D30083EFF09060E71211C7000000009060579A
:1019E300E07003021A72E0FF906031E06F6003025F
:1019F3001A72906057E0FB9060321211A374542F57
:101A0300F582E43460F583EBF0C21C906031E4F0BE
:101A1300906057F09060321211A374582FF582E44E
:101A23003460F5837401F090605BE004F090603201
:101A33001211A3EF2401FFE43EFEE43DFDE43CFC70
:101A43009060321211BBE47F03FEFDFC9060321202
:101A530011AFC312116C400A9060321211C700001B
:0F1A63000000122F209060E71211C70000000052
:101A7200D007D006D005D004D003D002D001D000C8
:0B1A8200D0D0D082D083D0F0D0E03272
:0D308F00E5D430E4FB8FD7E5D430E4FB221C
:062DB6009060FF121224E0
:102DBC00E4FEEEC39D50159060FF1212048E8275D6
:0C2DCC008300120FD2FF12308F0E80E641
:012DD80022D8
:10173500E4906000F0A3F0C2127F0AFEFDFC906009
:10174500E71211AFD312116C4021122F209060E7E0
:101755001211C700000000E4906031F0906057F06E
:10176500C21C7BFF7A29795A020CBFE4906000F015
:10177500906000E0FFC39403400302191574582FCD
:10178500F582E43460F583E0700302190C90600083
:10179500E075F00AA42437F582E43460F583E0FEB1
:1017A50074542FF582E43460F583E06E70030218FB
:1017B500367BFF7A29796B120CBF7BFF7A297980FA
:1017C500906000E02454F582E43460F583E0FFE4A2
:1017D500FCFDFE9060081211BB906000E075F00AF8
:1017E500A42437F582E43460F583E0FFE4FCFDFED4
:1017F50090600C1211BB120CBF12271F906000E005
:10180500FF2458F582E43460F583E4F090605BE0F2
:1018150014F090000AC083C0827D00EF75F00AA421
:101825002436F9746035F0FA7B01D007D006021230
:011835005A58
:10183600E4906002F0906001F0A3F0906000E0FF99
:101846002454F582E43460F583E014FE906002E0EF
:10185600FDC39E5026EF75F00AA42436F582E434C3
:1018660060F583E5822DF582E43583F583E0FF900C
:101876006001E02FF0A3E004F080C0906001E0F08A
:10188600906000E0FF2454F582E43460F583E0FEC6
:10189600EF75F00AA42435F582E43460F583E58219
:1018A6002EF582E43583F583E0FF906001E06F60FA
:0318B60002D21249
:1018B9003012407BFF7A297989120CBFC2129060DD
:1018C90000E0FF2458F582E43460F583E4F0906089
:1018D9005BE014F090000AC083C0827D00EF75F0D0
:1018E9000AA42436F9746035F0FA7B01D007D006D2
:1018F90012125A906000E0245CF582E43460F583AA
:0C1909007401F0906000E004F00217751B
:0119150022AF
:102B8A00745C2FF582E43460F583E4F074542FF515
:102B9A0082E43460F583E4F074582FF582E43460FB
:102BAA00F583E4F0F58375820AC083C082FDEF7570
:102BBA00F00AA42436F9746035F0FA7B01D007D004
:042BCA000602125A93
:10271F00E4906003F0A3F0906003F0906003E0FF9B
:10272F00C394035060EF2430FF12308F7F0A1230B2
:10273F008FE4A3F0906004E0FFC3940A50367BFF50
:10274F007A2979A0906003E075F00AA42436F58207
:10275F00E43460F583E5822FF582E43583F583E079
:10276F00FF906008E4F0A3EFF0120CBF906004E05C
:10277F0004F080C07BFF7A2979A5120CBF9060030B
:05278F00E004F080965B
:012794002222
:051AF10042610200004B
:102D920078C2E24403F2E2440CF2E2440CF2907193
:102DA20023E054D8F0E054BFF0E0441EF0907122CA
:042DB2007407F02290
:102D4700EF24FE600C14600E240270137599048042
:102D57000875990580037599017869E24448F27FFF
:062D6700017E00022EAE09
:102DD9007869E24401F2786BE230E1FA7402F2AF09
:102DE90093EF75F010A4FFAEF0E594C4540FFDEF16
:032DF9004DFF2269
:10207900E4906002F0A3F0A31211C700000000E48D
:10208900906008F0A3F074FFA3F0A3F0E4A3F0F0CC
:10209900122DD9906002EEF0A3EFF090600CE0C32E
:1020A90094024054906008E0FEA3E0FF906002E0D3
:1020B900FCA3E0FDD39FEC9E4008906008ECF0A3E0
:1020C900EDF090600AE0FEA3E0FFC3ED9FEC9E50A7
:1020D9000F906002E0FFA3E090600ACFF0A3EFF059
:1020E9009060041211AF906002E0FEA3E0FFE4FCEF
:1020F900FD121027A31211BB90600CE004F0E0C39D
:102109009414408C9060041211A3C006C00790601B
:1021190008E0FEA3E0FBAA06E4F9F8D007D006120E
:1021290010349060041211BB9060041211A3C00610
:10213900C00790600AE0FEA3E0FBAA06E4F8D00716
:10214900D0061210349060041211BB906004121171
:0E215900A3780412117D906002EEF0A3EFF067
:012167002255
:102F900075AF3F8FAF75AEB975A402E5A530E1FB03
:012FA000220E
:102C8C0090600512122475AF3F8FAF906008E0C3BF
:102C9C0094014022E5A530E0FB906005E475F0015D
:102CAC0012120D120FB9F5A675AEB975A40190608C
:072CBC0008E014F080D522AE
:102CC300906001121224906004E06027AE070FEEBB
:102CD3002400FDE4343F8D82F583E493FE9060018C
:102CE300E475F00112120DEE120FFF906004E01470
:042CF300F080D32278
:030012000227952D
:10279500C0E0C0F0C083C082C0D075D000C000C00A
:0D27A50001C002C003C004C005C006C0078B
:1027B20078C6E290602FF0E030E22B74FFFFFEFD5E
:1027C200FC9060B61211AFC312116C50199060B632
:1027D2001211A3EF2401FFE43EFEE43DFDE43CFCC4
:0D27E2009060B61211BB90602FE078C6F237
:1027EF00D007D006D005D004D003D002D001D0003E
:0B27FF00D0D0D082D083D0F0D0E032E8
:0300150002280AB4
:10280A00C0E0C0F0C083C082C0D075D000C000C094
:0D281A0001C002C003C004C005C006C00715
:1028270078D6E2906030F0E030E22B74FFFFFEFDD7
:10283700FC9060D71211AFC312116C50199060D77A
:102847001211A3EF2401FFE43EFEE43DFDE43CFC4E
:0D2857009060D71211BB906030E078D6F28F
:10286400D007D006D005D004D003D002D001D000C8
:0B287400D0D0D082D083D0F0D0E03272
:102E940079656172202564206D6F6E7468202564E5
:0A2EA40020646179202564200A00F3
:1028F000E47FE87E03FDFC9060F31211AFC3121178
:102900006C40569060F31211A3C3EF94E8FFEE946D
:1029100003FEED9400FDEC9400FC9060F31211BBFB
:1029200090606DE0C3943B50028021E490606DF0B4
:10293000122F0A90606CE0C3943B5002800EE4902A
:10294000606CF090606BE0C394175004E004F022D8
:0A295000E490606BF0A3F0A3F02206
:10256F0012216875D9DD75D95590715EE054FEF072
:10257F0075D9BB122E1D122BCE122D6D122DFC12E2
:10258F002C0E122CF7122D1F122EC6122FB2D28321
:10259F00122D927BFF7A2E7994906067E0FFA3E073
:1025AF00906008CFF0A3EFF0906069E0FF90600AB1
:1025BF00E4F0A3EFF090606AE0FF90600CE4F0A30A
:1025CF00EFF0120CBF122FD27F02122D471208A369
:1025DF007F03122D471204EA7F04122D4712224463
:1025EF007F01122D47122314121735121BEF120001
:0625FF004E1228F080D20C
:101AF6006021605F000000000000000000000000A0
:101B060000000000000000000000000000000000CF
:051B16000000000000CA
:102E1D007E007F217D007B017A60795F12125A7BE3
:102E2D00017A60795F906004740FF0E4FF022CC3A7
:102F0A00E4FF122F907B017A60795F906008740F5A
:062F1A00F0E4FF022C8C24
:0512AC00906004EFF06A
:1012B1009060091211C7000000007FA512308F90C5
:1012C10060091211A3EF24A5FFE43EFEE43DFDE415
:1012D1003CFC9060091211BB906004E0FF64016066
:1012E10028EF64026023EF6403601EEF6404601959
:1012F100EF64056014EF6406600FEF6409600AEFA4
:10130100640A6005EF6411703D7F0512308F9060B3
:1013110004E0FF12308F9060051211A312308F90FC
:1013210060091211AFC0009060051211A37E0090F8
:101331006004E02405FDE433CD2FFFEE3DFE33953F
:10134100E0FDFC02150C906004E0FF64076014EFFF
:101351006408600FEF640C600AEF640D6005EF64D0
:101361001070647F0612308F906004E0FF12308F9E
:101371009060051211A3780812117D12308F9060D0
:10138100051211A312308F9060091211AFC000C075
:1013910002C0039060051211A3780812117D7E002E
:1013A100906004E02406FDE433CD2FFBEE3DFAA36B
:1013B1001211A37E00EB2FFFEE3AFE3395E0FDFC08
:1013C100D003D00202150C906004E0FF640B6008AA
:1013D100EF640F600302145E7F0712308F90600488
:1013E100E0FF12308F9060051211A3781012117D69
:1013F10012308F9060051211A3780812117D1230FE
:101401008F9060051211A312308F9060091211AFF5
:10141100C000C002C0039060051211A37810121120
:101421007D7E00906004E02407FDE433CD2FFBEEC8
:101431003DFAA31211A3780812117D7E00EB2FFB58
:10144100EE3AFA9060051211A37E00EB2FFFEE3AFF
:10145100FE3395E0FDFCD003D00202150C90600430
:10146100E0640E60030215177F0812308F9060044C
:10147100E0FF12308F9060051211A3781812117DD0
:1014810012308F9060051211A3781012117D123065
:101491008F9060051211A3780812117D12308F9080
:1014A10060051211A312308F9060091211AFC000B4
:1014B100C002C0039060051211A3781812117D7E3D
:1014C10000906004E02408FDE433CD2FFBEE3DFAEB
:1014D100A31211A3781012117D7E00EB2FFBEE3ABF
:1014E100FA9060051211A3780812117D7E00EB2F8E
:1014F100FBEE3AFA9060051211A37E00EB2FFFEE8E
:101501003AFE3395E0FDFCD003D002D00012102743
:101511009060091211BB9060091211A3E4FEFDFC59
:101521009060091211BB9060091211A312308F7FD4
:061531000A7E00022EAE4E
:102DFC0012304112304E12305B1230681230821297
:102E0C00307512303412302712301A12300D023055
:012E1C0000B5
:1023E40020A30C90607AE07011D20404F0800B906A
:1023F400607AE0B40104E4F0D20420A50990607B83
:10240400E0700E04800890607BE0B40104E4F0D234
:102414001020A20990607CE0700E04800890607C1B
:10242400E0B40104E4F0D20E20A10990607DE070D4
:102434000E04800890607DE0B40104E4F0D2092029
:102444008609906078E0605EE4805820870C906094
:1024540078E0640160507401804920900C906078A9
:10246400E0640260417402803A20930C906078E04A
:10247400640360327403802B20940C906078E064D1
:102484000460237404801C20A70C906078E0640529
:1024940060147405800D20B00D906078E0640660CF
:0724A400057406F0D20A22C4
:102F480063757220737065656420256C75206B6DE0
:042F58002F680A00D4
:101B1B004460BA000000004460B60000000044605E
:091B2B00B1000000004160B500AA
:102CF700E5B854F342B843A802D2AF78C2E254CF42
:102D0700F278C0E24404F278C7E24404F278C4E2FD
:082D170054CFF2E24420F22245
:101D49009060F71211C700000000E47F64FEFDFCFB
:101D59009060BA1211AFC312116C5003021E819028
:101D690060BA1211A3C3EF9464FFEE9400FEED94E0
:101D790000FDEC9400FC9060BA1211BBE47F037E75
:101D890007FDFC9060B61211AF121042E47B40FAD5
:101D9900F9F81210CD9060F71211BB9060B61211CC
:101DA900C7000000009060AD1211A39060F71211F6
:101DB900AF1210279060AD1211BBE47F24FEFDFC29
:101DC9009060F71211AF121042E47B64FAF9F8122D
:101DD90010CDE47B0AFAF9F81210CD9060F71211D0
:101DE900BB9060B5E0C3940A5018E004F09060B16C
:101DF9001211A39060F71211AF1210279060B1026F
:101E090011BBE49060B5F09060B11211A3E47B0AB4
:101E1900FAF9F81210CD9060B11211BB9060B112AD
:101E290011A39060721211BB9060B11211C700002A
:101E39000000E4FFFEFDFC9060721211AFC31211A5
:101E49006C60157BFF7A2F79489060721211A3900C
:101E590060081211BB120CBFE47FE77E03FDFC9002
:101E690060721211AFD312116C400B906072121193
:081E7900C70000000022D2089E
:011E8100223E
:0E1B34004460DB000000004460D700000000A9
:102D1F00E5B854CF42B843A804D2AF78D2E254CF2B
:102D2F00F278D0E24404F278D7E24404F278D4E2A5
:082D3F0054CFF2E24420F2221D
:102605009060FB1211C700000000E47F64FEFDFC32
:102615009060DB1211AFC312116C40719060DB1238
:1026250011A3C3EF9464FFEE9400FEED9400FDEC5E
:102635009400FC9060DB1211BBE47F587E02FDFC28
:102645009060D71211AF121042E47B10FAF9F8121C
:1026550010CD9060FB1211BB9060D71211C700001E
:102665000000E47FFF7EFFFDFC9060FB1211AFC30D
:1026750012116C400A9060FB1211C70000FFFF9019
:0D26850060FB1211A390606E1211BBD20118
:012692002225
:102FE20066756E5F696E666F5F736176652829002C
:101B42004460A9000000004460AD00000000446051
:0C1B5200A1000000004460A5000000009D
:101E8200E47F307E75FDFC9060A91211AFC3121180
:101E92006C40169060A91211C700000000122F0AB0
:101EA2007BFF7A2F79E2120CBFE47FE87E03FDFC10
:101EB2009060AD1211AFC312116C40777F007ECAE1
:101EC2007D9A7C3B90605F1211AFC312116C501966
:101ED20090605F1211A3EF2401FFE43EFEE43DFD9A
:101EE200E43CFC90605F1211BB7F407E427D0F7C20
:101EF200009060631211AFC312116C5019906063AD
:101F02001211A3EF2401FFE43EFEE43DFDE43CFC9C
:101F12009060631211BB9060AD1211A3C3EF94E8FD
:101F2200FFEE9403FEED9400FDEC9400FC9060AD96
:101F32001211BB9060A11211AF90605F1211A31237
:101F42001034E47B64FAF9F8C312116C500E9060FD
:101F52005F1211A39060A11211BBD2009060A51272
:101F620011AF9060631211A3121034E47B64FAF98A
:101F7200F8C312116C500E9060631211A39060A509
:051F82001211BBD206A4
:011F87002237
:1015370020666C61675F6765745F616C6C5F73746D
:10154700617475730A0020666C61675F6765745F15
:10155700676561720A0020666C61675F6765745F23
:10156700626174746572790A0020666C61675F67EF
:1015770065745F6272616B650A0020666C61675F04
:101587006765745F6C6566745F7475726E0A0020B8
:10159700666C61675F6765745F72696768745F74BB
:1015A70075726E0A0020666C61675F6765745F68B5
:1015B7006967685F6265616D0A0020666C61675FD5
:1015C7006765745F6675656C200A0020666C6167E5
:1015D7005F6765745F746F74616C5F6D696C65617B
:1015E7006765200A002063757220746F74616C2030
:1015F7006D696C6561676520256C75206D200A0033
:1016070020666C61675F6765745F7375625F746F8F
:1016170074616C5F6D696C65616765200A002063A2
:10162700757220737562746F74616C206D696C6577
:1016370061676520256C75206D200A0020666C6146
:10164700675F616C7465725F64617465200A007915
:10165700656172202564206D6F6E74682025642093
:10166700646179202564200A0020666C61675F61E8
:101677006C7465725F74696D65200A00686F7572B6
:10168700202564206D696E202564207365632025FD
:1016970064200A0020666C61675F6765745F766F18
:1016A7006C746167655F6F665F6261747465727998
:1016B700200A002063757220766F6C74616765205D
:1016C7006F662062617474657279202575200A003F
:1016D70020666C61675F7365745F74656D705F6FBB
:1016E700665F77617465725F7761726E696E672096
:1016F7000A0020666C61675F636C6561725F746F77
:1017070074616C5F6D696C65616765200A002066AE
:101717006C61675F636C6561725F7375625F746F3D
:0E17270074616C5F6D696C65616765200A0016
:101B5E00C10DC10AC103C104C110C10EC109C10129
:101B6E00C108C10CC100C106C102C105C107C11126
:041B7E00C10BC10FC7
:101BEF00E4906000F0F0906000E0FFC394034003C6
:101BFF00021D48745C2FF582E43460F583E07003B6
:101C0F00021D3F906000E0FD75F00AA42438F582B4
:101C1F00E43460F583E024D2601C14607424FD70FA
:101C2F0003021CE4147003021CE824136003021C5B
:101C3F00EAD20D021CEAD202ED75F00AA42439F59E
:101C4F0082E43460F583E0FEED75F00AA4243AF5E2
:101C5F0082E43460F583E07C002400FFEC3E90606A
:101C6F0067F0A3EFF0906000E0FF75F00AA4243B4B
:101C7F00F582E43460F583E0906069F0EF75F00A67
:101C8F00A4243CF582E43460F583E090606AF08030
:101C9F004AD205906000E0FF75F00AA42439F5825E
:101CAF00E43460F583E090606BF0EF75F00AA424E4
:101CBF003AF582E43460F583E090606CF090600058
:101CCF00E075F00AA4243BF582E43460F583E090DC
:101CDF00606DF08006D20B8002D20F90605BE0D374
:101CEF0094004003E014F0906000E0FF245CF58264
:101CFF00E43460F583E4F074542FF582E43460F536
:101D0F0083E4F074582FF582E43460F583E4F0FE39
:101D1F007F0AC006C007FD906000E075F00AA4249A
:101D2F0036F9746035F0FA7B01D007D00612125ADB
:091D3F00906000E004F0021BF5C5
:011D48002278
:06004E00200D030202294F
:100054009060001211C700000000C20D7BFF7A15EA
:100064007937120CBF906078E0FFE4FCFDFE9060ED
:10007400051211BB7F011212AC906079E0FFE4FC21
:10008400FDFE9060051211BB7F021212AC90607AE3
:10009400E0FFE4FCFDFE9060051211BB7F03121229
:1000A400AC90607BE0FFE4FCFDFE9060051211BBA8
:1000B4007F041212AC90607CE0FFE4FCFDFE9060D3
:1000C400051211BB7F051212AC90607DE0FFE4FCC9
:1000D400FDFE9060051211BB7F061212AC90606E9B
:1000E4001211A39060051211BB7F071212AC90602D
:1000F400721211A39060051211BB7F081212AC900A
:10010400607EE0FFE4FCFDFE9060051211BB7F09F8
:100114001212ACE47B64FAF9F890605F1211A31236
:1001240010CD9060051211BB7F0B1212ACE47B64FE
:10013400FAF9F89060631211A31210CD90600512C1
:1001440011BB7F0C1212AC906067E0FEA3E0FFE4E9
:10015400FCFD7810121190C004C005C006C00790C1
:100164006069E0FFE4FCFDFE7808121190D003D032
:1001740002D001D00012115FA804A905AA06AB079A
:10018400A3E0FFE4FCFDFE12115F9060001211BBBE
:100194009060001211A39060051211BB7F0E121221
:1001A400AC90606CE0FFE4FCFDFE7808121190C096
:1001B40004C005C006C00790606BE0FFE4FCFDFED0
:1001C4007810121190D003D002D001D00012115F28
:1001D400A804A905AA06AB0790606DE0FFE4FCFD46
:1001E400FE12115F9060001211BB9060001211A307
:1001F4009060051211BB7F0F1212AC906076E0FE86
:10020400A3E0FFE4FCFD9060051211BB7F10121205
:10021400AC90607FE0FFE4FCFDFE9060051211BB32
:050224007F111212AC75
:10022900300A1FC20A7BFF7A15794D120CBF906004
:1002390078E0FFE4FCFDFE9060051211BB7F01121E
:1002490012AC30031FC2037BFF7A15795D120CBF14
:10025900906079E0FFE4FCFDFE9060051211BB7F20
:10026900021212AC30041FC2047BFF7A1579701296
:100279000CBF90607AE0FFE4FCFDFE90600512116E
:10028900BB7F031212AC30101FC2107BFF7A1579A5
:1002990081120CBF90607BE0FFE4FCFDFE906005DD
:1002A9001211BB7F041212AC300E1FC20E7BFF7AF3
:1002B900157996120CBF90607CE0FFE4FCFDFE907E
:1002C90060051211BB7F051212AC30091FC2097BF0
:1002D900FF7A1579AC120CBF90607DE0FFE4FCFD5C
:1002E900FE9060051211BB7F061212AC300113C2D9
:1002F9000190606E1211A39060051211BB7F071265
:1003090012AC300813C2089060721211A3906005F4
:100319001211BB7F081212AC300C1FC20C7BFF7A82
:100329001579C1120CBF90607EE0FFE4FCFDFE90E0
:1003390060051211BB7F091212AC30003AC2007B72
:10034900FF7A1579D2120CBF7BFF7A1579EC906090
:100359005F1211A39060081211BB120CBFE47B64F9
:10036900FAF9F890605F1211A31210CD906005128E
:1003790011BB7F0B1212AC30063AC2067BFF7A160C
:100389007907120CBF7BFF7A1679259060631211E9
:10039900A39060081211BB120CBFE47B64FAF9F850
:1003A9009060631211A31210CD9060051211BB7FEA
:1003B9000C1212AC300240C2027BFF7A167943124A
:1003C9000CBF7BFF7A167956906067E0FFA3E09037
:1003D9006008CFF0A3EFF0906069E0FF90600AE455
:1003E900F0A3EFF090606AE0FF90600CE4F0A3EFF7
:1003F900F0120CBF122F0A30053EC2057BFF7A1698
:100409007970120CBF7BFF7A16798390606BE0FFDD
:10041900906008E4F0A3EFF090606CE0FF90600A50
:10042900E4F0A3EFF090606DE0FF90600CE4F0A3BE
:10043900EFF0120CBF122F0A300739C2077BFF7A7F
:1004490016799B120CBF7BFF7A1679BA906076E019
:10045900FFA3E0906008CFF0A3EFF0120CBF90600B
:1004690076E0FEA3E0FFE4FCFD9060051211BB7F7E
:10047900101212AC30111FC2117BFF7A1679D712F4
:100489000CBF90607FE0FFE4FCFDFE906005121157
:10049900BB7F111212AC300B22C20B90605F12119C
:1004A900C7000000009060AD1211C70000000012E3
:1004B9002F0A7BFF7A1679F9120CBF300F22C20F6F
:1004C9009060631211C7000000009060AD1211C75F
:1004D90000000000122F0A7BFF7A177915120CBF52
:0104E90022F0
:1024AB006C6F6E672070726573730A0073686F725E
:1024BB00742070726573730A006F6E65206C6566AD
:1024CB00742070726573730A0074776F206C656685
:1024DB00742070726573730A007468726565206C82
:1024EB006566742070726573730A006F6E65207277
:1024FB00696768742070726573730A0074776F2054
:10250B0072696768742070726573730A00746872FD
:10251B0065652072696768742070726573730A0051
:10252B0074776F206C656674206C6F6E67207072A9
:10253B006573730A0074776F207269676874206C17
:10254B006F6E672070726573730A006F6E65206C17
:10255B0065667420636F6E74696E75652070726545
:04256B0073730A007C
:101B8200416088005860890001036C00020E140055
:101B9200030B2B000405DB000506D00006093742C3
:101BA2006082000044608400000000426080000007
:10287F00E4FD906002F0A3F0ED25E025E0248BF558
:10288F0082E43460F583E0FAA3E024CEFBEA34FF60
:10289F00FAD3EF9BEE9A403BED25E025E0248BF534
:1028AF0082E43460F583E0FAA3E02432FBE43AFAE1
:1028BF00C3EF9BEE9A501CED25E025E02489F582AD
:1028CF00E43460F583E0FFA3E0906002CFF0A3EF64
:1028DF00F080050DEDB406A0906002E0FEA3E0FFCE
:0128EF0022C6
:1008A300E4906000F0A3F0122079906000EEF0A3D2
:1008B300EFF0906000E0FEA3E0FF12287F9060005D
:1008C300EEF0A3EFF0906088E060030209589060B7
:1008D30082E0FEA3E0FF4E7011906000E0FDA3E014
:1008E300906082CDF0A3EDF08064906000E0FCA303
:1008F300E0B5074BEEB504479060841211A3EF24D3
:1009030005FFE43EFEE43DFDE43CFC9060841211EF
:10091300BBE47FEE7E02FDFC9060841211AFC31234
:10092300116C402A9060841211C7000000007BFF05
:100933007A2479AB120CBF9060887402F0800F9018
:1009430060887404F07BFF7A2479B7120CBF7F01AF
:100953007E00122EAE906088E064046003020A34C5
:10096300906082E07004A3E0640170167BFF7A2438
:1009730079C4120CBF9060051211C7000000410238
:100983000A29906082E07004A3E0640270167BFF82
:100993007A2479D4120CBF9060051211C7000000AD
:1009A30040020A29906082E07004A3E0640370159A
:1009B3007BFF7A2479E4120CBF9060051211C70003
:1009C3000000428061906082E07004A3E0640470E0
:1009D300157BFF7A2479F6120CBF9060051211C7BC
:1009E300000000E48040906082E07004A3E06405AE
:1009F30070157BFF7A257907120CBF9060051211E1
:100A0300C700000065801F906082E07004A3E0646B
:100A13000670187BFF7A257918120CBF90600512B7
:100A230011C7000000E37F0D1212AC9060887405BB
:100A3300F0906088E064027064906082E0FEA3E05E
:100A4300FF64014E6051EF64024E701A7BFF7A25FA
:100A5300792B120CBF9060051211C7000000467F6E
:100A63000D1212AC8031906082E0FEA3E0FF6403BC
:100A73004E6024EF64044E601EEF64054E70187BD5
:100A8300FF7A257940120CBF9060051211C7000050
:100A930000117F0D1212AC9060887403F09060888F
:100AA300E064036003020BE7906000E0FEA3E0FF55
:100AB300906082E0FAA3E0FB6F7002EA6E600302CB
:100AC3000BE1A31211A3EF2401FFE43EFEE43DFD7D
:100AD300E43CFC9060841211BBEB64014A70337FE9
:100AE30096FEFDFC9060841211AFC312116C50038B
:100AF300020BD89060841211C7000000007BFF7ABC
:100B0300257956120CBF9060051211C700000041F1
:100B13008057906082E07004A3E0640270177F96B0
:100B2300FEFDFC9060841211AFC312116C500302DE
:100B33000BD8020BCE906082E07004A3E0640370D4
:100B43002F7F96FEFDFC9060841211AFC312116CCF
:100B53005003020BD89060841211C700000000906C
:100B630060051211C7000000427F0D1212AC8065B0
:100B7300906082E07004A3E0640470137F96FEFD2E
:100B8300FC9060841211AFC312116C4048803C90FA
:100B93006082E07004A3E0640570137F96FEFDFCA1
:100BA3009060841211AFC312116C4029801D9060B4
:100BB30082E07004A3E06406701B7F96FEFDFC9048
:100BC30060841211AFC312116C400A906084121139
:100BD300C7000000007F017E00122EAE80069060E9
:100BE300887406F0906088E064066005E064057030
:010BF3003EC3
:100BF400906000E07002A3E0701290608075F001D4
:100C04001210117F017E00122EAE8007E4906080E6
:100C1400F0A3F0C3906081E09432906080E094008F
:0E0C2400400CE4F0A3F0906088E0FF7407F04D
:100C3200906088E0B4071AE4906000F0A3F090603E
:100C420082F0A3F0A31211C700000000E4906088B4
:010C5200F0B1
:010C5300227E
:102C4E006675656C206164632076616C20256C75F9
:102C5E00200A006675656C2070657263656E74205F
:102C6E006E6561726C79202562750A006675656CF9
:0E2C7E002070657263656E74202562750A0011
:101BB2004460BF000000004460C3000000004460B5
:091BC200C7000000004160BEFFF5
:1004EA00122079906102EEF0A3EFF09060C312112E
:1004FA00AF906102E0FEA3E0FFE4FCFD121027903A
:10050A0060C31211BB9060C71211A3EF2401FFE46C
:10051A003EFEE43DFDE43CFC9060C71211BBE47F63
:10052A00F47E01FDFC9060BF1211AFC312116C5032
:10053A00030208A29060BF1211C700000000906079
:10054A00C31211A39060C71211AF1210CD9060C3ED
:10055A001211BB9060C71211C7000000007BFF7A1E
:10056A002C794E9060C31211A39060081211BB122D
:10057A000CBFE47F4D7E03FDFC9060C31211AFC334
:10058A0012116C50099060BE7464F0020694E47F04
:10059A00427E04FDFC9060C31211AFC312116C506D
:1005AA00099060BE745AF0020694E47F427E06FD0A
:1005BA00FC9060C31211AFC312116C50099060BE57
:1005CA007450F0020694E47F147E07FDFC9060C329
:1005DA001211AFC312116C50099060BE7446F0023A
:1005EA000694E47FAC7E07FDFC9060C31211AFC392
:1005FA0012116C50099060BE743CF0020694E47FBC
:10060A003B7E08FDFC9060C31211AFC312116C50FF
:10061A00089060BE7432F08071E47FD87E08FDFCD9
:10062A009060C31211AFC312116C50089060BE746F
:10063A0028F08056E47F7B7E09FDFC9060C312118E
:10064A00AFC312116C50089060BE741EF0803BE478
:10065A007FEC7E09FDFC9060C31211AFC312116CCE
:10066A0050089060BE7414F08020E47F427E0AFD38
:10067A00FC9060C31211AFC312116C50089060BE97
:10068A00740AF08005E49060BEF07BFF7A2C7961F1
:10069A009060BEE0906008F0120CBFE47F7D7E0A95
:1006AA00FDFC9060C31211AFD312116C4008E490A4
:1006BA0060BEF002087DE47F6D7E0AFDFC9060C397
:1006CA001211AFC312116C501CE47F427E0AFDFC6A
:1006DA009060C31211AFD312116C40099060BE74BE
:1006EA000AF002087DE47F267E0AFDFC9060C312B0
:1006FA0011AFC312116C501CE47FEC7E09FDFC9013
:10070A0060C31211AFD312116C40099060BE741409
:10071A00F002087DE47FCE7E09FDFC9060C31211D1
:10072A00AFC312116C501CE47F7B7E09FDFC906004
:10073A00C31211AFD312116C40099060BE741EF03F
:10074A0002087DE47F457E09FDFC9060C31211AF6B
:10075A00C312116C501CE47FD87E08FDFC9060C364
:10076A001211AFD312116C40099060BE7428F002C6
:10077A00087DE47F9E7E08FDFC9060C31211AFC322
:10078A0012116C501CE47F3B7E08FDFC9060C31282
:10079A0011AFD312116C40099060BE7432F0020896
:1007AA007DE47F0F7E08FDFC9060C31211AFC31277
:1007BA00116C501CE47FAC7E07FDFC9060C31211E3
:1007CA00AFD312116C40099060BE743CF002087DF0
:1007DA00E47F727E07FDFC9060C31211AFC3121151
:1007EA006C501BE47F147E07FDFC9060C31211AFAE
:1007FA00D312116C40089060BE7446F08075E47F95
:10080A00ED7E06FDFC9060C31211AFC312116C504D
:10081A001BE47F427E06FDFC9060C31211AFD31227
:10082A00116C40089060BE7450F08047E47FBC7E33
:10083A0005FDFC9060C31211AFC312116C501BE48A
:10084A007F427E04FDFC9060C31211AFD312116C7B
:10085A0040089060BE745AF08019E47F4D7E03FD13
:10086A00FC9060C31211AFC312116C50069060BEA7
:10087A007464F07BFF7A2C797A9060BEE09060080D
:10088A00F0120CBF9060BEE090607EF09060C312E0
:09089A0011C7000000FFD20C227E
:0E1BCB004460E3000000004460DF0000000002
:10224400122079906102EEF0A3EFF090607FE060DD
:102254005ED3906103E09400906102E09408906082
:10226400DF50221211A3EF2401FFE43EFEE43DFD02
:10227400E43CFC9060DF1211BB9060E31211C700D4
:1022840000000080071211C700000000E47FC47E34
:1022940009FDFC9060DF1211AFC312116C40709005
:1022A40060DF1211C700000000E490607F805DC30E
:1022B400906103E094C7906102E0940B9060E34066
:1022C400221211A3EF2401FFE43EFEE43DFDE43CB1
:1022D400FC9060E31211BB9060DF1211C700000094
:1022E4000080071211C700000000E47FC47E09FDCE
:1022F400FC9060E31211AFC312116C40129060E3C2
:102304001211C70000000090607F7401F0D2112206
:101BD9004460CB000000004460CF00000000446076
:051BE900D30000000024
:102FA1007C007D2A12122DE47B307A43F9F802105D
:012FB100CD52
:0730A700EF75F01384FF2216
:10231400E4906000F0A3F09060D31211AFC000C04D
:1023240001C002C003122079E4FCFDD003D002D026
:1023340001D0001210279060D31211BB9060CB1211
:1023440011A3EF2401FFE43EFEE43DFDE43CFC90D8
:1023540060CB1211BB9060CF1211A3EF2404FFE4F1
:102364003EFEE43DFDE43CFC9060CF1211BBE47FF3
:10237400887E13FDFC9060CB1211AFC312116C4028
:102384005E9060D31211A39060CB1211AF1210CDE6
:102394009060D31211BB9060D31211A3122FA1909D
:1023A4006000EFF01230A7A3EFF0FB9060D312119E
:1023B400C7000000009060CB1211C700000000901D
:1023C40060CF1211C700000000906079EBF09060BC
:0F23D40000E0FF906076E4F0A3EFF0D207D203B1
:0123E30022D7
:10269F0002256FE493A3F8E493A34003F68001F2BD
:1026AF0008DFF48029E493A3F85407240CC8C3333C
:1026BF00C4540F4420C8834004F456800146F6DF0B
:1026CF00E4800B0102040810204080901A8DE47EF4
:1026DF00019360BCA3FF543F30E509541FFEE49300
:1026EF00A360010ECF54C025E060A840B8E493A3C7
:1026FF00FAE493A3F8E493A3C8C582C8CAC583CAF2
:10270F00F0A3C8C582C8CAC583CADFE9DEE780BEA9
:011BEE0000F6
:100FB900BB010689828A83E0225002E722BBFE0236
:090FC900E32289828A83E4932269
:100FD200BB010CE58229F582E5833AF583E02250D4
:100FE20006E92582F8E622BBFE06E92582F8E2221E
:0D0FF200E58229F582E5833AF583E4932238
:100FFF00BB010689828A83F0225002F722BBFE01D1
:02100F00F322CA
:10101100C5F0F8A3E028F0C5F0F8E582158270026A
:061021001583E038F02207
:0D102700EF2BFFEE3AFEED39FDEC38FC2218
:0E103400C3EF9BFFEE9AFEED99FDEC98FC22B7
:10104200E88FF0A4CC8BF0A42CFCE98EF0A42CFC4D
:101052008AF0EDA42CFCEA8EF0A4CDA8F08BF0A4CB
:101062002DCC3825F0FDE98FF0A42CCD35F0FCEB2A
:101072008EF0A4FEA9F0EB8FF0A4CFC5F02ECD39EF
:0F108200FEE43CFCEAA42DCE35F0FDE43CFC225C
:1010910075F008758200EF2FFFEE33FECD33CDCC16
:1010A10033CCC58233C5829BED9AEC99E582984099
:1010B1000CF582EE9BFEED9AFDEC99FC0FD5F0D676
:1010C100E4CEFBE4CDFAE4CCF9A88222B800C1B9A0
:1010D1000059BA002DEC8BF084CFCECDFCE5F0CBDE
:1010E100F97818EF2FFFEE33FEED33FDEC33FCEB17
:1010F10033FB10D703994004EB99FB0FD8E5E4F9D2
:10110100FA227818EF2FFFEE33FEED33FDEC33FCBE
:10111100C933C910D7059BE99A4007EC9BFCE99AB2
:10112100F90FD8E0E4C9FAE4CCFB2275F010EF2FF7
:10113100FFEE33FEED33FDCC33CCC833C810D707F7
:101141009BEC9AE899400AED9BFDEC9AFCE899F832
:0E1151000FD5F0DAE4CDFBE4CCFAE4C8F922C5
:0D115F00EF4BFFEE4AFEED49FDEC48FC228F
:10116C00EB9FF5F0EA9E42F0E99D42F0E89C45F0D9
:01117C002250
:10117D00E8600FECC313FCED13FDEE13FEEF13FF50
:03118D00D8F12274
:10119000E8600FEFC333FFEE33FEED33FDEC33FCBD
:0311A000D8F12261
:0C11A300E0FCA3E0FDA3E0FEA3E0FF22BF
:0C11AF00E0F8A3E0F9A3E0FAA3E0FB22C3
:0C11BB00ECF0A3EDF0A3EEF0A3EFF022A7
:1011C700A8828583F0D083D0821211DE1211DE123D
:1011D70011DE1211DEE473E493A3C583C5F0C58362
:1011E700C8C582C8F0A3C583C5F0C583C8C582C872
:0111F70022D5
:0C11F800A42582F582E5F03583F5832202
:09120400E0FBA3E0FAA3E0F922EB
:10120D00F8E0FBA3A3E0F925F0F0E582158270026A
:07121D001583E0FA38F0220E
:09122400EBF0A3EAF0A3E9F022CB
:10122D00EC8EF0A4CCC5F0CCCDF8EFA4CEC5F02D4E
:10123D00FDE43CFCE8A42EC8C5F03DFDE43CFCEF0C
:0D124D00A4FFE5F028FEE43DFDE43CFC229A
:100C5400E5082408F582E43460F583E00508229071
:100C64006005301A03906008E475F00112120D0259
:100C74000FB92013E97F2ED2138018EF540F24905C
:100C8400D43440D4FF30170BEF24BFB41A00500300
:100C94002461FFE50960021509050CE50C700205E5
:100CA4000B301A0E906005E475F00112120DEF027C
:100CB4000FFF022FF27403D21A8003E4C21AF5085C
:100CC400906005121224E4F509F50BF50CE50960B2
:100CD400077F20120C9780F5750AFFC214C213C255
:100CE40015C216C218C219C21B120C63FF700D3054
:100CF4001A057F00120CA8AF0CAE0B22B4255FC2FC
:100D0400D5C217120C63FF24D0B40A00501A75F030
:100D14000A780930D50508B6FF0106C6A426F620D0
:100D2400D5047002D21680D924CFB41A00EF50042F
:100D3400C2E5D217020EA9D21480C6D21380C0D243
:100D44001580BCD2D580BAD21880B47F20120C97FB
:100D54002015077401B5090040F1120C54FF120C60
:100D640097020CD1D21BD2198095120C54FB120C91
:100D740054FA120C54F94A4B7006797A7A0F7BFFB5
:100D840020152EE509602A7E008E82758300120FDD
:100D9400D260060EEE650A70F0C2D5EBC0E0EAC080
:100DA400E0E9C0E0EE120EF0D0E0F9D0E0FAD0E0D5
:100DB400FB120FB9FF60AAEBC0E0EAC0E0E9C0E0B3
:100DC400120C97D0E02401F9D0E03400FAD0E0FB13
:100DD400E50A0460DCD50AD980877BFF7A0E79ECBA
:100DE400D215809C791080027908C219C21B800830
:100DF400D2D5790A8004790AC2D5E50A047002F5CD
:100E04000AE4FAFDFEFF120C54FC7B0820141312B2
:100E14000C54FD7B1030130A120C54FE120C54FFB8
:100E24007B20EC3382D592D55013C3E43013069F54
:100E3400FFE49EFEE42014039DFDE49CFCE4CBF857
:100E4400C214EC700CCFCECDCCE824F8F870F3804B
:100E540017C3EF33FFEE33FEED33FDEC33FCEB331E
:100E6400FB994002FB0FD8E9EB301405F8D0E0C43D
:100E740048B214C0E00AEC4D4E4F78207B0070C29B
:100E8400EAB50A0040BCC0E0120EF2D0F0D0E02077
:100E94001404C4C0E0C4B214C0F0120C80D0F0D565
:100EA400F0EB020CD11212860D6E530DE8580D3F73
:100EB4004C0D3B420DEC4F0DF4440DF4490D5443DD
:080EC4000DFA550DDE460DDEAE
:100ECC00450DDE470F9A500D432D0D472E0D6A2B05
:100EDC000D4B230D68200F832A0D034800000D6273
:100EEC003F3F3F00790AA2D5201614301809B910DB
:100EFC00020404B9080104A2D520190250010420EF
:100F0C0015689215B509005034C0E07F20301619D1
:100F1C007F30A21572197218500F120F49C215C2E8
:100F2C0019C218C21B7F30800F301803E9C0E012C1
:100F3C000C97301803D0E0F9D0E0B509CC30181775
:100F4C007F30B9100C120C977F583017077F7880C0
:100F5C0003B90803120C973015057F2D020C977FEF
:100F6C0020201BF87F2B2019F322921580CF286E9E
:100F7C00756C6C2900D214120C543014F8C214780D
:100F8C000930D50108F6020D032D50434958120CB7
:100F9C00542403B405004001E4900F9593120C887F
:0D0FAC00743A120C88D216750904020DE883
:10125A00EF4E6012EF60010EEDBB010B89828A83AB
:10126A00F0A3DFFCDEFA2289F05007F709DFFCA9B8
:0C127A00F022BBFEFCF309DFFCA9F0220F
:10128600D083D082F8E4937012740193700DA3A3F7
:1012960093F8740193F5828883E47374029368600B
:0612A600EFA3A3A380DF0B
:00000001FF
